:020000040200F8
:102000000030124059310002A73100022530000291
:10201000AB310002AD310002AF3100020000000020
:102020000000000000000000000000007D410002F0
:10203000B331000200000000094000024D420002DE
:10204000B9310002B931000231410002A53A000263
:10205000953A0002794200026942000259420002A8
:10206000B9420002993F0002E5390002013C00023A
:10207000393C0002B9310002F93900021141000275
:1020800061410002C13B0002994200028942000204
:10209000B13B0002A13B00022D3A0002F13B0002DD
:1020A000693F0002B9310002D13B0002E13B00026E
:1020B00001410002F1400002E1400002A942000299
:1020C000D13E0002C13E000221410002B93F0002A0
:1020D000A93F0002793F0002893F0002C93F000288
:1020E000D93F0002E93F0002F93F0002B931000286
:1020F000B9310002B9310002D53900020200032DC6
:1021000000C00202FFFFFFFFFFFFFFFFFFFFFFFF17
:10211000FFFFFFFFFFFFFFFFFFFFFFFFFFFFFFFFCF
:10212000FFFFFFFFFFFFFFFFFFFFFFFFFFFFFFFFBF
:10213000FFFFFFFFFFFFFFFFFFFFFFFFFFFFFFFFAF
:10214000FFFFFFFFFFFFFFFFFFFFFFFFFFFFFFFF9F
:1030000000200002DFF810D000F0C0F900480047AF
:10301000B5280202AFF30080BC0C002030B5804719
:1030200030BD00BF1EF0040F0CBFEFF30880EFF3BC
:103030000980816943F6E932C0F20222104700B5E7
:103040001A4422F0030203460E480068C0050ED160
:10305000EFF3148080070AD5EFF3098082F3098823
:1030600001B40846984701BC80F3098800BDEFF31E
:10307000088082F3088801B40846984701BC80F3B1
:10308000088800BD04ED00E044F6206000BF401E4B
:10309000FCD128472DE9FE5F0746EFF31080EFF3E0
:1030A0001181EFF31282EFF313830FB440F69820EF
:1030B000C2F20000224D0560EFF30881EFF30982B0
:1030C000EFF31483EFF3038441608260C360046113
:1030D000781E0DD0B81E05D01A48016841F00101D4
:1030E00001600AE01848016841F00101016004E054
:1030F0001548016841F00401016043F28900C0F203
:1031000000200047114841688268C368046981F360
:10311000088882F3098883F3148884F30388BFF353
:103120004F8FBFF36F8F0FBC80F3108881F311882E
:1031300082F3128883F31388BDE8FE5F704700BFF7
:103140000531000204031140A8011040980A002034
:1031500040BA7047C0BA70471848016811F0010FB3
:1031600021F0010101600ED01548016821F0020133
:1031700001601448016841F4806101601248804791
:103180001248006800470E48016821F00201016002
:103190000C48016841F4806101600D4880470D488A
:1031A00000470D480047FEE7FEE7FEE7FEE7FEE7C3
:1031B000FEE7FEE7FEE7FEE7FEE700001001104035
:1031C000080000401C0000404D680002980A0020E2
:1031D000956700028D330002B52802022DE9F00345
:1031E0005FEA930C6FD000BF30F8024B31F8026BEE
:1031F00030F8025B31F8027B14FB06F84FEA6848AE
:1032000015FB07F9A8EB694822F8028B14FB07F4B9
:10321000641415FB06F504EB654422F8024B30F804
:10322000024B31F8026B30F8025B31F8027B14FB81
:1032300006F84FEA684815FB07F9A8EB694822F839
:10324000028B14FB07F4641415FB06F504EB6544CC
:1032500022F8024B30F8024B31F8026B30F8025B77
:1032600031F8027B14FB06F84FEA684815FB07F9B2
:10327000A8EB694822F8028B14FB07F4641415FBD1
:1032800006F504EB654422F8024B30F8024B31F8A6
:10329000026B30F8025B31F8027B14FB06F84FEA50
:1032A000684815FB07F9A8EB694822F8028B14FB64
:1032B00007F4641415FB06F504EB654422F8024B91
:1032C000BCF1010C90D113F0030304BFBDE8F0037F
:1032D000704700BF30F8024B31F802CB30F8025B88
:1032E00031F8026B14FB0CF77F1415FB06F8A7EB03
:1032F000684722F8027B14FB06F4641415FB0CFCEF
:1033000004EB6C4C22F802CB5B1EE3D1BDE8F0036A
:103310007047000000F5005000B20028BCBF00F567
:10332000004000B281090B4BA0EB8110400233F941
:10333000112003EB410100B2C0F5004349885A4314
:10334000121410FB01F000EB02400014400000B228
:1033500070470000A8A8020281090B4BA0EB811066
:10336000400233F9112003EB410100B2C0F50043E4
:1033700049885A43121410FB01F000EB024000147C
:10338000400000B270470000A8A80202064C074D9A
:1033900006E0E06840F0010394E807009847103425
:1033A000AC42F6D3FFF732FEE0B2020200B30202F3
:1033B0002DE9F05F0546002092469B46884606466A
:1033C000814640241BE0284641464746224600F0FD
:1033D0009EF853465A46C01A914110D311461846DA
:1033E000224600F085F82D1A67EB01084F46224669
:1033F0000120002100F07CF817EB00094E41201E4F
:10340000A4F10104DFDC484631462A464346BDE8C4
:10341000F09F00000649074A0868504343F239020A
:103420001044086040087047014908607047000078
:10343000240300206D4EC64110B5431A934209D2B1
:103440008318881803E010F8011D03F8011D521EAF
:10345000F9D210BD40EA01039B0703D009E008C977
:10346000121F08C0042AFAD203E011F8013B00F849
:10347000013B521EF9D210BDD2B201E000F8012B7F
:10348000491EFBD270470022F6E710B513460A46E4
:1034900004461946FFF7F0FF204610BD421C10F805
:1034A000011B0029FBD1801A704730B5044600206B
:1034B000034600E05B1C934203D2E05CCD5C401B02
:1034C000F8D030BD30B50B46014600202022012443
:1034D00009E021FA02F59D4205D303FA02F5491BE2
:1034E00004FA02F52844151EA2F10102F1DC30BDF8
:1034F000202A04DB203A00FA02F1002070479140B4
:10350000C2F1200320FA03F3194390407047202AA8
:1035100004DB203A21FA02F00021704721FA02F37D
:10352000D040C2F1200291400843194670472DE96E
:10353000FE4F804681EA0300C00F0C46009021F048
:10354000004123F00045B8EB0200A94105D24046F6
:10355000214690461C460B46024623F0004010438D
:1035600047D0270DC7F30A00C3F30A510290401A4F
:10357000019040286BDAC3F3130040F4801B0098DD
:10358000924620B10023D2EB030A63EB0B0B0198A8
:103590005946C0F140025046FFF7AAFF06460D46C5
:1035A00050465946019A00F07BF910EB0800614142
:1035B000002487EA115284EAE7731A4340D0009A44
:1035C00062B3019A012A4FEA075215DC001B61EB36
:1035D00002014FF0004202EA0752CDE90042001C0E
:1035E00041F5801132462B4600F07BF903B0BDE86F
:1035F000F08F40462146F9E7001B61EB0201001CF9
:1036000041F5801300185B412018A2F5001747EB25
:10361000030140EAD570B6196D4111E06D084FEA1B
:10362000360645EAC0754FEA0752001B61EB0201FE
:10363000001C41F5801149084FEA30000019514142
:1036400032462B4603B0BDE8F04F00F03BB900987E
:10365000012240000023D0EB020263EBE0730098EC
:1036600021464FEAE074B8EB000061EB0401E9E7A2
:1036700083F000435BE781F0004158E72DE9FE4FFE
:1036800081EA030404F0004421F0004100944FF06B
:10369000000B23F0004350EA01045ED052EA030419
:1036A0005BD0C3F30A54C1F30A552C44A4F2F3349B
:1036B0000194A0FB0254C1F3130141F48011C3F340
:1036C000130343F4801301FB024400FB034E840AFE
:1036D000970A44EA815447EA8357A4FB0768029596
:1036E0008D0A05FB07854FEA932C04FB0C54270534
:1036F000029D4FEA065847EA1637B5EB08056EEB10
:10370000070C870E920E47EA811742EA8312A7FB45
:103710000201B6EB0B0164EB00042B0D43EA0C3302
:103720005E1844EB1C50DA465146E7FB0201C5F334
:1037300013044FEA0B3343EA14534FEA0432019C5B
:1037400043EA0603A4F10C040294009CCDE900B402
:1037500000F0C7F803B0BDE8F08F00200146F9E79C
:103760002DE9F04D81EA030404F0004B21F00045FF
:1037700014464FF0000A23F0004150EA050220D021
:1037800054EA01021DD0C5F30A570246C5F31303DC
:10379000C1F31300C1F30A5640F4801543F48013BB
:1037A000A7EB0608101BD64608F2FD3873EB0500A0
:1037B00002D308F1010801E092185B41B8F1000F53
:1037C00003DA00200146BDE8F08D00204FF480119F
:1037D000064684460EE0171B73EB050705D3121B44
:1037E00063EB050306434CEA010C49084FEA30003D
:1037F00092185B4150EA0107EDD152EA030012D062
:1038000082EA040083EA0501084305D0101BAB419E
:1038100006D20122002306E000224FF0004302E01E
:103820006FF0010253101AEB06004CEB085110EB3D
:103830000A0041EB0B01BDE8F04D00F043B8C1F3C5
:103840000A52C1F3130140F2FF3341F480119A424E
:1038500002DA00200146704740F233439A42A2F256
:10386000334202DC5242FFF752BEFFF741BE000076
:1038700030B5041E71F1000404DB4FF000444042F7
:1038800064EB0101141E73F1000405DB1C464FF0CC
:103890000043524263EB0403994208BF904230BD9B
:1038A000202A06DBCB17203A41FA02F043EAE07304
:1038B00006E041FA02F3D040C2F1200291400843F1
:1038C0001946704710B5141E73F1000408DA401C45
:1038D00041F1000192185B411A4301D120F001002F
:1038E00010BD2DE9F04D92469B4611B1B1FA81F21F
:1038F00002E0B0FA80F220329046FFF7F9FD04466C
:103900000F4640EA0A0041EA0B0153465A46084373
:1039100013D0114653EA010019D0C8F140025046B5
:10392000FFF7F5FD05460E46504659464246FFF75D
:10393000DFFD084305D0012004E020463946BDE8FC
:10394000F08D0020054346EAE0762C4337430A9881
:103950006305E40AA0EB08000022FD0A44EA47548C
:103960000A3002D500200146E9E701051019694136
:10397000DDE9084500196941BDE8F04DA2E770B5E1
:103980008C1810F8015B15F0070301D110F8013B0A
:103990002A1106D110F8012B03E010F8016B01F891
:1039A000016B5B1EF9D12B0705D40023521E0DD4E9
:1039B00001F8013BFAE710F8013BCB1A921C03E037
:1039C00013F8015B01F8015B521EF9D5A142D8D36F
:1039D000002070BD02482421C06807F05BBD0000D4
:1039E000000000200348016841F02001016001202F
:1039F0001FF0F8BB0000134002480921C06807F01F
:103A000049BD0000000000201FF00AFF054C064DD4
:103A10002068416A286888470028F9D11FF092FE83
:103A2000F6E70000040000201400002002481021E6
:103A3000C06807F02FBD00000000002004480068A7
:103A40000122C0F308010A20891E07F04BBD0000C7
:103A500004ED00E005480068C00505D10448406851
:103A6000002801D0406B00477047000004ED00E0E3
:103A70000000002005480068C00505D104484068E2
:103A8000002801D0806B00477047000004ED00E083
:103A90000000002002480121C06807F0FBBC0000C4
:103AA0000000002002480221C06807F0F3BC0000BB
:103AB0000000002010B5C368D9B280290FD98468EE
:103AC000A06800B101204B2213A101F0ABFBA1685B
:103AD00019B1E068BDE81040084772B6FEE7044639
:103AE000008A616982B2D8B2124B1B68984707F00E
:103AF000CBF800280FD1E068022806D004280AD1AC
:103B0000A069BDE8104007F0B9B8A08BA169BDE875
:103B1000104007F0B1B810BD4863695F696E746505
:103B2000726E616C5F7472616E73706F72742E630B
:103B300000000000480100201FB541680A2914D088
:103B400007DC09B105291FD104B0BDE81040FFF71B
:103B5000B1BF0B2919D00C2916D1018AC26840695E
:103B600004B089B2BDE8104010470C491EC98DE869
:103B70001E00C168019141690291008AADF80C00F4
:103B80001021684606F0B8FE1FBD018A8AB241695D
:103B9000C06804B0BDE8104008F036BDCC90020209
:103BA00002480E21C06807F075BC0000000000202C
:103BB00002480F21C06807F06DBC00000000002023
:103BC00002480B21C06807F065BC0000000000201F
:103BD00002481221C06807F05DBC00000000002010
:103BE00002481321C06807F055BC00000000002007
:103BF00002481121C06807F04DBC00000000002001
:103C000070B50B4D686D400611D52C6E402002F04A
:103C100041FE286EA0432866002C08D00548007895
:103C2000400604D52046BDE8704024F041BD70BD7B
:103C3000000011402C0000202DE9F04F8FB0002033
:103C4000DFF838B2DFF83892DFF8388242F26C5A87
:103C50000090D9F858004D460990D9F854005646BE
:103C6000099C0A9034403040A04208D098F80000E7
:103C7000800604D5082209A9052024F07FFD9BF8C1
:103C80000200800601D524F4A274002C7AD098F8A2
:103C90000000000604D5E1B2220A082024F0EAFC64
:103CA000204602F0F7FDB24600272E46A00604D5B6
:103CB00024F0A2F8012002F029FAA00401D516F0A0
:103CC0008FFF60077ED5D6F80C51002D7AD06E4854
:103CD00005432D1F049595F8C6008DF8180095F83A
:103CE00026008DF81900D5F8BC000590D5F8B8006D
:103CF0000090B5F8C610C3B2CAB2032B02D0042B91
:103D000043D126E0052A06D0162A1CD0172A1AD03D
:103D1000182A3AD117E05D49086B0290007900F04B
:103D20000F00072831D10298407980062DD5002058
:103D3000C6F80C01886B16F02BFF5448029910301E
:103D400013F03EFA17E00020C6F80C01D5F8C000C9
:103D50000FE04F4AC0F30B2052F82000A8B103290E
:103D600011D0172911D1416979B10021C6F80C1180
:103D7000406910F07BFF012704A97804009A16F02F
:103D8000E4FF09E076E01DF091FF04A94FF4003054
:103D9000009A16F0DAFFAFB195F8B800032801D108
:103DA00013F07CFA77B1E0051DD4756D51460D40D6
:103DB00000204CF25032EB0506D4756D401C0D40CE
:103DC000904200E00FE0F6DB284602F063FD42F28D
:103DD000040084432C4340F257122EA1C4F3002068
:103DE00001F020FA62E7600502D503201FF0FAF91E
:103DF000600616D5306E3546061E05D098F80010C0
:103E0000490601D524F054FC300E800709D5D5F8B9
:103E10000C0130B11C49084310F8C01F41F00101EA
:103E20000170E0051BD5C7B1049830F8681FADF8E4
:103E30001C104088ADF81A009DF81910884204D271
:103E40000020ADF81A10ADF81C0004A94FF00210C4
:103E5000009A16F07AFF600601D515F071FE98F809
:103E6000000000067FF5F5AEE1B2220A092024F039
:103E700001FCEEE60FB0BDE8F08F0000500100201D
:103E8000000011402C00002000001040C00600205F
:103E9000A80C00206474626C652E6300074A131D31
:103EA0005980116860F307011160106840F40070D8
:103EB000106010688005FCD47047000008041140B1
:103EC00002481C21C06807F0E5BA0000000000208D
:103ED00002481B21C06807F0DDBA00000000002086
:103EE00000F01F02012191404009800000F1E02014
:103EF000C0F88012704700F01F0201219140400974
:103F0000800000F1E020C0F800117047C906090EDA
:103F1000002806DA00F00F0000F1E02080F8141D00
:103F2000704700F1E02080F800147047024A114009
:103F3000014302480160704780FFFF1F08ED00E069
:103F400000B589B0416803910021CDE90110044812
:103F500069460068826903480068904709B000BD5F
:103F6000040000201800002002481421C06807F057
:103F700091BA00000000002002481521C06807F037
:103F800089BA00000000002002481621C06807F02E
:103F900081BA00000000002002480721C06807F035
:103FA00079BA00000000002002481E21C06807F016
:103FB00071BA00000000002002481D21C06807F00F
:103FC00069BA00000000002002481F21C06807F005
:103FD00061BA00000000002002482021C06807F0FC
:103FE00059BA00000000002002482121C06807F0F3
:103FF00051BA00000000002002482221C06807F0EA
:1040000049BA00000000002001484068806C004769
:10401000000000202F492E48C1F890012E48C1F819
:1040200094014FF40040086342F2412048632B485A
:10403000826942F080428261026922F07F7202F559
:1040400040020261826922F4700202F580128261EC
:10405000826942F47022826182696FF30F0210322A
:1040600082614A6A22F4601202F500224A624A6AB8
:1040700022F4F85202F500724A62826922F07C5200
:1040800002F1C8528261D1F8602122F4FC0202F5EB
:10409000B402C1F86021016801680E2262F31F7149
:1040A00001608168C90D21F0F00141F030028168A2
:1040B00062F3DE518160C168C168022262F38A1135
:1040C000C16001680168092262F344010160704720
:1040D0000706020400001040010304050020104000
:1040E00002481721C06807F0D5B900000000002081
:1040F00002481821C06807F0CDB900000000002078
:1041000002481921C06807F0C5B90000000000206E
:1041100002480821C06807F0BDB900000000002077
:1041200002482321C06807F0B5B900000000002054
:1041300002480021C06807F0ADB90000000000206F
:10414000014800F003B80000B800104001460868BC
:104150000A688242FBD10A688242F8D170470000A7
:1041600002480A21C06807F095B90000000000204D
:104170000149887270470000D4000020014840685F
:10418000406C00470000002010B54FF0804460688C
:10419000400409D500F00CF8216811F00F0100D19E
:1041A0000121B0FBF1F010BD004810BD00366E01DA
:1041B0000C48D0F8A801C00211D54FF08041086C1E
:1041C0000A6CC0F34500C2F3C53210FB02F0064A88
:1041D000096CB2FBF0F0C1F3C711484370470020EF
:1041E000704700000000104000366E014FF0804123
:1041F000012806D0022803D1C86820F08000C860DA
:104200007047886820F48440886070474FF0804190
:10421000012806D0022803D1C86840F08000C86099
:104220007047886840F48440886070474FF0804150
:10423000012806D0022803D1C86840F08000C86079
:104240007047886840F4844088607047014840683F
:10425000006C00470000002002480321C06807F0FE
:1042600019B900000000002002480421C06807F0CE
:1042700011B900000000002002480521C06807F0C5
:1042800009B900000000002002480C21C06807F0B6
:1042900001B900000000002002480D21C06807F0AD
:1042A000F9B800000000002002481A21C06807F099
:1042B000F1B800000000002002480621C06807F0A5
:1042C000E9B80000000000200FB4054B10B503A9A9
:1042D000044A029800F0FEF810BC5DF814FB0000E0
:1042E00081700002280300200FB4084B10B504A908
:1042F00002AA039800F0EEF8044602A9002000F09C
:1043000097FE204610BC5DF814FB000031500002FF
:10431000014B024A00F0E0BA81700002280300203D
:1043200070477047704770477047704770477047D5
:1043300002E008C8121F08C1002AFAD1704770476E
:10434000002001E001C1121F002AFBD170470000CC
:104350002DE9FF5F82B00021DDE90430020DDDF8B8
:1043600040B0034318D044F61050A2F2FF3242434B
:104370001514119801281FD0A5EB0B00401C5FEA13
:10438000000A4FF000064E4FDFF83891B046504615
:1043900015D5CAF1000413E0119801244AA301289D
:1043A00001D16FEA0B010298119AC0E90031C0E90E
:1043B000024206B0BDE8F09FCBF10000DFE7044603
:1043C0000021404A491842EB0450CDE9001012E0A8
:1043D000E00707D032463B4640464946FFF74EF9D4
:1043E0008046894632463B4610461946FFF746F955
:1043F00006460F466410002CEAD1DDE90401DDE930
:104400000023BAF1000F06DAFFF738F942464B46AF
:10441000FFF734F905E0FFF7A3F942464B46FFF7F3
:104420009FF904460E460022284BFFF721FA03D8D5
:104430004FF0FF30014607E00022254B2046314671
:10444000FFF775F8FFF7FBF9102409E0002C0ADBF1
:104450000A220023FEF7ACFF039B30321A55641E7C
:1044600050EA0102F2D1641C039AC4F1110314440E
:10447000119A012A03D0012208430DD10AE0084312
:1044800004D000204FF0110B119072E7A3EB0B0545
:104490006D1E0DE05B4504DD4FF0000205F10105E6
:1044A00004E003DA4FF00002A5F10105002AECD088
:1044B00002981199C0E90231C0E9004579E700008E
:1044C000000014400000F03F300000000000F04306
:1044D0000000E03F2DE9FF4F8DB00F460546002656
:1044E00006E025280BD0DDE90F1290476D1C761CE5
:1044F00028780028F5D111B03046BDE8F08F0024AF
:10450000A246A1460122E94900E0044315F8013F13
:10451000203B02FA03F00842F7D128782A2810D06D
:104520006FF02F022878A0F13001092914D80AEB86
:104530008A0102EB410144F0020400EB010A6D1C08
:10454000F0E701CF5FEA000A03D544F40054CAF152
:10455000000A44F002046D1C28782E2817D115F8A3
:10456000010F44F004042A280ED06FF02F0228789F
:10457000A0F1300109290AD809EB890102EB4101B8
:1045800000EB01096D1CF2E757F8049B6D1C2878BD
:104590006C280FD006DC4C2817D068280DD06A286C
:1045A00014D104E0742810D07A280FD10DE044F41F
:1045B00000140AE044F4801401E044F440146978E3
:1045C000814202D104F580146D1C6D1C28786E2880
:1045D0001ED00CDC632830D004DC00288BD0582897
:1045E00011D19FE0642867D069280CD164E073285A
:1045F0002DD004DC6F2872D0702804D194E0752887
:104600006ED078286DD0DDE90F129047761C4BE113
:10461000C4F30250022806D0032809D0042801CF91
:1046200009D0066040E101CFF117C0E900613BE12C
:1046300001CF068038E1067036E117F8040B8DF8DB
:10464000000000208DF80100EB46012003E057F840
:1046500004BB4FF0FF3061074FF0000102D40DE0C2
:1046600008F10101884649450FDA8045F8DB1BF85F
:1046700008100029F4D108E008F1010188468142C0
:10468000FADB1BF808100029F6D1DDE90F23AAEBAD
:1046900008008146214600F09DFC304400EB0806EE
:1046A00004E0DDE90F121BF8010B9047B8F1010897
:1046B000F7D221464846F2E00A21C4F302524FF0F5
:1046C000000B0891022A04D001CFC117032A09D098
:1046D0000AE0FF1D27F00707F7E8020108E02CE0D9
:1046E0001EE01FE000B2C117042A01D140B2C11779
:1046F000021E71F1000206DA0023D0EB030063EB27
:1047000001012D2202E0220504D52B228DF8242060
:10471000012203E0E20701D02022F7E7904653E0B0
:104720000A210BE0102109E010214FF0000B44F0AA
:1047300004044FF00809089103E008214FF0000B32
:104740000891C4F30252022A04D001CF0021032AA7
:1047500006D006E0FF1D27F00707F7E8020103E097
:1047600080B2042A00D1C0B24FF0000822072BD536
:104770002A78702A07D0DDF820C08CF0100C5CEA93
:104780000B0C05D00EE040228DF82420012208E019
:1047900050EA010306D030238DF824308DF825200F
:1047A00002229046089B83F0080353EA0B030BD1C7
:1047B00050EA010201D1620706D530228DF824208B
:1047C0004FF00108A9F101092A78582A04D038A22B
:1047D0000B9208AA0A920BE03AA2F9E75B46089A04
:1047E000FEF7E6FD0B9B9B5C0A9A521E0A92137021
:1047F00050EA0102F2D10A98ADEB000000F1200B63
:10480000600702D524F4803401E04FF00109D94556
:1048100002DDA9EB0B0000E0002000EB0B0141449E
:104820000890AAEB010AE00306D4DDE90F23214634
:10483000504600F0CFFB06444FF0000908E009A9FC
:1048400011F80900DDE90F12904709F10109761C02
:10485000C145F4DBE0030CD5DDE90F2321465046CA
:1048600000F0B8FB064404E0DDE90F123020904769
:10487000761C0899481E08900029F5DC08E00A9883
:104880000A990078491C0A91DDE90F129047761CBD
:10489000BBF10001ABF1010BF1DC21465046DDE933
:1048A0000F2300F073FB06446D1C21E6092801006C
:1048B0003031323334353637383961626364656696
:1048C0000000000030313233343536373839414258
:1048D00043444546000000002DE9FF4F95B09A463D
:1048E000884606460025EEE1252877D10024274694
:1048F000F94A0121039400E0044316F8013F203BEC
:1049000001FA03F01042F7D130782A2811D06FF065
:104910002F033078A0F13002092A16D8039A44F008
:10492000020402EB820203EB42021044761C039065
:10493000EFE758F8042B0392002A03DA504244F4BC
:104940000054039044F00204761C30782E2816D1CF
:1049500016F8010F44F004042A280DD06FF02F023E
:104960003078A0F13003092B09D807EB870302EB5D
:104970004303C718761CF3E758F8047B761C30789D
:104980006C280FD006DC4C2817D068280DD06A2878
:1049900014D104E0742810D07A280FD10DE044F42B
:1049A00000140AE044F4801401E044F440147278E6
:1049B000824202D104F58014761C761C3078662879
:1049C0000BD013DC582877D009DC002875D0452897
:1049D000F6D04628F4D047281AD193E118E063288E
:1049E00035D0642879D0652812D18BE1702873D036
:1049F00008DC6728F1D069286FD06E280DD06F28A9
:104A000006D1ACE073282CD0752874D0782853D008
:104A10005246179990476D1C54E1C4F30250022886
:104A200009D003280DD0D8F8001004280DD00D604F
:104A300008F1040846E1D8F80010EA17C1E900526D
:104A4000F6E7D8F800100D80F2E70D70F0E718F8DF
:104A5000041B8DF8001000208DF80100EB460120AA
:104A600003E058F804BB4FF0FF3061074FF000013E
:104A700002D40DE009F101018946B9420FDA8145FE
:104A8000F8DB1BF809100029F4D108E009F1010155
:104A900089468142FADB1BF809100029F6D10398F8
:104AA0005346A0EB090721463846179A00F0A9FAA9
:104AB000284400EB090507E044E008E10DE01BF89D
:104AC000010B524617999047B9F10109F7D25346A5
:104AD00021463846179AF2E039E00A21C4F302521F
:104AE0004FF0000B0091022A06D058F8040BC117B2
:104AF000032A09D00AE023E008F1070020F00702AA
:104B0000F2E80201904605E000B2C117042A01D183
:104B100040B2C117002906DA0A460021404261EB83
:104B200002012D2202E0220504D52B228DF804205B
:104B3000012203E0E20701D02022F7E7914657E087
:104B40000A2100E010214FF0000B00910BE0102132
:104B50004FF0000B44F004040827009103E0082004
:104B60004FF0000B0090C4F30252022A05D058F80F
:104B7000040B0021032A08D008E008F1070020F008
:104B80000702F2E80201904603E080B2042A00D155
:104B9000C0B24FF0000922072AD53278702A07D018
:104BA000DDF800C08CF0100C5CEA0B0C05D00EE0B8
:104BB00040228DF80420012208E050EA010306D0CB
:104BC00030238DF804308DF8052002229146009B99
:104BD00083F0080353EA0B030AD150EA010201D122
:104BE000620705D530228DF804204FF001097F1EA1
:104BF0003278582A04D039A20C920CAA02920BE007
:104C00003BA2F9E75B46009AFEF7D2FB0C9B9B5C4C
:104C1000029A521E0292137050EA0102F2D10298D7
:104C200004A9081A00F1200B600702D524F480348F
:104C300000E001275F4502DDA7EB0B0000E000204C
:104C400000EB0B01009003984944401A0390E003E5
:104C500006D453462146179A039800F0D2F905442A
:104C6000002706E001A85246C05D179990476D1CC9
:104C70007F1C4F45F6DBE0030CD553462146179ABF
:104C8000039800F0BEF9054404E03020524617991D
:104C900090476D1C0099481E00900029F5DC08E043
:104CA0000298029952460078491C02911799904740
:104CB0006D1CBBF10001ABF1010BF1DC5BE100F01D
:104CC00077F90544761C307800287FF40DAE19B0D2
:104CD0002846BDE8F08F000009280100303132334A
:104CE0003435363738396162636465660000000028
:104CF0003031323334353637383941424344454612
:104D000000000000600700D4062708F1070020F02B
:104D10000700F0E80223804603F0004C5FEA0C0035
:104D200001D097A009E0200501D596A005E0E00795
:104D300001D095A001E0AFF24C001390307823F041
:104D4000004365280CD006DC452809D046281DD034
:104D500047287FD13BE0662818D067287AD136E013
:104D60000021112F01DB112000E0781CCDE90001AA
:104D700004A90CA8FFF7ECFADDE90D010C9A4FF03D
:104D8000000B07F10109109200914EE04FF0004036
:104D90000097CDE9011004A90CA8FFF7D9FADDE9C5
:104DA0000D020C9B0F994FF0000B9146109300924F
:104DB00011B9791C00EB0109B7EB090003D4C0F16C
:104DC000FF3B07F10109A9EB0700019042E0012F29
:104DD00000DA01270021112F01DD112000E0384603
:104DE000CDE9000104A90CA8FFF7B2FADDE90D0135
:104DF0000C9A00914FF0000BB946109221070FD486
:104E0000009A4A4503DA914601E0A9F10109B9F196
:104E1000010F05DD109AA9F10101515C3029F4D090
:104E2000B84202DA10F1040F03DA0121CDE90110D2
:104E300010E0002803DC8344A9EB000102E0411CE0
:104E4000494500DD8946A0EB0B00401C01904FF066
:104E500000400290200705D40198484502DB4FF03E
:104E6000FF30019000208DF84B0002980DF14B07A8
:104E7000B0F1004F25D002200C902B200D9002980D
:104E800000280CDA404202902D200D9007E00A2104
:104E90000298FEF717FB3031029007F8011D0C99BC
:104EA000481E0C900029F2DC02980028EFD1791EF0
:104EB0000D980870307800F0200040F0450007F8A9
:104EC000020D11A8C01BC01D02901398007800B1FC
:104ED000012000EB0901019801EBE0710298014407
:104EE0000398401A401E0390E00306D4534621461F
:104EF000179A039800F085F805441398007818B1C4
:104F00005246179990476D1CE00323D5534621461E
:104F1000179A039800F075F805441BE0BBF1000FE9
:104F200007DB0098584504DD1098179910F80B001E
:104F300001E0179930205246904701980BF1010B80
:104F4000401E05F10105019004D12E20524617990B
:104F500090476D1CB9F10001A9F10109DEDC05E003
:104F600017F8010B5246179990476D1C0299481E7D
:104F700002900029F4DC53462146179A03989EE6D6
:104F80002D0000002B000000200000002DE9F04162
:104F9000044600251E461746880404D405E0394619
:104FA0002020B0476D1C641EF9D52846BDE8F0816D
:104FB0002DE9F041044600251E461746880404D416
:104FC00005E039462020B0476D1C641EF9D52846FF
:104FD000BDE8F0812DE9F041044600251E469046CB
:104FE000C80301D5302700E02027880404D505E058
:104FF00041463846B0476D1C641EF9D52846BDE8C9
:10500000F0812DE9F041044600251E469046C80374
:1050100001D5302700E02027880404D505E041466B
:105020003846B0476D1C641EF9D52846BDE8F081AE
:105030000A68531C0B601070704700002DE9F05F88
:10504000064600880B46C0F30B00834605F0C2FB02
:105050000400707875884FEA10170AD005F104082B
:10506000984509D02A1DBDE8F05F19463448FFF77E
:105070005BB9594633A01DE001F0ECF907F00301DC
:10508000002740F2031AE061012903D002292BD046
:105090003BA00FE0A08C58B14119B1F5827F0DD330
:1050A0005B4652464648FFF73FF9A784BDE8F09FAC
:1050B000594644A0BDE8F05FFFF736B9216A2A4699
:1050C0000844311D0E30FEF7B7F9A08C284481B298
:1050D000A184E08C083081422ED3206A0E3005F086
:1050E000E5FBE784A78427E0A08C20B1594644481B
:1050F000FFF71AF9A784B788381D8146854205D382
:105100001FFA88F1304605F0D1FB15E0FF2D07D9D5
:105110005B465246291DBDE8F05F3A48FFF704B9E7
:10512000206A2A1D31460E30FEF786F9A4F8248045
:10513000E784216AA1F81090BDE8F05F05F0E8BEB1
:10514000B4AF02026863692E633A2061636C5F68E2
:10515000616E646C65722063616C6C656420776954
:105160007468206E6F6E2D72656769737465726501
:10517000642068616E646C65202575210000000064
:105180006863692E633A2061636C5F68616E646C6A
:1051900065722063616C6C6564207769746820694E
:1051A0006E76616C6964207061636B657420626FF8
:1051B000756E6461727920666C6167732025750075
:1051C00070B0020241434C20436F6E7420467261FE
:1051D000676D656E7420627574206E6F20666972EB
:1051E000737420667261676D656E7420666F7220DD
:1051F00068616E646C65203078253032780000007C
:1052000060AF0202C4B0020210B505494FF6FF7349
:1052100002E084788C54C01C02889A42F9D110BDF7
:105220000000124010B50B46002803D11146184665
:1052300008F0DCFD10BD70471CB506498C68002CD9
:1052400007D0002100910191B0F804010B46032220
:10525000A0471CBD3400002070B50C4600281DD1AD
:10526000052C1BD20E4D4FF4927655F8240020B930
:10527000304601F003F845F8240005000ED0314611
:105280002846FEF700F9A5F8044105F5807120468F
:1052900003F086F94FF0FF30A5F8060170BD00005D
:1052A00078030020F8B51646028A069F521A94B277
:1052B000C288D2050AD50B4A55683DB100930089D2
:1052C0000A46014633463846A847F8BD9C4200D9F5
:1052D0001C464069224601443046FEF7ADF82046A0
:1052E000F8BD000034000020042106F09DBA04211E
:1052F00007F098BA024908600421024807F008BA8A
:105300004000002069580002024948600421024818
:1053100007F0FEB94000002069580002042106F0A1
:1053200083BA042107F07EBA00B58BB0D0F8200113
:10533000009023E0684600F034FABDF80810002918
:105340001ED0BDF806200FA0FEF7EAFFBDF806004C
:105350008005039808D506A91EF042FD06A823F093
:1053600047FC014611A001E0018811A0FEF7D8FF1B
:10537000BDF8101010A0FEF7D3FF00980028D9D177
:105380000BB000BD48616E646C653A203078253002
:1053900034782C20666C6167733A2030782530347D
:1053A000782C20757569643A200000002573000090
:1053B00025303478000000002C2076616C75655F24
:1053C0006C656E3A2025752C2076616C75653A20E7
:1053D00000000000064A30B41468002C06D00B46CA
:1053E000A4460246002130BC0420604730BC704710
:1053F000480000207CB51446042819D120783E28A6
:105400003FD016DC052855D0082801D030280FD110
:10541000B2F80350284600F0CFF8040008D0284620
:105420001FF0F7FC04F8FD0F28461FF06DF96070BF
:105430007CBDD7285ED0D8284DD0DA28F8D1608836
:1054400000F0BAF80500F3D0B5F8040105F0C2F990
:105450000600EDD02079317A8842E9D16946601D95
:105460001EF0D0FC062231466846FEF71EF80028E2
:10547000DED1E07A85F8FF00B5F80401FFF751FFAF
:105480007CBDA078012803D00A2801D02928F7D1B3
:10549000D41C9188D078FFF7DFFEB4F8010000F04B
:1054A0008BF80500ECD0B4F8010020F0D7FCA5F88B
:1054B00006017CBDB2F80350284600F07DF80400D8
:1054C000F7D000F05FFC204600F0DEFE0F49002020
:1054D00041F825007CBD608800F06EF80500F9D029
:1054E000B4F80B0001B2A5F8061109A0FEF719FFE8
:1054F000284608E0508800F05FF80028EAD04FF016
:10550000FF31A0F8061100F091FA7CBD780300206D
:10551000534D5F4556454E545F4944454E5449549A
:10552000595F5245534F4C56494E475F535543437D
:105530004545444544206964202575003EB50C4628
:105540008DF8080000208DF80920009001900223BA
:1055500002AA0421204607F057FB3EBD7FB50DF19E
:10556000200C14469CE864008DF80800ADF8093062
:10557000ADF80B20ADF80D10CDE90056072302AAB7
:105580000421204607F040FB7FBD70B515000C4696
:1055900003D0D0F82001206008E0002070BD204634
:1055A00000F0FFF82089A84203D020680028F6D137
:1055B00070BD012070BD0000052803D2024951F8DA
:1055C0002000704700207047780300202DE9FF413C
:1055D0001D460B7816460024B0F800214F1D9C464E
:1055E0000E2B71D00BDCA3F102030B2B15D2DFE8DD
:1055F00003F01C142F1438144A145B146100182B88
:1056000071D006DC102B68D0122B7AD0162B04D167
:105610007DE0522B69D0D22B67D0614645A0FEF7C2
:105620007FFE04B02046BDE8F0810646B1F8014097
:1056300006F0E8FF844202D2A6F8004101E0A6F895
:10564000000103242C70B6F80001A5F80100E8E77A
:10565000B1F803300093B1F80130294603F076FD2C
:105660000FE0F61FB4B2B1F80570B1F80360CB1DBE
:10567000CDE90243CDE90067B1F80130294603F0D6
:10568000D1FC0446CDE70C462946072E01D802235B
:1056900000E01023B4F80350CDE900530297B4F8AA
:1056A000013003F027FFECE7B1F80130294604F0A0
:1056B0003DF8E6E7B1F803300093B1F80130294630
:1056C00003F01AFEDDE7FFE7491C761E0091C6F3E2
:1056D0004F03294603F0B8FFD3E70C462946072EAF
:1056E00004D8022303E018E00BE01CE01023B4F818
:1056F0000350CDE900530297B4F8013003F06CFE7B
:10570000BFE700922B46324604F09CF8B9E70092BE
:105710002B46324603F092FDB3E700922B46324609
:1057200003F04EFCADE700922B46324604F05AF8E7
:1057300077E70000556E68616E646C6564204154C3
:105740005420436F6D6D616E643A20253032582CC1
:1057500020444154413A20001CB50B4B1C68002CDE
:1057600010D0B6238DF8003005238DF801308DF868
:105770000200ADF80310ADF80520072300216A46AA
:105780000420A0471CBD00004800002010B580B2D6
:10579000FFF712FF002803D0BDE8104000F0F2BA76
:1057A00010BD10B501680A8882806AB14B88C38039
:1057B0008C8804818C1DC4609B050CD5A2F1160356
:1057C000038201F116030BE00021C1800181C16059
:1057D0000182416106E0A2F10803038201F108039E
:1057E00011444361016010BD70B5044600890D4647
:1057F00000281BD0022A08D0E08880050BD5102293
:10580000E068FDF752FE80B111E009882046BDE84E
:10581000704000F00EB8084605F0C0FE002805D024
:10582000E168A8890988884201D1012070BD002063
:1058300070BD70B5044600890D46002810D0E08880
:105840008005E06808D505F0A9FE002808D0E068CA
:105850008089A84203D004E00088884201D1012059
:1058600070BD002070BD00002DE9F041194C0646C6
:105870001F4615468846042809D0082E28D12878C6
:10588000C00720D0D4F800C01FE03046E047287899
:1058900078281DD1D4F804C0BCF1000F08D03B46D5
:1058A0002A4641463046E04704F090FE00280FD0DB
:1058B0002468002C0CD03B462A4641463046A4467C
:1058C000BDE8F0416047D4F804C0BCF1000FDCD162
:1058D000BDE8F081400000202DE9F0410F4615465B
:1058E000044601461E46127828A0FEF71AFD042C35
:1058F0000CD0082C48D13846FFF75EFE040043D098
:1059000029781E2909D0522919D01FE02878782833
:105910003AD1BDE8F04100F011B9B4F80801A8B1DE
:1059200004F5867000F098FDB4F808210020A4F872
:105930000801B4F80411BDE8F041FFF70DBF32468D
:105940002946BDE8F0410023FFF740BEFB2E06D9F3
:105950003246BDE8F041FB231948FEF7E2BC22784D
:1059600022B1BDE8F0411748FEF7DBBC01202070F2
:10597000A4F8026132462946A01CFDF75DFD2046D1
:10598000BDE8F04100F052B8BDE8F0816174745F89
:105990007061636B65745F68616E646C65723A20F8
:1059A00074797065203078253032782C20706163EE
:1059B0006B65745B305D20307825303278000000F4
:1059C000FCAD0202B0AD020210B5B0F80001029CBD
:1059D000C01E80B21970A3F80120844200D820466E
:1059E00010BD1FB514468DF80800069AADF80930B1
:1059F000ADF80B20ADF80D100020009001900723AA
:105A000002AA0421204607F0FFF81FBD3EB50C4650
:105A10008DF80800ADF809200020009001900323C4
:105A200002AA0421204607F0EFF83EBD2DE9FF4110
:105A30000446017824A0FEF774FC207801282DD1BB
:105A4000A078D22808D003202070B4F8040104B054
:105A5000BDE8F041FFF765BC1FF04CF80027E0B14E
:105A6000B4F802010F2818D3B4F804011FF0D2FFD4
:105A7000002813D1B4F9060107F078FA05000CD01C
:105A8000B4F80211A4F10A000E58696C324611A054
:105A9000FEF747FC686CB04202D92770BDE8FF8171
:105AA00002202070B4F803201749601DCDE90006DC
:105AB000CDE90214B4F80201A1780F3883B205F1E0
:105AC00034001FF021F8E9E76174745F72756E3A73
:105AD00020256400415454205369676E6564205743
:105AE000726974652C20444220636F756E74657210
:105AF0002025752C207061636B657420636F756E53
:105B00007465722025750000F15D0002FFF706BC88
:105B10000EB50B21CDE900238DF80810012302AA50
:105B2000042107F071F80EBD00B5FFF745FD10B177
:105B3000B0F8000100BD172000BD00002DE9F843BA
:105B40000025144F144EA84657F82540E4B120789C
:105B500003280BD1204600F0A7F838B1607898B13F
:105B6000B4F80401BDE8F843FFF7DBBB607858B137
:105B70000AA084F8018000680090346824B10223F0
:105B800000216A460420A0476D1C052DDCD3BDE82A
:105B9000F88300007803002048000020B7000000D0
:105BA0002DE9FE431F4616460D468046FFF704FDCD
:105BB000040005D0B4F8080120B19020BDE8FE83B0
:105BC0005920FBE74046FFF7A9FB88B102AB2A4604
:105BD0001D2120460097FFF7F7FECDE90060032363
:105BE00002AA0421404607F00FF8060002D014E094
:105BF0005720E3E7A4F8085104F5867042460849A7
:105C0000044600F05DFC47F2305240F282412046EB
:105C100000F040FC204600F015FC3046CEE70000C6
:105C20008D57000270B505460B480A4C0E4644607D
:105C300004F0A0FC0848083044601EF0A5FA0748AC
:105C4000FFF762FB284600F0C7F83046BDE8704019
:105C500000F0C8B8F55300024C000020D9580002EB
:105C60002DE9FE431E4615460F468046FFF7A4FC6D
:105C7000040014D04046FFF751FB90B102AB3A4606
:105C80001B2120460096FFF79FFECDE9005003231D
:105C900002AA0421404606F0B7FFBDE8FE83592062
:105CA000FBE75720F9E700002DE9FC412F4E0027C4
:105CB00007700446B0F802213346811CFFF786FCCA
:105CC0000546A0F57F40FF3823D0042D0FD3307850
:105CD00001280CD13079082809D194F8FE0030B1A0
:105CE000B4F804011EF037FD78B1012811D085B158
:105CF00000970197B4F804012B463246042106F0C0
:105D000083FF3078032807D02DE0B4F8040120F099
:105D1000F3FD0020BDE8FC81154AB4F80411B4F885
:105D20000001156875B1B5228DF8002004228DF8A8
:105D30000120ADF80210ADF80400062300216A46E8
:105D40000420A847B4F8040100F096F80948007848
:105D5000C00708D0B4F800010022001D81B2B4F8D9
:105D6000040101F0A1FD0120D4E70000A0040020FF
:105D7000480000205C0000200149086070470000D6
:105D80004800002010B5B0F8082104463AB1B4F834
:105D900004119120FFF7E0FC0020A4F8080104F5AD
:105DA0008670BDE8104000F057BB10B50246FFF703
:105DB00003FC002806D001214170BDE810401046C8
:105DC000FFF7AFBA10BD10B50C46FFF7F5FB002882
:105DD00001D0C0F8204110BD014948607047000063
:105DE0003400002001498860704700003400002022
:105DF0007CB5044600780A4602280ED16946104652
:105E00001DF0FDFFB4F80211A01F014408226846EE
:105E1000FDF74BFB10B1002020707CBDB4F80211DF
:105E2000A4F10A000E58B4F9060107F09FF8050026
:105E300001D0012000E00020FD2207A1FFF7F2F9C8
:105E400045B1761C6E6403202070B4F80401FFF79E
:105E500068FA7CBD72B6FEE76174745F7365727632
:105E600065722E63000000000A6882654968C1659A
:105E70003521017002F02CBD70B5054603F090F895
:105E800004000BD02846FFF797FB002806D0E28AD3
:105E9000B0F800118A4202D9A0F8002170BDE18259
:105EA00070BD0000F8B50446C0880E46C0050BD58D
:105EB00006484568002D07D00020009003460246A2
:105EC00021893046A8472082F8BD00003400002018
:105ED0007CB50E46C98804460D0B00D06D1C94F8A5
:105EE000FD2094F8FE00CDE9000294F8FF302A4628
:105EF0001048FEF715FAF088410502D594F8FE1017
:105F000079B1000502D594F8FF0060B1002D02DDE3
:105F100094F8FD0048B194F8FD00A84207DA0C207F
:105F20007CBD05207CBD08207CBD0F207CBD0020F1
:105F30007CBD000040AD02023EB50C468DF8080065
:105F40000699ADF80920CDE90013032302AA042124
:105F5000204606F059FE3EBD2DE9F05F98461446F6
:105F60000D4682460F461646DDF828B014E0281983
:105F700000EBD0704010814659464246904782451A
:105F800003D11FFA89F0BDE8F09F504502D909F10D
:105F9000010501E0A9F10104A542E8DDBC4200DAF7
:105FA0003C46B54200DD35465946204642469047BC
:105FB000504501D3A0B2E6E75946284642469047ED
:105FC000A8B2E0E710B50C46022806D0084605F056
:105FD000E5FA002800D0A08910BD088810BD06226F
:105FE000FDF763BA0A680260898881807047000003
:105FF00010B50C49002203463A24985C000900F0D1
:1060000082FB0870985C00F00F0000F07CFB487089
:106010008C70C91C521C062AEFDB002001F8010C11
:10602000004810BDB10300200844008840BA704702
:106030004218405C5378528852BA63F31F4242EAD6
:1060400000607047130A4354491C89B24254704798
:10605000130E4354491C89B2130C4354491C89B292
:10606000130A4354491C89B24254704710B514F0C6
:1060700039FC80F0010010BD10B51CF047FE02286D
:1060800001D3012010BD002010BD000010B5044652
:10609000FDF7E0FC03480188A1430180BDE8104002
:1060A000FDF7E8BCA802002010B503F079FDBDE8BB
:1060B0001040012000F008B810B5012100F09EFC4E
:1060C000BDE8104005F0CAB910B50446FDF7C2FCA2
:1060D0000348018821430180BDE81040FDF7CABC98
:1060E000A802002003480078C00701D11CF048BF77
:1060F00070470000A802002002480068816A024838
:1061000000680847040000201400002010B5044671
:106110000E480078C00718D0FDF79CFC4CB1032155
:106120000B481CF079FC03F03DFD13F053FD0EF01D
:1061300069FF0120FFF7AAFF14F0C2FD03201DF044
:1061400051F8BDE81040FDF795BC10BDA802002035
:106150006600030070B50D480088A0B914F0A8FCD3
:1061600040F2E2450446A8420DD30948406D50B9BB
:106170001DF016F938B11DF01BF9A84203D3A04257
:1061800000D3204670BD002070BD0000A802002092
:106190000000114001490860704700005C000020C9
:1061A00010B50446082020800520608006F02AFAF9
:1061B000A0800A20E08010BD0268134602E08A42F7
:1061C00004D01268002AFAD10B600160704702E027
:1061D0008A4205D010460268002AF9D10A6001609F
:1061E0007047006808B1002070470120704704E044
:1061F000884201D10120704700680028F8D170471B
:106200000268816832B140680068884200D108683D
:1062100008B9704709B1012070470020704700227B
:10622000C0E90021096881607047016851B1416887
:106230000A6881688A4203D141600968816003E08D
:10624000826001E00121016080687047816809680F
:106250008160426811600021016070474FF0FF3398
:1062600051B107E002688A4203D109680160002049
:10627000704710460028F5D1184670470149096853
:10628000C96A08470400002001490968096B0847EA
:1062900004000020FFF7F8BF7420FFF7EFBF10B530
:1062A0000446006A07F07EFB2046BDE81040FFF779
:1062B000EBBF70B58020FFF7E1FF04000CD040F287
:1062C000111007F0E3FC050008D080212046FDF7FF
:1062D000DAF82046256270BD002070BD2046FFF729
:1062E000D3FFF9E77047FFF7CFBF5020FFF7C6BFD6
:1062F000FFF7CABF1420FFF7C1BF2DE9F0410646E2
:106300000020984617460C460546306005E02146B9
:10631000304600F007F844446D1CBD42F7DBBDE891
:10632000F081000030B40268134607E08B4204D1CC
:10633000024630BC04A0FDF7F5BF1B68002BF5D169
:106340000A60016030BC70476274737461636B5F94
:106350006D656D6F72795F706F6F6C5F667265658A
:106360003A20626C6F636B202570206672656564ED
:1063700020747769636520666F7220706F6F6C2080
:1063800025700000016819B10A680260084670476C
:1063900000207047FFF778BF0C20FFF76FBF0000A9
:1063A00000B589B00DF1080C01900648006805920F
:1063B0008CE80B00044909688A696946904709B06E
:1063C00000BD0000180000200400002013460A460B
:1063D00001460A20FFF7E4BF13460A4601460C2097
:1063E000FFF7DEBF38B5154D286890F8A00008B15A
:1063F000552038BD4FF0FF30ADF80200ADF8000079
:106400000AE0684604F036FA0446C088162104F013
:106410005FFA204604F0ACFE684604F00BFA002850
:10642000EFD1012004F058FD054804F009FB0028D5
:10643000DFD12A68012182F8A01038BDD48D020274
:106440005C8F020202490069096849680847000038
:10645000040000200020704710B50446006928B1F0
:1064600003490968C968884700202061002010BDE1
:106470000400002070B5064D04460069296889684B
:106480008847296820694968BDE8704008470000CE
:106490000400002070B516460D460446FFF7DCFFE9
:1064A00004486560044A00682146036830469847FE
:1064B000206170BD04000020413F0002C1607047B0
:1064C000C0E9021270470000024900690968896842
:1064D00008470000040000202DE9F041074611485C
:1064E00015460E46046898463888B4F8902034F86B
:1064F0008E1F00F0C3F9388062882188308800F050
:10650000BDF93080E288A188288800F0B7F928809A
:1065100062892189B8F8000000F0B0F9A8F80000FD
:10652000BDE8F081D48D020270B50C00054601D0A3
:10653000012000E000206A2206A1FEF773FE284633
:1065400000F034F810B100206C60206028682060F2
:106550002C6070BD6C6973745F62617369632E63D4
:106560000000000070B50C00054601D0012000E0DD
:106570000020532207A1FEF755FE284600F016F82A
:1065800008B12C6001E06868046000206C60206045
:1065900070BD00006C6973745F62617369632E6320
:1065A000000000000021016041607047006808B1F0
:1065B0000020704701207047006808B10020704734
:1065C00001207047016819B10A68026012B103E046
:1065D0000022FAE7002242600846704770B505467F
:1065E00000680C4600B10120C32209A1FEF71AFE83
:1065F000206800B10120C42205A1FEF713FE6968DE
:10660000206808606068686000202060606070BD7D
:106610006C6973745F62617369632E6300000000CC
:106620000448D0F8A81141F00201C0F8A8111CF0EC
:10663000B1B90000000010402621AFF30080F0B592
:106640000546002003460124002202EBC3068E42C9
:106650000CDAEE5C04FA02F73E4201D0401C80B234
:10666000521C082AF1DB5B1C052BEDDBF0BD30B5BD
:106670000546C8080C4601F00702285C012191403C
:10668000084201D0204630BD2846FFF7D5FFC0B2F2
:10669000B4FBF0F100FB1140C1B22846BDE8304028
:1066A00002F041BC5140AFF3008070B50446008950
:1066B0001DF0E0FB2521B0FBF1F201FB1201CA083D
:1066C00001F00705A25C0123AB401A4201D0084645
:1066D00070BDE18841432046BDE87040C1F30741E9
:1066E00002F021BC30B504461068206010790D46D8
:1066F00000F01F0020712046FFF79EFFE08085EA32
:106700001540208130BD0A2801DA303003E00A3814
:10671000062802DA4130C0B270473F20704770B59A
:106720000446C08E88B0002822D0258F94F83430DB
:10673000A2268DF800601A268DF80160A6890A4607
:10674000ADF80400ADF8082004F11C01ADF80260BA
:10675000ADF80650ADF80A30102203A8FCF76CFE25
:10676000A1891C236A46A06800F088F90020E08611
:1067700008B070BD06481144006800F2FF30814245
:1067800003D90120186003207047002070470000E3
:106790006C00002070B500F059F8264D244868615F
:1067A000D5F80001800742D5FDF734FC224CA068E3
:1067B000224920F4F0400843A060206920F08000C6
:1067C0002061A06920F00040A061E06840F0040072
:1067D000C4F80C00D5F800018007FBD4606900F014
:1067E000C04540F2C970804740F64D0080478105A2
:1067F00004D440F4007040F60131884740F2516003
:10680000804740F60D0080470D48054365612069CB
:1068100020F078402061BFF34F8F0A4801680A4A90
:1068200001F4E06111430160BFF34F8FFEE770BDDB
:10683000001F1F00000010400020104000280080B2
:10684000C7E8948A0CED00E00400FA0509480168E5
:1068500041F4700101600848D0F8A81121F4C0513A
:10686000C0F8A811D0F82C1141F08001C0F82C110B
:106870007047000088ED00E00000104019B1884228
:1068800001D208467047002AFCD09042FAD910463F
:10689000704700000249CA6D82430243CA657047CF
:1068A0000000114043688B4204D18068904201D1BE
:1068B0000120704700207047F8B5144CA068006EA6
:1068C00028B960682021426940209047A061606833
:1068D000006A804760610120009060684FF40065A5
:1068E0002B46066900220A490AA0B047E061A06869
:1068F000006E002808D1009060682B4600220669CF
:10690000064907A0B0472062F8BD00000000002043
:10691000093A00026374726C00000000913A0202AE
:10692000686F73740000000070B50646401E1D4677
:106930000C460A2809D220782968884205D1062207
:10694000211D6868FCF7B1FD08B1002070BDC5E9E4
:106950000264032070BD00000248817A491C8172E4
:1069600070470000D400002010B5044603F018FA68
:10697000002013F01BF913F097FF12F05DFF0AF0EF
:1069800087F80EF07DFF15F081FE1AF0EFFC1BF08A
:106990001FFE002C03D0BDE8104014F01ABE10BD3D
:1069A00070B50446B0F1A53F19D0B4F1C33F16D07D
:1069B00001239A02052120201CF050FA0546B4F16B
:1069C000F23F09D0922206A10020FEF72BFC2846B8
:1069D000BDE870401CF0B4BB07202870F7E770BD1D
:1069E0006474626C652E630003484FF40031C16427
:1069F0004FF420318164704700001140F8B505461E
:106A00001B480E460021018013F0C6F921F030FA30
:106A10001CF0CCF9684613F003FA0446009841F2E2
:106A2000C93140F63817884201D3012000E0002028
:106A3000862210A1FEF7F6FB3A46214600201CF004
:106A400021FA009804F63811A0F6381082B201201D
:106A50001CF018FA21F022F93046FFF785FF002DCF
:106A600004D02846BDE8F840FFF79ABFF8BD000003
:106A7000A8020020647469702E63000030B4040022
:106A800003D0A44630BC0420604730BC7047FEB53C
:106A90001E4617460C46054602F082FA002816D01C
:106AA000011D6846FFF7BBFB0CE06846FFF7BDFB26
:106AB0000189A14206D1D0F804C033463A4629469E
:106AC0000420E0476846FFF79BFB0028EDD1FEBDA0
:106AD0001CB5A0228DF8002003228DF801208289A8
:106AE000ADF802208DF804108189806805236A467C
:106AF000FFF7C4FF1CBD30B587B00446A3250A9834
:106B00008DF8005018258DF80150A589ADF80410B6
:106B1000ADF806200146ADF80250ADF8083010225D
:106B20000DF10A00FCF788FCA1891A236A46A068C7
:106B3000FFF7A4FF07B030BD10B586B00446A12012
:106B40008DF8000016208DF80100A089ADF8041022
:106B5000ADF80200ADF806201022194602A8FCF795
:106B60006BFCA18918236A46A068FFF787FF06B06F
:106B700010BD00002DE9F05F0024924689460546CD
:106B80002746264626E000BF05EB8400B0F9021038
:106B900035F924001DF09CF9834605EB8800B0F917
:106BA000021035F928001DF093F9ABEB000043F615
:106BB000FF71884203DBA0F5FE40FF3806E043F694
:106BC000FF71C84202DC47F6FF710844074404EB3A
:106BD0004904761C04EB0908D045D5DB97FBF6F099
:106BE000BDE8F09F2DE9F04342780446901C89B03F
:106BF0000E46814206D009B0DF48BDE8F043921C42
:106C0000FDF792BB2178DDA0FDF78EFB2078DFF841
:106C10007C834FF00009122875D00CDC0E2811D0AF
:106C200004DC052870D0082853D17BE00F2835D02C
:106C300010284ED199E0132852D03E2871D0572801
:106C400047D17AE1D8F80000A278454690F84A107A
:106C5000CFA0FDF769FB6179D6A0FDF765FB296838
:106C6000A07881F84A00D849B4F80300098888421E
:106C700007D1002004F030F9296881F8A09004F0D1
:106C8000FBF92968B4F80300B1F87A10884218D1EA
:106C90002868C26BAAB1016C601D11E0D8F8002011
:106CA000E178404682F84A10D8F80020A188B2F86E
:106CB0007A20914205D10168CA6B12B1096C601C3F
:106CC0009047D8F80020A2F87A90D8F80010C1F8C0
:106CD0003C90D8F8000090F8600001287ED038E1A0
:106CE0000325002719E0635BAD1C625B1846AD1CF1
:106CF00003F070FD48B190F8281091420AD3891A28
:106D000080F8281008E035E026E01946AFA0FDF72E
:106D10000BFB01E080F828907F1CA078B842E2DCF1
:106D2000D7E733E0B4F80350284603F053FD0028BA
:106D3000CFD0A17849B961790029816902D041F4A5
:106D4000004101E021F40041816100F0A5FC014611
:106D5000284603F023FEBCE7B4F8030003F03AFD35
:106D60000028B6D007214174B3E704F055F804F0C9
:106D700067F8AEE7A0780028ABD1B4F8030003F0C1
:106D800029FD0028A5D0617A0174A2E7A0780A281D
:106D900038D033DC012835D004287DD0062898D19E
:106DA00034F8037F384603F015FD05006088ADF820
:106DB0001400A088ADF81000E088ADF81800208914
:106DC000ADF81C00A4F1030483D007AB06AA04A904
:106DD00005A8FFF781FBEB8FAA8F00E0B5E0BDF8B7
:106DE0001800BDF81C108DE80F00BDF81030BDF87C
:106DF00014203946834803F023FE6AE7122873D033
:106E000029288DD1E07800288AD1A788052F21D2A2
:106E1000D8F8000000EB8705686910B9FFF749FA58
:106E20006861050016D0EF800220C5F81890A8749C
:106E3000FFF710FBE861E0792872294604F10800A9
:106E40001CF0E0FF05206874A0792874A0780A2857
:106E500004D00FE0A08800F087F93AE7D4F80E00DC
:106E6000C5F87200608AA5F876006069A867208B73
:106E7000A5F87C00E0896887287C60B9D8F8001004
:106E800091F84810E973D8F8000005F1090190F86D
:106E9000480000F085FA00E016E02846FFF7A8F861
:106EA0000246E98858A0FDF73FFA03F04DFDD8F8F7
:106EB000000090F85600C0069FD5E98840F6B83229
:106EC000594803F0BDFD04E7E07800283AD1A088D6
:106ED00003F080FC002835D0A17980F871100121E1
:106EE00080F87010F5E6FFE72079082885D2E17870
:106EF00019B14EA0FDF718FAEBE6B4F805201046DC
:106F000003F068FC0546217951A0FDF70DFAD8F889
:106F1000000021798530095CE97349B1217968461F
:106F200020F07AFF05F1090168461CF06BFFD0E6FE
:106F300005F1090000F04AFACBE6608803F04AFC4C
:106F400000288AD109B0BDE8F083B1B2204603F031
:106F50001FFEB1B2204603F0CFFC2078052806D1F1
:106F6000B4F8030003F036FC08B104F001F909B0ED
:106F7000BDE8F04303F0CCBF10B002024843493AE9
:106F80004556454E543A253032780000D48D0202E1
:106F9000434D445F434F4D504C45544520636D6411
:106FA00073206F6C64202575202D206E6577202559
:106FB00075000000636D645F636F6D7020737461B2
:106FC00074757320257500005C8F02026863695F29
:106FD0006E756D6265725F636F6D706C657465640C
:106FE0005F7061636B6574206C6973747320756E78
:106FF0007573656420636F6E2068616E646C6520D4
:1070000025750000F48F02024E657720636F6E6E67
:10701000656374696F6E3A2068616E646C652025E3
:10702000752C202573000000648F020261647620B5
:10703000736574207465726D696E61742064756522
:1070400020746F20636175736520307825780A009D
:107050006164762068616E646C6572203078257892
:1070600020636F6E6E656374656420746F20636F58
:107070006E2068616E646C6520307825780A0000A7
:1070800010B5044604F05EFA204610BD13460A46C9
:107090000146014803F0D4BCAC90020270B58AB03E
:1070A0000D4604461E4601A910461CF099FE05A98E
:1070B00030461CF095FE05A8009001AB22462946FB
:1070C000024803F0BDFC0AB070BD0000049002024B
:1070D0000246014803F0B4BC9C8F020230B50C4656
:1070E000054689B01946104600F0F8FA00280CD180
:1070F000694628461CF074FE04A920461CF070FE68
:1071000004AA6946024803F09BFC09B030BD0000A8
:10711000CC8F0202014803F093BC0000F08E020203
:10712000014803F08DBC0000948F0202014803F077
:1071300087BC00005C900202014803F081BC0000A3
:10714000BC900202014803F07BBC0000848F020265
:1071500008B5009313460A460146024803F070FC46
:1071600008BD0000388E0202132100F001B80000B3
:1071700010B50A46034603F02DFB38B106214174D1
:107180001946054803F05CFC002010BD002118469C
:1071900003F09EFBF8E700004C8F020238B54FF079
:1071A000FF30ADF80200ADF8000006250DE068469E
:1071B00003F060FB0446407C062806D0E1881322D9
:1071C000054803F03DFC00B96574684603F032FBE6
:1071D0000028ECD138BD00004C8F02022DE9FF4F92
:1071E00085B0DFF89C80DDE912698A460A20002418
:1071F00000EB06119B462746B8F8000003AA03F0EF
:10720000C7F9050001D001210FE0562009B0BDE803
:10721000F08F00BF04EBC40219F81220521E01FACD
:1072200002F03843641CC7B2E4B2B442F2D3079808
:10723000CDE9000B02975346D8F804102846059A6A
:1072400003F0BFFAC7B200240DE000BF04EBC40195
:1072500009EB4101E8191022891CFCF7EDF8103701
:10726000641CFFB2E4B2B442F0D306494046096858
:1072700081F848A02946039A03F034FF0020C5E7AF
:107280008C900202D48D02022DE9FF4FDFF8AC8012
:1072900087B0A8F1F40BDDE9166ADBF800200024C2
:1072A000994612680C2000EB061153692746B8F87E
:1072B000000005AA9847050001D001210FE05620E3
:1072C0000BB0BDE8F08F00BF04EBC4021AF8122027
:1072D000521E01FA02F03843641CC7B2E4B2B44251
:1072E000F2D3DDE9140102AACDF8049082E883000C
:1072F00009980090DDE907232846D8F8041003F028
:1073000060FAC7B200240CE004EBC4010AEB4101AF
:10731000E8191022891CFCF78FF81037641CFFB2A3
:10732000E4B2B442F0D3DBF80010404681F8489054
:107330002946059A03F0D6FE0020C1E7C88E020256
:107340001CB502F11003CDE90030134601F1100223
:10735000014803F075FB1CBDB08E020210B500F0B1
:10736000BDF9002804D1BDE81040024803F068BB15
:1073700010BD0000D48F02020248006890F87C0023
:1073800070470000D48D02020449096851F88E2F1D
:1073900002604A684260896881607047D48D020249
:1073A0001CB50C4620B1FF21684620F035FD02E0F7
:1073B000684620F047FD214668461CF023FD1CBDB1
:1073C0000146014803F03CBBBC8F0202014600208D
:1073D000FFF7E6BF10B50446014604A0FCF7A4FF82
:1073E000022C01D9012010BD002010BD6761705F23
:1073F0006D69746D5F70726F74656374696F6E5FD1
:1074000072657175697265645F666F725F736563DB
:1074100075726974795F6C6576656C2025750000FE
:107420007FB50DF1200C9CE870008DE878001346C4
:107430000A460146024803F003FB04B070BD000099
:1074400094900202014803F0FBBA00009C900202F3
:1074500013460A460146014803F0F2BA288E02029A
:1074600013460A460146014803F0EABA208E02029A
:107470001CB5049CCDE9003413460A460146024877
:1074800003F0DEFA1CBD0000308E02020146014806
:1074900003F0D6BAA49002020448C17A012903D1AC
:1074A0000221C1721FF0D0BA70470000D400002042
:1074B000074810B5C26C40F282210648FEF7EAFF89
:1074C0000448FEF7BFFFBDE81040FFF7E5BF00002E
:1074D000D40000208006002010B50022074908488B
:1074E000FEF7EEFF074840F28221C26C0448FEF727
:1074F000D1FFBDE810400248FEF7A4BFB1740002FE
:1075000080060020D4000020014803F099BA000052
:107510007C8F0202014803F093BA0000108E020231
:10752000014803F08DBA0000B88E020202460148FD
:1075300003F086BA008F02020A460146014803F0B2
:107540007FBA0000788E02020246014803F078BA42
:10755000F88E0202014803F073BA0000C4900202E0
:107560000146014803F06CBA149002020A46014633
:10757000014803F065BA0000808E0202014601480E
:1075800003F05EBAC48F02020146014803F058BA04
:10759000548F02020146014803F052BA6C8F020276
:1075A000014803F04DBA00008C8F020202460148E8
:1075B00003F046BAE88E02020246014803F040BAE0
:1075C000A48F02022DE9F0410E46074603F002F9AE
:1075D000050010D0384600F055F804460246314602
:1075E00008A0FCF7A1FEB44207D321463846BDE807
:1075F000F04103F0D3B90121F8E7AE74BDE8F041E2
:1076000003F086BC6761705F726571756573745F46
:1076100073656375726974795F6C6576656C202536
:10762000752C2063757272656E74206C6576656C5E
:10763000202575000146014803F002BA5490020269
:1076400013460A460146014803F0FAB9B490020213
:1076500013460A460146014803F0F2B9488E020279
:10766000F0B585B00DF1280C9CE8F0008DE8F8002D
:1076700013460A460146024803F0E2F905B0F0BDA0
:10768000588E020210B503F0A5F818B1BDE81040FD
:1076900000F002B8012010BD10B1008B000401D42D
:1076A00001207047022070470220704701460148C0
:1076B00003F0C6B90C9002020A460146014803F0E5
:1076C000BFB900002C90020200B1012002490968F4
:1076D00081F87C0070470000D48D0202034A1368D1
:1076E000586310688163002070470000D48D020247
:1076F0000149096848647047D48D02021CB5049C96
:10770000CDE9003413460A460146024803F098F9D1
:107710001CBD0000008E02020A460146014803F02B
:107720008FB90000088E02022DE9FE4F124E174657
:10773000884681461D46308802AA591DDDF830A0D2
:1077400002F026FF040014D0CDE9007543464A46F6
:10775000716803F036F8C0B220442A465146FBF760
:107760006BFE21463046029A03F0BCFC0020BDE8C7
:10777000FE8F5620FBE70000F08D02022DE9FC474A
:10778000104D16460F4680469946288801AA311D9D
:1077900002F0FEFE040013D000963B4642466968A4
:1077A00003F00FF8C0B2204432464946FBF744FECE
:1077B00021462846019A03F095FC0020BDE8FC878D
:1077C0005620FBE7F88D020204490268096841F877
:1077D0008E2F42684A60806888607047D48D0202AC
:1077E0000A460146014803F02BB90000E08D020271
:1077F0002DE9FF5F144DDDE90E6B90468946824608
:107800001F46288803AA711D02F0C2FE040018D08A
:10781000CDF80080CDE901764B4652462046696896
:1078200002F0CFFFC0B2204432465946FBF704FEB7
:1078300021462846039A03F055FC002004B0BDE819
:10784000F09F5620FAE70000D88D02022DE9FF5F75
:10785000144DDDE90E6B9046894682461F46288806
:1078600003AAB11D02F094FE040018D0CDF80080E8
:10787000CDE901764B4652462046696802F0A1FFE9
:10788000C0B2204432465946FBF7D6FD2146284671
:10789000039A03F027FC002004B0BDE8F09F5620B7
:1078A000FAE70000E88D02020AB944F2902213467A
:1078B0000A460146014803F0C3B80000FC8F0202EB
:1078C00013460A460146014803F0BAB81C9002026A
:1078D0001CB5049CCDE9003413460A460146024813
:1078E00003F0AEF81CBD0000A08E020208B50B46E6
:1078F000009202460021024800F062F808BD000034
:107900003C9002022DE9FC47184F884691460446F8
:10791000022101EB8801388801AA02F039FE060035
:1079200007D043462246796802F04BFFC5B20024D7
:1079300013E05620BDE8FC8704EB440009EB40014E
:107940000A7900924B8819F81020701908A102F0EA
:1079500038FF2D1D641CEDB2E4B24445ECD3314632
:107960003846019A03F0BEFB0020E3E74C90020288
:10797000313231002DE9F04F8DB00DF1640C179CC0
:107980009CE8E04FDFF830C0DCF800C084448CF89D
:1079900085400DF1100C8CE8E04F169E189DCDE946
:1079A000003613460A4601460448CDE9024503F075
:1079B00047F80DB0BDE8F08FD48D0202349002027A
:1079C0002DE9FC471C460A9D174688468146F72B41
:1079D00026D9F720CDE900050B4601223946484655
:1079E00003F02EF8002823D1F73CA4B2F73515E0B8
:1079F000F72C01D3F72600E02646A01BCDE9006551
:107A00000404240C01D0002200E00222434639463F
:107A1000484603F015F800280AD13544002CE7D178
:107A20004346032239464846CDE9004503F008F8AD
:107A3000BDE8FC8708B5009313460A460146024894
:107A400002F0FEFF08BD0000849002022DE9FC4711
:107A500016460F46DFF88C8002EB86018246994677
:107A60000024B8F8000001AAC91C02F091FD05002D
:107A700002D0002001220EE05620BDE8FC8700BFA6
:107A800000EB400319F813305B1E02FA03F12143A7
:107A9000401CCCB2C0B2B042F2D300943B46524636
:107AA0002846D8F8041002F08CFEC7B200240FE07C
:107AB00004EB440109EB410081880091438842783E
:107AC000E81909A102F07DFE7F1D641CFFB2E4B23B
:107AD000B442EDD329464046019A03F003FB00204F
:107AE000CBE700007C9002023132320008B50B4631
:107AF0000092024600210248FFF762FF08BD000025
:107B0000449002020A460146014802F099BF000073
:107B1000B48F02020A460146014802F091BF0000FC
:107B2000908E02023EB5DDE906458DE83800134629
:107B30000A460146014802F083FF3EBD888E0202DC
:107B40002DE9F843194F15460C468046F82923D9EC
:107B50000146F82301223846009502F071FF002803
:107B600021D1F83CA4B2F83514E0F82C01D3F82662
:107B700000E02646A01B0404240C009501D000223E
:107B800000E0022233464146384602F059FF002801
:107B900009D13544002CE8D123460322414638461A
:107BA000009502F04DFFBDE8F88300006C900202E2
:107BB0000A460146014802F043BF000074900202E9
:107BC00008B5009313460A460146024802F038FF02
:107BD00008BD000064900202F0B587B00DF1300ED0
:107BE0009EE8F0108DE8F81013460A460146024858
:107BF00002F026FF07B0F0BDC08E02027FB50DF186
:107C0000200C9CE870008DE8780013460A46014677
:107C1000024802F015FF04B070BD0000D88E0202C9
:107C20000A460146014802F00BBF0000188E02020E
:107C30002DE9FF4704460E4602209146002105E04B
:107C400009EBC102001DD278491C1044B142F7DB98
:107C5000DFF8688081B2A8F1FC02B8F80000126871
:107C60001268536903AA9847070009D03346224691
:107C70003846D8F8041002F0A4FD0546002414E0AC
:107C8000562004B0BDE8F08709EBC4008178436852
:107C9000C2788DE80E00437819F83420781908A1CD
:107CA00002F08FFD284485B2641CB442ECDB3946F7
:107CB0004046039A03F016FA0020E2E7D08E020253
:107CC000313131314100000008B5009313460A46B6
:107CD0000146024802F0B4FE08BD0000E08E020238
:107CE0001CB5049CCDE9003413460A4601460248FF
:107CF00002F0A6FE1CBD00002490020213460246BC
:107D0000014802F09DBE0000108F020201460148AA
:107D100002F096BE748F02020146014802F090BE46
:107D2000088F020213460A460146014802F088BE47
:107D3000988E02020249096881F8490070470000E4
:107D4000D48D02022DE9FF4F87B01C46DDE91A01F0
:107D5000DDE91865DDE91687DDE914A99346FFF72B
:107D6000BDFC00280DD1CDE9004ACDE90259CDF87E
:107D70001080CDE90576DDE907125B46024802F086
:107D80005FFE0BB0BDE8F08F408E02023EB5DDE92C
:107D900006458DE8380013460A460146014802F0C0
:107DA0004FFE3EBDA88E0202014802F049BE00000F
:107DB000688E020208B5009313460A46014602483F
:107DC00002F03EFE08BD0000508E0202F0B587B002
:107DD0000DF1300E9EE8F0108DE8F81013460A46BB
:107DE0000146024802F02CFE07B0F0BD608E020290
:107DF0002DE9FF410D46DDE90A4780460C9E02F061
:107E0000E9FC002806D0007C38B1294640460094A1
:107E100004F027FD04B0BDE8F08103968DE89800DA
:107E200013462A464146024802F00AFEF2E70000E5
:107E3000AC8F020208B59200921C0B4600920146DC
:107E40000722024802F0FCFD08BD0000708E02020D
:107E50002DE9F047DFF88CA48AB01E461546884607
:107E600004280AD008287DD128781B280FD01D2887
:107E700008461FD001F094F81EE02978782971D1C6
:107E8000DAF80040002C50D04146A0474DE0B5F84C
:107E900001700C46DE1E3946A720D21C1CF05CF98E
:107EA0000246F61C0AB0B3B239462046BDE8F04798
:107EB000FEF7EDBD1BF024FE040053D02978771E99
:107EC0004FF001090D2973D009DC0C2915D2DFE828
:107ED00001F014EF143114EE14ED148614F0172988
:107EE00067D006DC0F2978D0112952D0132904D18C
:107EF00067E1192972D01D295CD0FBA0FCF713FAA9
:107F000028788DF808908DF80900002006218DF85A
:107F10000A008DF80C108DF80B0000900190A089DC
:107F2000052302AA042104F06FFE0AB0BDE8F04761
:107F300000F0CEBCB5F8015004F064FB854200D2DD
:107F40002846E08284F81890DAF8005095B1AB200A
:107F50008DF8000004208DF80100A089ADF8020022
:107F6000E08A00E0F7E1ADF804000623A1896A4643
:107F70000420A8474046FDF77FFFE64800788007C9
:107F8000D3D4E08A0022001D81B2A089FFF78CFCC7
:107F9000CBE720780228C8D13246294620461BF07C
:107FA000E1FE69782046711A294401224988A7E038
:107FB0000FE13CE14746B5F80180EA1C4146A820A4
:107FC000F61E1CF0C9F8F61C0246B3B2414638460C
:107FD000FEF75DFD84F85190A7E76AE15BE1207848
:107FE0000C281BD011DC062801D008289DD1324670
:107FF000294620461BF069FE3146284600F0DAFF8C
:108000000146204620F012FC8FE7142833D02428A4
:108010008BD16888A4F84C0025203AE195F80180BE
:10802000B8F1070F07D26888A085A8882086E8885D
:1080300060860D202DE1022716E000BFE91935F812
:1080400007904A8822868A886286C98801A820F01B
:10805000FBFD01A80090638E228E49462046FEF764
:108060004AFD07EB080087B2B742E7D3697820469C
:10807000711A695A43E095F8018000210227A8F19E
:10808000020A0DE035F80790EA191FFA8AF349460B
:108090002046921C1BF00AFE07EB0800494687B2F7
:1080A000B742EFD3204613222AE002E035E04CE04D
:1080B00009E120780E2814D0102824D028288BD14C
:1080C000204600F07DFA218F6A1CA9201CF044F89C
:1080D00002460837BBB2A189A068FEF7CFFC002199
:1080E00035E101A9681C1BF07BFEA18D01AA00925D
:1080F0002046638E228EFEF7FEFCA18D20460B22C9
:1081000020F0B4FB11E7204600F05AFABBB2218FF1
:108110006A1C20461BF0CAFDE1E74FF004094FF648
:10812000FF78012704F11C0A09E0E819E95B40889F
:108130005346804602462046FEF7FEFC4F44B742B7
:10814000F3DB204641460322DAE768780427022859
:1081500000D11227F01BB61E1FFA86F835F800A0D2
:108160000026AD1C22E000BF35F80690042F05EB79
:10817000060021D006A9801C1BF032FEA4228DF837
:10818000002014228DF80120A289ADF8022006A952
:10819000ADF8049010220DF10600FBF74DF9A1890E
:1081A00016236A46A068FEF769FC3E444645DBDBC1
:1081B000204651460922A3E7418806A820F044FD45
:1081C000DCE72078182803D0262801D02C2899D164
:1081D000ACE0761E2078B6B2761DBFB2122815D05C
:1081E0002A288FD1218F628F6B1CAA2000971BF049
:1081F000C1FF020004D0B3B2A189A068FEF73EFC23
:108200003A462921204620F0F9FA8EE6218F628F26
:108210006B1CA62000971BF0ADFF020004D0B3B288
:10822000A189A068FEF72AFC3A461121EAE72078E6
:108230001A2812D01C281CD02E2814D03228E4D1A1
:10824000204600F0BDF932462946204603F0BCF92D
:1082500000287FF461AF7E2179E0B5F803001D228C
:108260006087192110E0B5F803002F2260872D21C7
:108270000AE032462946204603F0A6F940B1B5F897
:1082800003001D2260871B21204620F0DEFA4CE609
:108290002120207049E620781E2847D0202845D08C
:1082A000222802D03028B0D140E0204600F088F9E2
:1082B000D1E720781628A8D1BBB26A1C002120463D
:1082C0001BF0F4FC32E029790A292BD12078082808
:1082D00030D021DC022829D0042827D0062821D13B
:1082E00028E00000600000204154542048616E6482
:1082F0006C65722C20756E68616E646C65642072AA
:108300006573706F6E7365207479706520307825A1
:10831000303278005C0000200A2807D00C2805D0F5
:1083200014280CD0204600F0C2FAFEE5204600F0EA
:1083300047F9D4E6E18D2046FEF7F1F9F6E720464D
:1083400000F03EF9A08D218E8842F2D10A2120460C
:10835000FEF7BEFBE9E50AB0BDE8F08710B50446BC
:1083600008461BF007FC18B1017819B1952010BD23
:10837000562010BD1F218460017000F0A9FA002072
:1083800010BD70B50546144608461BF0F3FB18B146
:10839000017819B1952070BD562070BD8560618847
:1083A000A288914203D10021FEF792FB07E0491C0D
:1083B0008185A188C1850921017000F089FA00201A
:1083C00070BD2DE9F04107461D4616460846DDF80A
:1083D00018801BF0CFFB040004D0207820B195203A
:1083E000BDE8F0815620FBE7A760A685E585012062
:1083F00084F85000002565831022414604F11C00DA
:10840000FBF71AF8E5860720207000F061FA0020DB
:10841000E6E72DE9F04107461D4616460846DDF819
:1084200018801BF0A7FB040004D0207820B1952011
:10843000BDE8F0815620FBE7A760A685E585012011
:1084400084F85000A4F81A80414604F11C0020F082
:10845000FBFB0020E0860720207000F039FA0020A6
:10846000E6E770B506461C46154608461BF082FB3B
:1084700018B1017819B1952070BD562070BD866085
:108480008585C485002180F85010C18605210170C2
:1084900000F01EFA002070BD10B5044608461BF01F
:1084A00069FB18B1017819B1952010BD562010BD97
:1084B0000121846081854FF6FF72C2850170002121
:1084C000418300F005FA002010BD70B50546164640
:1084D00008461BF04FFB040003D0207818B195200C
:1084E00070BD562070BD0120A560A0854FF6FF70BD
:1084F000E085002060831022314604F11C00FAF769
:108500009BFF0320207000F0E3F9002070BD70B5E0
:108510000546144608461BF02DFB18B1017819B129
:10852000952070BD562070BD0121856081854FF674
:10853000FF71C185032100F81A1B214620F8024B68
:1085400020F082FB00F0C4F9002070BD10B5044695
:1085500008461BF00FFB18B1017819B1952010BD2A
:10856000562010BD1D218460017000F0B1F900207B
:1085700010BD70B506461C46154608461BF0FAFAB3
:1085800018B1017819B1952070BD562070BD866074
:108590008585C4850B21017000F09AF9002070BD1B
:1085A00000B50A4600F0FCFC10B1017E012903D0A1
:1085B00017201080952000BDC08A1080002000BDCB
:1085C00010B5002101700446818904A0FBF7ABFEC1
:1085D00004F16000BDE81040FDF73EBF4741545430
:1085E00020636C69656E742074696D656F757420A5
:1085F00073746F702C2068616E646C652030782510
:108600003032780070B504281AD11078052813D1BB
:10861000B2F80350284600F0C3FC04000CD01F2120
:1086200000F045F92046FFF7CBFF0649002041F84E
:1086300025002046FDF72EFEBDE8704000F048B949
:1086400070BD0000C4030020064910B5044848600E
:10865000084601F08FFFBDE810400348FCF74ABE12
:108660000586000264000020517E000210B51BF058
:1086700047FA002802D0007808B1002010BD012080
:1086800010BD70B504460D46104600F089FC002868
:1086900007D0656023812146BDE87040001DFDF7CD
:1086A0008BBD70BD2DE9F0410646DDE906781C461C
:1086B000154608461BF05EFA20B1017821B19520DD
:1086C000BDE8F0815620FBE78660058787874487F1
:1086D0003121C0F84080017000F0FAF80020EFE787
:1086E00070B50546144608461BF044FA18B10178E7
:1086F00019B1952070BD562070BD85600487272173
:10870000017000F0E5F8002070BD0023AFF3008099
:1087100070B506461C46154608461BF02BFA18B1E4
:10872000017819B1952070BD562070BD866005870F
:1087300044872921017000F0CBF8002070BD002390
:10874000AFF3008070B506461C46154608461BF080
:1087500011FA18B1017819B1952070BD562070BD7D
:108760008660058744871121017000F0B1F8002070
:1087700070BD70B506461D46144608461BF0FAF952
:1087800018B1017819B1952070BD562070BD866072
:10879000A0F8444015218564017000F099F800208C
:1087A00070BD70B50546144608461BF0E3F918B1D4
:1087B000017819B1952070BD562070BD8560048781
:1087C000002141870F21017000F082F8002070BD68
:1087D0002DE9F04107461D4616460846DDF818808B
:1087E0001BF0C8F9040004D0207820B19520BDE822
:1087F000F0815620FBE7A760A685E585268665867D
:10880000002060831022414604F11C00FAF714FE98
:108810001320207000F05CF80020E8E72DE9F0411B
:1088200007461D4616460846DDF818801BF0A2F9DB
:10883000040004D0207820B19520BDE8F0815620B6
:10884000FBE7A760A685E58526866586A4F81A80DD
:10885000414604F11C0020F0F7F91320207000F0CD
:1088600037F80020E9E70000014908607047000080
:10887000600000202DE9F04106461C4615460846DA
:10888000069F1BF077F920B1017821B19520BDE852
:10889000F0815620FBE786600587848700214187A9
:1088A0001B210764017000F013F80020EFE770B59A
:1088B000044600780D46002808D02046FFF780FEC9
:1088C00029462046BDE87040FEF702B970BD0000A1
:1088D0002DE9F04F002789B04FF01E094FF0040A30
:1088E0004FF0020B3D464FF00808CE4850F82740A5
:1088F000002C70D0A089FCF7F7FC40B12278217ED3
:10890000C9A0FBF710FD207E012864D105E0A089F5
:1089100009B0BDE8F04FFCF7EABC94F8510050B143
:1089200084F85150A08901238DF80890009502AA7F
:10893000042101958CE02078172801D02B2818D12C
:1089400020461AF048FEA18FC01E884211DA204648
:108950001AF041FE0246A18FC1A0FBF7E4FC2046BD
:10896000FFF72EFE09B02046BDE8F04F0D21FEF7BF
:10897000AFB8606D04F0FAFA06462178C3A0FBF7A1
:10898000D2FC2078362826D2DFE800F09E1B9E26F7
