:020000040200F8
:10200000007F00201D3200026B32000225300002EA
:102010006F320002713200027332000200000000D1
:102020000000000000000000000000003F3000023F
:102030007732000200000000993000020D430002D8
:102040007D3200027D320002FD410002893B000228
:10205000793B000259430002494300023943000220
:102060009943000271400002A93A0002E53C0002D7
:102070001D3D00027D320002BD3A0002DD4100023A
:102080002D420002A53C0002794300026943000290
:10209000953C0002853C0002293B0002D53C000231
:1020A000414000027D320002B53C0002C53C000206
:1020B000CD410002BD410002AD4100028943000252
:1020C000A93F0002993F0002ED4100029140000249
:1020D000814000025140000261400002A140000224
:1020E000B1400002C1400002D14000027D32000236
:1020F0007D3200027D320002993A00020200032D77
:1021000000A00202FFFFFFFFFFFFFFFFFFFFFFFF37
:10211000FFFFFFFFFFFFFFFFFFFFFFFFFFFFFFFFCF
:10212000FFFFFFFFFFFFFFFFFFFFFFFFFFFFFFFFBF
:10213000FFFFFFFFFFFFFFFFFFFFFFFFFFFFFFFFAF
:10214000FFFFFFFFFFFFFFFFFFFFFFFFFFFFFFFF9F
:1030000000200002DFF810D000F022FA004800474C
:1030100059F50102AFF300800C54002030B5804711
:1030200030BD00BF1EF0040F0CBFEFF30880EFF3BC
:103030000980816940F61952C0F2022210472C4BD8
:1030400019680868B0E8F04F80F30988BFF36F8F04
:103050004FF0000080F31188704700BF00000000AF
:1030600007480068006880F308884FF0000080F38C
:10307000148862B661B6BFF34F8FBFF36F8F00DF66
:1030800014000020DFF80C00016841F470010160B9
:10309000704700BF88ED00E0EFF30980BFF36F8F4A
:1030A000134B1A681EF0100F08BF20ED108A20E99C
:1030B000F04F106009B44FF0080080F31188BFF39F
:1030C0004F8FBFF36F8F22F0EFFD4FF0000080F3C2
:1030D000118809BC19680868B0E8F04F1EF0100F9D
:1030E00008BFB0EC108A80F30988BFF36F8F704778
:1030F00048000020EFF30580704700B51A4422F025
:10310000030203460E480068C0050ED1EFF3148099
:1031100080070AD5EFF3098082F3098801B40846D5
:10312000984701BC80F3098800BDEFF3088082F363
:10313000088801B40846984701BC80F3088800BDA0
:1031400004ED00E044F6206000BF401EFCD128479B
:103150002DE9FE5F0746EFF31080EFF31181EFF3E7
:103160001282EFF313830FB445F2D810C2F20000BD
:10317000224D0560EFF30881EFF30982EFF314832A
:10318000EFF3038441608260C3600461781E0DD058
:10319000B81E05D01A48016841F0010101600AE03B
:1031A0001848016841F00101016004E01548016818
:1031B00041F00401016043F24510C0F200200047D5
:1031C000114841688268C368046981F3088882F302
:1031D000098883F3148884F30388BFF34F8FBFF308
:1031E0006F8F0FBC80F3108881F3118882F31288EF
:1031F00083F31388BDE8FE5F704700BFC131000252
:1032000004031140A8011040D851002040BA704773
:1032100040BA7047C0BA7047C0BA704718480168D2
:1032200011F0010F21F0010101600ED01548016875
:1032300021F0020101601448016841F480610160DD
:10324000124880471248006800470E48016821F084
:10325000020101600C48016841F4806101600D4881
:1032600080470D4800470D480047FEE7FEE7FEE7B0
:10327000FEE7FEE7FEE7FEE7FEE7FEE7FEE700000B
:1032800010011040080000401C0000405969000275
:10329000D8510020A16800025134000259F5010202
:1032A0002DE9F0035FEA930C6FD000BF30F8024BBA
:1032B00031F8026B30F8025B31F8027B14FB06F840
:1032C0004FEA684815FB07F9A8EB694822F8028B1A
:1032D00014FB07F4641415FB06F504EB654422F8AF
:1032E000024B30F8024B31F8026B30F8025B31F8D8
:1032F000027B14FB06F84FEA684815FB07F9A8EBB8
:10330000694822F8028B14FB07F4641415FB06F5D8
:1033100004EB654422F8024B30F8024B31F8026BA3
:1033200030F8025B31F8027B14FB06F84FEA68487C
:1033300015FB07F9A8EB694822F8028B14FB07F488
:10334000641415FB06F504EB654422F8024B30F8D3
:10335000024B31F8026B30F8025B31F8027B14FB50
:1033600006F84FEA684815FB07F9A8EB694822F808
:10337000028B14FB07F4641415FB06F504EB65449B
:1033800022F8024BBCF1010C90D113F0030304BFEF
:10339000BDE8F003704700BF30F8024B31F802CBB4
:1033A00030F8025B31F8026B14FB0CF77F1415FB4D
:1033B00006F8A7EB684722F8027B14FB06F46414B6
:1033C00015FB0CFC04EB6C4C22F802CB5B1EE3D12A
:1033D000BDE8F0037047000000F5005000B200287F
:1033E000BCBF00F5004000B281090B4BA0EB81107F
:1033F000400233F9112003EB410100B2C0F5004354
:1034000049885A43121410FB01F000EB02400014EB
:10341000400000B2704700003889020281090B4B5E
:10342000A0EB8110400233F9112003EB410100B2FF
:10343000C0F5004349885A43121410FB01F000EB19
:1034400002400014400000B27047000038890202B8
:10345000064C074D06E0E06840F0010394E80700E1
:1034600098471034AC42F6D3FFF7D0FD30930202F8
:10347000509302022DE9F05F0546002092469B46DC
:1034800088460646814640241BE02846414647467A
:10349000224600F09EF853465A46C01A914110D376
:1034A00011461846224600F085F82D1A67EB0108F0
:1034B0004F4622460120002100F07CF817EB00095E
:1034C0004E41201EA4F10104DFDC484631462A4665
:1034D0004346BDE8F09F00000649074A086850438C
:1034E00043F23902104408604008704701490860FF
:1034F00070470000C80300206D4EC64110B5431A46
:10350000934209D28318881803E010F8011D03F8CC
:10351000011D521EF9D210BD40EA01039B0703D0E2
:1035200009E008C9121F08C0042AFAD203E011F802
:10353000013B00F8013B521EF9D210BDD2B201E0AE
:1035400000F8012B491EFBD270470022F6E710B5A8
:1035500013460A4604461946FFF7F0FF204610BD01
:10356000421C10F8011B0029FBD1801A704730B5AE
:1035700004460020034600E05B1C934203D2E05C5B
:10358000CD5C401BF8D030BD30B50B460146002065
:103590002022012409E021FA02F59D4205D303FA15
:1035A00002F5491B04FA02F52844151EA2F1010296
:1035B000F1DC30BD202A04DB203A00FA02F10020C1
:1035C00070479140C2F1200320FA03F31943904061
:1035D0007047202A04DB203A21FA02F000217047CC
:1035E00021FA02F3D040C2F120029140084319466B
:1035F00070472DE9FE4F804681EA0300C00F0C465C
:10360000009021F0004123F00045B8EB0200A941F1
:1036100005D24046214690461C460B46024623F002
:103620000040104347D0270DC7F30A00C3F30A51E7
:103630000290401A019040286BDAC3F3130040F463
:10364000801B0098924620B10023D2EB030A63EB63
:103650000B0B01985946C0F140025046FFF7AAFFF4
:1036600006460D4650465946019A00F07BF910EB8C
:1036700008006141002487EA115284EAE7731A4383
:1036800040D0009A62B3019A012A4FEA075215DC32
:10369000001B61EB02014FF0004202EA0752CDE944
:1036A0000042001C41F5801132462B4600F07BF9A8
:1036B00003B0BDE8F08F40462146F9E7001B61EBFF
:1036C0000201001C41F5801300185B412018A2F58F
:1036D000001747EB030140EAD570B6196D4111E0C0
:1036E0006D084FEA360645EAC0754FEA0752001BDF
:1036F00061EB0201001C41F5801149084FEA3000DE
:103700000019514132462B4603B0BDE8F04F00F09E
:103710003BB90098012240000023D0EB020263EB8A
:10372000E073009821464FEAE074B8EB000061EBCB
:103730000401E9E783F000435BE781F0004158E7CB
:103740002DE9FE4F81EA030404F0004421F000411A
:1037500000944FF0000B23F0004350EA01045ED0C8
:1037600052EA03045BD0C3F30A54C1F30A552C4454
:10377000A4F2F3340194A0FB0254C1F3130141F409
:103780008011C3F3130343F4801301FB024400FBD5
:10379000034E840A970A44EA815447EA8357A4FBFC
:1037A000076802958D0A05FB07854FEA932C04FBF9
:1037B0000C542705029D4FEA065847EA1637B5EB29
:1037C00008056EEB070C870E920E47EA811742EA56
:1037D0008312A7FB0201B6EB0B0164EB00042B0D77
:1037E00043EA0C335E1844EB1C50DA465146E7FBC3
:1037F0000201C5F313044FEA0B3343EA14534FEAB3
:103800000432019C43EA0603A4F10C040294009CD8
:10381000CDE900B400F0C7F803B0BDE8F08F002098
:103820000146F9E72DE9F04D81EA030404F0004B6D
:1038300021F0004514464FF0000A23F0004150EA01
:10384000050220D054EA01021DD0C5F30A570246F2
:10385000C5F31303C1F31300C1F30A5640F48015F6
:1038600043F48013A7EB0608101BD64608F2FD3878
:1038700073EB050002D308F1010801E092185B41E7
:10388000B8F1000F03DA00200146BDE8F08D0020FA
:103890004FF48011064684460EE0171B73EB0507B4
:1038A00005D3121B63EB050306434CEA010C4908E0
:1038B0004FEA300092185B4150EA0107EDD152EA1D
:1038C000030012D082EA040083EA0501084305D010
:1038D000101BAB4106D20122002306E000224FF06C
:1038E000004302E06FF0010253101AEB06004CEBAC
:1038F000085110EB0A0041EB0B01BDE8F04D00F060
:1039000043B8C1F30A52C1F3130140F2FF3341F44B
:1039100080119A4202DA00200146704740F2334398
:103920009A42A2F2334202DC5242FFF752BEFFF744
:1039300041BE000030B5041E71F1000404DB4FF0FD
:103940000044404264EB0101141E73F1000405DBE6
:103950001C464FF00043524263EB0403994208BFF8
:10396000904230BD202A06DBCB17203A41FA02F004
:1039700043EAE07306E041FA02F3D040C2F12002CC
:10398000914008431946704710B5141E73F10004A6
:1039900008DA401C41F1000192185B411A4301D141
:1039A00020F0010010BD2DE9F04D92469B4611B16B
:1039B000B1FA81F202E0B0FA80F220329046FFF7CD
:1039C000F9FD04460F4640EA0A0041EA0B0153465E
:1039D0005A46084313D0114653EA010019D0C8F1E2
:1039E00040025046FFF7F5FD05460E465046594643
:1039F0004246FFF7DFFD084305D0012004E02046E2
:103A00003946BDE8F08D0020054346EAE0762C43B8
:103A100037430A986305E40AA0EB08000022FD0A78
:103A200044EA47540A3002D500200146E9E701057F
:103A300010196941DDE9084500196941BDE8F04DFB
:103A4000A2E770B58C1810F8015B15F0070301D1DF
:103A500010F8013B2A1106D110F8012B03E010F8F1
:103A6000016B01F8016B5B1EF9D12B0705D4002314
:103A7000521E0DD401F8013BFAE710F8013BCB1AB6
:103A8000921C03E013F8015B01F8015B521EF9D5AB
:103A9000A142D8D3002070BD02482421806807F0DD
:103AA000A3BB0000000000200348016841F0200192
:103AB000016001201CF000BA0000134002480921F7
:103AC000806807F091BB00000000002070B513492A
:103AD000D1E9000106F088FB002002F071FB104CD8
:103AE0004FF0FF360F4D11E02078000604D500227C
:103AF0001146042021F012F902F078FB207800062C
:103B000004D500221146052021F008F93146286825
:103B100022F02AFE0028E7D170BD000000700202EA
:103B2000400000201000002002481021806807F0AB
:103B30005BBB000000000020044800680122C0F3C5
:103B400008010A20891E07F077BB000004ED00E0A1
:103B500003480068C00501D121F0ECBC70470000AB
:103B600004ED00E003480068C00501D121F004BD68
:103B70007047000004ED00E002480121806807F072
:103B800033BB00000000002002480221806807F0DB
:103B90002BBB00000000002010B5C368D9B28029FB
:103BA0000FD98468A06800B101204B2213A101F055
:103BB000BDFBA16819B1E068BDE81040084772B6C6
:103BC000FEE70446008A616982B2D8B2124B1B68D4
:103BD000984706F019FF00280FD1E068022806D0A8
:103BE00004280AD1A069BDE8104006F007BFA08BE9
:103BF000A169BDE8104006F0FFBE10BD4863695FD3
:103C0000696E7465726E616C5F7472616E73706FF1
:103C100072742E6300000000BC0100201FB54168D3
:103C20000A2914D007DC09B105291FD104B0BDE869
:103C30001040FFF7B1BF0B2919D00C2916D1018A0A
:103C4000C268406904B089B2BDE8104010470C4911
:103C50001EC98DE81E00C168019141690291008A68
:103C6000ADF80C001021684606F006FD1FBD018A64
:103C70008AB24169C06804B0BDE8104008F06EBB6C
:103C80002C73020202480E21806807F0ADBA0000D2
:103C90000000002002480F21806807F0A5BA00004C
:103CA0000000002002480B21806807F09DBA000048
:103CB0000000002002481221806807F095BA000039
:103CC0000000002002481321806807F08DBA000030
:103CD0000000002002481121806807F085BA00002A
:103CE0000000002070B50B4D686D400611D52C6E9C
:103CF000402002F055FE286EA0432866002C08D014
:103D000005480078400604D52046BDE8704021F003
:103D100023B870BD00001140400000202DE9F04F95
:103D20008FB00020DFF82CB2DFF82C92DFF82C8265
:103D300042F26C5A0090D9F858004D460990D9F8D3
:103D400054005646099C0A9034403040A04208D0A6
:103D500098F80000800604D5082209A9052021F062
:103D600061F89BF80200800601D524F4A274002CAF
:103D700075D098F80000000604D5E1B2220A0820A8
:103D800020F0CCFF204602F00BFEB24600272E4664
:103D9000A00604D520F084FB012002F049FAA0041B
:103DA00001D515F003F960077DD5D6F80C51002D2B
:103DB00079D06B4805432D1F049595F8C6008DF802
:103DC000180095F826008DF81900D5F8BC0005906C
:103DD000D5F8B8000090B5F8C610C3B2CAB2032B2C
:103DE00002D0042B2FD126E0052A06D0162A1CD09B
:103DF000172A1AD0182A26D117E05A48016B0291C7
:103E0000097901F00F0107291DD102994979890625
:103E100019D50021C6F80C11806B15F09FF8514898
:103E20000299103011F0ECFB20E00020C6F80C01E4
:103E3000D5F8C00018E04C4AC0F30B2052F820001F
:103E400008B117290CD004A94FF40030009A15F0DE
:103E500048F947B395F8B800032810D10DE075E094
:103E60000021C6F80C1140690FF062FA012704A97D
:103E70007804009A15F035F9ECE711F02BFC97B1B6
:103E8000E0051DD4756D51460D4000204CF25032B6
:103E9000EB0504D4756D401C0D409042F8DB2846BC
:103EA00002F07EFD00E00BE042F2040084432C436C
:103EB00040F24F122DA1C4F3002001F037FA67E75A
:103EC000600502D503201BF0F7FF600615D5356E9F
:103ED00035B198F80000400602D5284620F03CFF96
:103EE000280E800709D5D6F80C0130B11C490843CB
:103EF00010F8C01F41F001010170E0051BD5C7B1EA
:103F0000049830F8681FADF81C104088ADF81A000E
:103F10009DF81910884204D20020ADF81A10ADF8AF
:103F20001C0004A94FF00210009A15F0DAF86006A0
:103F300001D513F0EFFF98F8000000067FF5FBAE07
:103F4000E1B2220A092020F0E9FEF4E60FB0BDE854
:103F5000F08F0000C401002000001140400000204C
:103F600000001040004E0020F05300206474626C8A
:103F7000652E6300074A131D5980116860F307011D
:103F80001160106840F40070106010688005FCD467
:103F9000704700000804114002481C21806807F0A7
:103FA00023B900000000002002481B21806807F0B0
:103FB0001BB900000000002000F01F020121914009
:103FC0004009800000F1E020C0F88012704700F046
:103FD0001F02012191404009800000F1E020C0F85B
:103FE00000117047C906090E002806DA00F00F001C
:103FF00000F1E02080F8141D704700F1E02080F807
:1040000000147047024A11400143024801607047A2
:1040100080FFFF1F08ED00E000B589B01DF058FAE1
:10402000416803910021CDE9011004480B464A1E66
:104030006946006822F01CF809B000BD2C00002081
:1040400002481421806807F0CFB80000000000206B
:1040500002481521806807F0C7B800000000002062
:1040600002481621806807F0BFB800000000002059
:1040700002480721806807F0B7B800000000002060
:1040800002481E21806807F0AFB800000000002041
:1040900002481D21806807F0A7B80000000000203A
:1040A00002481F21806807F09FB800000000002030
:1040B00002482021806807F097B800000000002027
:1040C00002482121806807F08FB80000000000201E
:1040D00002482221806807F087B800000000002015
:1040E0002F492E48C1F890012E48C1F894014FF491
:1040F0000040086342F2412048632B48826942F045
:1041000080428261026922F07F7202F54002026100
:10411000826922F4700202F580128261826942F49F
:104120007022826182696FF30F02103282614A6AE3
:1041300022F4601202F500224A624A6A22F4F8521E
:1041400002F500724A62826922F07C5202F1C85282
:104150008261D1F8602122F4FC0202F5B402C1F8B8
:104160006021016801680E2262F31F71016081689D
:10417000C90D21F0F00141F03002816862F3DE5197
:104180008160C168C168022262F38A11C16001685E
:104190000168092262F344010160704707060204C6
:1041A00000001040010304050020104002481721C0
:1041B000806807F019B800000000002002481821AC
:1041C000806807F011B800000000002002481921A3
:1041D000806807F009B800000000002002480821AC
:1041E000806807F001B80000000000200248232189
:1041F000806806F0F9BF000000000020024800219E
:10420000806806F0F1BF000000000020014800F0C7
:1042100003B80000B8001040014608680A688242EE
:10422000FBD10A688242F8D17047000002480A2197
:10423000806806F0D9BF00000000002001494872E4
:10424000704700005001002010B54FF080446068B6
:10425000400409D500F00CF8216811F00F0100D1DD
:104260000121B0FBF1F010BD004810BD00366E0119
:104270000C48D0F8A801C00211D54FF08041086C5D
:104280000A6CC0F34500C2F3C53210FB02F0064AC7
:10429000096CB2FBF0F0C1F3C7114843704700202E
:1042A000704700000000104000366E014FF0804162
:1042B000012806D0022803D1C86820F08000C86019
:1042C0007047886820F48440886070474FF08041D0
:1042D000012806D0022803D1C86840F08000C860D9
:1042E0007047886840F48440886070474FF0804190
:1042F000012806D0022803D1C86840F08000C860B9
:104300007047886840F484408860704710B5082082
:1043100080F31188BFF34F8FBFF36F8F22F0BCFB88
:1043200018B104494FF080500860002080F31188D4
:1043300010BD000004ED00E002480321806806F093
:1043400053BF00000000002002480421806806F0EE
:104350004BBF00000000002002480521806806F0E5
:1043600043BF00000000002002480C21806806F0D6
:104370003BBF00000000002002480D21806806F0CD
:1043800033BF00000000002002481A21806806F0B8
:104390002BBF00000000002002480621806806F0C4
:1043A00023BF0000000000200FB4054B10B503A987
:1043B000044A029800F0FEF810BC5DF814FB0000FF
:1043C000C9710002CC0300200FB4084B10B504A93A
:1043D00002AA039800F0EEF8044602A9002000F0BB
:1043E00097FE204610BC5DF814FB0000115100023E
:1043F000014B024A00F0E0BAC9710002CC03002070
:1044000070477047704770477047704770477047F4
:1044100002E008C8121F08C1002AFAD1704770478D
:10442000002001E001C1121F002AFBD170470000EB
:104430002DE9FF5F82B00021DDE90430020DDDF8D7
:1044400040B0034318D044F61050A2F2FF3242436A
:104450001514119801281FD0A5EB0B00401C5FEA32
:10446000000A4FF000064E4FDFF83891B046504634
:1044700015D5CAF1000413E0119801244AA30128BC
:1044800001D16FEA0B010298119AC0E90031C0E92D
:10449000024206B0BDE8F09FCBF10000DFE7044622
:1044A0000021404A491842EB0450CDE9001012E0C7
:1044B000E00707D032463B4640464946FFF740F901
:1044C0008046894632463B4610461946FFF738F982
:1044D00006460F466410002CEAD1DDE90401DDE94F
:1044E0000023BAF1000F06DAFFF72AF942464B46DD
:1044F000FFF726F905E0FFF795F942464B46FFF72F
:1045000091F904460E460022284BFFF713FA03D810
:104510004FF0FF30014607E00022254B2046314690
:10452000FFF767F8FFF7EDF9102409E0002C0ADB2C
:104530000A220023FEF79EFF039B30321A55641EA9
:1045400050EA0102F2D1641C039AC4F1110314442D
:10455000119A012A03D0012208430DD10AE0084331
:1045600004D000204FF0110B119072E7A3EB0B0564
:104570006D1E0DE05B4504DD4FF0000205F1010505
:1045800004E003DA4FF00002A5F10105002AECD0A7
:1045900002981199C0E90231C0E9004579E70000AD
:1045A000000014400000F03F300000000000F04325
:1045B0000000E03F2DE9FF4F8DB00F460546002675
:1045C00006E025280BD0DDE90F1290476D1C761C04
:1045D00028780028F5D111B03046BDE8F08F0024CE
:1045E000A246A1460122E94900E0044315F8013F33
:1045F000203B02FA03F00842F7D128782A2810D08D
:104600006FF02F022878A0F13001092914D80AEBA5
:104610008A0102EB410144F0020400EB010A6D1C27
:10462000F0E701CF5FEA000A03D544F40054CAF171
:10463000000A44F002046D1C28782E2817D115F8C2
:10464000010F44F004042A280ED06FF02F022878BE
:10465000A0F1300109290AD809EB890102EB4101D7
:1046600000EB01096D1CF2E757F8049B6D1C2878DC
:104670006C280FD006DC4C2817D068280DD06A288B
:1046800014D104E0742810D07A280FD10DE044F43E
:1046900000140AE044F4801401E044F44014697802
:1046A000814202D104F580146D1C6D1C28786E289F
:1046B0001ED00CDC632830D004DC00288BD05828B6
:1046C00011D19FE0642867D069280CD164E0732879
:1046D0002DD004DC6F2872D0702804D194E07528A6
:1046E0006ED078286DD0DDE90F129047761C4BE133
:1046F000C4F30250022806D0032809D0042801CFB1
:1047000009D0066040E101CFF117C0E900613BE14B
:1047100001CF068038E1067036E117F8040B8DF8FA
:10472000000000208DF80100EB46012003E057F85F
:1047300004BB4FF0FF3061074FF0000102D40DE0E1
:1047400008F10101884649450FDA8045F8DB1BF87E
:1047500008100029F4D108E008F1010188468142DF
:10476000FADB1BF808100029F6D1DDE90F23AAEBCC
:1047700008008146214600F09DFC304400EB08060D
:1047800004E0DDE90F121BF8010B9047B8F10108B6
:10479000F7D221464846F2E00A21C4F302524FF014
:1047A000000B0891022A04D001CFC117032A09D0B7
:1047B0000AE0FF1D27F00707F7E8020108E02CE0F8
:1047C0001EE01FE000B2C117042A01D140B2C11798
:1047D000021E71F1000206DA0023D0EB030063EB46
:1047E00001012D2202E0220504D52B228DF8242080
:1047F000012203E0E20701D02022F7E7904653E0D0
:104800000A210BE0102109E010214FF0000B44F0C9
:1048100004044FF00809089103E008214FF0000B51
:104820000891C4F30252022A04D001CF0021032AC6
:1048300006D006E0FF1D27F00707F7E8020103E0B6
:1048400080B2042A00D1C0B24FF0000822072BD555
:104850002A78702A07D0DDF820C08CF0100C5CEAB2
:104860000B0C05D00EE040228DF82420012208E038
:1048700050EA010306D030238DF824308DF825202E
:1048800002229046089B83F0080353EA0B030BD1E6
:1048900050EA010201D1620706D530228DF82420AA
:1048A0004FF00108A9F101092A78582A04D038A24A
:1048B0000B9208AA0A920BE03AA2F9E75B46089A23
:1048C000FEF7D8FD0B9B9B5C0A9A521E0A9213704E
:1048D00050EA0102F2D10A98ADEB000000F1200B82
:1048E000600702D524F4803401E04FF00109D94576
:1048F00002DDA9EB0B0000E0002000EB0B014144BE
:104900000890AAEB010AE00306D4DDE90F23214653
:10491000504600F0CFFB06444FF0000908E009A91B
:1049200011F80900DDE90F12904709F10109761C21
:10493000C145F4DBE0030CD5DDE90F2321465046E9
:1049400000F0B8FB064404E0DDE90F123020904788
:10495000761C0899481E08900029F5DC08E00A98A2
:104960000A990078491C0A91DDE90F129047761CDC
:10497000BBF10001ABF1010BF1DC21465046DDE952
:104980000F2300F073FB06446D1C21E6092801008B
:1049900030313233343536373839616263646566B5
:1049A0000000000030313233343536373839414277
:1049B00043444546000000002DE9FF4F95B09A465C
:1049C000884606460025EEE1252877D100242746B3
:1049D000F94A0121039400E0044316F8013F203B0B
:1049E00001FA03F01042F7D130782A2811D06FF085
:1049F0002F033078A0F13002092A16D8039A44F028
:104A0000020402EB820203EB42021044761C039084
:104A1000EFE758F8042B0392002A03DA504244F4DB
:104A20000054039044F00204761C30782E2816D1EE
:104A300016F8010F44F004042A280DD06FF02F025D
:104A40003078A0F13003092B09D807EB870302EB7C
:104A50004303C718761CF3E758F8047B761C3078BC
:104A60006C280FD006DC4C2817D068280DD06A2897
:104A700014D104E0742810D07A280FD10DE044F44A
:104A800000140AE044F4801401E044F44014727805
:104A9000824202D104F58014761C761C3078662898
:104AA0000BD013DC582877D009DC002875D04528B6
:104AB000F6D04628F4D047281AD193E118E06328AD
:104AC00035D0642879D0652812D18BE1702873D055
:104AD00008DC6728F1D069286FD06E280DD06F28C8
:104AE00006D1ACE073282CD0752874D0782853D028
:104AF0005246179990476D1C54E1C4F302500228A6
:104B000009D003280DD0D8F8001004280DD00D606E
:104B100008F1040846E1D8F80010EA17C1E900528C
:104B2000F6E7D8F800100D80F2E70D70F0E718F8FE
:104B3000041B8DF8001000208DF80100EB460120C9
:104B400003E058F804BB4FF0FF3061074FF000015D
:104B500002D40DE009F101018946B9420FDA81451D
:104B6000F8DB1BF809100029F4D108E009F1010174
:104B700089468142FADB1BF809100029F6D1039817
:104B80005346A0EB090721463846179A00F0A9FAC8
:104B9000284400EB090507E044E008E10DE01BF8BC
:104BA000010B524617999047B9F10109F7D25346C4
:104BB00021463846179AF2E039E00A21C4F302523E
:104BC0004FF0000B0091022A06D058F8040BC117D1
:104BD000032A09D00AE023E008F1070020F00702C9
:104BE000F2E80201904605E000B2C117042A01D1A3
:104BF00040B2C117002906DA0A460021404261EBA3
:104C000002012D2202E0220504D52B228DF804207A
:104C1000012203E0E20701D02022F7E7914657E0A6
:104C20000A2100E010214FF0000B00910BE0102151
:104C30004FF0000B44F004040827009103E0082023
:104C40004FF0000B0090C4F30252022A05D058F82E
:104C5000040B0021032A08D008E008F1070020F027
:104C60000702F2E80201904603E080B2042A00D174
:104C7000C0B24FF0000922072AD53278702A07D037
:104C8000DDF800C08CF0100C5CEA0B0C05D00EE0D7
:104C900040228DF80420012208E050EA010306D0EA
:104CA00030238DF804308DF8052002229146009BB8
:104CB00083F0080353EA0B030AD150EA010201D141
:104CC000620705D530228DF804204FF001097F1EC0
:104CD0003278582A04D039A20C920CAA02920BE026
:104CE0003BA2F9E75B46009AFEF7C4FB0C9B9B5C7A
:104CF000029A521E0292137050EA0102F2D10298F7
:104D000004A9081A00F1200B600702D524F48034AE
:104D100000E001275F4502DDA7EB0B0000E000206B
:104D200000EB0B01009003984944401A0390E00304
:104D300006D453462146179A039800F0D2F9054449
:104D4000002706E001A85246C05D179990476D1CE8
:104D50007F1C4F45F6DBE0030CD553462146179ADE
:104D6000039800F0BEF9054404E03020524617993C
:104D700090476D1C0099481E00900029F5DC08E062
:104D80000298029952460078491C0291179990475F
:104D90006D1CBBF10001ABF1010BF1DC5BE100F03C
:104DA00077F90544761C307800287FF40DAE19B0F1
:104DB0002846BDE8F08F0000092801003031323369
:104DC0003435363738396162636465660000000047
:104DD0003031323334353637383941424344454631
:104DE00000000000600700D4062708F1070020F04B
:104DF0000700F0E80223804603F0004C5FEA0C0055
:104E000001D097A009E0200501D596A005E0E007B4
:104E100001D095A001E0AFF24C001390307823F060
:104E2000004365280CD006DC452809D046281DD053
:104E300047287FD13BE0662818D067287AD136E032
:104E40000021112F01DB112000E0781CCDE90001C9
:104E500004A90CA8FFF7ECFADDE90D010C9A4FF05C
:104E6000000B07F10109109200914EE04FF0004055
:104E70000097CDE9011004A90CA8FFF7D9FADDE9E4
:104E80000D020C9B0F994FF0000B9146109300926E
:104E900011B9791C00EB0109B7EB090003D4C0F18B
:104EA000FF3B07F10109A9EB0700019042E0012F48
:104EB00000DA01270021112F01DD112000E0384622
:104EC000CDE9000104A90CA8FFF7B2FADDE90D0154
:104ED0000C9A00914FF0000BB946109221070FD4A5
:104EE000009A4A4503DA914601E0A9F10109B9F1B6
:104EF000010F05DD109AA9F10101515C3029F4D0B0
:104F0000B84202DA10F1040F03DA0121CDE90110F1
:104F100010E0002803DC8344A9EB000102E0411CFF
:104F2000494500DD8946A0EB0B00401C01904FF085
:104F300000400290200705D40198484502DB4FF05D
:104F4000FF30019000208DF84B0002980DF14B07C7
:104F5000B0F1004F25D002200C902B200D9002982C
:104F600000280CDA404202902D200D9007E00A2123
:104F70000298FEF709FB3031029007F8011D0C99E9
:104F8000481E0C900029F2DC02980028EFD1791E0F
:104F90000D980870307800F0200040F0450007F8C8
:104FA000020D11A8C01BC01D02901398007800B11B
:104FB000012000EB0901019801EBE0710298014426
:104FC0000398401A401E0390E00306D4534621463E
:104FD000179A039800F085F805441398007818B1E3
:104FE0005246179990476D1CE00323D5534621463E
:104FF000179A039800F075F805441BE0BBF1000F09
:1050000007DB0098584504DD1098179910F80B003D
:1050100001E0179930205246904701980BF1010B9F
:10502000401E05F10105019004D12E20524617992A
:1050300090476D1CB9F10001A9F10109DEDC05E022
:1050400017F8010B5246179990476D1C0299481E9C
:1050500002900029F4DC53462146179A03989EE6F5
:105060002D0000002B000000200000002DE9F04181
:10507000044600251E461746880404D405E0394638
:105080002020B0476D1C641EF9D52846BDE8F0818C
:105090002DE9F041044600251E461746880404D435
:1050A00005E039462020B0476D1C641EF9D528461E
:1050B000BDE8F0812DE9F041044600251E469046EA
:1050C000C80301D5302700E02027880404D505E077
:1050D00041463846B0476D1C641EF9D52846BDE8E8
:1050E000F0812DE9F041044600251E469046C80394
:1050F00001D5302700E02027880404D505E041468B
:105100003846B0476D1C641EF9D52846BDE8F081CD
:105110000A68531C0B601070704700002DE9F05FA7
:10512000064600880B46C0F30B00834605F012FAD2
:105130000400707875884FEA10170AD005F104084A
:10514000984509D02A1DBDE8F05F19463448FFF79D
:105150005BB9594633A01DE001F01CFA07F00301CA
:10516000002740F2031AE061012903D002292BD065
:105170003BA00FE0A08C58B14119B1F5827F0DD34F
:105180005B4652464648FFF73FF9A784BDE8F09FCB
:10519000594644A0BDE8F05FFFF736B9216A2A46B8
:1051A0000844311D0E30FEF7A9F9A08C284481B2C5
:1051B000A184E08C083081422ED3206A0E3005F0A5
:1051C00035FAE784A78427E0A08C20B159464448EB
:1051D000FFF71AF9A784B788381D8146854205D3A1
:1051E0001FFA88F1304605F021FA15E0FF2D07D9A6
:1051F0005B465246291DBDE8F05F3A48FFF704B907
:10520000206A2A1D31460E30FEF778F9A4F8248072
:10521000E784216AA1F81090BDE8F05F05F038BD81
:10522000F48F02026863692E633A2061636C5F68E1
:10523000616E646C65722063616C6C656420776973
:105240007468206E6F6E2D72656769737465726520
:10525000642068616E646C65202575210000000083
:105260006863692E633A2061636C5F68616E646C89
:1052700065722063616C6C6564207769746820696D
:105280006E76616C6964207061636B657420626F17
:10529000756E6461727920666C6167732025750094
:1052A000B090020241434C20436F6E7420467261FD
:1052B000676D656E7420627574206E6F206669720A
:1052C000737420667261676D656E7420666F7220FC
:1052D00068616E646C65203078253032780000009B
:1052E000A08F02020491020270B505460748446986
:1052F000241D04EBC5004268002A05D141608800E6
:105300001CF066F844F8350070BD00000000002075
:1053100010B505494FF6FF7302E084788C54C01C29
:1053200002889A42F9D110BD0000124010B50B4618
:10533000002803D11146184607F08EFE10BD7047B5
:105340001CB506498C68002C07D000210091019102
:10535000B0F804010B460322A0471CBDB00000209A
:1053600070B50C4600281DD1052C1BD20E4D4FF4F4
:10537000927655F8240020B9304601F011F845F82E
:10538000240005000ED031462846FEF7DEF8A5F8C9
:10539000044105F58071204603F02AF84FF0FF30F4
:1053A000A5F8060170BD0000484B0020F8B5164670
:1053B000028A069F521A94B2C288D2050AD50B4AB5
:1053C00055683DB1009300890A4601463346384688
:1053D000A847F8BD9C4200D91C46406922460144BA
:1053E0003046FEF78BF82046F8BD0000B0000020E4
:1053F000042106F0C3B8042107F0BEB802490860D2
:105400000421024807F02EB8BC00002071590002A8
:10541000024948600421024807F024B8BC0000207B
:1054200071590002042106F0A9B8042107F0A4B8BC
:1054300000B58BB0D0F82001009023E0684600F062
:1054400034FABDF8081000291ED0BDF806200FA0C0
:10545000FEF7D6FFBDF806008005039808D506A91B
:105460001CF046F906A81FF005FF014611A001E057
:10547000018811A0FEF7C4FFBDF8101010A0FEF7C0
:10548000BFFF00980028D9D10BB000BD48616E6401
:105490006C653A203078253034782C20666C616752
:1054A000733A203078253034782C20757569643A49
:1054B0002000000025730000253034780000000033
:1054C0002C2076616C75655F6C656E3A2025752CB5
:1054D0002076616C75653A2000000000064A30B401
:1054E0001468002C06D00B46A4460246002130BCAE
:1054F0000420604730BC7047C40000207CB51446CF
:10550000042819D120783E283FD016DC052855D034
:10551000082801D030280FD1B2F80350284600F0F7
:10552000CFF8040008D028461DF087F804F8FD0FD6
:1055300028461CF029FD60707CBDD7285ED0D82895
:105540004DD0DA28F8D1608800F0BAF80500F3D021
:10555000B5F8040104F0FEFF0600EDD02079317AA1
:105560008842E9D16946601D1CF0D4F80622314614
:105570006846FDF7FCFF0028DED1E07A85F8FF00E1
:10558000B5F80401FFF751FF7CBDA078012803D0D6
:105590000A2801D02928F7D1D41C9188D078FFF7A8
:1055A000DFFEB4F8010000F08BF80500ECD0B4F891
:1055B00001001DF0C5FCA5F806017CBDB2F8035042
:1055C000284600F07DF80400F7D000F05FFC20468C
:1055D00000F0E8FE0F49002041F825007CBD6088FE
:1055E00000F06EF80500F9D0B4F80B0001B2A5F890
:1055F000061109A0FEF705FF284608E0508800F0D4
:105600005FF80028EAD04FF0FF31A0F8061100F053
:1056100091FA7CBD484B0020534D5F4556454E5492
:105620005F4944454E544954595F5245534F4C5677
:10563000494E475F535543434545444544206964BB
:10564000202575003EB50C468DF8080000208DF829
:10565000092000900190022302AA0421204607F0AD
:105660007DF93EBD7FB50DF1200C14469CE8640029
:105670008DF80800ADF80930ADF80B20ADF80D102D
:10568000CDE90056072302AA0421204607F066F957
:105690007FBD70B515000C4603D0D0F82001206006
:1056A00008E0002070BD204600F0FFF82089A842E5
:1056B00003D020680028F6D170BD012070BD000025
:1056C000052803D2024951F8200070470020704796
:1056D000484B00202DE9FF411D460B78164600245B
:1056E000B0F800214F1D9C460E2B71D00BDCA3F1AE
:1056F00002030B2B15D2DFE803F01C142F1438140F
:105700004A145B146100182B71D006DC102B68D092
:10571000122B7AD0162B04D17DE0522B69D0D22BDC
:1057200067D0614645A0FEF76BFE04B02046BDE899
:10573000F0810646B1F8014006F00EFE844202D226
:10574000A6F8004101E0A6F8000103242C70B6F889
:105750000001A5F80100E8E7B1F803300093B1F8C3
:105760000130294603F0FCFB0FE0F61FB4B2B1F89C
:105770000570B1F80360CB1DCDE90243CDE90067A8
:10578000B1F80130294603F057FB0446CDE70C463B
:105790002946072E01D8022300E01023B4F8035055
:1057A000CDE900530297B4F8013003F0ADFDECE70A
:1057B000B1F80130294603F0C3FEE6E7B1F8033043
:1057C0000093B1F80130294603F0A0FCDDE7FFE7C4
:1057D000491C761E0091C6F34F03294603F03EFE96
:1057E000D3E70C462946072E04D8022303E018E02D
:1057F0000BE01CE01023B4F80350CDE900530297EE
:10580000B4F8013003F0F2FCBFE700922B463246B9
:1058100003F022FFB9E700922B46324603F018FC52
:10582000B3E700922B46324603F0D4FAADE700927C
:105830002B46324603F0E0FE77E70000556E6861C4
:105840006E646C65642041545420436F6D6D616ECD
:10585000643A20253032582C20444154413A2000EB
:105860001CB50B4B1C68002C10D0B6238DF80030F3
:1058700005238DF801308DF80200ADF80310ADF866
:105880000520072300216A460420A0471CBD000014
:10589000C400002010B580B2FFF712FF002803D02B
:1058A000BDE8104000F0F2BA10BD10B501680A88DA
:1058B00082806AB14B88C3808C8804818C1DC4604F
:1058C0009B050CD5A2F11603038201F116030BE030
:1058D0000021C1800181C1600182416106E0A2F125
:1058E0000803038201F1080311444361016010BD04
:1058F00070B5044600890D4600281BD0022A08D046
:10590000E08880050BD51022E068FDF730FE80B1FD
:1059100011E009882046BDE8704000F00EB8084646
:1059200005F0E6FC002805D0E168A88909888842CE
:1059300001D1012070BD002070BD70B50446008902
:105940000D46002810D0E0888005E06808D505F0F5
:10595000CFFC002808D0E0688089A84203D004E08A
:105960000088884201D1012070BD002070BD000078
:105970002DE9F041194C06461F4615468846042875
:1059800009D0082E28D12878C00720D0D4F800C02C
:105990001FE03046E047287878281DD1D4F804C0AD
:1059A000BCF1000F08D03B462A4641463046E0474E
:1059B00004F0CCFC00280FD02468002C0CD03B460F
:1059C0002A4641463046A446BDE8F0416047D4F837
:1059D00004C0BCF1000FDCD1BDE8F081BC000020A8
:1059E0002DE9F0410F461546044601461E46127841
:1059F00028A0FEF706FD042C0CD0082C48D1384610
:105A0000FFF75EFE040043D029781E2909D05229F1
:105A100019D01FE0287878283AD1BDE8F04100F08D
:105A200011B9B4F80801A8B104F5867000F0B4FD0E
:105A3000B4F808210020A4F80801B4F80411BDE866
:105A4000F041FFF70DBF32462946BDE8F041002383
:105A5000FFF740BEFB2E06D93246BDE8F041FB23DE
:105A60001948FEF7CEBC227822B1BDE8F0411748B4
:105A7000FEF7C7BC01202070A4F802613246294617
:105A8000A01CFDF73BFD2046BDE8F04100F052B8F8
:105A9000BDE8F0816174745F7061636B65745F6809
:105AA000616E646C65723A20747970652030782577
:105AB0003032782C207061636B65745B305D203010
:105AC00078253032780000008C8E0202408E02026F
:105AD00010B5B0F80001029CC01E80B21970A3F886
:105AE0000120844200D8204610BD1FB514468DF811
:105AF0000800069AADF80930ADF80B20ADF80D108E
:105B0000002000900190072302AA0421204606F0FD
:105B100025FF1FBD3EB50C468DF80800ADF80920E5
:105B2000002000900190032302AA0421204606F0E1
:105B300015FF3EBD2DE9FF410446017824A0FEF784
:105B400060FC207801282DD1A078D22808D003202D
:105B50002070B4F8040104B0BDE8F041FFF765BC63
:105B60001CF002FC0027E0B1B4F802010F2818D3A2
:105B7000B4F804011DF00AF8002813D1B4F90601A5
:105B800007F09EF805000CD0B4F80211A4F10A0049
:105B90000E58696C324611A0FEF733FC686CB042B7
:105BA00002D92770BDE8FF8102202070B4F80320DD
:105BB0001749601DCDE90006CDE90214B4F80201D1
:105BC000A1780F3883B205F134001CF0D7FBE9E768
:105BD0006174745F72756E3A2025640041545420DC
:105BE0005369676E65642057726974652C2044425E
:105BF00020636F756E7465722025752C207061634B
:105C00006B657420636F756E746572202575000076
:105C1000F95E0002FFF706BC0EB50B21CDE90023AB
:105C20008DF80810012302AA042106F097FE0EBD8C
:105C300000B5FFF745FD10B1B0F8000100BD172019
:105C400000BD00002DE9F8430025144F144EA8466E
:105C500057F82540E4B1207803280BD1204600F006
:105C6000A7F838B1607898B1B4F80401BDE8F843FA
:105C7000FFF7DBBB607858B10AA084F801800068A8
:105C80000090346824B1022300216A460420A04712
:105C90006D1C052DDCD3BDE8F8830000484B0020C7
:105CA000C4000020B70000002DE9FE431F46164641
:105CB0000D468046FFF704FD040005D0B4F8080146
:105CC00020B19020BDE8FE835920FBE74046FFF756
:105CD000A9FB88B102AB2A461D2120460097FFF799
:105CE000F7FECDE90060032302AA0421404606F036
:105CF00035FE060002D014E05720E3E7A4F808516F
:105D000004F5867042460849044600F07FFC47F2DD
:105D1000305240F28241204600F05CFC204600F008
:105D20002BFC3046CEE700009558000270B50546C2
:105D30000B480A4C0E46446004F0DCFA0848083070
:105D400044601BF099FE0748FFF762FB284600F00D
:105D5000C7F83046BDE8704000F0C8B8FD540002F6
:105D6000C8000020E15900022DE9FE431E461546F9
:105D70000F468046FFF7A4FC040014D04046FFF70E
:105D800051FB90B102AB3A461B2120460096FFF72B
:105D90009FFECDE90050032302AA0421404606F0ED
:105DA000DDFDBDE8FE835920FBE75720F9E7000041
:105DB0002DE9FC412F4E002707700446B0F8022160
:105DC0003346811CFFF786FC0546A0F57F40FF386F
:105DD00023D0042D0FD3307801280CD13079082836
:105DE00009D194F8FE0030B1B4F804011CF0F3F8C6
:105DF00078B1012811D085B100970197B4F804015A
:105E00002B463246042106F0A9FD3078032807D03E
:105E10002DE0B4F804011DF08BFB0020BDE8FC81EF
:105E2000154AB4F80411B4F80001156875B1B5222B
:105E30008DF8002004228DF80120ADF80210ADF895
:105E40000400062300216A460420A847B4F8040190
:105E500000F096F809480078C00708D0B4F80001AF
:105E60000022001D81B2B4F8040101F009FD0120F7
:105E7000D4E70000704C0020C4000020D8000020AF
:105E80000149086070470000C400002010B5B0F858
:105E9000082104463AB1B4F804119120FFF7E0FC60
:105EA0000020A4F8080104F58670BDE8104000F059
:105EB00073BB10B50246FFF703FC002806D0012192
:105EC0004170BDE810401046FFF7AFBA10BD10B5E5
:105ED0000C46FFF7F5FB002801D0C0F8204110BDAB
:105EE0000149486070470000B00000200149886007
:105EF00070470000B00000207CB5044600780A46D8
:105F000002280ED1694610461BF001FCB4F80211BC
:105F1000A01F014408226846FDF729FB10B10020AC
:105F200020707CBDB4F80211A4F10A000E58B4F937
:105F3000060106F0C5FE050001D0012000E00020AA
:105F4000FD2207A1FFF7F2F945B1761C6E6403202C
:105F50002070B4F80401FFF768FA7CBD72B6FEE762
:105F60006174745F7365727665722E630000000061
:105F70000A6882654968C1653521017002F0D0BBAD
:105F800070B5054602F016FF04000BD02846FFF757
:105F900097FB002806D0E28AB0F800118A4202D9A5
:105FA000A0F8002170BDE18270BD0000F8B5044684
:105FB000C0880E46C0050BD506484568002D07D0A1
:105FC000002000900346024621893046A8472082DF
:105FD000F8BD0000B00000207CB50E46C98804461C
:105FE0000D0B00D06D1C94F8FD2094F8FE00CDE957
:105FF000000294F8FF302A461048FEF701FAF088B4
:10600000410502D594F8FE1079B1000502D594F847
:10601000FF0060B1002D02DD94F8FD0048B194F856
:10602000FD00A84207DA0C207CBD05207CBD0820BD
:106030007CBD0F207CBD00207CBD0000D08D020205
:106040003EB50C468DF808000699ADF80920CDE95B
:106050000013032302AA0421204606F07FFC3EBD64
:106060002DE9F05F984614460D4682460F461646C7
:10607000DDF828B014E0281900EBD07040108146FC
:10608000594642469047824503D11FFA89F0BDE840
:10609000F09F504502D909F1010501E0A9F1010481
:1060A000A542E8DDBC4200DA3C46B54200DD35469B
:1060B0005946204642469047504501D3A0B2E6E7F4
:1060C0005946284642469047A8B2E0E710B50C462C
:1060D000022806D0084605F00BF9002800D0A08958
:1060E00010BD088810BD0622FDF741BA0A6802609B
:1060F000898881807047000010B50C490022034652
:106100003A24985C000900F084FB0870985C00F069
:106110000F0000F07EFB48708C70C91C521C062AD0
:10612000EFDB002001F8010C004810BD814B00207E
:106130000844008840BA70474218405C537852883F
:1061400052BA63F31F4242EA00607047130A435495
:10615000491C89B242547047130E4354491C89B2FA
:10616000130C4354491C89B2130A4354491C89B285
:106170004254704710B512F09DFD80F0010010BD33
:1061800010B519F02DFC022801D3012010BD00200C
:1061900010BD000010B50446FDF7DAFC0348018885
:1061A000A1430180BDE81040FDF7DCBC4C0300209A
:1061B00010B503F0FFFBBDE81040012000F008B867
:1061C00010B5012100F0A6FCBDE8104004F0F0BFBE
:1061D00010B50446FDF7BCFC03480188214301804B
:1061E000BDE81040FDF7BEBC4C030020034800781A
:1061F000C00701D119F02EBD704700004C030020EC
:1062000008B50020009008480068C10507480068EC
:1062100003D0694620F042F808BD00231A4619460B
:106220001FF026FF08BD000004ED00E01000002074
:1062300010B504460E480078C00718D0FDF788FC5A
:106240004CB103210B4819F051FA03F0B5FB11F0E2
:10625000ABFE0DF035FA0120FFF79CFF12F0FCFEBB
:10626000032019F029FEBDE81040FDF77BBC10BDEE
:106270004C0300206100030070B50D480088A0B9F0
:1062800012F0FCFD40F2E2450446A8420DD3094855
:10629000406D50B919F058FB38B919F0EBFEA8421F
:1062A00003D3A04200D3204670BD002070BD000083
:1062B0004C030020000011400149086070470000B5
:1062C000D800002010B504460820208005206080FA
:1062D00006F042F8A0800A20E08010BD0268134654
:1062E00002E08A4204D01268002AFAD10B600160F1
:1062F000704702E08A4205D010460268002AF9D1B0
:106300000A6001607047006808B1002070470120F2
:10631000704704E0884201D10120704700680028DE
:10632000F8D170470268816832B1406800688842DD
:1063300000D1086808B9704709B1012070470020F2
:1063400070470022C0E90021096881607047016838
:1063500051B141680A6881688A4203D14160096885
:10636000816003E0826001E0012101608068704784
:10637000816809688160426811600021016070478E
:106380004FF0FF3351B107E002688A4203D1096838
:1063900001600020704710460028F5D1184670476C
:1063A0001BF016B81FF002B9FFF7FCBF7420FFF70F
:1063B000F7BF10B50446006A06F027FD2046BDE889
:1063C0001040FFF7EFBF70B58020FFF7E9FF040032
:1063D0000CD040F2111006F0B5FD050008D0802168
:1063E0002046FDF7B2F82046256270BD002070BD42
:1063F0002046FFF7D7FFF9E77047FFF7D3BF5020DC
:10640000FFF7CEBFFFF7CEBF1420FFF7C9BF2DE9BE
:10641000F04106460020984617460C460546306077
:1064200005E02146304600F007F844446D1CBD42AB
:10643000F7DBBDE8F081000030B40268134607E0E6
:106440008B4204D1024630BC04A0FDF7DBBF1B68C1
:10645000002BF5D10A60016030BC70476274737420
:1064600061636B5F6D656D6F72795F706F6F6C5F8D
:10647000667265653A20626C6F636B2025702066DA
:106480007265656420747769636520666F72207039
:106490006F6F6C2025700000016819B10A680260F6
:1064A0000846704700207047FFF77CBF0C20FFF7BD
:1064B00077BF000000B589B00DF1080C01900E48BF
:1064C000006805928CE80B000C4800684FF0000350
:1064D000C005029804D0002269461FF07FFE04E048
:1064E0004FF0FF3269461FF0C3FD012802D00120A2
:1064F00009B000BD0020FBE72C00002004ED00E007
:1065000013460A4601460A20FFF7D4BF13460A463F
:1065100001460C20FFF7CEBF38B5154D286890F81E
:10652000A00008B1552038BD4FF0FF30ADF8020093
:10653000ADF800000AE0684604F05CF80446C08844
:10654000162104F085F8204604F0D0FC684604F0DB
:1065500031F80028EFD1012004F07EFB054804F05B
:106560002FF90028DFD12A68012182F8A01038BD58
:10657000E4700202CC71020238B5044620F07EFAC3
:1065800002464FF0FF30009000230121206920F0E7
:10659000D3FC38BD0020704738B50446006948B1C7
:1065A0004FF0FF31002300911A46052120F0C4FC72
:1065B00000202061002038BD38B5044620F05EFA86
:1065C00002464FF0FF30009000230221206920F0A6
:1065D000B3FC38BDF8B515460E460446FFF7DCFFA0
:1065E000A8024FF47A71B0FBF1F1054866600090A3
:1065F0002346002203A020F033FC2061F8BD0000F8
:106600001940000268000000C1607047C0E9021232
:10661000704708B54FF0FF310091002300691A461A
:10662000032120F089FC08BD2DE9F04107461148FF
:1066300015460E46046898463888B4F8902034F819
:106640008E1F00F0A1F9388062882188308800F020
:106650009BF93080E288A188288800F095F928808D
:1066600062892189B8F8000000F08EF9A8F80000CE
:10667000BDE8F081E470020270B50C00054601D05F
:10668000012000E000206A2206A1FEF74FFE284606
:1066900000F034F810B100206C60206028682060A1
:1066A0002C6070BD6C6973745F62617369632E6383
:1066B0000000000070B50C00054601D0012000E08C
:1066C0000020532207A1FEF731FE284600F016F8FD
:1066D00008B12C6001E06868046000206C602060F4
:1066E00070BD00006C6973745F62617369632E63CF
:1066F000000000000021016041607047006808B19F
:106700000020704701207047006808B100207047E2
:1067100001207047016819B10A68026012B103E0F4
:106720000022FAE7002242600846704770B505462D
:1067300000680C4600B10120C32209A1FEF7F6FD56
:10674000206800B10120C42205A1FEF7EFFD6968B1
:10675000206808606068686000202060606070BD2C
:106760006C6973745F62617369632E63000000007B
:106770000448D0F8A81141F00201C0F8A81118F09F
:1067800073BF00000000104070B5034600200246B1
:10679000012513F80240002105FA01F6344201D028
:1067A000401C80B2491CC9B20829F5D3521CD2B290
:1067B000052AEED370BD70B5044600891AF0E2FFD9
:1067C0002521B0FBF1F201FB1201CA0801F0070517
:1067D000A25C0123AB401A4201D0084670BDE1889B
:1067E00041432046BDE87040C1F3074102F0B2BA10
:1067F00030B504461068206010790D4600F01F0087
:1068000020712046FFF7C0FFE08085EA1540208117
:1068100030BD0A2801DA303003E00A38062802DAEF
:106820004130C0B270473F20704770B50446C08EFB
:1068300088B0002822D0258F94F83430A2268DF815
:1068400000601A268DF80160A6890A46ADF804009A
:10685000ADF8082004F11C01ADF80260ADF8065057
:10686000ADF80A30102203A8FCF748FEA1891C23CA
:106870006A46A06800F0A6F90020E08608B070BD66
:1068800006481144006800F2FF30814203D901201C
:10689000186003207047002070470000E8000020C7
:1068A00070B500F059F8264D24486861D5F800010C
:1068B000800742D5FDF714FC224CA068224920F441
:1068C000F0400843A060206920F080002061A069AA
:1068D00020F00040A061E06840F00400C4F80C0023
:1068E000D5F800018007FBD4606900F0C04540F294
:1068F000C970804740F64D008047810504D440F4BC
:10690000007040F60131884740F25160804740F600
:106910000D0080470D4805436561206920F07840EF
:106920002061BFF34F8F0A4801680A4A01F4E06111
:1069300011430160BFF34F8FFEE770BD001F1F00C2
:10694000000010400020104000280080C7E8948A12
:106950000CED00E00400FA050948016841F47001FB
:1069600001600848D0F8A81121F4C051C0F8A8115E
:10697000D0F82C1141F08001C0F82C1170470000B4
:1069800088ED00E00000104019B1884201D20846AD
:106990007047002AFCD09042FAD910467047000098
:1069A0000249CA6D82430243CA6570470000114024
:1069B00043688B4204D18068904201D10120704726
:1069C000002070473EB5184C60686569006E2D1D4B
:1069D00028B90022202140201FF0AAFAE0620322F9
:1069E000002101201FF0A4FA2061104A0E2029681E
:1069F0008DE8070000230EA10E486A681FF0F2FF21
:106A000020636068006E00280CD1084A02205432CE
:106A1000A9688DE80700002307A10848EA681FF06D
:106A2000E1FF60633EBD0000000000201C04002068
:106A300063000000CD3A0002700000002D09020240
:106A400070B50646401E1D460C460A2809D220781D
:106A50002968884205D10622211D6868FCF787FD58
:106A600008B1002070BDC5E90264032070BD0000BC
:106A70000248417A491C41727047000050010020D1
:106A800010B5044603F084F8002011F079FA12F0F2
:106A9000F3F811F0BBF808F041FC0DF019FA13F00F
:106AA00027FE17F0F5FE002C03D0BDE8104012F0D1
:106AB000ECBE10BD70B50446B0F1A53F1AD0B4F1DC
:106AC000C33F17D001234FF4A06205211D2019F008
:106AD0002FF80546B4F1F23F09D0922206A100201A
:106AE000FEF724FC2846BDE8704019F093B9072052
:106AF0002870F7E770BD00006474626C652E630057
:106B000003484FF40031C1644FF420318164704771
:106B100000001140F8B505461B480E4600210180D3
:106B200011F022FB1DF0F8FC18F0AAFF684611F0E6
:106B30005FFB0446009841F2E86140F64427884232
:106B400001D3012000E00020862210A1FEF7EEFB19
:106B50003A462146002018F0FFFF009804F6442131
:106B6000A0F6442082B2012018F0F6FF1DF012FCBE
:106B70003046FFF785FF002D04D02846BDE8F840D9
:106B8000FFF798BFF8BD00004C03002064746970E3
:106B90002E63000009490120096809B100207047EF
:106BA0000749CA69002AF9D1044A2832126889685B
:106BB000491E8A42F3D1022070470000C00800201D
:106BC0004800002030B4040003D0A44630BC0420A8
:106BD000604730BC7047FEB51E4617460C4605465A
:106BE00002F0E8F8002816D0011D6846FFF7A9FB5F
:106BF0000CE06846FFF7ABFB0189A14206D1D0F853
:106C000004C033463A4629460420E0476846FFF769
:106C100089FB0028EDD1FEBD1CB5A0228DF8002017
:106C200003228DF801208289ADF802208DF804102E
:106C30008189806805236A46FFF7C4FF1CBD30B513
:106C400087B00446A3250A988DF8005018258DF8C2
:106C50000150A589ADF80410ADF806200146ADF845
:106C60000250ADF8083010220DF10A00FCF746FC86
:106C7000A1891A236A46A068FFF7A4FF07B030BDB8
:106C800010B586B00446A1208DF8000016208DF8BE
:106C90000100A089ADF80410ADF80200ADF806209F
:106CA0001022194602A8FCF729FCA18918236A467C
:106CB000A068FFF787FF06B010BD00002DE9F05F68
:106CC00000249246894605462746264626E000BF10
:106CD00005EB8400B0F9021035F924001AF080FDAC
:106CE000834605EB8800B0F9021035F928001AF048
:106CF00077FDABEB000043F6FF71884203DBA0F5A4
:106D0000FE40FF3806E043F6FF71C84202DC47F65A
:106D1000FF710844074404EB4904761C04EB09089E
:106D2000D045D5DB97FBF6F0BDE8F09F2DE9F043A9
:106D300042780446901C89B00E46814206D009B0C4
:106D4000DF48BDE8F043921CFDF75EBB2178DDA073
:106D5000FDF75AFB2078DFF87C834FF000091228FA
:106D600075D00CDC0E2811D004DC052870D0082862
:106D700053D17BE00F2835D010284ED199E013284D
:106D800052D03E2871D0572847D17AE1D8F8000078
:106D9000A278454690F84A10CFA0FDF735FB6179FF
:106DA000D6A0FDF731FB2968A07881F84A00D849C0
:106DB000B4F803000988884207D1002003F04CFF93
:106DC000296881F8A09004F017F82968B4F8030046
:106DD000B1F87A10884218D12868C26BAAB1016C48
:106DE000601D11E0D8F80020E178404682F84A1092
:106DF000D8F80020A188B2F87A20914205D1016824
:106E0000CA6B12B1096C601C9047D8F80020A2F838
:106E10007A90D8F80010C1F83C90D8F8000090F8AB
:106E2000600001287ED038E10325002719E0635B6C
:106E3000AD1C625B1846AD1C03F08CFB48B190F8AA
:106E4000281091420AD3891A80F8281008E035E00A
:106E500026E01946AFA0FDF7D7FA01E080F82890A8
:106E60007F1CA078B842E2DCD7E733E0B4F80350E7
:106E7000284603F06FFB0028CFD0A17849B961798B
:106E80000029816902D041F4004101E021F4004170
:106E9000816100F0F3FB0146284603F03FFCBCE7AC
:106EA000B4F8030003F056FB0028B6D00721417464
:106EB000B3E703F071FE03F083FEAEE7A07800288D
:106EC000ABD1B4F8030003F045FB0028A5D0617AEC
:106ED0000174A2E7A0780A2838D033DC012835D025
:106EE00004287DD0062898D134F8037F384603F073
:106EF00031FB05006088ADF81400A088ADF81000E3
:106F0000E088ADF818002089ADF81C00A4F1030456
:106F100083D007AB06AA04A905A8FFF785FBEB8F72
:106F2000AA8F00E0B5E0BDF81800BDF81C108DE890
:106F30000F00BDF81030BDF814203946834803F027
:106F40003FFC6AE7122873D029288DD1E078002809
:106F50008AD1A788052F21D2D8F8000000EB870539
:106F6000686910B9FFF72FFA6861050016D0EF8045
:106F70000220C5F81890A874FFF70CFBE861E079CF
:106F80002872294604F108001AF0C4FB0520687431
:106F9000A0792874A0780A2804D00FE0A08800F017
:106FA00067F93AE7D4F80E00C5F87200608AA5F8D0
:106FB00076006069A867208BA5F87C00E089688767
:106FC000287C60B9D8F8001091F84810E973D8F817
:106FD000000005F1090190F8480000F0FBF900E01D
:106FE00016E02846FFF788F80246E98858A0FDF722
:106FF0000BFA03F069FBD8F8000090F85600C006C1
:107000009FD5E98840F6B832594803F0D9FB04E728
:10701000E07800283AD1A08803F09CFA002835D007
:10702000A17980F87110012180F87010F5E6FFE772
:107030002079082885D2E17819B14EA0FDF7E4F94E
:10704000EBE6B4F80520104603F084FA05462179F2
:1070500051A0FDF7D9F9D8F8000021798530095CF5
:10706000E97349B1217968461DF02AFA05F1090151
:1070700068461AF04FFBD0E605F1090000F0C0F9B0
:10708000CBE6608803F066FA00288AD109B0BDE833
:10709000F083B1B2204603F03BFCB1B2204603F0CE
:1070A000EBFA2078052806D1B4F8030003F052FA71
:1070B00008B103F01BFF09B0BDE8F04303F0E8BDE1
:1070C000509002024843493A4556454E543A2530BD
:1070D00032780000E4700202434D445F434F4D504C
:1070E0004C45544520636D6473206F6C6420257596
:1070F000202D206E6577202575000000636D645F8C
:10710000636F6D7020737461747573202575000052
:10711000CC7102026863695F6E756D6265725F6350
:107120006F6D706C657465645F7061636B6574200E
:107130006C6973747320756E7573656420636F6E0C
:107140002068616E646C652025750000647202021F
:107150004E657720636F6E6E656374696F6E3A205B
:1071600068616E646C652025752C20257300000015
:10717000D471020261647620736574207465726D47
:10718000696E61742064756520746F206361757326
:107190006520307825780A006164762068616E6425
:1071A0006C6572203078257820636F6E6E6563742D
:1071B000656420746F20636F6E2068616E646C6517
:1071C00020307825780A000010B5044604F064F8F1
:1071D000204610BD13460A460146014803F0F0BAA6
:1071E0000C7302020246014803F0EABA0C72020272
:1071F00030B50C46054689B01946104600F05AFADB
:1072000000280CD1694628461AF072FA04A92046D3
:107210001AF06EFA04AA6946024803F0D1FA09B0DE
:1072200030BD00003C720202014803F0C9BA000000
:1072300004720202014803F0C3BA0000BC720202E9
:10724000014803F0BDBA00001C730202014803F0BC
:10725000B7BA0000F471020208B5009313460A465B
:107260000146024803F0ACFA08BD00004871020272
:10727000132100F001B8000010B50A46034603F0E0
:1072800069F938B1062141741946054803F098FAA6
:10729000002010BD0021184603F0DAF9F8E70000DD
:1072A000BC71020238B54FF0FF30ADF80200ADF806
:1072B000000006250DE0684603F09CF90446407C7A
:1072C000062806D0E1881322054803F079FA00B9B0
:1072D0006574684603F06EF90028ECD138BD0000F3
:1072E000BC7102022DE9FF4F85B0DFF89C80DDE91B
:1072F00012698A460A20002400EB06119B462746A5
:10730000B8F8000003AA03F003F8050001D001213A
:107310000FE0562009B0BDE8F08F00BF04EBC402B7
:1073200019F81220521E01FA02F03843641CC7B249
:10733000E4B2B442F2D30798CDE9000B029753466A
:10734000D8F804102846059A03F0FBF8C7B20024C9
:107350000DE000BF04EBC40109EB4101E819102264
:10736000891CFCF7CBF81037641CFFB2E4B2B442BE
:10737000F0D306494046096881F848A02946039A97
:1073800003F06EFD0020C5E7EC720202E470020219
:1073900010B500F08FF9002804D1BDE81040024874
:1073A00003F00EBA10BD00004472020202480068E9
:1073B00090F87C0070470000E470020204490968FC
:1073C00051F88E2F02604A68426089688160704778
:1073D000E47002021CB50C4620B1FF2168461DF086
:1073E0006FF802E068461DF081F8214668461AF001
:1073F00091F91CBD0146014803F0E2B92C7202026A
:1074000001460020FFF7E6BF10B50446014604A080
:10741000FCF7FAFF022C01D9012010BD002010BD9D
:107420006761705F6D69746D5F70726F74656374AE
:10743000696F6E5F72657175697265645F666F72A0
:107440005F73656375726974795F6C6576656C20CE
:10745000257500007FB50DF1200C9CE870008DE8CB
:10746000780013460A460146024803F0A9F904B021
:1074700070BD0000F4720202014803F0A1B90000DF
:10748000FC72020213460A460146014803F098B90D
:107490003871020213460A460146014803F090B9CA
:1074A000307102021CB5049CCDE9003413460A4633
:1074B0000146024803F084F91CBD0000407102023D
:1074C0000146014803F07CB9047302020448817A42
:1074D000012903D1022181721CF0D4B87047000049
:1074E00050010020074810B5426C40F28221064846
:1074F000FFF770F80448FFF73FF8BDE81040FFF7CA
:10750000E5BF000050010020BC4D002010B5002256
:1075100007490848FFF77AF8074840F28221426C91
:107520000448FFF757F8BDE810400248FFF724B8B9
:10753000E5740002BC4D002050010020014803F01A
:107540003FB90000EC710202014803F039B90000B4
:1075500020710202014803F033B9000024730202D3
:107560000146014803F02CB9747202020146014839
:1075700003F026B9347202020146014803F020B933
:10758000C47102020146014803F01AB9DC7102021B
:10759000014803F015B90000FC71020202460148DF
:1075A00003F00EB9147202022DE9F0410E460746AF
:1075B00002F0D0FF050010D0384600F055F8044620
:1075C0000246314608A0FCF71FFFB44207D321460C
:1075D0003846BDE8F04103F0A1B80121F8E7AE74E8
:1075E000BDE8F04103F054BB6761705F726571756F
:1075F0006573745F73656375726974795F6C6576C2
:10760000656C2025752C2063757272656E74206C14
:107610006576656C202575000146014803F0D0B8F9
:10762000B472020213460A460146014803F0C8B884
:107630001473020213460A460146014803F0C0B81B
:1076400058710202F0B585B00DF1280C9CE8F000ED
:107650008DE8F80013460A460146024803F0B0F8E8
:1076600005B0F0BD6871020210B502F073FF18B1E9
:10767000BDE8104000F002B8012010BD10B1008B31
:10768000000401D401207047022070470220704797
:107690000A460146014803F093B800008C720202CA
:1076A00000B101200249096881F87C0070470000A0
:1076B000E4700202034A1368586310688163002073
:1076C00070470000E470020201490968486470478D
:1076D000E47002021CB5049CCDE9003413460A464E
:1076E0000146024803F06CF81CBD00001071020254
:1076F0000A460146014803F063B80000187102020F
:107700002DE9FE4F124E1746884681461D463088A9
:1077100002AA591DDDF830A002F0FAFD040014D0D1
:10772000CDE9007543464A46716802F00AFFC0B2CF
:1077300020442A465146FBF7E1FE21463046029A94
:1077400003F08EFB0020BDE8FE8F5620FBE7000013
:10775000007102022DE9FC47104D16460F46804687
:107760009946288801AA311D02F0D2FD040013D0E9
:1077700000963B464246696802F0E3FEC0B22044F0
:1077800032464946FBF7BAFE21462846019A03F0E5
:1077900067FB0020BDE8FC875620FBE7087102026A
:1077A00004490268096841F88E2F42684A6080687F
:1077B00088607047E47002020A460146014802F000
:1077C000FFBF0000F07002022DE9FF5F144DDDE9FC
:1077D0000E6B9046894682461F46288803AA711D73
:1077E00002F096FD040018D0CDF80080CDE90176B6
:1077F0004B4652462046696802F0A3FEC0B22044C0
:1078000032465946FBF77AFE21462846039A03F092
:1078100027FB002004B0BDE8F09F5620FAE70000E7
:10782000E87002022DE9FF5F144DDDE90E6B904612
:10783000894682461F46288803AAB11D02F068FDCA
:10784000040018D0CDF80080CDE901764B465246B1
:107850002046696802F075FEC0B22044324659469F
:10786000FBF74CFE21462846039A03F0F9FA002064
:1078700004B0BDE8F09F5620FAE70000F87002025D
:107880000AB944F2902213460A460146014802F022
:1078900097BF00006C72020213460A460146014877
:1078A00002F08EBF7C72020208B50B4600920246BF
:1078B0000021024800F062F808BD00009C7202023C
:1078C0002DE9FC47184F884691460446022101EBFA
:1078D0008801388801AA02F01BFD060007D0434644
:1078E0002246796802F02DFEC5B2002413E056202E
:1078F000BDE8FC8704EB440009EB40010A790092E3
:107900004B8819F81020701908A102F01AFE2D1DDD
:10791000641CEDB2E4B24445ECD331463846019ADA
:1079200003F09EFA0020E3E7AC720202313231002C
:107930002DE9F04F8DB00DF1640C179C9CE8E04FE1
:10794000DFF830C0DCF800C084448CF885400DF1CD
:10795000100C8CE8E04F169E189DCDE900361346BA
:107960000A4601460448CDE9024502F029FF0DB060
:10797000BDE8F08FE4700202947202022DE9FC4728
:107980001C460A9D174688468146F72B26D9F720C4
:10799000CDE900050B4601223946484602F010FFAA
:1079A000002823D1F73CA4B2F73515E0F72C01D31A
:1079B000F72600E02646A01BCDE900650404240C50
:1079C00001D0002200E0022243463946484602F038
:1079D000F7FE00280AD13544002CE7D143460322A4
:1079E00039464846CDE9004502F0EAFEBDE8FC878D
:1079F00008B5009313460A460146024802F0E0FE2D
:107A000008BD0000E47202022DE9FC4716460F464D
:107A1000DFF88C8002EB8601824699460024B8F894
:107A2000000001AAC91C02F073FC050002D000206E
:107A300001220EE05620BDE8FC8700BF00EB4003AA
:107A400019F813305B1E02FA03F12143401CCCB23B
:107A5000C0B2B042F2D300943B4652462846D8F812
:107A6000041002F06EFDC7B200240FE004EB4401E5
:107A700009EB41008188009143884278E81909A107
:107A800002F05FFD7F1D641CFFB2E4B2B442EDD38F
:107A900029464046019A03F0E3F90020CBE70000B5
:107AA000DC7202023132320008B50B460092024607
:107AB00000210248FFF762FF08BD0000A472020225
:107AC0000A460146014802F07BBE00002472020211
:107AD0002DE9F843194F15460C468046F82923D95D
:107AE0000146F82301223846009502F069FE00287D
:107AF00021D1F83CA4B2F83514E0F82C01D3F826D3
:107B000000E02646A01B0404240C009501D00022AE
:107B100000E0022233464146384602F051FE00287A
:107B200009D13544002CE8D123460322414638468A
:107B3000009502F045FEBDE8F8830000CC72020219
:107B40000A460146014802F03BBE0000D472020220
:107B500008B5009313460A460146024802F030FE7B
:107B600008BD0000C47202020A460146014802F044
:107B700027BE0000287102021CB5049CCDE9003428
:107B800013460A460146024802F01AFE1CBD0000D8
:107B9000847202020146014802F012BEE471020240
:107BA0000249096881F8490070470000E470020248
:107BB0002DE9FF4F87B01C46DDE91A01DDE91865A4
:107BC000DDE91687DDE914A99346FFF773FD002868
:107BD0000DD1CDE9004ACDE90259CDF81080CDE9AB
:107BE0000576DDE907125B46024802F0E9FD0BB0BD
:107BF000BDE8F08F50710202014802F0E1BD0000C3
:107C00007871020208B5009313460A4601460248FD
:107C100002F0D6FD08BD000060710202F0B587B029
:107C20000DF1300E9EE8F0108DE8F81013460A466C
:107C30000146024802F0C4FD07B0F0BD70710202B7
:107C40002DE9FF410D46DDE90A4780460C9E02F012
:107C500081FC002806D0007C38B1294640460094BB
:107C600004F0A9FC04B0BDE8F08103968DE898000B
:107C700013462A464146024802F0A2FDF2E7000000
:107C80001C72020208B59200921C0B46009201463B
:107C90000722024802F094FD08BD00008071020234
:107CA0002DE9F047DFF88CA48AB01E4615468846B9
:107CB00004280AD008287DD128781B280FD01D2839
:107CC00008461FD001F076F81EE02978782971D196
:107CD000DAF80040002C50D04146A0474DE0B5F8FE
:107CE00001700C46DE1E3946A720D21C19F0ACFEEE
:107CF0000246F61C0AB0B3B239462046BDE8F0474A
:107D0000FEF769BF18F04EFE040053D02978771EA5
:107D10004FF001090D2973D009DC0C2915D2DFE8D9
:107D200001F014EF143114EE14ED148614F0172939
:107D300067D006DC0F2978D0112952D0132904D13D
:107D400067E1192972D01D295CD0FBA0FCF75BFB11
:107D500028788DF808908DF80900002006218DF80C
:107D60000A008DF80C108DF80B0000900190A0898E
:107D7000052302AA042104F0F1FD0AB0BDE8F04792
:107D800000F0CEBCB5F8015004F0E6FA854200D20E
:107D90002846E08284F81890DAF8005095B1AB20BC
:107DA0008DF8000004208DF80100A089ADF80200D4
:107DB000E08A00E0F7E1ADF804000623A1896A46F5
:107DC0000420A8474046FEF7DBF8E6480078800725
:107DD000D3D4E08A0022001D81B2A089FFF750FDB4
:107DE000CBE720780228C8D132462946204619F030
:107DF00041FC69782046711A294401224988A7E08C
:107E00000FE13CE14746B5F80180EA1C4146A82055
:107E1000F61E19F019FEF61C0246B3B2414638466A
:107E2000FEF7D9FE84F85190A7E76AE15BE120787C
:107E30000C281BD011DC062801D008289DD1324621
:107E40002946204619F0C9FB3146284600F0BCFF00
:107E5000014620461DF03EF88FE7142833D0242831
:107E60008BD16888A4F84C0025203AE195F8018070
:107E7000B8F1070F07D26888A085A8882086E8880F
:107E800060860D202DE1022716E000BFE91935F8C4
:107E900007904A8822868A886286C98801A81DF0D0
:107EA00015FA01A80090638E228E49462046FEF7FF
:107EB000C6FE07EB080087B2B742E7D369782046D1
:107EC000711A695A43E095F8018000210227A8F150
:107ED000020A0DE035F80790EA191FFA8AF34946BD
:107EE0002046921C19F06AFB07EB0800494687B24E
:107EF000B742EFD3204613222AE002E035E04CE0FF
:107F000009E120780E2814D0102824D028288BD1FD
:107F1000204600F07DFA218F6A1CA92019F094FDFB
:107F200002460837BBB2A189A068FEF74BFE0021CC
:107F300035E101A9681C19F0DBFBA18D01AA0092B3
:107F40002046638E228EFEF77AFEA18D20460B22FC
:107F50001CF0E0FF11E7204600F05AFABBB2218F77
:107F60006A1C204619F02AFBE1E74FF004094FF69E
:107F7000FF78012704F11C0A09E0E819E95B408851
:107F80005346804602462046FEF77AFE4F44B742EB
:107F9000F3DB204641460322DAE76878042702280B
:107FA00000D11227F01BB61E1FFA86F835F800A084
:107FB0000026AD1C22E000BF35F80690042F05EB2B
:107FC000060021D006A9801C19F092FBA4228DF88E
:107FD000002014228DF80120A289ADF8022006A904
:107FE000ADF8049010220DF10600FBF787FAA18985
:107FF00016236A46A068FEF7E5FD3E444645DBDBF6
:10800000204651460922A3E7418806A81DF05EF9E3
:10801000DCE72078182803D0262801D02C2899D115
:10802000ACE0761E2078B6B2761DBFB2122815D00D
:108030002A288FD1218F628F6B1CAA20009719F0FC
:1080400011FD020004D0B3B2A189A068FEF7BAFD09
:108050003A46292120461CF025FF8EE6218F628FAB
:108060006B1CA620009719F0FDFC020004D0B3B2EF
:10807000A189A068FEF7A6FD3A461121EAE720781B
:108080001A2812D01C281CD02E2814D03228E4D153
:10809000204600F0BDF932462946204603F03EF95D
:1080A00000287FF461AF7E2179E0B5F803001D223E
:1080B0006087192110E0B5F803002F2260872D2179
:1080C0000AE032462946204603F028F940B1B5F8C7
:1080D00003001D2260871B2120461CF00AFF4CE68E
:1080E0002120207049E620781E2847D0202845D03E
:1080F000222802D03028B0D140E0204600F088F994
:10810000D1E720781628A8D1BBB26A1C00212046EE
:1081100019F054FA32E029790A292BD1207808285D
:1081200030D021DC022829D0042827D0062821D1EC
:1081300028E00000DC0000204154542048616E64B7
:108140006C65722C20756E68616E646C656420725B
:108150006573706F6E736520747970652030782553
:1081600030327800D80000200A2807D00C2805D02B
:1081700014280CD0204600F0C2FAFEE5204600F09C
:1081800047F9D4E6E18D2046FEF74FFBF6E720469F
:1081900000F03EF9A08D218E8842F2D10A212046BE
:1081A000FEF73AFDE9E50AB0BDE8F08710B50446F0
:1081B000084618F031FC18B1017819B1952010BDAE
:1081C000562010BD1F218460017000F0A9FA002024
:1081D00010BD70B505461446084618F01DFC18B1D0
:1081E000017819B1952070BD562070BD85606188F9
:1081F000A288914203D10021FEF70EFD07E0491C41
:108200008185A188C1850921017000F089FA0020CB
:1082100070BD2DE9F04107461D4616460846DDF8BB
:10822000188018F0F9FB040004D0207820B19520C4
:10823000BDE8F0815620FBE7A760A685E585012013
:1082400084F85000002565831022414604F11C008B
:10825000FBF754F9E5860720207000F061FA002052
:10826000E6E72DE9F04107461D4616460846DDF8CB
:10827000188018F0D1FB040004D0207820B195209C
:10828000BDE8F0815620FBE7A760A685E5850120C3
:1082900084F85000A4F81A80414604F11C001DF037
:1082A00015F80020E0860720207000F039FA002041
:1082B000E6E770B506461C461546084618F0ACFBC6
:1082C00018B1017819B1952070BD562070BD866037
:1082D0008585C485002180F85010C1860521017074
:1082E00000F01EFA002070BD10B50446084618F0D4
:1082F00093FB18B1017819B1952010BD562010BD1F
:108300000121846081854FF6FF72C28501700021D2
:10831000418300F005FA002010BD70B505461646F1
:10832000084618F079FB040003D0207818B1952096
:1083300070BD562070BD0120A560A0854FF6FF706E
:10834000E085002060831022314604F11C00FBF719
:10835000D5F80320207000F0E3F9002070BD70B55F
:1083600005461446084618F057FB18B1017819B1B4
:10837000952070BD562070BD0121856081854FF626
:10838000FF71C185032100F81A1B214620F8024B1A
:108390001CF09CFF00F0C4F9002070BD10B504462D
:1083A000084618F039FB18B1017819B1952010BDB5
:1083B000562010BD1D218460017000F0B1F900202D
:1083C00010BD70B506461C461546084618F024FB3D
:1083D00018B1017819B1952070BD562070BD866026
:1083E0008585C4850B21017000F09AF9002070BDCD
:1083F00000B50A4600F0DEFC10B1017E012903D071
:1084000017201080952000BDC08A1080002000BD7C
:1084100010B5002101700446818904A0FBF7F3FF29
:1084200004F16000BDE81040FEF7B6B8474154546F
:1084300020636C69656E742074696D656F75742056
:1084400073746F702C2068616E646C6520307825C1
:108450003032780070B504281AD11078052813D16D
:10846000B2F80350284600F0A5FC04000CD01F21F0
:1084700000F045F92046FFF7CBFF0649002041F800
:1084800025002046FDF790FFBDE8704000F048B998
:1084900070BD0000944B0020064910B504484860A8
:1084A000084601F027FFBDE810400348FCF7A6BFCF
:1084B00055840002E0000020A17C000210B518F0F5
:1084C00071FA002802D0007808B1002010BD012008
:1084D00010BD70B504460D46104600F06BFC002838
:1084E00007D0656023812146BDE87040001DFDF77F
:1084F000F5BE70BD2DE9F0410646DDE906781C4663
:108500001546084618F088FA20B1017821B1952067
:10851000BDE8F0815620FBE78660058787874487A2
:108520003121C0F84080017000F0FAF80020EFE738
:1085300070B505461446084618F06EFA18B1017871
:1085400019B1952070BD562070BD85600487272124
:10855000017000F0E5F8002070BD0023AFF300804B
:1085600070B506461C461546084618F055FA18B16F
:10857000017819B1952070BD562070BD86600587C1
:1085800044872921017000F0CBF8002070BD002342
:10859000AFF3008070B506461C461546084618F035
:1085A0003BFA18B1017819B1952070BD562070BD05
:1085B0008660058744871121017000F0B1F8002022
:1085C00070BD70B506461D461446084618F024FADC
:1085D00018B1017819B1952070BD562070BD866024
:1085E000A0F8444015218564017000F099F800203E
:1085F00070BD70B505461446084618F00DFA18B15E
:10860000017819B1952070BD562070BD8560048732
:10861000002141870F21017000F082F8002070BD19
:108620002DE9F04107461D4616460846DDF818803C
:1086300018F0F2F9040004D0207820B19520BDE8AC
:10864000F0815620FBE7A760A685E585268665862E
:10865000002060831022414604F11C00FAF74EFF0F
:108660001320207000F05CF80020E8E72DE9F041CD
:1086700007461D4616460846DDF8188018F0CCF966
:10868000040004D0207820B19520BDE8F081562068
:10869000FBE7A760A685E58526866586A4F81A808F
:1086A000414604F11C001CF011FE1320207000F064
:1086B00037F80020E9E70000014908607047000032
:1086C000DC0000202DE9F04106461C461546084610
:1086D000069F18F0A1F920B1017821B19520BDE8DD
:1086E000F0815620FBE7866005878487002141875B
:1086F0001B210764017000F013F80020EFE770B54C
:10870000044600780D46002808D02046FFF780FE7A
:1087100029462046BDE87040FEF77EBA70BD0000D5
:108720002DE9F04F002789B04FF01E094FF0040AE1
:108730004FF0020B3D464FF00808CE4850F8274056
:10874000002C70D0A089FCF753FE40B12278217E26
:10875000C9A0FBF758FE207E012864D105E0A0895E
:1087600009B0BDE8F04FFCF746BE94F8510050B197
:1087700084F85150A08901238DF80890009502AA31
:10878000042101958CE02078172801D02B2818D1DE
:10879000204617F08BFDA18FC01E884211DA2046BB
:1087A00017F084FD0246A18FC1A0FBF72CFE2046E6
:1087B000FFF72EFE09B02046BDE8F04F0D21FEF771
:1087C0002BBA606D04F07CFA06462178C3A0FBF753
:1087D0001AFE2078362826D2DFE800F09E1B9E265F
:1087E0009E469E499E519E659E719E759E779E797E
:1087F0009EA39EB69EB89EBC9EBE9EC19EC39ECBAF
:108800009EED9ED39EDD9EE59EFE9EFC9EBA9EFB47
:108810009EFA84F800B0E08D0090A38DA2894FF4F9
:108820002051102048E077E084F800A0608B4FF4DE
:10883000205530B1ADF81C00E18D07AA8DE806087F
:1088400009E003A904F11C0018F052FFE08D10228A
:1088500003A98DE80700A38DA28929460620FCF70D
:1088600001FF09B0BDE8F08F0620207001E084F818
:10887000008009B02046BDE8F04F19F048B884F8F0
:108880000080A689A18DE08D8DF808A0ADF80910B3
:10889000ADF80B000095052302AA0421304601958E
:1088A00004F05CF8DDE70C202070E08D0090A38DD3
:1088B000A28942F602010820FDF717F9D1E70E2040
:1088C0002070228E60E010205CE0122064E0142012
:1088D0002070618B204639B1C28D0092838DA289B0
:1088E0000820FDF702F917E000F11C028689818D4E
:1088F000E08D8DF80880ADF80910ADF80B000DF192
:108900000D01104618F0F4FE0095152302AA04216B
:108910003046019504F022F87F1C052FFFF40DAFBF
:108920009FE716202070A089B4F844100E23A26C93
:108930008DF808304FF6FF7303EA4101CDE90021BD
:10894000012302AA0421E5E718202DE01A2044E0C3
:10895000322042E01C2040E084F8009046E02020D5
:1089600000E02220207009B02046BDE8F04F18F04A
:10897000C9BF2420207009B02046BDE8F04F19F08F
:1089800006B828202070228FA18909B00A20BDE8EE
