:020000040000FA
:1040000000F0002071420000754A0000D540000019
:10401000754A0000754A0000754A00000000000063
:10402000000000000000000000000000EF40000061
:10403000934200000000000031410000854C000068
:104040002D15020065150200791702009942000043
:104050008917020099170200A9170200994200006F
:1040600099420000B91702009942000099420000ED
:104070009942000099420000C9170200D9170200B6
:10408000E9170200F91702000918020019180200C6
:1040900099420000994200009942000099420000B4
:1040A00099420000994200002D1802009942000038
:1040B0000100095100C00200DFF80CD000F0FAFB4B
:1040C00000480047C908020000F0002030B58047D2
:1040D00030BD00BF1EF0040F0CBFEFF30880EFF3FC
:1040E0000980816942F20932C0F202021047224B74
:1040F00019680868B0E8F00F80F30988BFF36F8F84
:104100004FF0000080F311884EF00D0E704700BF95
:104110000000000005480068006880F3088862B667
:1041200061B6BFF34F8FBFF36F8F00DF1000002029
:10413000EFF30980BFF36F8F0F4B1A6820E9F00F80
:10414000106008B54FF0200080F31188BFF34F8F47
:10415000BFF36F8F24F04CF84FF0000080F311880C
:10416000BDE8084019680868B0E8F00F80F30988D6
:10417000BFF36F8F704700BF44000020EFF305804E
:10418000704700B51A4422F0030203460E48006847
:10419000C0050ED1EFF3148080070AD5EFF3098034
:1041A00082F3098801B40846984701BC80F3098866
:1041B00000BDEFF3088082F3088801B408469847F1
:1041C00001BC80F3088800BD04ED00E02DE9FF5F2D
:1041D000EFF31080EFF31181EFF31282EFF313830B
:1041E0000FB447F21030C2F200001A490160EFF339
:1041F0000881EFF30982EFF31483EFF30384416046
:104200008260C36004611448016841F001010160EB
:1042100044F6206000BF401EFCD11048416882680F
:10422000C368046981F3088882F3098883F31488DA
:1042300084F30388BFF34F8FBFF36F8F0FBC80F3FE
:10424000108881F3118882F3128883F31388BDE804
:10425000FF5F70471B4200000403094010730020F9
:1042600040BA704740BA7047C0BA7047C0BA70478A
:104270000A48016811F0010F1CBF21F00101016023
:1042800002D007480068004706480047FEE7FEE7FF
:10429000FEE7FEE7FEE7FEE7FEE7000064010440FC
:1042A00010730020B94000002DE9F0035FEA930C81
:1042B00067D000BF30F9024B31F9026B30F9025B75
:1042C00031F9027B04FB06F805FB07F94FEA684861
:1042D000A8EB69487C4322F8028B6414754304EB15
:1042E000654422F8024B30F9024B31F9026B30F988
:1042F000025B31F9027B04FB06F805FB07F94FEA84
:104300006848A8EB69487C4322F8028B6414754323
:1043100004EB654422F8024B30F9024B31F9026B91
:1043200030F9025B31F9027B04FB06F805FB07F963
:104330004FEA6848A8EB69487C4322F8028B641472
:10434000754304EB654422F8024B30F9024B31F916
:10435000026B30F9025B31F9027B04FB06F805FBC6
:1043600007F94FEA68487C43A8EB69486414754331
:1043700022F8028B04EB654422F8024BBCF1010CDD
:1043800098D113F0030304BFBDE8F003704700BFEA
:1043900030F9024B31F902CB30F9025B31F9026B93
:1043A00004FB0CF77F1405FB06F87443A7EB684782
:1043B000641422F8027B05FB0CFC04EB6C4C22F825
:1043C00002CB5B1EE4D1BDE8F00370472DE9F05F3E
:1043D0000546002092469B46884606468146402474
:1043E0001BE0284641464746224600F09EF85346C9
:1043F0005A46C01A914110D311461846224600F081
:1044000085F82D1A67EB01084F462246012000214E
:1044100000F07CF817EB00094E41201EA4F10104C6
:10442000DFDC484631462A464346BDE8F09F00009F
:104430000649074A0868504343F2390210440860AD
:104440004008704701490860704700005004002090
:104450006D4EC64110B5431A934209D2831888188D
:1044600003E010F8011D03F8011D521EF9D210BD22
:1044700040EA01039B0703D009E008C9121F08C0E6
:10448000042AFAD203E011F8013B00F8013B521E66
:10449000F9D210BDD2B201E000F8012B491EFBD2C7
:1044A00070470022F6E710B513460A46044619463F
:1044B000FFF7F0FF204610BD421C10F8011B002939
:1044C000FBD1801A704730B504460020034600E057
:1044D0005B1C934203D2E05CCD5C401BF8D030BD46
:1044E00030B50B46014600202022012409E021FAC4
:1044F00002F59D4205D303FA02F5491B04FA02F5C1
:104500002844151EA2F10102F1DC30BD202A04DB93
:10451000203A00FA02F1002070479140C2F12003D6
:1045200020FA03F3194390407047202A04DB203A15
:1045300021FA02F00021704721FA02F3D040C2F1C3
:10454000200291400843194670472DE9FE4F8046EE
:1045500081EA0300C00F0C46009021F0004123F0D7
:104560000045B8EB0200A94105D2404621469046DD
:104570001C460B46024623F00040104304D140463F
:10458000214603B0BDE8F08F270DC7F30A00C3F33F
:104590000A510290401A0190402866DAC3F31300D2
:1045A00040F4801B0098924620B10023D2EB030A0E
:1045B00063EB0B0B01985946C0F140025046FFF7E0
:1045C000A5FF06460D4650465946019A00F084F96B
:1045D00010EB08006141002487EA115284EAE77376
:1045E0001A433BD0009A3AB3019A012A4FEA075284
:1045F00010DC001B61EB02014FF0004202EA07529F
:10460000CDE90042001C41F5801132462B4600F0F6
:1046100082F9B6E7001B61EB0201001C41F5801333
:1046200000185B412018A2F5001747EB030140EA90
:10463000D570B6196D4111E06D084FEA360645EAAE
:10464000C0754FEA0752001B61EB0201001C41F5E7
:10465000801149084FEA30000019514132462B467B
:1046600003B0BDE8F04F00F049B9009801224000C6
:104670000023D0EB020263EBE073009821464FEA7F
:10468000E074B8EB000061EB0401E9E783F000435C
:104690005BE781F0004158E72DE9FE4F81EA030412
:1046A00004F0004421F0004100944FF0000B23F08F
:1046B000004350EA010402D052EA030404D100206E
:1046C000014603B0BDE8F08FC3F30A54C1F30A55A5
:1046D0002C44A4F2F3340194A0FB0254C1F313015F
:1046E00041F48011C3F3130343F4801301FB02442C
:1046F00000FB034E840A970A44EA815447EA835731
:10470000A4FB076802958D0A05FB07854FEA932CE9
:1047100004FB0C542705029D4FEA065847EA16375A
:10472000B5EB08056EEB070C870E920E47EA811772
:1047300042EA8312A7FB0201B6EB0B0164EB000413
:104740002B0D43EA0C335E1844EB1C50DA465146FD
:10475000E7FB0201C5F313044FEA0B3343EA14539A
:104760004FEA0432019C43EA0603A4F10C040294CC
:10477000009CCDE900B400F0CEF8A2E72DE9F04DA1
:1047800081EA030404F0004B21F0004514464FF089
:10479000000A23F0004150EA050220D054EA010249
:1047A0001DD0C5F30A570246C5F31303C1F3130026
:1047B000C1F30A5640F4801543F48013A7EB0608B2
:1047C000101BD64608F2FD3873EB050002D308F142
:1047D000010801E092185B41B8F1000F03DA0020F4
:1047E0000146BDE8F08D00204FF480110646844656
:1047F0000EE0171B73EB050705D3121B63EB0503D4
:1048000006434CEA010C49084FEA300092185B411C
:1048100050EA0107EDD152EA030012D082EA040007
:1048200083EA0501084303D100224FF0004308E06A
:10483000101BAB4102D20122002302E06FF0010203
:1048400053101AEB06004CEB085110EB0A0041EB39
:104850000B01BDE8F04D00F051B8C1F30A52C1F3AD
:10486000130140F2FF3341F480119A4202DA002032
:104870000146704740F233439A42A2F2334202DCCF
:104880005242FFF752BEFFF741BE000030B500298B
:1048900004DB4FF00044404264EB0101002B04DBD9
:1048A0004FF00044524264EB0303994208BF904228
:1048B00030BD0000064C074D06E0E06840F0010303
:1048C00094E8070098471034AC42F6D3FFF7F8FBA2
:1048D0000CB202002CB20200202A06DBCB17203AD1
:1048E00041FA02F043EAE07306E041FA02F3D040F5
:1048F000C2F12002914008431946704710B5002BC1
:1049000008DA401C41F1000192185B411A4301D1C1
:1049100020F0010010BD2DE9F04D92469B4611B1EB
:10492000B1FA81F202E0B0FA80F220329046FFF74D
:10493000EDFD04460F4640EA0A0041EA0B015346EA
:104940005A46084303D120463946BDE8F08D11464A
:1049500053EA010015D0C8F140025046FFF7E5FDCB
:1049600005460E46504659464246FFF7CFFD0843DE
:1049700001D0012000E00020054346EAE0762C4308
:1049800037430A984FEA4453A0EB08004FEAD42477
:104990000A304FF0000244EA47544FEAD72502D5C7
:1049A00000200146D1E7010510196941DDE90845FC
:1049B00000196941BDE8F04DA0E770B501EB0204B4
:1049C00010F8015B15F0070301D110F8013B2A1123
:1049D00006D110F8012B03E010F8016B01F8016B10
:1049E0005B1EF9D12B0705D40023521E0FD401F80A
:1049F000013BFAE710F8013B02F10202A1EB0303CD
:104A000003E013F8015B01F8015B521EF9D5A142E6
:104A1000D6D3002070BD000070B51349D1E9000164
:104A200005F0D8FD002001F0E3FD104C4FF0FF36FB
:104A30000F4D11E02078000604D500221146042015
:104A400022F050FC01F0F2FD2078000604D500228F
:104A50001146052022F046FC3146286824F00AF968
:104A60000028E7D170BD00000C9502003C0000203A
:104A70000C000020044800680122C0F30801891ED0
:104A80000A2006F0F3BD000004ED00E003480068D2
:104A9000C00501D122F0F8BF7047000004ED00E02E
:104AA00003480068C00501D123F010B8704700002A
:104AB00004ED00E010B5C368D9B280290FD984682D
:104AC000A06800B101204B2213A100F091FEA16863
:104AD00019B1E068BDE81040084772B6FEE7044629
:104AE000008A616982B2D8B2124B1B68984706F0FF
:104AF00083F900280FD1E068022806D004280AD1E3
:104B0000A069BDE8104006F071B9A08BA169BDE8AD
:104B1000104006F069B910BD4863695F696E74653D
:104B2000726E616C5F7472616E73706F72742E63FB
:104B300000000000C00100201FB541680A2914D000
:104B400007DC09B1052923D104B0BDE81040FFF707
:104B5000B1BF0B291DD00C291AD1018AC268406946
:104B600004B089B2BDE8104010470E4991E81C001E
:104B7000C968CDE90023CDE90241C16801914169CD
:104B80000291008AADF80C001021684605F06CFF18
:104B90001FBD018A8AB24169C06804B0BDE81040F7
:104BA00007F0EEBD889C0200074A131D598011686A
:104BB00060F307011160106840F400701060106825
:104BC0008005FCD4704700000804094000F01F0273
:104BD0000121914040094FF0E02202EB8000C0F833
:104BE0008012704700F01F020121914040094FF0F0
:104BF000E02202EB8000C0F8001170474907090E5F
:104C0000002803DA00F00F00024A00E0024A815453
:104C10007047000014ED00E000E400E0024A11409B
:104C2000014302480160704780FFFF1F08ED00E06C
:104C300000B589B01DF052FF416803910021CDE914
:104C4000011004480B464A1E6946006823F096FC92
:104C500009B000BD28000020014800F003B80000A2
:104C600068010440014608680A688242FBD10A686C
:104C70008242F8D1704700000149887270470000F5
:104C80004C01002010B5202080F31188BFF34F8F16
:104C9000BFF36F8F24F086F918B104494FF08050AC
:104CA0000860002080F3118810BD000004ED00E0D2
:104CB0000FB4054B10B503A9044A029800F0EAF8B6
:104CC00010BC5DF814FB000059750000540400206E
:104CD0000FB4084B10B504A902AA039800F0DAF843
:104CE000044602A9002000F078FC204610BC5DF8C4
:104CF00014FB0000DB550000014B024A00F0CAB86B
:104D00005975000054040020704770477047704781
:104D1000704770477047704702E008C8121F08C10B
:104D2000002AFAD170477047002001E001C1121F2C
:104D3000002AFBD1704700002DE9FF5FDDE902206A
:104D4000010DDDF838B0024310D10F9801244CA2B8
:104D5000012808D0002100980F9BC0E90021C0E97C
:104D60000243BDE8FF9F6FEA0B01F4E7A1F2FF31B8
:104D700044F6105041430D140F9801280ED0A5EBB6
:104D80000B00401C4FF000043E4EDFF8FC90B0F1E9
:104D9000000AA04605DACAF1000717E0CBF10000CF
:104DA000F0E7074612E0F80707D0224633464046B0
:104DB0004946FFF771FC8046894622463346104635
:104DC0001946FFF769FC04460E467F10002FEAD112
:104DD000DDE90201BAF1000F42464B4602DAFFF765
:104DE0005BFC01E0FFF7CAFC04460E460022274B9D
:104DF000FFF74CFD03D84FF0FF30014607E00022DB
:104E0000234B20463146FFF7A0FBFFF726FD102479
:104E100009E0002C0ADB0A220023FFF7D7FA019BE6
:104E200030321A55641E50EA0102F2D1641C019A14
:104E3000C4F1110314440F9A012A09D00122084336
:104E400001D15B450FDD4FF0000205F101050DE0DA
:104E5000084303D1A3EB0B056D1E09E000204FF0C2
:104E6000110B0F9088E701DA00226D1E002A83D013
:104E700000980F99C0E90231C0E9004571E70000D0
:104E800030000000000024400000F03F0000F0432C
:104E90000000E03F2DE9FF4F95B09B46894606464E
:104EA000002512E2252878D10024761CF94A2746ED
:104EB000012105943378203B01FA03F0104202D01F
:104EC0000443761CF6E730782A2811D06FF02F03C0
:104ED0003078A0F13002092A16D8059A44F002046D
:104EE00002EB820203EB42021044761C0590EFE7CE
:104EF00059F8042B0592002A03DA504244F4005476
:104F0000059044F00204761C30782E2816D116F84D
:104F1000010F44F004042A280DD06FF02F023078DE
:104F2000A0F13003092B09D807EB870302EB4303F9
:104F3000C718761CF3E759F8047B761C30786C2888
:104F40000FD006DC4C2817D068280DD06A2814D161
:104F500004E0742810D07A280FD10DE044F4001436
:104F60000AE044F4801401E044F440147278824270
:104F700002D1761C04F58014761C307866280BD09C
:104F800013DC582877D009DC002875D04528F6D0E6
:104F90004628F4D047281AD19FE118E0632835D07D
:104FA000642879D0652812D197E1702873D008DC85
:104FB0006728F1D069286FD06E280DD06F2806D1F0
:104FC000B5E073282CD0752875D0782874D05A464F
:104FD000179990476D1C76E1C4F30250022809D05E
:104FE00003280DD0D9F8001004280DD00D6009F168
:104FF000040968E1D9F80010EA17C1E90052F6E7A0
:10500000D9F800100D80F2E70D70F0E719F8041BD5
:105010008DF8001000208DF80100EA46012003E021
:1050200059F804AB4FF0FF3061074FF0000102D494
:105030000DE008F101018846B9420FDA8045F8DB3E
:105040001AF808100029F4D108E008F10101884697
:105050008142FADB1AF808100029F6D105985B4660
:10506000A0EB080721463846179A00F09EFA28441C
:1050700000EB080507E04DE02BE10DE01AF8010B0D
:105080005A4617999047B8F10108F7D25B46214676
:105090003846179A14E142E00A220092C4F3025201
:1050A0004FF0000A022A08D059F804CB032A4FEA2D
:1050B000EC710AD00DE029E02AE009F1070121F0A6
:1050C0000702F2E802C1914609E00FFA8CFC4FEAB0
:1050D000EC71042A03D14FFA8CFC4FEAEC710029E1
:1050E00007DA0A460021DCF1000C61EB02012D22F7
:1050F00002E0220504D52B228DF80420012203E0D2
:10510000E20701D02022F7E7904653E00A2102E0AF
:1051100010220DE010214FF0000A00910BE0102248
:105120004FF0000A44F004040827009203E008222C
:105130004FF0000A0092C4F30252022A05D059F837
:1051400004CB0021032A08D009E009F1070121F06E
:105150000702F2E802C1914605E01FFA8CFC042A1E
:1051600001D10CF0FF0C4FF00008220722D5702867
:1051700027D0009B83F0100353EA0A0309D15CEAAD
:10518000010206D030228DF804208DF8050002229D
:105190009046009B83F0080353EA0A030AD15CEAB5
:1051A000010201D1620705D530228DF804204FF0AD
:1051B00001087F1E582809D037A003900EA802903E
:1051C00013E040228DF804200122E1E737A0F4E744
:1051D00053466046009AFFF7F9F884460398825CCC
:1051E0000298A0F10100029002705CEA0100EFD188
:1051F000029806A9A1EB000000F1200A600702D581
:1052000024F4803400E00127574502DDA7EB0A00B3
:1052100000E0002000EB0A01009005984144A0EB5B
:1052200001000590E00306D45B462146179A0598D5
:1052300000F0BBF90544002706E001A85A46C05D0E
:10524000179990476D1C7F1C4745F6DBE0030CD592
:105250005B462146179A059800F0A7F9054404E03B
:1052600030205A46179990476D1C0099481E0090AF
:105270000029F5DC08E0029802995A460078491C9A
:105280000291179990476D1CBAF10001AAF1010A29
:10529000F1DC6BE109280100303132333435363727
:1052A0003839616263646566000000003031323372
:1052B0003435363738394142434445460000000012
:1052C00000F060F9054406F10106307800287FF40B
:1052D000E9AD19B02846BDE8F08F620700D4062773
:1052E00009F1070222F0070CFCE80223E14603F073
:1052F00000485FEA080C02D00FF27C2C0DE05FEA58
:10530000045C02D50FF2742C07E05FEAC47C02D083
:105310000FF26C2C01E0AFF2700C4FF0FF3823F06D
:105320000043CDF850C065280CD006DC452809D0D4
:1053300046281DD047283ED13EE0662818D0672871
:1053400039D139E00021112F01DB112000E0781C58
:10535000CDE9000106A90EA8FFF7EEFCDDE90F017B
:105360000E9A03910021009207F1010A04914EE088
:105370004FF000400097CDE9011006A90EA8FFF7F5
:10538000DBFCDDE90F0203920E9B11990022DDF890
:105390000CA00093049219B907F1010100EB010A76
:1053A000B7EB0A0004D4C0F1FF3007F1010A049002
:1053B000AAEB0700019046E0012F00DA0127002147
:1053C000112F01DD112000E03846CDE9000106A9CA
:1053D0000EA8FFF7B1FCDDE90F010E9A0391002141
:1053E00004910092BA4621070CD40399514500DA82
:1053F0008A46BAF1010F05DD009AAAF10101515C5C
:10540000302908D0B84202DA10F1040F06DA01217F
:10541000CDE9011017E0AAF10101E9E7002805DC58
:10542000049901440491AAEB000102E0411C51459A
:1054300000DD8A460499A0EB010000F10100019013
:105440004FF000400290200704D40198504501DB42
:10545000CDF8048000208DF84F0002980DF14F0721
:10546000B0F1004F25D02B200E9002984FF002088B
:1054700000280CDA404202902D200E9007E00A210D
:105480000298FFF72DF83031029007F8011DB8F1AE
:105490000001A8F10108F2DC02980028EFD1791E82
:1054A0000E980870307800F0200040F0450007F8B2
:1054B000020D12A8A0EB070000F10708149800786D
:1054C00000B1012000EB0A01019801EBE0710598A1
:1054D0004144A0EB0100A0F101000590E00306D4D7
:1054E0005B462146179A059800F05FF8054414982A
:1054F000007820B15A461799904705F10105E0035D
:1055000023D55B462146179A059800F04EF80544CE
:105510001BE00498002807DBDDE90301884203DD76
:105520000098405C179901E0179930205A4690473F
:1055300004986D1C401C04900198401E019004D1F9
:105540002E205A46179990476D1CBAF10001AAF116
:10555000010ADEDC05E017F8010B5A46179990475F
:105560006D1CB8F10001A8F10108F4DC5B4621468E
:10557000179A0598A4E600002D0000002B000000FB
:10558000200000002DE9F041044600251E46174684
:10559000880405D406E039462020B04705F101050E
:1055A000641EF8D52846BDE8F0812DE9F041044697
:1055B00000251E469046C80301D5302700E020276D
:1055C000880405D506E041463846B04705F1010597
:1055D000641EF8D52846BDE8F0810A68531C0B60AC
:1055E000107070472DE9F05F064600880B46C0F347
:1055F0000B00834605F0A6F90400707875884FEA21
:1056000010170AD005F10408984509D02A1DBDE8F5
:10561000F05F19463548FFF77BBB594634A01EE0C2
:1056200001F0D6F907F00301002740F2031AE06108
:10563000012903D002292CD03CA010E0A08C60B13D
:105640004119B1F5827F0ED328485B4652465C3043
:10565000FFF75EFBA784BDE8F09F594643A0BDE875
:10566000F05FFFF755BB216A2A4608440E30311D12
:10567000FEF7F0FEA08C284481B2A184E08C0830B3
:1056800081422FD3206A0E3005F0C8F9E784A78441
:1056900028E0A08C28B115485946B030FFF738FBF8
:1056A000A784B788381D8146854205D31FFA88F143
:1056B000304605F0B3F915E0FF2D07D95B46524699
:1056C000291DBDE8F05F3848FFF722BB206A2A1D7C
:1056D0000E303146FEF7BEFEA4F82480E784216A2E
:1056E000A1F81090BDE8F05F05F0CABC489902002F
:1056F0006863692E633A2061636C5F68616E646CF5
:1057000065722063616C6C65642077697468206ED3
:105710006F6E2D7265676973746572656420686168
:105720006E646C6520257521000000006863692E99
:10573000633A2061636C5F68616E646C65722063BC
:10574000616C6C6564207769746820696E76616C41
:105750006964207061636B657420626F756E64614B
:10576000727920666C6167732025750041434C2077
:10577000436F6E7420467261676D656E742062754A
:1057800074206E6F20666972737420667261676D33
:10579000656E7420666F722068616E646C6520307F
:1057A00078253032780000004C9A020070B505462A
:1057B00007480469241D04EBC5004268002A05D18E
:1057C000416088001DF00AF944F8350070BD000002
:1057D0000000002010B505494FF6FF7302E0847801
:1057E0008C54C01C02889A42F9D110BD00000A40B6
:1057F00010B50B46002803D11146184608F0E0FA10
:1058000010BD70471CB506498C68002C07D00021DC
:1058100000910191B0F804010B460322A0471CBD82
:10582000AC00002070B50C4600281DD1082C1BD2FE
:105830000E4D4FF4927655F8240020B9304600F012
:10584000CEFF45F8240005000ED031462846FEF76D
:1058500028FEA5F8044105F58071204602F0F1FF0D
:105860004FF0FF30A5F8060170BD0000B06B0020BE
:10587000F8B51646028A069FA2EB010294B2C288CE
:10588000D2050AD50A4A55683DB1009300890A46F7
:10589000014633463846A847F8BD9C4200D91C460D
:1058A0004069224601443046FEF7D4FD2046F8BD4B
:1058B000AC000020042106F07DB8042107F06EB88A
:1058C000024908600421024806F0DEBFB80000204B
:1058D000315E0000024948600421024806F0D4BF4E
:1058E000B8000020315E0000042106F063B80421F6
:1058F00007F054B800B58BB0D0F82001009023E039
:10590000684600F032FABDF8081000291ED0BDF834
:1059100006200FA0FFF7F8F9BDF8060080050398F0
:1059200008D506A91DF0E6F906A821F04DFF0146AD
:1059300011A001E0018811A0FFF7E6F9BDF81010F1
:1059400010A0FFF7E1F900980028D9D10BB000BDF5
:1059500048616E646C653A203078253034782C20AC
:10596000666C6167733A203078253034782C207566
:105970007569643A200000002573000025303478F2
:10598000000000002C2076616C75655F6C656E3AD6
:105990002025752C2076616C75653A20000000008A
:1059A000064A30B41468002C06D00B46A4460246C2
:1059B000002130BC0420604730BC7047C00000208C
:1059C0007CB51446042819D120783E283FD016DC37
:1059D000052855D0082801D030280FD1B2F803503F
:1059E000284600F0CFF8040008D028461EF08DF9B4
:1059F00004F8FD0F28461DF0FFFD60707CBDD72820
:105A00005ED0D8284DD0DA28F8D1608800F0BAF8F6
:105A10000500F3D0B5F8040104F094FF0600EDD0C2
:105A20002079317A8842E9D16946601D1DF074F908
:105A3000062231466846FEF746FD0028DED1E07AB0
:105A400085F8FF00B5F80401FFF751FF7CBDA07891
:105A5000012803D00A2801D02928F7D1D41C918825
:105A6000D078FFF7DFFEB4F8010000F08BF80500F6
:105A7000ECD0B4F801001FF04DF9A5F806017CBD8B
:105A8000B2F80350284600F07DF80400F7D000F08B
:105A90005BFC204600F0A5FE0F49002041F82500E0
:105AA0007CBD608800F06EF80500F9D0B4F80B00FA
:105AB00001B2A5F8061109A0FFF727F9284608E06A
:105AC000508800F05FF80028EAD04FF0FF31A0F8CE
:105AD000061100F08DFA7CBDB06B0020534D5F4580
:105AE00056454E545F4944454E544954595F5245BA
:105AF000534F4C56494E475F5355434345454445E4
:105B000044206964202575003EB50C468DF80800D8
:105B100000208DF8092000900190022302AA0421A0
:105B2000204607F02DF93EBD7FB50DF1200C14463F
:105B3000BCE864008DF80800ADF80930ADF80B2022
:105B4000ADF80D10CDE90056072302AA0421204626
:105B500007F016F97FBD70B515000C4603D0D0F8DC
:105B60002001206008E0002070BD204600F0FDF814
:105B70002089A84203D020680028F6D170BD0120FA
:105B800070BD0000082803D2024951F82000704778
:105B900000207047B06B00202DE9FF41164691F8B8
:105BA00000C00024B0F800214F1D1D46BCF10E0FAF
:105BB00073D00CDCACF1020EBEF10B0F1BD2DFE890
:105BC0000EF0221A351A3D1A4D1A5D1A6300BCF107
:105BD000180F71D009DCBCF1100F67D0BCF1120FA7
:105BE00077D0BCF1160F06D178E0BCF1520F7FD010
:105BF000BCF1D20F7CD0614640A0FFF785F804B01D
:105C00002046BDE8F0810646B1F8014006F0B6FD39
:105C1000844202D2A6F8004101E0A6F80001032464
:105C20002C70B6F80001A5F80100E8E7491C4B8884
:105C300000930B88294603F0B1FB0DE0CB1D491CF6
:105C4000F61FB4B28F884E88CDE90243CDE90067D4
:105C50000B88294603F00EFB0446D0E70C46294684
:105C6000072E01D8022300E01023641C6588CDE9CB
:105C700000530297238803F065FDEDE7B1F801308A
:105C8000294603F079FEE7E7491C4B8800930B880F
:105C9000294603F059FCDFE7FFE7491C761E009117
:105CA000C6F34F03294603F0F5FDD5E70C46194628
:105CB000072E03D8022302E015E00AE01023641C3B
:105CC0006588CDE900530297238803F0ADFCC3E754
:105CD0000EE00092324603F0DBFEBDE70092324652
:105CE00003F0D4FBB8E70092324603F091FAB3E731
:105CF0000092324603F09CFE81E70000556E686119
:105D00006E646C65642041545420436F6D6D616E08
:105D1000643A20253032582C20444154413A200026
:105D20001CB50B4B1C68002C10D0B6238DF800302E
:105D300005238DF801308DF80200ADF80310ADF8A1
:105D40000520072300216A460420A0471CBD00004F
:105D5000C000002010B580B2FFF714FF002803D068
:105D6000BDE8104000F0F0BA10BD10B501680A8817
:105D7000828072B14B88C3808C88048101F1060453
:105D8000C4609B050CD5A2F11603038201F1160332
:105D90000BE00021C1800181C1600182416106E008
:105DA000A2F10803038201F1080311444361016079
:105DB00010BD70B5044600890D4600281BD0022A8C
:105DC00008D0E08880050BD51022E068FEF77BFB49
:105DD00080B111E009882046BDE8704000F00EB89F
:105DE000084605F0A1FC002805D0E168A8890988CB
:105DF000884201D1012070BD002070BD70B50446FD
:105E000000890D46002810D0E0888005E06808D59C
:105E100005F08AFC002808D0E0688089A84203D0F9
:105E200004E00088884201D1012070BD002070BDCF
:105E30002DE9F041194C06461F46154688460428B0
:105E400009D0082E28D12878C00720D0D4F800C067
:105E50001FE03046E047287878281DD1D4F804C0E8
:105E6000BCF1000F08D03B462A4641463046E04789
:105E700004F060FC00280FD02468002C0CD03B46B6
:105E80002A4641463046A446BDE8F0416047D4F872
:105E900004C0BCF1000FDCD1BDE8F081B8000020E7
:105EA0002DE9F0410F461546044601461E4612787C
:105EB00028A0FEF72AFF042C0CD0082C48D1384625
:105EC000FFF760FE040043D029781E2909D052292B
:105ED00018D01EE0287878283AD1BDE8F04100F0CB
:105EE0000FB9B4F80801A0B104F5867000F072FD96
:105EF00004F582740020A288A0802188BDE8F041CA
:105F0000FFF70EBF32462946BDE8F0410023FFF7F8
:105F100043BEFB2E06D93246BDE8F041FB231A48AA
:105F2000FEF7F3BE22782AB1BDE8F04116485030A2
:105F3000FEF7EBBE01202070A4F80261324629462C
:105F4000A01CFEF787FA2046BDE8F04100F050B8EB
:105F5000BDE8F0816174745F7061636B65745F6844
:105F6000616E646C65723A207479706520307825B2
:105F70003032782C207061636B65745B305D20304B
:105F80007825303278000000E896020010B5B0F8AD
:105F90000001029CC01E80B21970A3F80120844247
:105FA00000D8204610BD1FB514468DF80800069A8B
:105FB000ADF80930ADF80B20ADF80D1000200090C1
:105FC0000190072302AA0421204606F0D9FE1FBD36
:105FD0003EB50C468DF80800ADF809200020009071
:105FE0000190032302AA0421204606F0C9FE3EBD0B
:105FF0002DE9FF410446017824A0FEF786FE2078B3
:1060000001282DD1A078D22808D003202070B4F820
:10601000040104B0BDE8F041FFF769BC1DF0E0FCED
:106020000027E0B1B4F802010F2818D3B4F8040136
:106030001EF04CFC002813D1B4F9060107F042F819
:1060400005000CD0B4F80211A4F10A000E58696CD6
:10605000324611A0FEF759FE686CB04202D9277093
:10606000BDE8FF8102202070B4F803201749601DAD
:10607000CDE90006CDE90214B4F80201A1780F3889
:1060800083B205F134001DF0B5FCE9E76174745F7B
:1060900072756E3A20256400415454205369676E2E
:1060A00065642057726974652C20444220636F75C3
:1060B0006E7465722025752C207061636B65742089
:1060C000636F756E7465722025750000B5630000FE
:1060D000FFF70ABC0EB50B21CDE900238DF808109F
:1060E000012302AA042106F04BFE0EBD00B5FFF706
:1060F00049FD10B1B0F8000100BD172000BD00003F
:106100002DE9F8430025144F144EA84657F82540B2
:10611000E4B1207803280BD1204600F0A7F838B16D
:10612000607898B1B4F80401BDE8F843FFF7DFBB2D
:10613000607858B10AA084F8018000680090346843
:1061400024B1022300216A460420A0476D1C082DBB
:10615000DCD3BDE8F8830000B06B0020C000002055
:10616000B70000002DE9FE431F4616460D46804647
:10617000FFF708FD040005D0B4F8080120B1902015
:10618000BDE8FE835920FBE74046FFF7ADFB88B131
:1061900002AB2A461D2120460097FFF7F7FECDE906
:1061A0000060032302AA0421404606F0E9FD060030
:1061B00002D014E05720E3E7A4F8085104F58670F4
:1061C00042460849044600F03FFC47F2305240F294
:1061D0008241204600F01CFC204600F0EBFB3046DC
:1061E000CEE70000555D000070B505460B480A4C2F
:1061F0000E46446004F072FA0848083044601CF00F
:106200002DFF0748FFF766FB284600F0C7F8304629
:10621000BDE8704000F0C8B8C1590000C4000020BB
:10622000A15E00002DE9FE431E4615460F4680463E
:10623000FFF7A8FC040014D04046FFF755FB90B1CF
:1062400002AB3A461B2120460096FFF79FFECDE9A0
:106250000050032302AA0421404606F091FDBDE848
:10626000FE835920FBE75720F9E700002DE9FC41A8
:106270002F4E002707700446B0F802213346811CD8
:10628000FFF78AFC0546A0F57F40FF3823D0042D98
:106290000FD3307801280CD13079082809D194F82F
:1062A000FE0030B1B4F804011DF0CDF978B1012839
:1062B00011D085B100970197B4F804012B463246FE
:1062C000042106F05DFD3078032807D02DE0B4F8F6
:1062D00004011FF057FA0020BDE8FC81154AB4F80C
:1062E0000411B4F80001156875B1B5228DF80020CD
:1062F00004228DF80120ADF80210ADF80400062349
:1063000000216A460420A847B4F8040100F096F87A
:1063100009480078C00708D0B4F800010022001D29
:1063200081B2B4F8040101F097FC0120D4E7000029
:10633000FC6C0020C0000020D4000020014908604F
:1063400070470000C000002010B5B0F808210446D6
:106350003AB1B4F804119120FFF7E2FC0020A4F850
:10636000080104F58670BDE8104000F033BB10B59D
:106370000246FFF707FC002806D001214170BDE866
:1063800010401046FFF7B3BA10BD10B50C46FFF72A
:10639000F9FB002801D0C0F8204110BD0149486038
:1063A00070470000AC000020014988607047000081
:1063B000AC0000207CB5044600780A4602280ED1C5
:1063C000694610461CF0A5FCB4F80211A01F014458
:1063D00008226846FEF777F810B1002020707CBDD7
:1063E000B4F80211A4F10A000E58B4F9060106F03F
:1063F00069FE050001D0012000E00020FD2207A178
:10640000FFF7F6F945B1761C6E6403202070B4F8EE
:106410000401FFF76CFA7CBD72B6FEE76174745F2D
:106420007365727665722E63000000000A688265EB
:106430004968C1653521017002F08ABB70B5054617
:1064400002F0C6FE04000BD02846FFF79BFB002895
:1064500006D0E28AB0F800118A4202D9A0F80021E1
:1064600070BDE18270BD0000F8B50446C0880E46DC
:10647000C0050BD506484568002D07D000200090C8
:106480000346024621893046A8472082F8BD000015
:10649000AC0000207CB50E46C98804460D0B00D028
:1064A0006D1C14F8FD2F6078CDE90002A378FD3C47
:1064B0002A461048FEF728FCF088410502D594F8DA
:1064C000FE1079B1000502D594F8FF0060B1002DEF
:1064D00002DD94F8FD0048B194F8FD00A84207DA07
:1064E0000C207CBD05207CBD08207CBD0F207CBD20
:1064F00000207CBDE49502003EB50C468DF80800F6
:106500000699ADF80920CDE90013032302AA04215E
:10651000204606F035FC3EBD10B50C46022806D0DC
:10652000084605F001F9002800D0A08910BD0888B0
:1065300010BD0622FDF7C7BF0A6802608988818006
:106540007047000010B50C49002203463A24985CBD
:10655000000900F08CFB0870985C00F00F0000F060
:1065600086FB48708C70C91C521C062AEFDB002089
:1065700001F8010C004810BDF56B002008440088AC
:1065800040BA70474218405C5378528852BA63F35D
:106590001F4242EA00607047130A4354491C89B203
:1065A00042547047130E4354491C89B2C2F3074347
:1065B0004354491C89B2C2F307234354491C89B28E
:1065C0004254704710B50446FEF760FA034801884C
:1065D000A1430180BDE81040FEF762BAE00300204D
:1065E00010B503F0F6FBBDE81040012000F010B834
:1065F00010B506490A68C2F30312022AFAD1012132
:1066000000F050FCBDE8104004F0E8BF0400044076
:1066100010B50446FEF73AFA034801882143018089
:10662000BDE81040FEF73CBAE003002003480078C4
:10663000C00701D11AF096BC70470000E0030020AB
:1066400008B50020009008480068C10507480068A8
:1066500003D0694622F0A8F808BD00231A4619465F
:1066600021F08CFF08BD000004ED00E00C000020CC
:1066700010B504460E480078C00718D0FEF706FA99
:106680004CB103210B481AF0C3F903F0A4FB12F03C
:106690005FFE0EF069FB0120FFF794FF13F082FE0E
:1066A00003201AF091FDBDE81040FEF7F9B910BDC6
:1066B000E00300206100030070B50D480088A0B918
:1066C00013F084FD40F2E2450446A8420DD3094888
:1066D000406D50B91AF056FE38B11AF05BFEA84270
:1066E00003D3A04200D3204670BD002070BD00003F
:1066F000E0030020000009400149086070470000E5
:10670000D400002010B5044608202080608006F0E8
:1067100035F8A0800A20E08010BD0268134602E030
:106720008A4204D01268002AFAD10B6001607047D7
:1067300002E08A4205D010460268002AF9D10A60B8
:1067400001607047006808B1002070470120704761
:1067500004E0884201D10120704700680028F8D188
:1067600070470268816832B140680068884200D191
:10677000086808B9704709B10120704700207047C8
:106780000022C0E90021096881607047016851B1A9
:1067900041680A6881688A4203D141600968816062
:1067A00003E0826001E00121016080687047816838
:1067B00009688160426811600021016070474FF0F4
:1067C000FF3351B107E002688A4203D109680160D2
:1067D0000020704710460028F5D1184670471CF07D
:1067E000FDB821F08DB9FFF7FCBF7420FFF7F7BFAC
:1067F00010B50446006A07F097F82046BDE810403F
:10680000FFF7EFBF70B58020FFF7E9FF04000CD061
:1068100040F2111007F0F8F9050008D08021204659
:10682000FDF73FFE2046256270BD002070BD20466A
:10683000FFF7D7FFF9E77047FFF7D3BF5020FFF707
:10684000CEBFFFF7CEBF1420FFF7C9BF2DE9F0413F
:1068500006460020984617460C460546306005E07F
:106860002146304600F006F844446D1CBD42F7DB7B
:10687000BDE8F08130B40268134607E08B4204D1D2
:10688000024630BC04A0FEF741BA1B68002BF5D1CC
:106890000A60016030BC70476274737461636B5F3F
:1068A0006D656D6F72795F706F6F6C5F6672656535
:1068B0003A20626C6F636B20257020667265656498
:1068C00020747769636520666F7220706F6F6C202B
:1068D00025700000016819B10A6802600846704717
:1068E00000207047FFF77DBF0C20FFF778BF000046
:1068F00000B589B00DF1080C01900E4800680592B2
:10690000ACE80B000C4800684FF00003C00502988B
:1069100004D00022694621F0E7FE04E04FF0FF3288
:10692000694621F02BFE012802D0012009B000BDEC
:106930000020FBE72800002004ED00E013460A4693
:1069400001460A20FFF7D4BF13460A4601460C2031
:10695000FFF7CEBF38B5154D286890F8AC0008B1E8
:10696000552038BD4FF0FF30ADF80200ADF8000003
:106970000AE0684604F036F80446C088162104F0A0
:106980005FF8204604F0AAFC684604F00BF80028E3
:10699000EFD1012004F058FB054804F009F9002864
:1069A000DFD12A68012182F8AC1038BD2898020096
:1069B000289B020038B5044622F0E6FA02464FF062
:1069C000FF30009000230121206922F03BFD38BDFB
:1069D0000020704738B50446006948B14FF0FF31D8
:1069E000002300911A46052122F02CFD0020206191
:1069F000002038BD38B5044622F0C6FA02464FF0F2
:106A0000FF30009000230221206922F01BFD38BDD9
:106A1000F8B515460E460446FFF7DCFF4FF47A70D2
:106A20004543B5FBF0F1054866600090234600221F
:106A300003A022F09BFC2061F8BD0000314C000057
:106A400068000000C1607047C0E90212704708B5D5
:106A50004FF0FF310091002300691A46032122F014
:106A6000F1FC08BD2DE9F0410746114815460E46D8
:106A7000046898469A3438886288218800F03EF984
:106A8000388062882188308800F038F93080E288C8
:106A9000A188288800F032F9288062892189B8F815
:106AA000000000F02BF9A8F80000BDE8F08100001C
:106AB0002898020070B50C00054601D0012000E0C6
:106AC00000206A2206A1FEF793FE284600F034F863
:106AD00010B100206C602060286820602C6070BDC0
:106AE0006C6973745F62617369632E6300000000F8
:106AF00070B50C00054601D0012000E000205322B3
:106B000007A1FEF775FE284600F016F808B12C60C4
:106B100001E06868046000206C60206070BD0000C7
:106B20006C6973745F62617369632E6300000000B7
:106B30000021016041607047006808B10020704783
:106B400001207047006808B100207047012070479D
:106B5000016819B10A68026012B103E00022FAE785
:106B6000002242600846704770B5054600680C4632
:106B700000B10120C32209A1FEF73AFE206800B14E
:106B80000120C42205A1FEF733FE69682068086071
:106B90006068686000202060606070BD6C6973741C
:106BA0005F62617369632E630000000070B5034685
:106BB00000200246012513F80240002105FA01F6E3
:106BC000344201D0401C80B2491CC9B20829F5D317
:106BD000521CD2B2052AEED370BD30B50546C808A6
:106BE0000C4601F00702285C01219140084201D0C7
:106BF000204630BD2846FFF7D9FFC0B2B4FBF0F104
:106C000000FB1140C1B22846BDE8304002F0B8BADE
:106C100070B50446008942F6554290472521B0FBE5
:106C2000F1F201FB1201CA0801F00705A25C012381
:106C3000AB401A4201D0084670BDE188414320466E
:106C4000BDE87040C1F3074102F09ABA30B504467E
:106C50001068206010790D4600F01F00207120465A
:106C6000FFF7A4FFE08085EA1540208130BD0A28A7
:106C700001DA303003E00A38062802DA4130C0B2C7
:106C800070473F20704770B50446C08E88B000281A
:106C900022D0258F94F83430A2268DF800601A2671
:106CA0008DF80160A6890A46ADF80400ADF8082009
:106CB00004F11C01ADF80260ADF80650ADF80A30E1
:106CC000102203A8FDF7C6FBA1891C236A46A06811
:106CD00000F040F90020E08608B070BD064811447D
:106CE000006800F2FF30814203D9012018600320C0
:106CF0007047002070470000E400002019B188426E
:106D000001D208467047002AFCD09042FAD91046BA
:106D1000704700000249CA6D82430243CA6570474A
:106D20000000094043688B4204D18068904201D141
:106D300001207047002070473EB5184C60682569F7
:106D4000006E2D1D28B900222021402021F076FB65
:106D5000A06203220021012021F070FBE060104AB4
:106D60000E2029688DE8070000230EA10E486A68EE
:106D700022F0BEF8E0626068006E00280CD1084A7C
:106D800002205432A9688DE80700002307A10848B3
:106D9000EA6822F0ADF820633EBD0000000000204C
:106DA000A404002063000000194A000070000000E5
:106DB0001D1F020070B50646401E1D460C460A28DF
:106DC00009D220782968884205D10622211D6868E9
:106DD000FDF779FB08B1002070BDC5E9026403200E
:106DE00070BD00000248817A491C81727047000022
:106DF0004C01002010B5044603F0C8F8002012F042
:106E000093FA13F0F3F812F0D3F809F0B5FD0EF091
:106E100093FB14F0C9FD18F02DFE19F029FC002C8D
:106E200003D0BDE8104013F098BE10BD70B5044605
:106E3000B0F1A53F19D0B4F1C33F16D00123DA0257
:106E400005211D2019F0FCFF0546B4F1F23F09D0E1
:106E5000922206A10020FEF7CBFC2846BDE8704038
:106E60001AF060B907202870F7E770BD6474626C8F
:106E7000652E630070B50A4C4FF42020074DE06486
:106E80001FF0DCFE800602D54FF4803001E04FF4A5
:106E900000402844C0F31300A06470BD00000A4005
:106EA00000000940F8B505461B480E460021018048
:106EB00012F02EFB1FF0DAFE19F06AFF684612F09E
:106EC00069FB0446009842F2451140F67467884217
:106ED00001D3012000E00020852210A1FEF788FCEC
:106EE0003A462146002019F0BFFF009804F674616D
:106EF000A0F6746082B2012019F0B6FF1FF012FEF6
:106F00003046FFF777FF002D04D02846BDE8F84053
:106F1000FFF78CBFF8BD0000E003002064746970C7
:106F20002E63000009490120096809B1002070475B
:106F30000749CA69002AF9D1044A283212688968C7
:106F4000491E8A42F3D10220704700004809002000
:106F50004400002030B4040003D0A44630BC042018
:106F6000604730BC7047FEB51E4617460C460546C6
:106F700002F02EF9002816D0011D6846FFF700FC2C
:106F80000CE06846FFF702FC0189A14206D1D0F867
:106F900004C033463A4629460420E0476846FFF7D6
:106FA000E0FB0028EDD1FEBD1CB5A0228DF800202D
:106FB00003228DF801208289ADF802208DF804109B
:106FC0008189806805236A46FFF7C4FF1CBD30B580
:106FD00087B00446A3250A988DF8005018258DF82F
:106FE0000150A589ADF80410ADF806200146ADF8B2
:106FF0000250ADF8083010220DF10A00FDF72AFA10
:10700000A1891A236A46A068FFF7A4FF07B030BD24
:1070100010B586B00446A1208DF8000016208DF82A
:107020000100A089ADF80410ADF80200ADF806200B
:107030001022194602A8FDF70DFAA18918236A4605
:10704000A068FFF787FF06B010BD00002DE9F05FD4
:1070500000249246894605462746264624E000BF7E
:1070600005EB8400B0F9021035F924001BF08AFE0C
:10707000834605EB8800B0F9021035F928001BF0B3
:1070800081FEABEB000043F6FF71884203DBA0F505
:10709000FE40FF3804E00849884201DC490C0844FE
:1070A000074404EB4904761C04EB0908D045D7DB00
:1070B00097FBF6F0BDE8F09F01C0FFFF2DE9F0431C
:1070C00042780446901C89B00E46814206D009B031
:1070D000921CBDE8F043DE48FDF71ABE2178DDA022
:1070E000FDF716FE2078DFF87C834FF000091228A8
:1070F00075D00CDC0E2811D004DC052870D00828CF
:1071000053D17BE00F2835D010284ED199E01328B9
:1071100052D03E2871D0572847D179E1D8F80000E5
:10712000A278454690F85610CFA0FDF7F1FD6179A1
:10713000D6A0FDF7EDFD2968A07881F85600D84962
:10714000B4F803000988884207D1002003F07CFFCF
:10715000296881F8AC9004F047F82968B4F8030076
:10716000B1F88610884218D12868826CAAB1C16C27
:10717000601D11E0D8F80020E178404682F85610F2
:10718000D8F80020A188B2F88620914205D1016884
:107190008A6C12B1C96C601C9047D8F80020A2F824
:1071A0008690D8F80010C1F84890D8F8000090F800
:1071B0006C0001287ED037E10325002719E0635BCE
:1071C000AD1C625BAD1C184603F0BCFB48B190F8E7
:1071D000281091420AD3891A80F8281008E035E077
:1071E00026E01946AFA0FDF793FD01E080F8289056
:1071F0007F1CA078B842E2DCD7E733E0B4F8035054
:10720000284603F09FFB0028CFD0A17849B96179C7
:107210000029816902D041F4004101E021F40041DC
:10722000816100F017FC0146284603F06FFCBCE7C3
:10723000B4F8030003F086FB0028B6D007214174A0
:10724000B3E703F0A1FE03F0B3FEAEE7A078002899
:10725000ABD1B4F8030003F075FB0028A5D0617A28
:107260000174A2E7A0780A2838D033DC012835D091
:1072700004287DD0062898D134F8037F384603F0DF
:1072800061FB05006088ADF81400A088ADF810001F
:10729000E088ADF818002089A4F10304ADF81C00C3
:1072A00083D007AB06AA04A905A8FFF7DBFBEB8F89
:1072B000AA8F00E0B4E0BDF81800BDF81C108DE8FE
:1072C0000F00BDF81030BDF814203946834803F094
:1072D0006FFC6AE7122872D029288DD1E078002847
:1072E0008AD1A788082F21D2D8F8000000EB8705A3
:1072F000686910B9FFF786FA6861050016D0EF805B
:107300000220C5F81890A874FFF762FBE861E079E5
:107310002872294604F108001BF0FEFC0520687461
:10732000A0792874A0780A2804D00FE0A08800F083
:1073300067F93AE7D4F80E00C5F87200608AA5F83C
:1073400076006069A867208BA5F87C00E0896887D3
:10735000287C60B9D8F8001091F85410E973D8F877
:10736000000005F1090190F8540000F009FA00E06E
:1073700016E02846FFF7E6F80246E98858A0FDF730
:10738000C7FC03F099FBD8F8000090F86200C00633
:107390009FD5E98840F6B832594803F009FC04E764
:1073A000E078002839D1A08803F0CCFA002834D046
:1073B0007030A179417001210170F6E6FFE7207974
:1073C000082886D2E17819B14EA0FDF7A1FCECE6C1
:1073D000B4F80520104603F0B5FA0546217952A00D
:1073E000FDF796FCD8F8000021799130095CE9732B
:1073F00049B1217968461FF011FC05F10901684681
:107400001BF08AFCD1E605F1090000F0CFF9CCE6CB
:10741000608803F097FA00288BD109B0BDE8F083AB
:10742000B1B2204603F06CFCB1B2204603F01CFB65
:107430002078052806D1B4F8030003F083FA08B1D8
:1074400003F04CFF09B0BDE8F04303F019BE0000A3
:10745000B89A02004843493A4556454E543A2530B9
:107460003278000028980200434D445F434F4D504E
:107470004C45544520636D6473206F6C6420257502
:10748000202D206E6577202575000000636D645FF8
:10749000636F6D70207374617475732025750000BF
:1074A000289B02006863695F6E756D6265725F6339
:1074B0006F6D706C657465645F7061636B6574207B
:1074C0006C6973747320756E7573656420636F6E79
:1074D0002068616E646C652025750000C09B020009
:1074E0004E657720636F6E6E656374696F6E3A20C8
:1074F00068616E646C652025752C20257300000082
:10750000309B020061647620736574207465726D2F
:10751000696E61742064756520746F206361757392
:107520006520307825780A006164762068616E6491
:107530006C6572203078257820636F6E6E65637499
:10754000656420746F20636F6E2068616E646C6583
:1075500020307825780A000010B5044604F0BAF807
:10756000204610BD13460A460146014803F020BBE1
:10757000689C02000246014803F01ABB689B0200A7
:1075800030B50C46054689B01946104600F07EFA23
:1075900000280CD1694628461BF0ACFB04A9204604
:1075A0001BF0A8FB04AA6946024803F001FB09B0DE
:1075B00030BD0000989B0200014803F0F9BA0000BA
:1075C000609B0200014803F0F3BA0000189C02001F
:1075D000014803F0EDBA0000789C0200014803F076
:1075E000E7BA0000509B020008B5009313460A4614
:1075F0000146024803F0DCFA08BD00008C98020046
:10760000132100F001B8000010B50A46034603F04C
:1076100099F938B1062141741946054803F0C8FAB2
:10762000002010BD0021184603F00AFAF8E7000018
:10763000189B020038B54FF0FF30ADF80200ADF8EE
:10764000000006250DE0684603F0CCF90446407CB6
:10765000062806D0E1881322054803F0A9FA00B9EC
:107660006574684603F09EF90028ECD138BD00002F
:10767000189B02002DE9FF4F85B0DFF89C80DDE903
:1076800012698A460A20002400EB06119B46274611
:10769000B8F8000003AA03F02FF8050001D001217B
:1076A0000FE0562009B0BDE8F08F00BF04EBC40224
:1076B00019F81220521E01FA02F03843641CC7B2B6
:1076C000E4B2B442F2D30798CDE9000B02975346D7
:1076D000D8F804102846059A03F02AF9C7B2002406
:1076E0000DE000BF04EBC40109EB4101891CE8195E
:1076F0001022FCF7AFFE1037641CFFB2E4B2B442B4
:10770000F0D306494046096881F854A02946039AF7
:1077100003F09EFD0020C5E7489C02002898020067
:107720001CB502F11003CDE90030134601F110023F
:10773000014803F03DFA1CBD0499020010B500F0A9
:10774000A5F9002804D1BDE81040024803F030BA82
:1077500010BD0000A09B02000248006890F888005D
:1077600070470000289802000449096851F89A2FD0
:1077700002604A6842608968816070472898020008
:107780001CB50C4620B1FF2168461FF047FA02E005
:1077900068461FF059FA214668461BF0BDFA1CBD29
:1077A0000146014803F004BA889B0200014600200C
:1077B000FFF7E6BF10B50446014604A0FDF7A8FA9E
:1077C000022C01D9012010BD002010BD6761705F3F
:1077D0006D69746D5F70726F74656374696F6E5FED
:1077E00072657175697265645F666F725F736563F8
:1077F00075726974795F6C6576656C20257500001B
:107800007FB50DF1200CBCE870008DE878001346C0
:107810000A460146024803F0CBF904B070BD0000EF
:10782000509C0200014803F0C3B90000589C0200BC
:1078300013460A460146014803F0BAB97C98020093
:1078400013460A460146014803F0B2B97498020093
:107850001CB5049CCDE9003413460A460146024893
:1078600003F0A6F91CBD00008498020001460148FF
:1078700003F09EB9609C02000448C17A012903D13B
:107880000221C1721EF026B8704700004C01002092
:10789000074810B5C26C40F282210648FFF7B8F8DD
:1078A0000448FFF787F8BDE81040FFF7E5BF000088
:1078B0004C010020DC6E002010B50022074908486A
:1078C000FFF7C2F8074840F28221C26C0448FFF774
:1078D0009FF8BDE810400248FFF76CB891780000AF
:1078E000DC6E00204C010020014803F061B900006B
:1078F000489B0200014803F05BB900006498020055
:10790000014803F055B900000C9902000A460146EF
:10791000014803F04DB90000CC980200014803F083
:1079200047B90000809C02000146014803F040B9BD
:10793000D09B02000A460146014803F039B9000015
:10794000D49802000146014803F032B9909B02002E
:107950000146014803F02CB9209B02000146014872
:1079600003F026B9389B0200014803F021B900005A
:10797000589B02000246014803F01AB9709B0200AE
:107980002DE9F0410E46074602F0DCFF050010D05D
:10799000384600F055F804460246314608A0FDF787
:1079A000B7F9B44207D321463846BDE8F04103F0A9
:1079B000ADB80121F8E7AE74BDE8F04103F060BB5B
:1079C0006761705F726571756573745F7365637508
:1079D000726974795F6C6576656C2025752C2063FF
:1079E000757272656E74206C6576656C2025750005
:1079F0000146014803F0DCB8109C020013460A4619
:107A00000146014803F0D4B8709C020013460A46B0
:107A10000146014803F0CCB89C980200F0B585B04F
:107A20000DF1280CBCE8F0008DE8F80013460A467A
:107A30000146024803F0BCF805B0F0BDAC98020066
:107A400010B502F07FFF18B1BDE8104000F002B899
:107A5000012010BD10B1008B000401D4012070473B
:107A600002207047022070470A460146014803F091
:107A70009FB80000E89B020000B10120024909689C
:107A800081F888007047000028980200034A1368B4
:107A900018641068416400207047000028980200B4
:107AA0000149096808657047289802001CB5049CC4
:107AB000CDE9003413460A460146024803F078F83F
:107AC0001CBD0000549802000A460146014803F01C
:107AD0006FB800005C9802002DE9FE4F124E174669
:107AE000884681461D46308802AA591DDDF830A01F
:107AF00002F002FE040014D0CDE9007543464A4668
:107B0000716802F015FFC0B220442A465146FCF7C6
:107B1000A1FC21463046029A03F09AFB0020BDE802
:107B2000FE8F5620FBE70000449802002DE9FC4739
:107B3000104D16460F4680469946288801AA311DE9
:107B400002F0DAFD040013D000963B464246696815
:107B500002F0EEFEC0B2204432464946FCF77AFC01
:107B600021462846019A03F073FB0020BDE8FC87FC
:107B70005620FBE74C98020004490268096841F866
:107B80009A2F42684A60806888607047289802008F
:107B90000A460146014803F00BB800003498020081
:107BA0002DE9FF5F144DDDE90E6B90468946824654
:107BB0001F46288803AA711D02F09EFD040018D0FC
:107BC000CDF80080CDE901764B46524620466968E3
:107BD00002F0AEFEC0B2204432465946FCF73AFCF1
:107BE00021462846039A03F033FB002004B0BDE889
:107BF000F09F5620FAE700002C9802002DE9FF5F65
:107C0000144DDDE90E6B9046894682461F46288852
:107C100003AAB11D02F070FD040018D0CDF8008059
:107C2000CDE901764B4652462046696802F080FE57
:107C3000C0B2204432465946FCF70CFC2146284687
:107C4000039A03F005FB002004B0BDE8F09F562026
:107C5000FAE700003C9802000AB944F29022134669
:107C60000A460146014802F0A3BF0000C89B02007B
:107C700013460A460146014802F09ABFD89B02000B
:107C80001CB5049CCDE9003413460A46014602485F
:107C900002F08EFF1CBD0000F498020008B50B46F0
:107CA000009202460021024800F066F808BD00007C
:107CB000F89B02002DE9FC47184F88469146044680
:107CC000022101EB8801388801AA02F015FD0600A7
:107CD00007D043462246796802F02AFEC5B2002446
:107CE00013E05620BDE8FC8704EB440009EB40019B
:107CF0000A7900924B8819F81020701908A102F037
:107D000017FE2D1D641CEDB2E4B24445ECD33146A0
:107D10003846019A03F09CFA0020E3E7089C020031
:107D2000313231002DE9F04F8DB0DFF844C0DDE98C
:107D30001FBEDCF800C0DDE91D9ADDE91B78DDE936
:107D400019568444179C8CF891400DF1100CACE846
:107D5000E04F169E189DCDE9003613460A460146AF
:107D60000448CDE9024502F023FF0DB0BDE8F08FD5
:107D700028980200F09B02002DE9FC471C460A9D52
:107D8000174688468146F72B26D9F720CDE900050E
:107D90000B4601223946484602F00AFF002823D14B
:107DA000F73CA4B2F73515E0F72C01D3F72600E035
:107DB0002646A01BCDE900650404240C01D0002256
:107DC00000E0022243463946484602F0F1FE002810
:107DD0000AD13544002CE7D14346032239464846B0
:107DE000CDE9004502F0E4FEBDE8FC8708B500934C
:107DF00013460A460146024802F0DAFE08BD0000BA
:107E0000409C02002DE9FC4716460F46DFF88C80A7
:107E100002EB8601824699460024C91CB8F800008E
:107E200001AA02F069FC050002D0002001220EE048
:107E30005620BDE8FC8700BF00EB400319F8133063
:107E40005B1E02FA03F12143401CCCB2C0B2B04227
:107E5000F2D300943B4652462846D8F8041002F06C
:107E600067FDC7B200240FE004EB440109EB4100B9
:107E70008188009143884278E81909A102F058FDF1
:107E80007F1D641CFFB2E4B2B442EDD329464046E4
:107E9000019A03F0DDF90020CBE70000389C0200D6
:107EA0003132320008B50B460092024600210248EA
:107EB000FFF762FF08BD0000009C02000A46014671
:107EC000014802F075BE0000809B02000A46014690
:107ED000014802F06DBE0000E49802003EB5DDE905
:107EE00006458DE8380013460A460146014802F06F
:107EF0005FFE3EBDDC9802002DE9F843194F1546A0
:107F00000C468046F82923D90146F8230122384639
:107F1000009502F04DFE002821D1F83CA4B2F835BE
:107F200014E0F82C01D3F82600E02646A01B040438
:107F3000240C009501D0002200E002223346414685
:107F4000384602F035FE002809D13544002CE8D12E
:107F50002346032241463846009502F029FEBDE83B
:107F6000F8830000289C02000A460146014802F0FE
:107F70001FBE0000309C020008B5009313460A465D
:107F80000146024802F014FE08BD0000209C0200D9
:107F90000A460146014802F00BBE00006C98020040
:107FA0001CB5049CCDE9003413460A46014602483C
:107FB00002F0FEFD1CBD0000E09B020001460148EE
:107FC00002F0F6BD409B020013460A4601460148F6
:107FD00002F0EEBDEC9802000249096881F85500F4
:107FE00070470000289802002DE9FF4F87B01C461B
:107FF000DDE91A01DDE91865DDE91687DDE914A977
:108000009346FFF743FD00280DD1CDE9004ACDE9A5
:108010000259CDF81080CDE90576DDE907125B46FF
:10802000024802F0C5FD0BB0BDE8F08F9498020045
:108030003EB5DDE906458DE8380013460A4601469F
:10804000014802F0B5FD3EBDFC980200014802F077
:10805000AFBD0000BC98020008B5009313460A4665
:108060000146024802F0A4FD08BD0000A4980200E9
:10807000F0B587B00DF1300EBEE8F0108DE8F810C5
:1080800013460A460146024802F092FD07B0F0BDD1
:10809000B49802002DE9FF410D46DDE90A4780460C
:1080A0000C9E02F04FFC002806D0007C38B1294617
:1080B0004046009404F091FC04B0BDE8F0810396C2
:1080C0008DE8980013462A464146024802F070FDAA
:1080D000F2E70000789B020008B59200921C0B4664
:1080E000009201460722024802F062FD08BD00002E
:1080F000C49802002DE9F047DFF88CA48AB01E4630
:108100001546884604280AD008287DD128781B28DF
:108110000FD01D2808461FD001F05AF81EE029781C
:10812000782971D1DAF80040002C50D04146A047A0
:108130004DE0B5F801700C46D21CDE1E3946A72072
:108140001AF074FFF61C02460AB0B3B23946204654
:10815000BDE8F047FEF707BF19F01CFF040053D03D
:108160002978771E4FF001090D2973D009DC0C29FD
:1081700015D2DFE801F014EF143114EE14ED14867B
:1081800014F0172967D006DC0F2978D0112952D0B6
:10819000132904D167E1192972D01D295CD0FBA0F5
:1081A000FCF7B5FD28788DF808908DF809000020BF
:1081B00006218DF80A008DF80C108DF80B00009048
:1081C0000190A089052302AA042104F0D9FD0AB078
:1081D000BDE8F04700F0BCBCB5F8015004F0CEFAA1
:1081E000854200D22846E08284F81890DAF80050E0
:1081F00095B1AB208DF8000004208DF80100A08916
:10820000ADF80200E08A00E0F7E1ADF804000623D3
:10821000A1896A460420A8474046FEF70FF9E648C0
:1082200000788007D3D4E08A0022001D81B2A089A3
:10823000FFF712FDCBE720780228C8D13246294645
:1082400020461AF019FD69782046711A2944012246
:108250004988A7E00FE13CE14746B5F80180EA1CF8
:10826000F61E4146A8201AF0E1FE0246F61CB3B203
:1082700041463846FEF777FE84F85190A7E76AE159
:108280005BE120780C281BD011DC062801D00828DF
:108290009DD13246294620461AF0A1FC3146284697
:1082A00000F0A0FF014620461FF0F8F88FE71428E1
:1082B00033D024288BD16888A4F84C0025203AE1DB
:1082C00095F80180B8F1070F07D26888A085A888C3
:1082D0002086E88860860D202DE1022716E000BF89
:1082E000E91935F807904A8822868A886286C98803
:1082F00001A81FF095FA01A80090638E228E4946CE
:108300002046FEF764FE07EB080087B2B742E7D3CA
:1083100069782046711A695A43E095F80180002176
:108320000227A8F1020A0DE035F80790EA191FFAB2
:108330008AF3921C494620461AF042FC07EB0800DB
:10834000494687B2B742EFD3204613222AE002E023
:1083500035E04CE009E120780E2814D0102824D014
:1083600028288BD1204600F07DFA218F6A1CA92095
:108370001AF05CFE02460837BBB2A189A068FEF77E
:10838000E9FD002135E101A9681C1AF0B3FCA18DBB
:1083900001AA00922046638E228EFEF718FEA18D60
:1083A00020460B221FF09AF811E7204600F05AFAF7
:1083B000BBB2218F6A1C20461AF002FCE1E74FF0A5
:1083C00004094FF6FF78012704F11C0A09E0E819B7
:1083D000E95B40885346804602462046FEF718FE79
:1083E0004F44B742F3DB204641460322DAE7687880
:1083F0000427022800D11227F01B35F800A0AD1C7D
:10840000B61E1FFA86F8002622E000BF35F8069057
:10841000042F05EB060021D0801C06A91AF06AFC87
:10842000A4228DF8002014228DF80120A289ADF835
:10843000022006A9ADF8049010220DF10600FCF709
:1084400009F8A18916236A46A068FEF783FD3E4419
:108450004645DBDB204651460922A3E7418806A8B2
:108460001FF0DEF9DCE72078182803D0262801D099
:108470002C2899D1ACE0761E2078B6B2761DBFB21A
:10848000122815D02A288FD1218F628F6B1CAA2029
:1084900000971AF0D9FD020004D0B3B2A189A068F8
:1084A000FEF758FD3A46292120461EF0DFFF8EE6F2
:1084B000218F628F6B1CA62000971AF0C5FD020069
:1084C00004D0B3B2A189A068FEF744FD3A46112159
:1084D000EAE720781A2812D01C281CD02E2814D0A5
:1084E0003228E4D1204600F0BDF932462946204624
:1084F00003F030F900287FF461AF7E2179E0B5F810
:1085000003001D226087192110E0B5F803002F2217
:1085100060872D210AE032462946204603F01AF9E9
:1085200040B1B5F803001D2260871B2120461EF0D4
:10853000C4FF4CE62120207049E620781E2847D051
:10854000202845D0222802D03028B0D140E0204653
:1085500000F088F9D1E720781628A8D1BBB26A1CB0
:10856000002120461AF02CFB32E029790A292BD170
:108570002078082830D021DC022829D0042827D0F0
:10858000062821D128E00000D800002041545420C2
:1085900048616E646C65722C20756E68616E646CE7
:1085A000656420726573706F6E7365207479706591
:1085B0002030782530327800D40000200A2807D0F7
:1085C0000C2805D014280CD0204600F0B0FAFEE5A7
:1085D000204600F047F9D4E6E18D2046FEF753FB34
:1085E000F6E7204600F03EF9A08D218E8842F2D1B8
:1085F0000A212046FEF7D8FCE9E50AB0BDE8F0877D
:1086000010B50446084619F0FFFC18B1017819B1FD
:10861000952010BD562010BD1F218460017000F010
:1086200097FA002010BD70B505461446084619F0AB
:10863000EBFC18B1017819B1952070BD562070BDC2
:1086400085606188A288914203D10021FEF7ACFCCD
:1086500007E0491C8185A188C1850921017000F0CE
:1086600077FA002070BD2DE9F04107461D461646F9
:108670000846DDF8188019F0C7FC040004D0207803
:1086800020B19520BDE8F0815620FBE7A760A685C4
:10869000E585012084F850000025658310224146BD
:1086A00004F11C00FBF7D6FEE5860720207000F0E1
:1086B0004FFA0020E6E72DE9F04107461D46164631
:1086C0000846DDF8188019F09FFC040004D02078DB
:1086D00020B19520BDE8F0815620FBE7A760A68574
:1086E000E585012084F85000A4F81A80414604F181
:1086F0001C001FF095F80020E0860720207000F095
:1087000027FA0020E6E770B506461C4615460846DF
:1087100019F07AFC18B1017819B1952070BD562076
:1087200070BD86608585C485002180F85010C186A3
:108730000521017000F00CFA002070BD10B5044650
:10874000084619F061FC18B1017819B1952010BDE7
:10875000562010BD0121846081854FF6FF72C285CD
:1087600001700021418300F0F3F9002010BD70B5C5
:1087700005461646084619F047FC040003D0207849
:1087800018B1952070BD562070BD0120A560A08550
:108790004FF6FF70E085002060831022314604F11F
:1087A0001C00FBF757FE0320207000F0D1F90020D9
:1087B00070BD70B505461446084619F025FC18B181
:1087C000017819B1952070BD562070BD01218560DA
:1087D00081854FF6FF71C1850321017044832146D5
:1087E0001C301FF01DF800F0B3F9002070BD10B56B
:1087F0000446084619F008FC18B1017819B1952013
:1088000010BD562010BD1D218460017000F0A0F93C
:10881000002010BD70B506461C461546084619F0E6
:10882000F3FB18B1017819B1952070BD562070BDC9
:1088300086608585C4850B21017000F089F90020D0
:1088400070BD00B50A4600F0C3FC10B1017E0129DD
:1088500003D017201080952000BDC08A1080002012
:1088600000BD000010B50021017004468189044854
:10887000FCF74DFA04F16000BDE81040FEF7AAB81D
:108880000098020070B504281AD11078052813D179
:10889000B2F80350284600F09BFC04000CD01F21C6
:1088A00000F045F92046FFF7DDFF0649002041F8BA
:1088B00025002046FDF797FFBDE8704000F048B95D
:1088C00070BD0000086C0020064910B504484860DF
:1088D000084601F003FFBDE810400348FCF7F0BF75
:1088E00085880000DC000020F580000010B519F03C
:1088F00051FB002802D0007808B1002010BD0120F3
:1089000010BD70B504460D46104600F061FC00280D
:1089100007D0656023812146BDE87040001DFDF74A
:10892000FCBE70BD2DE9F0410646DDE906781C4627
:108930001546084619F068FB20B1017821B1952051
:10894000BDE8F0815620FBE786600587878744876E
:108950003121C0F84080017000F0FAF80020EFE704
:1089600070B505461446084619F04EFB18B101785B
:1089700019B1952070BD562070BD856004872721F0
:10898000017000F0E5F8002070BD0023AFF3008017
:1089900070B506461C461546084619F035FB18B159
:1089A000017819B1952070BD562070BD866005878D
:1089B00044872921017000F0CBF8002070BD00230E
:1089C000AFF3008070B506461C461546084619F000
:1089D0001BFB18B1017819B1952070BD562070BDF0
:1089E0008660058744871121017000F0B1F80020EE
:1089F00070BD70B506461D461446084619F004FBC6
:108A000018B1017819B1952070BD562070BD8660EF
:108A1000A0F8444015218564017000F099F8002009
:108A200070BD70B505461446084619F0EDFA18B148
:108A3000017819B1952070BD562070BD85600487FE
:108A4000002141870F21017000F082F8002070BDE5
:108A50002DE9F04107461D4616460846DDF8188008
:108A600019F0D2FA040004D0207820B19520BDE896
:108A7000F0815620FBE7A760A685E58526866586FA
:108A8000002060831022414604F11C00FBF7E2FC49
:108A90001320207000F05CF80020E8E72DE9F04199
:108AA00007461D4616460846DDF8188019F0ACFA50
:108AB000040004D0207820B19520BDE8F081562034
:108AC000FBE7A760A685E58526866586A4F81A805B
:108AD000414604F11C001EF0A3FE1320207000F09C
:108AE00037F80020E9E700000149086070470000FE
:108AF000D80000202DE9F04106461C4615460846E0
:108B0000069F19F081FA20B1017821B19520BDE8C6
:108B1000F0815620FBE78660058784870021418726
:108B20001B210764017000F013F80020EFE770B517
:108B3000044600780D46002808D02046FFF792FE34
:108B400029462046BDE87040FEF72EBA70BD0000F1
:108B50002DE9F04F002689B04FF01E094FF0040AAE
:108B60004FF0020B37464FF00808CD4850F826402A
:108B7000002C6ED0A089FCF79DFE40B12278217EAA
:108B8000C8A0FCF7C4F8207E012862D105E0A089C6
:108B900009B0BDE8F04FFCF790BE94F8510040B129
:108BA00084F85170A0898DF80890009701230197EF
:108BB00089E02078172801D02B2818D1204618F0FA
:108BC00080FEA18FC01E884211DA204618F079FE7F
:108BD0000246A18FC1A0FCF79AF82046FFF742FE9B
:108BE00009B02046BDE8F04F0D21FEF7DDB9606DFC
:108BF00004F068FA05462178C3A0FCF788F82078CD
:108C0000362826D2DFE800F09E1B9E269E469E490F
:108C10009E519E649E709E749E769E789EA39EB684
:108C20009EB89EBC9EBE9EC19EC39ECB9EED9ED313
:108C30009EDD9EE59EFE9EFC9EBA9EFB9EFA84F8FB
:108C400000B0E08D0090A38DA2894FF42051102038
:108C500047E077E084F800A0608B4FF4205530B1F6
:108C6000ADF81C00E18D07AA8DE8060809E003A90C
:108C700004F11C001AF03EF8E08D102203A98DE8E3
:108C80000700A38DA28929460620FCF74DFF09B0F5
:108C9000BDE8F08F0620207001E084F8008009B064
:108CA0002046BDE8F04F1AF004B984F80080A0898E
:108CB000A18DE28D8DF808A0ADF80910ADF80B205C
:108CC00000970523019702AA042104F059F8DEE772
:108CD0000C202070E08D0090A38DA28942F6020145
:108CE0000820FDF760F9D2E70E202070228E61E0A7
:108CF00010205DE0122065E014202070618B20467A
:108D000039B1C28D0092838DA2890820FDF74BF9FD
:108D100018E000F11C028589818DE08D8DF80880B6
:108D2000ADF80910ADF80B000DF10D01104619F06A
:108D3000E1FF0097152302AA04212846CDF804700C
:108D400004F01EF8761C082EFFF40FAF9FE71620E4
:108D50002070A089B4F844100E23A26C8DF808305E
:108D60004FF6FF7303EA4101CDE90021012302AA76
:108D70000421E5E718202DE01A2044E0322042E0EB
:108D80001C2040E084F8009046E0202000E02220F3
:108D9000207009B02046BDE8F04F1AF085B82420B5
:108DA000207009B02046BDE8F04F1AF0C2B8282064
:108DB0002070228FA18909B00A20BDE8F04FFDF78D
:108DC00007B92A20207009B02046BDE8F04F1AF0FC
:108DD0009BB82C20207009B02046BDE8F04F1AF057
:108DE000B3B82620207004F14E000090B4F84C2057
:108DF000A18902231220FDF77FFB48E726E011E05E
:108E000008E0FFE72E20207009B02046BDE8F04FB3
:108E10001AF05FB83020207009B02046BDE8F04F4E
:108E20001AF052B81AF0DCFD00288FD034202070E0
:108E3000A86D216C01AB0091394A15C3A38F228F15
:108E4000D22105F148001AF0D5FD20E73620207028
:108E5000A96DB4F80C90228FB4F83C80D223266C14
:108E60008DF81030ADF81120059104F158000DF186
:108E7000140A06A919F04DFF0C20CDE902A0CDE996
:108E80000068032304AA0421484603F0C1FF2770A9
:108E90002046FFF7E7FCA86D401CA865F7E6000038
:108EA000086C00202D2068616E646C655F706572CF
:108EB0006970686572616C5F6C6973742C206D7485
:108EC000752073746174652025752C20636C696549
:108ED0006E74207374617465202575006761747405
:108EE0005F636C69656E745F72756E3A2076616C53
:108EF0007565206C656E202575203E204D545520EB
:108F00002575202D20330A00676174745F636C69D6
:108F1000656E745F737461746520257500000000D0
:108F20002D6400002DE9F04707461D461646894688
:108F30000846DDF8208019F02DF80446007850B975
:108F400048461BF0E7FE014660650AA0FBF7DFFE1E
:108F5000606D002802DA9520BDE8F087A7602687BB
:108F6000A5873320C4F840802070FFF7F1FD002072
:108F7000F2E700006C655F6465766963655F6B6549
:108F800079206973203A307825780A0070B50A4E46
:108F90000546002456F82400A84207D1A98907A055
:108FA000FBF7B5FE7F212846FFF7C1FD641CA4B284
:108FB000082CEFD370BD0000086C002047415454CA
:108FC00020636C69656E742074696D656F757420BB
:108FD00068616E646C652C2068616E646C6520301D
:108FE00078253032780000002DE9F04106461C4615
:108FF00015460846069F19F007F820B1017821B1FF
:109000009520BDE8F0815620FBE7866005878487C0
:10901000002141872B2107640170FFF799FD002093
:10902000EFE770B506461D461446084618F0ECFFFB
:1090300018B1017819B1952070BD562070BDE907AF
:1090400004D0A179C90601D4982070BDA90704D520
:10905000A179890601D4992070BD866061888185D7
:10906000A188C185A0F84E5023210170FFF770FD43
:10907000002070BD1CB5049CCDE90034002300F035
:1090800001F81CBD2DE9F0410646DDE906781C46D5
:109090001546084618F0B8FF20B1017821B1952097
:1090A000BDE8F0815620FBE7866005878787448707
:1090B0002D21C0F840800170FFF74AFD0020EFE746
:1090C0001CB5049CCDE90034002300F001F81CBD60
:1090D0002DE9F0410646DDE906781C4615460846AE
:1090E00018F092FF20B1017821B19520BDE8F08100
:1090F0005620FBE786600587878744871921C0F8DB
:1091000040800170FFF724FD0020EFE72DE9F041DA
:1091100006461C4615460846069F18F075FF20B106
:10912000017821B19520BDE8F0815620FBE78660EB
:1091300005878487172107640170FFF709FD002068
:10914000F1E7F8B51E4615460F4618F023FF040058
:1091500003D0207818B19520F8BD5620F8BD2046E0
:1091600018F0AFFBC01EA84201DA9720F8BD0096A8
:10917000A1892B463A465220FDF7BEF9C0B2F8BD90
:10918000F0B5002423460125C65C002205FA02F74B
:109190003E4207D08C4203D102EBC300C0B2F0BD07
:1091A000641CA4B2521CD2B2082AEFD35B1CDBB2FF
:1091B000052BE9D3FF20F0BD10B580B218F04AFDB1
:1091C000BDE810401DF05CBF00487047D495020018
:1091D000082803D2024951F8200070470020704748
:1091E000086C00204278891A0844B0F803007047E0
:1091F0004FF496707047012070472D207047000093
:10920000014890F861037047206F002001207047EB
:109210002DE9FC41164C18271E46D4F808C0BCF1B5
:10922000000F11D04978D9B12178002579B1FCF728
:10923000E9FA237862882570658002B039463046A5
:10924000BDE8F04119F0F8BE03230022F5E7002342
:1092500000950195B0F8040102221946E04701E0AB
:10926000FCF7D0FA192030700120BDE8FC81000025
:10927000AC0000202DE9FF4F87B01D46DDE91473D7
:109280008946824600264FF0060B0124B0463A4636
:1092900029463248FBF738FDBD4204D81DB1DAF843
:1092A0002001009046E0012351E06846FCF75DFD97
:1092B000BDF8080008B1A8423CD3B8423DD8CEB1B1
:1092C00058B14FF420516846FCF798FD28B942F692
:1092D00001016846FCF792FD60B1414620A0FBF712
:1092E00013FD29F80480A41CA4B209990026201DAE
:1092F000884222D8BDF808005FEA00081AD0684604
:109300001599FCF77BFDA8B1BDF810201698824294
:1093100010D105991798FBF7D6F858B9BDF8081081
:1093200016A0FBF7F1FCBDF8081029F80410A41CE6
:10933000A4B2012600980028B7D1012C06D007213D
:1093400089F8001020460BB0BDE8F08F0A232A46AA
:109350005946484619F070FEF5E7000054960200A1
:10936000456E64206F662067726F75702C2068618F
:109370006E646C652030782530347800426567690A
:109380006E206F662067726F75702C2068616E6446
:109390006C65203078253034780000002DE9F04FDE
:1093A00087B09346109F884681461E464FF0040AB8
:1093B000012400253A46194628A0FBF7A5FCBE4229
:1093C00004D81EB1D9F82001009033E001233EE01B
:1093D0006846FCF7CAFCBDF8080070B3B8422CD848
:1093E000B04227D3BDF80610880501D5102000E053
:1093F0000220012C02D9A84221D109E008D105465A
:10940000880501D5022100E0012188F8011002241D
:109410006019801C584510D8BDF8081028F80410B1
:10942000A41CA4B208EB04002A460399FBF712F827
:10943000601984B200980028CAD1012C06D00520FA
:1094400088F80000204607B0BDE8F08F0A233246B6
:109450005146404619F0F0FDF5E700004154545FD5
:1094600046494E445F494E464F524D4154494F4E36
:109470005F524551554553543A2066726F6D202511
:1094800030345820746F2025303458002DE9F04FC7
:109490002C4C8346B1F80150B1F803A0A06889B004
:1094A000984691460E46162758B12A4602A95846B4
:1094B000FCF751FB38B1BDF80E00010701D5C0051E
:1094C00003D403231DE001231BE002A95846FCF747
:1094D000E1FF08B1034614E0A9F10500711D80B257
:1094E000CDE90010D4F808C0BBF8040153460122AE
:1094F0002946E04710F0FF0319D0072B09D00D2BA8
:1095000007D02A463946404619F096FD09B0BDE815
:10951000F08F0D2B02D0072B06D008E020780D2805
:1095200005D02370658002E020780028F9D04A46F3
:1095300031464046FAF78EFF172188F8001048465A
:10954000E4E70000AC0000202DE9F04387B01646A8
:109550000E9D0C46074699464FF00C082A461946C0
:1095600025A0FBF7D1FB4A4601A93846FCF7F3FAE0
:1095700028B1BDF80A00800703D4022307E00123C5
:1095800005E001A93846FCF785FF030007D04A46ED
:109590004146204619F050FD07B0BDE8F083B7F80A
:1095A000041101A8FCF760FFBDF81400A0F57F418D
:1095B000FF3902D10020ADF8140080B2A84201D2D8
:1095C0000723E4E7401C401BB04203DD7019401E36
:1095D000ADF81400B7F804010090BDF81400621C47
:1095E000401B83B2294601A8FCF742F9401C0D211B
:1095F00080B22170D0E700004154545F524541448D
:109600005F424C4F425F524551554553543A206892
:10961000616E646C6520253034782C206F6666732B
:1096200065742025750000002DE9FF4F89B00024E6
:10963000DDF858801020CDE906041E468946012534
:109640002746A346A246424631463D480B9BFBF7C0
:109650005BFB46450DD866B1DDE91701FCF75CFF01
:10966000B0F5205F07D042F60101884203D01023F5
:109670005FE001235DE00998D0F8200100904BE005
:109680006846FCF772FBBDF8080008B1B04243D34E
:10969000404544D817B358B14FF420516846FCF701
:1096A000ADFB28B942F601016846FCF7A7FBA8B15B
:1096B00029F805B0AD1CA8B229F800A0801C85B21D
:1096C00009EB0500221F0799FAF7C4FE2819001FAD
:1096D00085B20B9800272919814220D8BDF80800CF
:1096E0005FEA000A18D0DDE917216846FCF761FB44
:1096F00090B1BDF81000001D80B2012D02D9A0422A
:109700000FD104E003D1044689F801000225BDF819
:1097100008B005980127079000980028B0D1012DC6
:1097200006D0112189F8001028460DB0BDE8F08F51
:109730000A2332464846069919F07EFCF5E70000F8
:109740009C9602002DE9FF4F87B08846149F814602
:109750004FF0000A1D464FF0080B012456463A46CA
:1097600019463FA0FBF7D0FABD4204D81DB1D9F885
:10977000200101905CE0012366E001A8FCF7F5FA06
:10978000BDF80C00E8B3A84252D3B84253D8DDE983
:10979000152101A8FCF70DFBA0B3BDF80A00800756
:1097A00003D47EBBBDF80C6042E001A94846FCF73B
:1097B00071FE030002D0012C3FD845E0B9F8041136
:1097C00001A8FCF751FEBDF81400A0F57F41FF3958
:1097D0002ED0801C80B2012C02D982452DD104E00C
:1097E00003D1824688F801000224099804EB0A019B
:1097F00081420AD9022C20D8001FADF81400801C29
:1098000001E018E014E088F80100BDF80C1028F819
:109810000410B9F80401A41C0090A4B2BDF81430DF
:1098200008EB0402002101A8FCF722F8204484B2CE
:1098300001980028A1D1012C08D9092188F800102D
:1098400020460BB0BDE8F08F2A4602E036B1022375
:1098500032465946404619F0EFFBF2E70A23F3E798
:109860004154545F524541445F42595F54595045F9
:109870005F524551554553543A2066726F6D20250D
:1098800030345820746F20253034582C207479706F
:10989000653A20002DE9FF4F87B0884683461F4672
:1098A0004FF00E090124194628A0DDF850A0FBF75F
:1098B0002BFA002543E000BF3AF815605EB132464E
:1098C00001A95846FCF747F928B1BDF80A008007FE
:1098D00003D4022307E0012305E001A95846FCF761
:1098E000D9FD030007D032464946404619F0A4FB93
:1098F0000BB0BDE8F08FBBF8041101A8FCF7B4FD74
:10990000BDF81400A0F57F41FF3902D10020ADF869
:10991000140080B201190998814202D9401EADF8A5
:109920001400BBF804010090BDF8143008EB0402E9
:10993000002101A8FBF79CFF204484B26D1CBD42AE
:10994000BADB0F2188F800102046D1E74154545F5C
:10995000524541445F4D554C5449504C455F52452A
:1099600051554553543A206E756D2068616E646C94
:1099700065732025750000002DE9F04387B015467A
:109980000C46064699464FF00A081A4601A9FCF70C
:10999000E2F8074649461EA0FBF7B6F92FB1BDF81D
:1099A0000A00800703D4022307E0012305E001A990
:1099B0003046FCF76FFD030007D04A46414620467B
:1099C00019F03AFB07B0BDE8F083B6F8041101A81E
:1099D000FCF74AFDBDF814004FF6FF71884201D133
:1099E0000846EFE7401CA84202D96D1EADF814509E
:1099F000B6F804010090BDF81430621C002101A8E3
:109A0000FBF736FF401C0B2180B22170DAE7000023
:109A10004154545F524541445F524551554553545A
:109A20003A2068616E646C6520253034780000004F
:109A30002DE9F041154F8046B1F80150B86888B063
:109A400016460C4600281ED02A4602A94046FCF7BE
:109A500082F8002817D0BDF80E00C10513D54007C5
:109A600011D502A94046FCF715FD00280BD1F61EC2
:109A7000E41CB0B2CDE900400023BC68B8F8040192
:109A80001A462946A04708B0BDE8F081AC00002086
:109A90002DE9F047B1F8015088B090460C461E46BB
:109AA00081464FF0120A2A4602A9FCF754F850B139
:109AB000164FB86828B1BDF80E00010701D5C005E2
:109AC00003D4032316E0012314E002A94846FCF75F
:109AD000E1FC03000ED1A8F1030080B2E41CCDE943
