:020000040200F8
:10200000001F12409D300002F13000022530000216
:10201000F5300002F7300002F93000020000000045
:10202000000000000000000000000000CD030020C0
:10203000FD30000200000000D5030020C503002091
:102040000331000203310002FD3F0002453C000263
:10205000353C00024940000239400002294000029C
:1020600089400002713E0002E93B00029B1D0020F6
:10207000651B002003310002FD3B0002DD3F000232
:102080000D400002613D000269400002594000021B
:10209000513D0002413D00020D3C0002913D000215
:1020A000413E000203310002713D0002813D000209
:1020B000CD3F0002BD3F0002AD3F0002794000026B
:1020C000D53D0002C53D0002ED3F0002913E0002F9
:1020D000813E0002513E0002613E0002A13E00022C
:1020E000B13E0002C13E0002D13E000203310002B7
:1020F0000331000203310002D93B00020200032D2C
:1021000000700202FFFFFFFFFFFFFFFFFFFFFFFF67
:10211000FFFFFFFFFFFFFFFFFFFFFFFFFFFFFFFFCF
:10212000FFFFFFFFFFFFFFFFFFFFFFFFFFFFFFFFBF
:10213000FFFFFFFFFFFFFFFFFFFFFFFFFFFFFFFFAF
:10214000FFFFFFFFFFFFFFFFFFFFFFFFFFFFFFFF9F
:1030000000200002DFF810D000F066F90048004709
:10301000B9CD0102AFF30080E443002030B5804712
:1030200030BD00BF1EF0040F0CBFEFF30880EFF3BC
:10303000098081694DF29D62C0F20122104700B5FE
:103040001A4422F0030203460E480068C0050ED160
:10305000EFF3148080070AD5EFF3098082F3098823
:1030600001B40846984701BC80F3098800BDEFF31E
:10307000088082F3088801B40846984701BC80F3B1
:10308000088800BD04ED00E044F6206000BF401E4B
:10309000FCD1284740BA7047C0BA70471948016848
:1030A00011F0010F184A18BF104721F0010101600B
:1030B0000ED01648016821F0020101601448016831
:1030C00041F480610160134880471348006800475D
:1030D0000E48016821F0020101600D48016841F4C9
:1030E000806101600D4880470D4800470D4800474A
:1030F000FEE7FEE7FEE7FEE7FEE7FEE7FEE7FEE7A8
:10310000FEE7FEE710011040FD000020080000402F
:103110001C000040CD630002F04100201563000256
:10312000D9320002B9CD01022DE9F0035FEA930C18
:103130006FD000BF30F8024B31F8026B30F8025B01
:1031400031F8027B14FB06F84FEA684815FB07F9D3
:10315000A8EB694822F8028B14FB07F4641415FBF2
:1031600006F504EB654422F8024B30F8024B31F8C7
:10317000026B30F8025B31F8027B14FB06F84FEA71
:10318000684815FB07F9A8EB694822F8028B14FB85
:1031900007F4641415FB06F504EB654422F8024BB2
:1031A00030F8024B31F8026B30F8025B31F8027BE9
:1031B00014FB06F84FEA684815FB07F9A8EB6948C5
:1031C00022F8028B14FB07F4641415FB06F504EBDC
:1031D000654422F8024B30F8024B31F8026B30F8AC
:1031E000025B31F8027B14FB06F84FEA684815FBD6
:1031F00007F9A8EB694822F8028B14FB07F4641462
:1032000015FB06F504EB654422F8024BBCF1010CFA
:1032100090D113F0030304BFBDE8F003704700BF73
:1032200030F8024B31F802CB30F8025B31F8026B18
:1032300014FB0CF77F1415FB06F8A7EB684722F880
:10324000027B14FB06F4641415FB0CFC04EB6C4CC1
:1032500022F802CB5B1EE3D1BDE8F003704700000B
:1032600000F5005000B20028BCBF00F5004000B2DD
:1032700081090B4BA0EB8110400233F9112003EBC5
:10328000410100B2C0F5004349885A43121410FBB3
:1032900001F000EB02400014400000B27047000053
:1032A0009C27020281090B4BA0EB8110400233F9ED
:1032B000112003EB410100B2C0F5004349885A4395
:1032C000121410FB01F000EB02400014400000B2A9
:1032D000704700009C270202064C074D06E0E0689C
:1032E00040F0010394E8070098471034AC42F6D34D
:1032F000FFF78CFE94310202C43102022DE9F05F27
:103300000546002092469B46884606468146402454
:103310001BE0284641464746224600F06BF85346DC
:103320005A46C01A914110D311461846224600F061
:1033300052F82D1A67EB01084F4622460120002162
:1033400000F049F817EB00094E41201EA4F10104DA
:10335000DFDC484631462A464346BDE8F09FD2B2FC
:1033600001E000F8012B491EFBD270470022F6E76E
:1033700010B513460A4604461946FFF7F0FF2046EB
:1033800010BD421C10F8011B0029FBD1801A7047A8
:1033900030B504460020034600E05B1C934203D294
:1033A000E05CCD5C401BF8D030BD30B50B4601462B
:1033B00000202022012409E021FA02F59D4205D3D4
:1033C00003FA02F5491B04FA02F52844151EA2F17E
:1033D0000102F1DC30BD202A04DB203A00FA02F1C0
:1033E000002070479140C2F1200320FA03F31943F3
:1033F00090407047202A04DB203A21FA02F0002195
:10340000704721FA02F3D040C2F1200291400843F4
:10341000194670472DE9FE4F804681EA0300C00F30
:103420000C46009021F0004123F00045B8EB02006B
:10343000A94105D24046214690461C460B4602460D
:1034400023F00040104347D0270DC7F30A00C3F311
:103450000A510290401A019040286BDAC3F313001E
:1034600040F4801B0098924620B10023D2EB030A5F
:1034700063EB0B0B01985946C0F140025046FFF731
:10348000AAFF06460D4650465946019A00F07AF9C1
:1034900010EB08006141002487EA115284EAE773C7
:1034A0001A4340D0009A62B3019A012A4FEA0752A8
:1034B00015DC001B61EB02014FF0004202EA0752EB
:1034C000CDE90042001C41F5801132462B4600F048
:1034D0007AF903B0BDE8F08F40462146F9E7001BBA
:1034E00061EB0201001C41F5801300185B412018BC
:1034F000A2F5001747EB030140EAD570B6196D41FC
:1035000011E06D084FEA360645EAC0754FEA0752EA
:10351000001B61EB0201001C41F5801149084FEAD4
:1035200030000019514132462B4603B0BDE8F04F40
:1035300000F03AB90098012240000023D0EB0202CB
:1035400063EBE073009821464FEAE074B8EB0000AB
:1035500061EB0401E9E783F000435BE781F00041A0
:1035600058E72DE9FE4F81EA030404F0004421F0FE
:10357000004100944FF0000B23F0004350EA010497
:103580005ED052EA03045BD0C3F30A54C1F30A5578
:103590002C44A4F2F3340194A0FB0254C1F31301B0
:1035A00041F48011C3F3130343F4801301FB02447D
:1035B00000FB034E840A970A44EA815447EA835782
:1035C000A4FB076802958D0A05FB07854FEA932C3B
:1035D00004FB0C542705029D4FEA065847EA1637AC
:1035E000B5EB08056EEB070C870E920E47EA8117C4
:1035F00042EA8312A7FB0201B6EB0B0164EB000465
:103600002B0D43EA0C335E1844EB1C50DA4651464E
:10361000E7FB0201C5F313044FEA0B3343EA1453EB
:103620004FEA0432019C43EA0603A4F10C0402941D
:10363000009CCDE900B400F0C6F803B0BDE8F08FFF
:1036400000200146F9E72DE9F04D81EA030404F07A
:10365000004B21F0004514464FF0000A23F00041D2
:1036600050EA050220D054EA01021DD0C5F30A57E2
:103670000246C5F31303C1F31300C1F30A5640F425
:10368000801543F48013A7EB0608101BD64608F2FA
:10369000FD3873EB050002D308F1010801E0921830
:1036A0005B41B8F1000F03DA00200146BDE8F08D60
:1036B00000204FF48011064684460EE0171B73EB82
:1036C000050705D3121B63EB050306434CEA010C07
:1036D00049084FEA300092185B4150EA0107EDD1EA
:1036E00052EA030012D082EA040083EA050108438B
:1036F00005D0101BAB4106D20122002306E00022B8
:103700004FF0004302E06FF0010253101AEB060085
:103710004CEB085110EB0A0041EB0B01BDE8F04DFA
:1037200000F042B8C1F30A52C1F3130140F2FF3373
:1037300041F480119A4202DA00200146704740F2BB
:1037400033439A42A2F2334202DC5242FFF752BEA6
:10375000FFF741BE30B5041E71F1000404DB4FF0E9
:103760000044404264EB0101141E73F1000405DBC8
:103770001C464FF00043524263EB0403994208BFDA
:10378000904230BD202A06DBCB17203A41FA02F0E6
:1037900043EAE07306E041FA02F3D040C2F12002AE
:1037A000914008431946704710B5141E73F1000488
:1037B00008DA401C41F1000192185B411A4301D123
:1037C00020F0010010BD2DE9F04D92469B4611B14D
:1037D000B1FA81F202E0B0FA80F220329046FFF7AF
:1037E000FAFD04460F4640EA0A0041EA0B0153463F
:1037F0005A46084313D0114653EA010019D0C8F1C4
:1038000040025046FFF7F6FD05460E465046594623
:103810004246FFF7E0FD084305D0012004E02046C2
:103820003946BDE8F08D0020054346EAE0762C439A
:1038300037430A986305E40AA0EB08000022FD0A5A
:1038400044EA47540A3002D500200146E9E7010561
:1038500010196941DDE9084500196941BDE8F04DDD
:10386000A2E770B58C1810F8015B15F0070301D1C1
:1038700010F8013B2A1106D110F8012B03E010F8D3
:10388000016B01F8016B5B1EF9D12B0705D40023F6
:10389000521E0DD401F8013BFAE710F8013BCB1A98
:1038A000921C03E013F8015B01F8015B521EF9D58D
:1038B000A142D8D3002070BD42F2092CC2F2000C04
:1038C000604740F2E11CC2F2000C604740F2394C04
:1038D000C2F2000C604743F2796CC2F2000C604700
:1038E00040F2C11CC2F2000C604742F2A91CC2F2B5
:1038F000000C604742F2C51CC2F2000C604742F265
:10390000F51CC2F2000C604741F6F95CC2F2000CF3
:10391000604740F2A16CC2F2000C604740F2993C53
:10392000C2F2000C604740F2AF3CC2F2000C6047AC
:1039300041F6016CC2F2000C604742F24D2CC2F21B
:10394000000C604741F6536CC2F2000C604740F235
:10395000776CC2F2000C604743F2796CC2F2000C43
:10396000604743F2796CC2F2000C604740F2514C60
:10397000C2F2000C604742F26B6CC2F2000C60476E
:1039800041F6F97CC2F2000C604742F2954CC2F25B
:10399000000C604742F2055CC2F2000C604741F641
:1039A000E96CC2F2000C604742F2711CC2F2000CDA
:1039B000604740F2F17CC2F2000C604740F6130C05
:1039C000C2F2000C604742F2E71CC2F2000C6047F2
:1039D00042F2E75CC2F2000C604743F2556CC2F25F
:1039E000000C604741F6E77CC2F2000C604740F6ED
:1039F000710CC2F2000C604740F2237CC2F2000C52
:103A0000604740F2C17CC2F2000C604742F6657C20
:103A1000C2F2000C604740F6590CC2F2000C60473D
:103A200043F2791CC2F2000C604741F60D1CC2F251
:103A3000000C604742F63D7CC2F2000C604743F246
:103A4000E75CC2F2000C604741F2710CC2F2000C5C
:103A5000604742F2436CC2F2000C604740F2057CC2
:103A6000C2F2000C604740F6BF2CC2F2000C604767
:103A700040F2DB7CC2F2000C604741F2011CC2F252
:103A8000000C604740F67D1CC2F2000C604740F21B
:103A9000714CC2F2000C604740F6873CC2F2000C49
:103AA000604740F6EB1CC2F2000C604741F62B6CFD
:103AB000C2F2000C604740F2914CC2F2000C604729
:103AC00040F6B30CC2F2000C604741F24B1CC2F24C
:103AD000000C604740F6055CC2F2000C604740F6FF
:103AE000096CC2F2000C604740F6815CC2F2000C27
:103AF000604740F65D6CC2F2000C604740F6296CEE
:103B0000C2F2000C604740F6856CC2F2000C6047C0
:103B100040F6F76CC2F2000C604740F6AB7CC2F294
:103B2000000C604740F6DB3CC2F2000C604740F6F8
:103B3000E53CC2F2000C604740F6F70CC2F2000C04
:103B4000604742F2CF7CC2F2000C604741F2B52CD4
:103B5000C2F2000C604742F6290CC2F2000C60472A
:103B600042F6036CC2F2000C604740F6330CC2F21E
:103B7000000C604742F2617CC2F2000C604742F6E2
:103B8000E12CC2F2000C604740F2F13CC2F2000CA2
:103B9000604743F2696CC2F2000C604742F2E52CC8
:103BA000C2F2000C604741F29D3CC2F2000C60473B
:103BB00041F2454CC2F2000C604741F6E90CC2F2FA
:103BC000000C604741F6C70CC2F2000C604743F698
:103BD000451CC2F2000C604702482421C06806F070
:103BE000D3BF0000C83900200348016841F020011C
:103BF00001600120FFF760BE000013400248092168
:103C0000C06806F0C1BF0000C8390020024810217A
:103C1000C06806F0B9BF0000C83900200448006839
:103C20000122C0F308010A20891EFFF74ABE0000E6
:103C300004ED00E002480121C06806F0A5BF0000C5
:103C4000C839002002480221C06806F09DBF00006C
:103C5000C839002010B5C368D9B280290FD984684B
:103C6000A06800B101204B2213A1FFF72FFEA1682D
:103C700019B1E068BDE81040084772B6FEE7044697
:103C8000008A616982B2D8B2124B1B68984706F06D
:103C900099FB00280FD1E068022806D004280AD139
:103CA000A069BDE8104006F087BBA08BA169BDE804
:103CB000104006F07FBB10BD4863695F696E746594
:103CC000726E616C5F7472616E73706F72742E636A
:103CD00000000000103B00201FB541680A2914D0E5
:103CE00007DC09B105291FD104B0BDE81040FFF77A
:103CF000B1BF0B2919D00C2916D1018AC2684069BD
:103D000004B089B2BDE8104010470C491EC98DE8C7
:103D10001E00C168019141690291008AADF80C0052
:103D20001021684606F086F91FBD018A8AB24169F2
:103D3000C06804B0BDE8104007F09CBF90110202BB
:103D400002480E21C06806F01FBF0000C8390020DD
:103D500002480F21C06806F017BF0000C8390020D4
:103D600002480B21C06806F00FBF0000C8390020D0
:103D700002481221C06806F007BF0000C8390020C1
:103D800002481321C06806F0FFBE0000C8390020B9
:103D900002481121C06806F0F7BE0000C8390020B3
:103DA000074A131D5980116860F3070111601068FC
:103DB00040F40070106010688005FCD4704700006B
:103DC0000804114002481C21C06806F0DDBE000056
:103DD000C839002002481B21C06806F0D5BE00008B
:103DE000C8390020C906090E002806DA00F00F00C5
:103DF00000F1E02080F8141D704700F1E02080F809
:103E000000147047024A11400143024801607047A4
:103E100080FFFF1F08ED00E000B589B04168039105
:103E20000021CDE901100448694600688269034811
:103E30000068904709B000BDCC390020E03900206F
:103E400002481421C06806F09FBE0000C839002057
:103E500002481521C06806F097BE0000C83900204E
:103E600002481621C06806F08FBE0000C839002045
:103E700002480721C06806F087BE0000C83900204C
:103E800002481E21C06806F07FBE0000C83900202D
:103E900002481D21C06806F077BE0000C839002026
:103EA00002481F21C06806F06FBE0000C83900201C
:103EB00002482021C06806F067BE0000C839002013
:103EC00002482121C06806F05FBE0000C83900200A
:103ED00002482221C06806F057BE0000C839002001
:103EE0002F492E48C1F890012E48C1F894014FF493
:103EF0000040086342F2412048632B48826942F047
:103F000080428261026922F07F7202F54002026102
:103F1000826922F4700202F580128261826942F4A1
:103F20007022826182696FF30F02103282614A6AE5
:103F300022F4601202F500224A624A6A22F4F85220
:103F400002F500724A62826922F07C5202F1C85284
:103F50008261D1F8602122F4FC0202F5B402C1F8BA
:103F60006021016801680E2262F31F71016081689F
:103F7000C90D21F0F00141F03002816862F3DE5199
:103F80008160C168C168022262F38A11C160016860
:103F90000168092262F344010160704707060204C8
:103FA00000001040010304050020104002481721C2
:103FB000C06806F0E9BD0000C83900200248182199
:103FC000C06806F0E1BD0000C83900200248192190
:103FD000C06806F0D9BD0000C83900200248082199
:103FE000C06806F0D1BD0000C83900200248232176
:103FF000C06806F0C9BD0000C83900200248002191
:10400000C06806F0C1BD0000C839002002480A217E
:10401000C06806F0B9BD0000C839002001494872E7
:1040200070470000A43A002002480321C06806F04F
:10403000ABBD0000C839002002480421C06806F06A
:10404000A3BD0000C839002002480521C06806F061
:104050009BBD0000C839002002480C21C06806F052
:1040600093BD0000C839002002480D21C06806F049
:104070008BBD0000C839002002481A21C06806F034
:1040800083BD0000C839002002480621C06806F040
:104090007BBD0000C83900200FB4054B10B503A943
:1040A000044A029800F0FEF810BC5DF814FB000012
:1040B000BD6B0002643C00200FB4084B10B504A98E
:1040C00002AA039800F0EEF8044602A9002000F0CE
:1040D00097FE204610BC5DF814FB0000014E000264
:1040E000014B024A00F0E0BABD6B0002643C0020C4
:1040F0007047704770477047704770477047704708
:1041000002E008C8121F08C1002AFAD170477047A0
:10411000002001E001C1121F002AFBD170470000FE
:104120002DE9FF5F82B00021DDE90430020DDDF8EA
:1041300040B0034318D044F61050A2F2FF3242437D
:104140001514119801281FD0A5EB0B00401C5FEA45
:10415000000A4FF000064E4FDFF83891B046504647
:1041600015D5CAF1000413E0119801244AA30128CF
:1041700001D16FEA0B010298119AC0E90031C0E940
:10418000024206B0BDE8F09FCBF10000DFE7044635
:104190000021404A491842EB0450CDE9001012E0DA
:1041A000E00707D032463B4640464946FFF7D9F97B
:1041B0008046894632463B4610461946FFF7D1F9FC
:1041C00006460F466410002CEAD1DDE90401DDE962
:1041D0000023BAF1000F06DAFFF7C3F942464B4657
:1041E000FFF7BFF905E0FFF72EFA42464B46FFF70F
:1041F0002AFA04460E460022284BFFF7ABFA03D8F2
:104200004FF0FF30014607E00022254B20463146A3
:10421000FFF700F9FFF786FA102409E0002C0ADB0B
:104220000A220023FFF76AF8039B30321A55641EF6
:1042300050EA0102F2D1641C039AC4F11103144440
:10424000119A012A03D0012208430DD10AE0084344
:1042500004D000204FF0110B119072E7A3EB0B0577
:104260006D1E0DE05B4504DD4FF0000205F1010518
:1042700004E003DA4FF00002A5F10105002AECD0BA
:1042800002981199C0E90231C0E9004579E70000C0
:10429000000014400000F03F300000000000F04338
:1042A0000000E03F2DE9FF4F8DB00F460546002688
:1042B00006E025280BD0DDE90F1290476D1C761C17
:1042C00028780028F5D111B03046BDE8F08F0024E1
:1042D000A246A1460122E94900E0044315F8013F46
:1042E000203B02FA03F00842F7D128782A2810D0A0
:1042F0006FF02F022878A0F13001092914D80AEBB9
:104300008A0102EB410144F0020400EB010A6D1C3A
:10431000F0E701CF5FEA000A03D544F40054CAF184
:10432000000A44F002046D1C28782E2817D115F8D5
:10433000010F44F004042A280ED06FF02F022878D1
:10434000A0F1300109290AD809EB890102EB4101EA
:1043500000EB01096D1CF2E757F8049B6D1C2878EF
:104360006C280FD006DC4C2817D068280DD06A289E
:1043700014D104E0742810D07A280FD10DE044F451
:1043800000140AE044F4801401E044F44014697815
:10439000814202D104F580146D1C6D1C28786E28B2
:1043A0001ED00CDC632830D004DC00288BD05828C9
:1043B00011D19FE0642867D069280CD164E073288C
:1043C0002DD004DC6F2872D0702804D194E07528B9
:1043D0006ED078286DD0DDE90F129047761C4BE146
:1043E000C4F30250022806D0032809D0042801CFC4
:1043F00009D0066040E101CFF117C0E900613BE15F
:1044000001CF068038E1067036E117F8040B8DF80D
:10441000000000208DF80100EB46012003E057F872
:1044200004BB4FF0FF3061074FF0000102D40DE0F4
:1044300008F10101884649450FDA8045F8DB1BF891
:1044400008100029F4D108E008F1010188468142F2
:10445000FADB1BF808100029F6D1DDE90F23AAEBDF
:1044600008008146214600F09DFC304400EB080620
:1044700004E0DDE90F121BF8010B9047B8F10108C9
:10448000F7D221464846F2E00A21C4F302524FF027
:10449000000B0891022A04D001CFC117032A09D0CA
:1044A0000AE0FF1D27F00707F7E8020108E02CE00B
:1044B0001EE01FE000B2C117042A01D140B2C117AB
:1044C000021E71F1000206DA0023D0EB030063EB59
:1044D00001012D2202E0220504D52B228DF8242093
:1044E000012203E0E20701D02022F7E7904653E0E3
:1044F0000A210BE0102109E010214FF0000B44F0DD
:1045000004044FF00809089103E008214FF0000B64
:104510000891C4F30252022A04D001CF0021032AD9
:1045200006D006E0FF1D27F00707F7E8020103E0C9
:1045300080B2042A00D1C0B24FF0000822072BD568
:104540002A78702A07D0DDF820C08CF0100C5CEAC5
:104550000B0C05D00EE040228DF82420012208E04B
:1045600050EA010306D030238DF824308DF8252041
:1045700002229046089B83F0080353EA0B030BD1F9
:1045800050EA010201D1620706D530228DF82420BD
:104590004FF00108A9F101092A78582A04D038A25D
:1045A0000B9208AA0A920BE03AA2F9E75B46089A36
:1045B000FEF7A4FE0B9B9B5C0A9A521E0A92137094
:1045C00050EA0102F2D10A98ADEB000000F1200B95
:1045D000600702D524F4803401E04FF00109D94589
:1045E00002DDA9EB0B0000E0002000EB0B014144D1
:1045F0000890AAEB010AE00306D4DDE90F23214667
:10460000504600F0CFFB06444FF0000908E009A92E
:1046100011F80900DDE90F12904709F10109761C34
:10462000C145F4DBE0030CD5DDE90F2321465046FC
:1046300000F0B8FB064404E0DDE90F12302090479B
:10464000761C0899481E08900029F5DC08E00A98B5
:104650000A990078491C0A91DDE90F129047761CEF
:10466000BBF10001ABF1010BF1DC21465046DDE965
:104670000F2300F073FB06446D1C21E6092801009E
:1046800030313233343536373839616263646566C8
:10469000000000003031323334353637383941428A
:1046A00043444546000000002DE9FF4F95B09A466F
:1046B000884606460025EEE1252877D100242746C6
:1046C000F94A0121039400E0044316F8013F203B1E
:1046D00001FA03F01042F7D130782A2811D06FF098
:1046E0002F033078A0F13002092A16D8039A44F03B
:1046F000020402EB820203EB42021044761C039098
:10470000EFE758F8042B0392002A03DA504244F4EE
:104710000054039044F00204761C30782E2816D101
:1047200016F8010F44F004042A280DD06FF02F0270
:104730003078A0F13003092B09D807EB870302EB8F
:104740004303C718761CF3E758F8047B761C3078CF
:104750006C280FD006DC4C2817D068280DD06A28AA
:1047600014D104E0742810D07A280FD10DE044F45D
:1047700000140AE044F4801401E044F44014727818
:10478000824202D104F58014761C761C30786628AB
:104790000BD013DC582877D009DC002875D04528C9
:1047A000F6D04628F4D047281AD193E118E06328C0
:1047B00035D0642879D0652812D18BE1702873D068
:1047C00008DC6728F1D069286FD06E280DD06F28DB
:1047D00006D1ACE073282CD0752874D0782853D03B
:1047E0005246179990476D1C54E1C4F302500228B9
:1047F00009D003280DD0D8F8001004280DD00D6082
:1048000008F1040846E1D8F80010EA17C1E900529F
:10481000F6E7D8F800100D80F2E70D70F0E718F811
:10482000041B8DF8001000208DF80100EB460120DC
:1048300003E058F804BB4FF0FF3061074FF0000170
:1048400002D40DE009F101018946B9420FDA814530
:10485000F8DB1BF809100029F4D108E009F1010187
:1048600089468142FADB1BF809100029F6D103982A
:104870005346A0EB090721463846179A00F0A9FADB
:10488000284400EB090507E044E008E10DE01BF8CF
:10489000010B524617999047B9F10109F7D25346D7
:1048A00021463846179AF2E039E00A21C4F3025251
:1048B0004FF0000B0091022A06D058F8040BC117E4
:1048C000032A09D00AE023E008F1070020F00702DC
:1048D000F2E80201904605E000B2C117042A01D1B6
:1048E00040B2C117002906DA0A460021404261EBB6
:1048F00002012D2202E0220504D52B228DF804208E
:10490000012203E0E20701D02022F7E7914657E0B9
:104910000A2100E010214FF0000B00910BE0102164
:104920004FF0000B44F004040827009103E0082036
:104930004FF0000B0090C4F30252022A05D058F841
:10494000040B0021032A08D008E008F1070020F03A
:104950000702F2E80201904603E080B2042A00D187
:10496000C0B24FF0000922072AD53278702A07D04A
:10497000DDF800C08CF0100C5CEA0B0C05D00EE0EA
:1049800040228DF80420012208E050EA010306D0FD
:1049900030238DF804308DF8052002229146009BCB
:1049A00083F0080353EA0B030AD150EA010201D154
:1049B000620705D530228DF804204FF001097F1ED3
:1049C0003278582A04D039A20C920CAA02920BE039
:1049D0003BA2F9E75B46009AFEF790FC0C9B9B5CC0
:1049E000029A521E0292137050EA0102F2D102980A
:1049F00004A9081A00F1200B600702D524F48034C2
:104A000000E001275F4502DDA7EB0B0000E000207E
:104A100000EB0B01009003984944401A0390E00317
:104A200006D453462146179A039800F0D2F905445C
:104A3000002706E001A85246C05D179990476D1CFB
:104A40007F1C4F45F6DBE0030CD553462146179AF1
:104A5000039800F0BEF9054404E03020524617994F
:104A600090476D1C0099481E00900029F5DC08E075
:104A70000298029952460078491C02911799904772
:104A80006D1CBBF10001ABF1010BF1DC5BE100F04F
:104A900077F90544761C307800287FF40DAE19B004
:104AA0002846BDE8F08F000009280100303132337C
:104AB000343536373839616263646566000000005A
:104AC0003031323334353637383941424344454644
:104AD00000000000600700D4062708F1070020F05E
:104AE0000700F0E80223804603F0004C5FEA0C0068
:104AF00001D097A009E0200501D596A005E0E007C8
:104B000001D095A001E0AFF24C001390307823F073
:104B1000004365280CD006DC452809D046281DD066
:104B200047287FD13BE0662818D067287AD136E045
:104B30000021112F01DB112000E0781CCDE90001DC
:104B400004A90CA8FFF7ECFADDE90D010C9A4FF06F
:104B5000000B07F10109109200914EE04FF0004068
:104B60000097CDE9011004A90CA8FFF7D9FADDE9F7
:104B70000D020C9B0F994FF0000B91461093009281
:104B800011B9791C00EB0109B7EB090003D4C0F19E
:104B9000FF3B07F10109A9EB0700019042E0012F5B
:104BA00000DA01270021112F01DD112000E0384635
:104BB000CDE9000104A90CA8FFF7B2FADDE90D0167
:104BC0000C9A00914FF0000BB946109221070FD4B8
:104BD000009A4A4503DA914601E0A9F10109B9F1C9
:104BE000010F05DD109AA9F10101515C3029F4D0C3
:104BF000B84202DA10F1040F03DA0121CDE9011005
:104C000010E0002803DC8344A9EB000102E0411C12
:104C1000494500DD8946A0EB0B00401C01904FF098
:104C200000400290200705D40198484502DB4FF070
:104C3000FF30019000208DF84B0002980DF14B07DA
:104C4000B0F1004F25D002200C902B200D9002983F
:104C500000280CDA404202902D200D9007E00A2136
:104C60000298FEF7A2FB3031029007F8011D0C9963
:104C7000481E0C900029F2DC02980028EFD1791E22
:104C80000D980870307800F0200040F0450007F8DB
:104C9000020D11A8C01BC01D02901398007800B12E
:104CA000012000EB0901019801EBE0710298014439
:104CB0000398401A401E0390E00306D45346214651
:104CC000179A039800F085F805441398007818B1F6
:104CD0005246179990476D1CE00323D55346214651
:104CE000179A039800F075F805441BE0BBF1000F1C
:104CF00007DB0098584504DD1098179910F80B0051
:104D000001E0179930205246904701980BF1010BB2
:104D1000401E05F10105019004D12E20524617993D
:104D200090476D1CB9F10001A9F10109DEDC05E035
:104D300017F8010B5246179990476D1C0299481EAF
:104D400002900029F4DC53462146179A03989EE608
:104D50002D0000002B000000200000002DE9F04194
:104D6000044600251E461746880404D405E039464B
:104D70002020B0476D1C641EF9D52846BDE8F0819F
:104D80002DE9F041044600251E461746880404D448
:104D900005E039462020B0476D1C641EF9D5284631
:104DA000BDE8F0812DE9F041044600251E469046FD
:104DB000C80301D5302700E02027880404D505E08A
:104DC00041463846B0476D1C641EF9D52846BDE8FB
:104DD000F0812DE9F041044600251E469046C803A7
:104DE00001D5302700E02027880404D505E041469E
:104DF0003846B0476D1C641EF9D52846BDE8F081E1
:104E00000A68531C0B601070704700002DE9F05FBA
:104E100006460088C0F30B00824605F07BF80400CC
:104E2000707875884FEA101709D005F10408884595
:104E300008D02A1DBDE8F05F3448FFF75DB9514640
:104E400033A01DE001F04EF907F00301002740F206
:104E5000031BE061012903D002292BD03BA00FE006
:104E6000A08C58B14119B1F5827F0DD353465A46F3
:104E70004648FFF741F9A784BDE8F09F514644A09A
:104E8000BDE8F05FFFF738B9216A2A460844311DB2
:104E90000E30FEF720FDA08C284481B2A184E08C66
:104EA000083081422ED3206A0E3005F09DF8E78449
:104EB000A78427E0A08C20B151464448FFF71CF995
:104EC000A784B788381D8146854205D31FFA88F12B
:104ED000304605F089F815E0FF2D07D953465A46AC
:104EE000291DBDE8F05F3A48FFF706B9206A2A1D80
:104EF00031460E30FEF7EFFCA4F82480E784216AE7
:104F0000A1F81090BDE8F05F05F096BB582E0202A4
:104F10006863692E633A2061636C5F68616E646CDC
:104F200065722063616C6C65642077697468206EBB
:104F30006F6E2D7265676973746572656420686150
:104F40006E646C6520257521000000006863692E81
:104F5000633A2061636C5F68616E646C65722063A4
:104F6000616C6C6564207769746820696E76616C29
:104F70006964207061636B657420626F756E646133
:104F8000727920666C61677320257500142F020208
:104F900041434C20436F6E7420467261676D656EAD
:104FA0007420627574206E6F206669727374206657
:104FB0007261676D656E7420666F722068616E64E1
:104FC0006C6520307825303278000000042E020213
:104FD000682F020210B505494FF6FF7302E084788E
:104FE0008C54C01C02889A42F9D110BD00001240B6
:104FF000704700001CB506498C68002C07D00021C2
:1050000000910191B0F804010B460322A0471CBD9A
:10501000FC39002070B50D4600281BD1002D19D198
:105020000D4C4FF49276206818B9304600F06EFFB0
:10503000206004000ED031462046FEF797F9A4F810
:10504000045104F58071284602F0CAFE4FF0FF308B
:10505000A4F8060170BD0000103A0020F8B516460D
:10506000028A069F521A94B2C288D2050AD50B4A08
:1050700055683DB1009300890A46014633463846DB
:10508000A847F8BD9C4200D91C464069224601440D
:105090003046FEF720FC2046F8BD0000FC39002019
:1050A000042105F0F7BE042106F0F2BE02490860B3
:1050B0000421024806F062BE083A00201D56000294
:1050C000024948600421024806F058BE083A002010
:1050D0001D560002042105F0DDBE042106F0D8BEF5
:1050E00000B58BB0D0F82001009023E0684600F0B6
:1050F00032FABDF8081000291ED0BDF806200FA016
:10510000FEF7F6FFBDF806008005039808D506A94E
:1051100018F0C0FB06A81BF055FE014611A001E0E7
:10512000018811A0FEF7E4FFBDF8101010A0FEF7F3
:10513000DFFF00980028D9D10BB000BD48616E6434
:105140006C653A203078253034782C20666C6167A5
:10515000733A203078253034782C20757569643A9C
:105160002000000025730000253034780000000086
:105170002C2076616C75655F6C656E3A2025752C08
:105180002076616C75653A2000000000064A30B454
:105190005468002C06D00B46A4460246002130BCC1
:1051A0000420604730BC7047103A00207CB514469C
:1051B000042819D120783E283FD016DC052855D088
:1051C000082801D030280FD1B2F80350284600F04B
:1051D000CFF8040008D0284619F0D5FA04F8FD0FDE
:1051E000284618F077FF60707CBDD7285ED0D8289D
:1051F0004DD0DA28F8D1608800F0BAF80500F3D075
:10520000B5F8040104F086FE0600EDD02079317A6D
:105210008842E9D16946601D18F04EFB06223146EE
:105220006846FEF7B5F80028DED1E07A85F8FF0081
:10523000B5F80401FFF751FF7CBDA078012803D029
:105240000A2801D02928F7D1D41C9188D078FFF7FB
:10525000E1FEB4F8010000F08BF80500ECD0B4F8E2
:10526000010019F013FFA5F806017CBDB2F8035048
:10527000284600F07DF80400F7D000F057FC2046E7
:1052800000F04AFE0F49002041F825007CBD6088EF
:1052900000F06EF80500F9D0B4F80B0001B2A5F8E3
:1052A000061109A0FEF725FF284608E0508800F007
:1052B0005FF80028EAD04FF0FF31A0F8061100F0A7
:1052C0008FFA7CBD103A0020534D5F4556454E5431
:1052D0005F4944454E544954595F5245534F4C56CB
:1052E000494E475F5355434345454445442069640F
:1052F000202575003EB50C468DF8080000208DF87D
:10530000092000900190022302AA0421204606F001
:10531000B1FF3EBD7FB50DF1200C14469CE8640042
:105320008DF80800ADF80930ADF80B20ADF80D1080
:10533000CDE90056072302AA0421204606F09AFF71
:105340007FBD70B515000C4603D0D0F82001206059
:1053500008E0002070BD204600F0FDF82089A8423A
:1053600003D020680028F6D170BD012070BD000078
:1053700008B100207047014800687047103A0020CB
:105380002DE9FF411D460B7816460024B0F8002198
:105390004F1D9C460E2B71D00BDCA3F102030B2B8F
:1053A00015D2DFE803F01C142F1438144A145B14D0
:1053B0006100182B71D006DC102B68D0122B7AD02C
:1053C000162B04D17DE0522B69D0D22B67D06146D9
:1053D00045A0FEF78DFE04B02046BDE8F0810646EC
:1053E000B1F8014006F044FC844202D2A6F8004124
:1053F00001E0A6F8000103242C70B6F80001A5F81E
:105400000100E8E7B1F803300093B1F80130294614
:1054100003F092FA0FE0F61FB4B2B1F80570B1F8DC
:105420000360CB1DCDE90243CDE90067B1F801303F
:10543000294603F0EDF90446CDE70C462946072E30
:1054400001D8022300E01023B4F80350CDE9005343
:105450000297B4F8013003F043FCECE7B1F80130F7
:10546000294603F059FDE6E7B1F803300093B1F89F
:105470000130294603F036FBDDE7FFE7491C761EC5
:105480000091C6F34F03294603F0D4FCD3E70C4642
:105490002946072E04D8022303E018E00BE01CE0A5
:1054A0001023B4F80350CDE900530297B4F801304B
:1054B00003F088FBBFE700922B46324603F0B8FDAD
:1054C000B9E700922B46324603F0AEFAB3E70092FA
:1054D0002B46324603F06AF9ADE700922B4632467E
:1054E00003F076FD77E70000556E68616E646C65C9
:1054F000642041545420436F6D6D616E643A2025E1
:105500003032582C20444154413A20001CB50B4BFA
:105510005C68002C10D0B6238DF8003005238DF880
:1055200001308DF80200ADF80310ADF80520072317
:1055300000216A460420A0471CBD0000103A00204C
:1055400010B580B2FFF714FF002803D0BDE810406B
:1055500000F0ECBA10BD10B501680A8882806AB10B
:105560004B88C3808C8804818C1DC4609B050CD53E
:10557000A2F11603038201F116030BE00021C180A2
:105580000181C1600182416106E0A2F1080303824A
:1055900001F1080311444361016010BD70B5044678
:1055A00000890D4600281BD0022A08D0E08880051B
:1055B0000BD51022E068FDF7EBFE80B111E0098801
:1055C0002046BDE8704000F00EB8084605F01CFB10
:1055D000002805D0E168A8890988884201D1012006
:1055E00070BD002070BD70B5044600890D460028CE
:1055F00010D0E0888005E06808D505F005FB00289C
:1056000008D0E0688089A84203D004E0008888427E
:1056100001D1012070BD002070BD00002DE9F041D6
:10562000194C06461F4615468846042809D0082E00
:1056300028D12878C00720D0D4F800C01FE0304619
:10564000E047287878281DD1D4F804C0BCF1000FB9
:1056500008D03B462A4641463046E04704F056FB18
:1056600000280FD02468002C0CD03B462A46414627
:105670003046A446BDE8F0416047D4F804C0BCF110
:10568000000FDCD1BDE8F081083A00202DE9F0419F
:105690000F461546044601461E46127828A0FEF71E
:1056A00028FD042C0CD0082C48D13846FFF760FEAA
:1056B000040043D029781E2909D0522919D01FE0AF
:1056C000287878283AD1BDE8F04100F011B9B4F853
:1056D0000801A8B104F5867000F006FDB4F80821B1
:1056E0000020A4F80801B4F80411BDE8F041FFF768
:1056F0000DBF32462946BDE8F0410023FFF740BE0A
:10570000FB2E06D93246BDE8F041FB231948FEF7CF
:10571000F0BC227822B1BDE8F0411748FEF7E9BCA1
:1057200001202070A4F8026132462946A01CFEF731
:10573000D2F82046BDE8F04100F052B8BDE8F08153
:105740006174745F7061636B65745F68616E646CD3
:1057500065723A2074797065203078253032782C63
:10576000207061636B65745B305D2030782530326A
:1057700078000000F02C0202A42C020210B5B0F850
:105780000001029CC01E80B21970A3F8012084425F
:1057900000D8204610BD1FB514468DF80800069AA3
:1057A000ADF80930ADF80B20ADF80D1000200090D9
:1057B0000190072302AA0421204606F05BFD1FBDCD
:1057C0003EB50C468DF80800ADF809200020009089
:1057D0000190032302AA0421204606F04BFD3EBDA2
:1057E0002DE9FF410446017824A0FEF782FC2078D1
:1057F00001282DD1A078D22808D003202070B4F839
:10580000040104B0BDE8F041FFF767BC18F052FE98
:105810000027E0B1B4F802010F2818D3B4F804014E
:1058200019F05AFA002813D1B4F9060106F0D4FE93
:1058300005000CD0B4F80211A4F10A000E58696CEE
:10584000324611A0FEF755FC686CB04202D92770B1
:10585000BDE8FF8102202070B4F803201749601DC5
:10586000CDE90006CDE90214B4F80201A1780F38A1
:1058700083B205F1340018F027FEE9E76174745F24
:1058800072756E3A20256400415454205369676E46
:1058900065642057726974652C20444220636F75DB
:1058A0006E7465722025752C207061636B657420A1
:1058B000636F756E7465722025750000995B000238
:1058C000FFF708BC0EB50B21CDE900238DF80810B9
:1058D000012302AA042106F0CDFC0EBD00B5FFF79E
:1058E00047FD10B1B0F8000100BD172000BD000059
:1058F00038B513480468002C20D0207803280CD138
:10590000204600F0A5F840B16078002816D0B4F821
:105910000401BDE83840FFF7E0BB607800280DD0F7
:105920000020607007A00068009005484468002CC3
:1059300004D0022300216A460420A04738BD00009D
:10594000103A0020B70000002DE9FE431F4616461E
:105950000D468046FFF70CFD040005D0B4F80801A1
:1059600020B19020BDE8FE835920FBE74046FFF7B9
:10597000B1FB88B102AB2A461D2120460097FFF7F4
:10598000FDFECDE90060032302AA0421404606F093
:1059900071FC060002D014E05720E3E7A4F8085198
:1059A00004F5867042460849044600F0D1FB47F2F0
:1059B000305240F28241204600F0B4FB204600F015
:1059C00089FB3046CEE700004155000270B5054620
:1059D0000B480A4C0E46446004F06CF90848083045
:1059E000446018F0EFF80748FFF76AFB284600F01C
:1059F000C7F83046BDE8704000F0C8B8AD510002AD
:105A0000183A00208D5600022DE9FE431E46154629
:105A10000F468046FFF7ACFC040014D04046FFF769
:105A200059FB90B102AB3A461B2120460096FFF786
:105A3000A5FECDE90050032302AA0421404606F04A
:105A400019FCBDE8FE835920FBE75720F9E7000069
:105A50002DE9FC412F4E002707700446B0F80221C3
:105A60003346811CFFF78CFC0546A0F57F40FF38CC
:105A700023D0042D0FD3307801280CD13079082899
:105A800009D194F8FE0030B1B4F8040118F049FBD4
:105A900078B1012811D085B100970197B4F80401BD
:105AA0002B463246042106F0E5FB3078032807D068
:105AB0002DE0B4F8040119F0E1FD0020BDE8FC81FF
:105AC000154AB4F80411B4F80001556875B1B5224F
:105AD0008DF8002004228DF80120ADF80210ADF8F9
:105AE0000400062300216A460420A847B4F80401F4
:105AF00000F096F809480078C00708D0B4F8000113
:105B00000022001D81B2B4F8040101F0B3FB0120B2
:105B1000D4E70000A43D0020103A0020283A0020DD
:105B20000149486070470000103A002010B5B0F8F5
:105B3000082104463AB1B4F804119120FFF7E6FCBD
:105B40000020A4F8080104F58670BDE8104000F0BC
:105B5000CBBA10B50246FFF70BFC002806D0012196
:105B60004170BDE810401046FFF7B7BA10BD10B540
:105B70000C46FFF7FDFB002801D0C0F8204110BD06
:105B80000149486070470000FC39002001498860E5
:105B900070470000FC3900207CB5044600780A46B6
:105BA00002280ED16946104617F083FEB4F80211A0
:105BB000A01F014408226846FDF7EAFB10B100204F
:105BC00020707CBDB4F80211A4F10A000E58B4F99B
:105BD000060106F001FD050001D0012000E00020D3
:105BE000FD2207A1FDF772FE45B1761C6E6403200D
:105BF0002070B4F80401FFF770FA7CBD72B6FEE7BE
:105C00006174745F7365727665722E6300000000C4
:105C10000A6882654968C1653521017002F076BA6B
:105C200070B5054602F0B4FD04000BD02846FFF71E
:105C30009FFB002806D0E28AB0F800118A4202D900
:105C4000A0F8002170BDE18270BD0000F8B50446E7
:105C5000C0880E46C0050BD506484568002D07D004
:105C6000002000900346024621893046A847208242
:105C7000F8BD0000FC3900207CB50E46C9880446FA
:105C80000D0B00D06D1C94F8FD2094F8FE00CDE9BA
:105C9000000294F8FF302A461048FEF729FAF088EF
:105CA000410502D594F8FE1079B1000502D594F8AB
:105CB000FF0060B1002D02DD94F8FD0048B194F8BA
:105CC000FD00A84207DA0C207CBD05207CBD082021
:105CD0007CBD0F207CBD00207CBD0000342C020266
:105CE0003EB50C468DF808000699ADF80920CDE9BF
:105CF0000013032302AA0421204606F0BBFA3EBD8E
:105D00002DE9F05F984614460D4682460F4616462A
:105D1000DDF828B014E0281900EBD070401081465F
:105D2000594642469047824503D11FFA89F0BDE8A3
:105D3000F09F504502D909F1010501E0A9F10104E4
:105D4000A542E8DDBC4200DA3C46B54200DD3546FE
:105D50005946204642469047504501D3A0B2E6E757
:105D60005946284642469047A8B2E0E710B50C468F
:105D7000022806D0084604F047FF002800D0A0897A
:105D800010BD088810BD0622FDF702BB0A6802603C
:105D9000898881807047000010B50C4900220346B5
:105DA0003A24985C000900F06EFA0870985C00F0E4
:105DB0000F0000F068FA48708C70C91C521C062A4B
:105DC000EFDB002001F8010C004810BDD93C002099
:105DD0000844008840BA70474218405C53785288A3
:105DE00052BA63F31F4242EA00607047130A4354F9
:105DF000491C89B242547047130E4354491C89B25E
:105E0000130C4354491C89B2130A4354491C89B2E8
:105E10004254704710B5012100F08CFBBDE81040E2
:105E2000FDF75EBD0149086070470000283A002078
:105E300010B50446082020800120608005F018FF7E
:105E4000A0800A20E08010BD0268134602E08A426A
:105E500004D01268002AFAD10B600160704702E09A
:105E60008A4205D010460268002AF9D10A60016012
:105E70007047006808B1002070470120704704E0B7
:105E8000884201D10120704700680028F8D170478E
:105E90000268816832B140680068884200D10868B1
:105EA00008B9704709B101207047002070470022EF
:105EB000C0E90021096881607047016851B14168FB
:105EC0000A6881688A4203D141600968816003E001
:105ED000826001E001210160806870478168096883
:105EE0008160426811600021016070474FF0FF330C
:105EF00051B107E002688A4203D1096801600020BD
:105F0000704710460028F5D11846704701490968C6
:105F1000C96A0847CC39002001490968096B08475C
:105F2000CC390020FFF7F8BF7420FFF7EFBF10B5A2
:105F30000446006A06F0F3FB2046BDE81040FFF778
:105F4000EBBF70B58020FFF7E1FF04000CD040F2FA
:105F5000111006F073FC050008D080212046FDF7E3
:105F600005FA2046256270BD002070BD2046FFF76F
:105F7000D3FFF9E77047FFF7CFBF5020FFF7C6BF49
:105F8000FFF7CABF1420FFF7C1BF2DE9F041064655
:105F90000020984617460C460546306005E021462D
:105FA000304600F007F844446D1CBD42F7DBBDE805
:105FB000F081000030B40268134607E08B4204D140
:105FC000024630BC04A0FEF795B81B68002BF5D143
:105FD0000A60016030BC70476274737461636B5F08
:105FE0006D656D6F72795F706F6F6C5F66726565FE
:105FF0003A20626C6F636B20257020667265656461
:1060000020747769636520666F7220706F6F6C20F3
:1060100025700000016819B10A68026008467047DF
:1060200000207047FFF778BF0C20FFF76FBF00001C
:1060300000B589B00DF1080C019006480068059282
:106040008CE80B00044909688A696946904709B0E1
:1060500000BD0000E0390020CC39002013460A467C
:1060600001460A20FFF7E4BF13460A4601460C200A
:10607000FFF7DEBF38B5154D286890F8900008B1DD
:10608000552038BD4FF0FF30ADF80200ADF80000EC
:106090000AE0684603F08CFF0446C088162103F02E
:1060A000B5FF204604F0F0FB684603F061FF0028CE
:1060B000EFD1012004F0A4FA054804F05FF80028AD
:1060C000DFD12A68012182F8901038BD480F020202
:1060D0003010020202490069096849680847000057
:1060E000CC3900200020704710B50446006928B163
:1060F00003490968C968884700202061002010BD55
:10610000CC39002070B5064D0446006929688968BD
:106110008847296820694968BDE870400847000041
:10612000CC39002070B516460D460446FFF7DCFF5B
:1061300004486560044A0068214603683046984771
:10614000206170BDCC390020193E0002C16070474B
:10615000C0E90212704700000249006909688968B5
:1061600008470000CC3900202DE9F04107461148CE
:1061700015460E46046898463888B4F8802034F8EE
:106180007E1F00F035F9388062882188308800F061
:106190002FF93080E288A188288800F029F928802A
:1061A00062892189B8F8000000F022F9A8F80000FF
:1061B000BDE8F081480F020270B5054600680C4644
:1061C00000B10120C32209A1FDF780FB206800B1C6
:1061D0000120C42205A1FDF779FB696820680860E9
:1061E0006068686000202060606070BD6C697374D6
:1061F0005F62617369632E630000000070B503463F
:1062000000200246012513F80240002105FA01F69C
:10621000344201D0401C80B2491CC9B20829F5D3D0
:10622000521CD2B2052AEED370BD70B50446008967
:1062300017F05EFB2521B0FBF1F201FB1201CA0849
:1062400001F00705A25C0123AB401A4201D00846C9
:1062500070BDE18841432046BDE87040C1F307416D
:1062600002F058BA30B504461068206010790D4627
:1062700000F01F0020712046FFF7C0FFE08085EA94
:106280001540208130BD0A2801DA303003E00A3899
:10629000062802DA4130C0B270473F20704770B51F
:1062A0000446C08E88B0002822D0258F94F8343060
:1062B000A2268DF800601A268DF80160A6890A468C
:1062C000ADF80400ADF8082004F11C01ADF802603F
:1062D000ADF80650ADF80A30102203A8FDF7FBFA1E
:1062E000A1891C236A46A06800F064F90020E086BA
:1062F00008B070BD06481144006800F2FF308142CA
:1063000003D9012018600320704700207047000067
:106310003C3A002070B500F059F8264D24486861D9
:10632000D5F80001800742D5FDF7DAFD224CA068C0
:10633000224920F4F0400843A060206920F080004A
:106340002061A06920F00040A061E06840F00400F6
:10635000C4F80C00D5F800018007FBD4606900F098
:10636000C04540F2C970804740F64D008047810526
:1063700004D440F4007040F60131884740F2516087
:10638000804740F60D0080470D4805436561206950
:1063900020F078402061BFF34F8F0A4801680A4A15
:1063A00001F4E06111430160BFF34F8FFEE770BD60
:1063B000001F1F0000001040002010400028008037
:1063C000C7E8948A0CED00E00400FA05064801686D
:1063D00041F4700101600548D0F82C1141F08001B2
:1063E000C0F82C117047000088ED00E0000010405C
:1063F00019B1884201D208467047002AFCD0904269
:10640000FAD910467047000038B5144CA068006EE9
:1064100028B960682021426940209047A0616068E7
:10642000006A804760610120009060684FF48063DB
:10643000002205690A490BA0A847E061A068006E28
:10644000002809D1009060684FF496630022056926
:10645000064907A0A847206238BD0000C8390020BF
:10646000890100206374726C000000003303002077
:10647000686F73740000000070B50646401E1D462C
:106480000C460A2809D220782968884205D10622BC
:10649000211D6868FCF77CFF08B1002070BDC5E9CC
:1064A0000264032070BD00000248417A491C417219
:1064B00070470000A43A002010B5044603F04CF8E1
:1064C000002010F077FA10F0C1FD10F0B7F908F0D5
:1064D00073FA0CF0C1FB11F0EBFF15F01BFE002C62
:1064E00003D0BDE8104011F08AB910BD70B5044664
:1064F000B0F1A53F19D0B4F1C33F16D001231A0261
:1065000005211D20FDF7F1F90546B4F1F23F09D050
:10651000922206A10020FDF7D9F92846BDE8704077
:10652000FDF7E8B907202870F7E770BD6474626C66
:10653000652E6300F8B505461B480E460021018014
:1065400010F04AFA1AF050F816F0F0FC684610F015
:106550005BFA0446009840F68C114FF4A567884218
:1065600001D3012000E00020862210A1FDF7AEF942
:106570003A462146002016F00FFD009804F5A5616B
:10658000A0F5A56082B2012016F006FD19F0A8FF63
:106590003046FFF791FF002D04D02846BDE8F840B3
:1065A000FFF7A4BFF8BD0000E03B002064746970F1
:1065B0002E63000030B4040003D0A44630BC042095
:1065C000604730BC7047FEB51E4617460C46054670
:1065D00002F0DEF8002816D0011D6846FFF767FCC0
:1065E0000CE06846FFF769FC0189A14206D1D0F8AA
:1065F00004C033463A4629460420E0476846FFF780
:1066000047FC0028EDD1FEBD1CB5A0228DF800206E
:1066100003228DF801208289ADF802208DF8041044
:106620008189806805236A46FFF7C4FF1CBD30B529
:1066300087B00446A3250A988DF8005018258DF8D8
:106640000150A589ADF80410ADF806200146ADF85B
:106650000250ADF8083010220DF10A00FDF73BF9A9
:10666000A1891A236A46A068FFF7A4FF07B030BDCE
:1066700010B586B00446A1208DF8000016208DF8D4
:106680000100A089ADF80410ADF80200ADF80620B5
:106690001022194602A8FDF71EF9A18918236A469F
:1066A000A068FFF787FF06B010BD00002DE9F05F7E
:1066B00000249246894605462746264626E000BF26
:1066C00005EB8400B0F9021035F9240017F03EF90B
:1066D000834605EB8800B0F9021035F9280017F061
:1066E00035F9ABEB000043F6FF71884203DBA0F500
:1066F000FE40FF3806E043F6FF71C84202DC47F671
:10670000FF710844074404EB4904761C04EB0908B4
:10671000D045D5DB97FBF6F0BDE8F09F2DE9F043BF
:1067200042780446901C89B00E46814206D009B0DA
:10673000E048BDE8F043921CFDF7DEBC2178DEA006
:10674000FDF7DAFC2078DFF880834FF0000912288B
:1067500075D00CDC0E2811D004DC052870D0082878
:1067600053D17BE00F2835D010284ED199E0132863
:1067700052D03E2871D0572847D17BE1D8F800008D
:10678000A278454690F83A10D0A0FDF7B5FC6179A3
:10679000D7A0FDF7B1FC2968A07881F83A00D94963
:1067A000B4F803000988884207D1002003F028FFCD
:1067B000296881F8909003F0EDFF2968B4F8030090
:1067C000B1F86A10884218D12868C26AAAB1016B70
:1067D000601D11E0D8F80020E178404682F83A10B8
:1067E000D8F80020A188B2F86A20914205D101684A
:1067F000CA6A12B1096B601C9047D8F80020A2F851
:106800006A90D8F80010C1F82C90D8F8000090F8E1
:10681000500001287ED039E10325002719E0625B92
:10682000AD1C615B1046AD1C03F074FB48B190F8E1
:1068300028208A420AD3511A80F8281008E035E04F
:1068400026E01146B0A0FDF757FC01E080F8289043
:106850007F1CA078B842E2DCD7E733E0B4F80350FD
:10686000284603F057FB0028CFD0A17849B96179B9
:106870000029816902D041F4004101E021F4004186
:10688000816100F0F5FB0146284603F025FCBCE7DA
:10689000B4F8030003F03EFB0028B6D00721417492
:1068A000B3E703F04DFE03F05FFEAEE7A0780028EB
:1068B000ABD1B4F8030003F02DFB0028A5D0617A1A
:1068C0000174A2E7A0780A2838D033DC012835D03B
:1068D00004287CD0062898D134F8037F384603F08A
:1068E00019FB05006088ADF81400A088ADF8100011
:1068F000E088ADF818002089ADF81C00A4F103046D
:1069000083D007AB06AA04A905A8FFF72DFCEB8FDF
:10691000AA8F00E0B6E0BDF81800BDF81C108DE8A5
:106920000F00BDF81030BDF814203946844803F03C
:1069300025FC6AE7122874D029288DD1E078002838
:106940008AD1A7881FBBD8F800004546406918B90E
:10695000FFF7F7FA296848612868A8464569B5B184
:10696000EF800220C5F81890A874FFF7BBFBE86120
:10697000E0792872294604F1080016F09DFF0520F1
:106980006874A0792874A0780A2804D00FE0A08841
:1069900000F068F939E7D4F80E00C5F87200608A93
:1069A000A5F876006069A867208BA5F87C00E089CF
:1069B0006887287C70B9D8F8001091F83810E9730E
:1069C000D8F8000005F1090190F8380000E018E05F
:1069D00000F0FAF92846FFF7DFF90246E98859A0E6
:1069E000FDF78AFB03F04EFBD8F8000090F8460054
:1069F000C0069ED5E98840F6B8325A4803F0BEFB7F
:106A000003E7E07800283AD1A08803F083FA002851
:106A100035D0A17980F87110012180F87010F4E66A
:106A2000FFE72079082884D2E17819B14EA0FDF75C
:106A300063FBEAE6B4F80520104603F06BFA05465E
:106A4000217952A0FDF758FBD8F800002179753064
:106A5000095CE97349B12179684619F099FD05F19E
:106A60000901684616F028FFCFE605F1090000F09D
:106A7000C1F9CAE6608803F04DFA00288AD109B04E
:106A8000BDE8F083B1B2204603F020FCB1B220464D
:106A900003F0D0FA2078052806D1B4F8030003F0FB
:106AA00039FA08B103F0F0FE09B0BDE8F04303F095
:106AB000C3BD0000B42E02024843493A4556454E34
:106AC000543A253032780000480F0202434D445FAB
:106AD000434F4D504C45544520636D6473206F6C9B
:106AE00064202575202D206E657720257500000017
:106AF000636D645F636F6D70207374617475732070
:106B000025750000301002026863695F6E756D6262
:106B100065725F636F6D706C657465645F706163EF
:106B20006B6574206C6973747320756E757365641E
:106B300020636F6E2068616E646C652025750000AF
:106B4000C81002024E657720636F6E6E65637469CC
:106B50006F6E3A2068616E646C652025752C202567
:106B6000730000003810020261647620736574209F
:106B70007465726D696E61742064756520746F2030
:106B8000636175736520307825780A00616476202A
:106B900068616E646C6572203078257820636F6E52
:106BA0006E656374656420746F20636F6E20686126
:106BB0006E646C6520307825780A000010B50446B4
:106BC00004F00AF8204610BD13460A460146014863
:106BD00003F0D4BA701102020246014803F0CEBAA3
:106BE0007010020230B50C46054689B019461046B1
:106BF00000F05AFA00280CD16946284616F04AFEE1
:106C000004A9204616F046FE04AA6946024803F08D
:106C1000B5FA09B030BD0000A0100202014803F02F
:106C2000ADBA000068100202014803F0A7BA0000E4
:106C300020110202014803F0A1BA000080110202F3
:106C4000014803F09BBA00005810020208B50093F7
:106C500013460A460146024803F090FA08BD0000B8
:106C6000AC0F0202132100F001B8000010B503467A
:106C700003F050F940B1062242740A46194605480D
:106C800003F07CFA002010BD0021184603F0BEF985
:106C9000F8E700002010020238B54FF0FF30ADF8E1
:106CA0000200ADF8000006250DE0684603F080F90B
:106CB0000446407C062806D0E1881322054803F0EC
:106CC0005DFA00B96574684603F052F90028ECD10A
:106CD00038BD0000201002022DE9FF4F85B0DFF81B
:106CE0009C80DDE912698A460A20002400EB061127
:106CF0009B462746B8F8000003AA02F0E9FF05000A
:106D000001D001210FE0562009B0BDE8F08F00BF8F
:106D100004EBC40219F81220521E01FA02F03843A3
:106D2000641CC7B2E4B2B442F2D30798CDE9000BB9
:106D300002975346D8F804102846059A03F0E1F864
:106D4000C7B200240DE000BF04EBC40109EB410110
:106D5000E8191022891CFCF7BEFD1037641CFFB235
:106D6000E4B2B442F0D306494046096881F838A03D
:106D70002946039A03F042FD0020C5E750110202A4
:106D8000480F020210B500F08FF9002804D1BDE8C9
:106D90001040024803F0F2B910BD0000A810020232
:106DA0000248006890F86C0070470000480F02022B
:106DB0000449096851F87E2F02604A684260896878
:106DC00081607047480F02021CB50C4620B1FF21BC
:106DD000684619F0DDFB02E0684619F0EFFB21463A
:106DE000684616F069FD1CBD0146014803F0C6B9AE
:106DF0009010020201460020FFF7E6BF10B50446DE
:106E0000014604A0FDF778F9022C01D9012010BD3C
:106E1000002010BD6761705F6D69746D5F70726F87
:106E200074656374696F6E5F7265717569726564AC
:106E30005F666F725F73656375726974795F6C65A5
:106E400076656C20257500007FB50DF1200C9CE85F
:106E500070008DE8780013460A460146024803F0A8
:106E60008DF904B070BD000058110202014803F012
:106E700085B900006011020213460A460146014826
:106E800003F07CB99C0F020213460A4601460148F2
:106E900003F074B9940F02021CB5049CCDE90034D0
:106EA00013460A460146024803F068F91CBD00007B
:106EB000A40F02020146014803F060B96811020202
:106EC0000448817A012903D10221817218F080BC23
:106ED00070470000A43A0020074810B5426C40F209
:106EE00082210648FFF71EF90448FFF7F3F8BDE8D2
:106EF0001040FFF7E5BF0000A43A0020F03E00205C
:106F000010B5002207490848FFF722F9074840F268
:106F10008221426C0448FFF705F9BDE810400248A1
:106F2000FFF7D8B8D96E0002F03E0020A43A002046
:106F3000014803F023B9000050100202014803F099
:106F40001DB90000840F0202014803F017B90000C8
:106F5000881102020146014803F010B9D81002025C
:106F60000146014803F00AB998100202014601489F
:106F700003F004B9281002020146014803F0FEB8EC
:106F800040100202014803F0F9B80000601002024C
:106F90000246014803F0F2B8781002022DE9F041F0
:106FA0000E46074602F0B6FF050010D0384600F046
:106FB00055F804460246314608A0FDF79DF8B44254
:106FC00007D321463846BDE8F04103F085B80121DA
:106FD000F8E7AE74BDE8F04103F02EBB6761705F67
:106FE000726571756573745F7365637572697479C1
:106FF0005F6C6576656C2025752C206375727265F3
:107000006E74206C6576656C20257500014601481C
:1070100003F0B4B81811020213460A4601460148AB
:1070200003F0ACB87811020213460A460146014843
:1070300003F0A4B8BC0F0202F0B585B00DF1280C26
:107040009CE8F0008DE8F80013460A460146024825
:1070500003F094F805B0F0BDCC0F020210B502F0B9
:1070600059FF18B1BDE8104000F002B8012010BD72
:1070700010B1008B000401D401207047022070473A
:10708000022070470A460146014803F077B8000025
:10709000F010020200B101200249096881F86C0079
:1070A00070470000480F0202034A136858621068D4
:1070B0008162002070470000480F02020149096800
:1070C00048637047480F02021CB5049CCDE90034A8
:1070D00013460A460146024803F050F81CBD000062
:1070E000740F02020A460146014803F047B8000047
:1070F0007C0F02022DE9FE4F124E1746884681464C
:107100001D46308802AA591DDDF830A002F0E0FDCE
:10711000040014D0CDE9007543464A46716802F078
:10712000F0FEC0B220442A465146FCF7D4FB21466B
:107130003046029A03F062FB0020BDE8FE8F562025
:10714000FBE70000640F02022DE9FC47104D1646D4
:107150000F4680469946288801AA311D02F0B8FDE5
:10716000040013D000963B464246696802F0C9FE0F
:10717000C0B2204432464946FCF7ADFB21462846C2
:10718000019A03F03BFB0020BDE8FC875620FBE79B
:107190006C0F020204490268096841F87E2F4268B8
:1071A0004A60806888607047480F02020A460146BC
:1071B000014802F0E3BF0000540F02022DE9FF5F17
:1071C000144DDDE90E6B9046894682461F4628889D
:1071D00003AA711D02F07CFD040018D0CDF80080D8
:1071E000CDE901764B4652462046696802F089FE99
:1071F000C0B2204432465946FCF76DFB2146284672
:10720000039A03F0FBFA002004B0BDE8F09F56207B
:10721000FAE700004C0F02022DE9FF5F144DDDE993
:107220000E6B9046894682461F46288803AAB11DE8
:1072300002F04EFD040018D0CDF80080CDE90176B3
:107240004B4652462046696802F05BFEC0B22044BD
:1072500032465946FCF73FFB21462846039A03F085
:10726000CDFA002004B0BDE8F09F5620FAE70000F8
:107270005C0F02020AB944F2902213460A46014604
:10728000014802F07BBF0000D010020213460A46FC
:107290000146014802F072BFE010020208B50B4639
:1072A000009202460021024800F062F808BD00008A
:1072B000001102022DE9FC47184F8846914604460A
:1072C000022101EB8801388801AA02F001FD0600C5
:1072D00007D043462246796802F013FEC5B2002467
:1072E00013E05620BDE8FC8704EB440009EB4001A5
:1072F0000A7900924B8819F81020701908A102F041
:1073000000FE2D1D641CEDB2E4B24445ECD33146C1
:107310003846019A03F072FA0020E3E710110202E6
:10732000313231002DE9F04F8DB00DF1640C179C16
:107330009CE8E04FDFF830C0DCF800C084448CF8F3
:1073400075400DF1100C8CE8E04F169E189DCDE9AC
:10735000003613460A4601460448CDE9024502F0CC
:107360000DFF0DB0BDE8F08F480F0202F8100202C9
:107370002DE9FC471C460A9D174688468146F72B97
:1073800026D9F720CDE900050B46012239464846AB
:1073900002F0F4FE002823D1F73CA4B2F73515E043
:1073A000F72C01D3F72600E02646A01BCDE90065A7
:1073B0000404240C01D0002200E002224346394696
:1073C000484602F0DBFE00280AD13544002CE7D104
:1073D0004346032239464846CDE9004502F0CEFE39
:1073E000BDE8FC8708B5009313460A4601460248EB
:1073F00002F0C4FE08BD0000481102022DE9FC475E
:1074000016460F46DFF88C8002EB860182469946CD
:107410000024B8F8000001AAC91C02F059FC0500BC
:1074200002D0002001220EE05620BDE8FC8700BFFC
:1074300000EB400319F813305B1E02FA03F12143FD
:10744000401CCCB2C0B2B042F2D300943B4652468C
:107450002846D8F8041002F054FDC7B200240FE00B
:1074600004EB440109EB4100818800914388427894
:10747000E81909A102F045FD7F1D641CFFB2E4B2CA
:10748000B442EDD329464046019A03F0B7F90020F3
:10749000CBE70000401102023132320008B50B4642
:1074A0000092024600210248FFF762FF08BD00007B
:1074B000081102020A460146014802F05FBE0000C0
:1074C000881002022DE9F843194F15460C468046F4
:1074D000F82923D90146F82301223846009502F005
:1074E0004DFE002821D1F83CA4B2F83514E0F82C68
:1074F00001D3F82600E02646A01B0404240C0095C6
:1075000001D0002200E0022233464146384602F014
:1075100035FE002809D13544002CE8D1234603224A
:1075200041463846009502F029FEBDE8F883000088
:10753000301102020A460146014802F01FBE000057
:107540003811020208B5009313460A460146024864
:1075500002F014FE08BD0000281102020A4601468E
:10756000014802F00BBE00008C0F02021CB5049C07
:10757000CDE9003413460A460146024802F0FEFDFA
:107580001CBD0000E81002020146014802F0F6BDF1
:10759000481002020249096881F83900704700006A
:1075A000480F02022DE9FF4F87B01C46DDE91A01A2
:1075B000DDE91865DDE91687DDE914A99346FFF7D3
:1075C00073FD00280DD1CDE9004ACDE90259CDF86F
:1075D0001080CDE90576DDE907125B46024802F02E
:1075E000CDFD0BB0BDE8F08FB40F0202014802F0F0
:1075F000C5BD0000DC0F020208B5009313460A4621
:107600000146024802F0BAFD08BD0000C40F0202A4
:10761000F0B587B00DF1300E9EE8F0108DE8F8104F
:1076200013460A460146024802F0A8FD07B0F0BD25
:10763000D40F02022DE9FF410446DDE90A570C9EF2
:1076400002F068FC002805D0007C30B1204600958F
:1076500004F03DFC04B0BDE8F08103968DE8A8007D
:1076600013460A462146024802F088FDF2E7000070
:107670008010020208B59200921C0B46009201464F
:107680000722024802F07AFD08BD0000E40F020262
:107690002DE9F047DFF88CA48AB01E4615468846CF
:1076A00004280AD008287DD128781B280FD01D284F
:1076B00008461FD001F06CF81EE02978782971D1B6
:1076C000DAF80040002C50D04146A0474DE0B5F814
:1076D00001700C46DE1E3946A720D21C16F05AFA5D
:1076E0000246F61C0AB0B3B239462046BDE8F04760
:1076F000FEF769BF15F062FF040053D02978771EAA
:107700004FF001090D2973D009DC0C2915D2DFE8EF
:1077100001F014EF143114EE14ED148614F017294F
:1077200067D006DC0F2978D0112952D0132904D153
:1077300067E1192972D01D295CD0FBA0FCF7DBFCA6
:1077400028788DF808908DF80900002006218DF822
:107750000A008DF80C108DF80B0000900190A089A4
:10776000052302AA042104F085FD0AB0BDE8F04714
:1077700000F0CCBCB5F8015004F07AFA854200D292
:107780002846E08284F81890DAF8005095B1AB20D2
:107790008DF8000004208DF80100A089ADF80200EA
:1077A000E08A00E0F7E1ADF804000623A1896A460B
:1077B0000420A8474046FEF733FAE64800788007E1
:1077C000D3D4E08A0022001D81B2A089FFF752FDC8
:1077D000CBE720780228C8D132462946204616F049
:1077E0001BF869782046711A294401224988A7E0CC
:1077F0000FE13CE14746B5F80180EA1C4146A8206C
:10780000F61E16F0C7F9F61C0246B3B241463846DA
:10781000FEF7D9FE84F85190A7E76AE15BE1207892
:107820000C281BD011DC062801D008289DD1324637
:107830002946204615F0A3FF3146284600F0B0FF48
:107840000146204619F0F8F88FE7142833D0242891
:107850008BD16888A4F84C0025203AE195F8018086
:10786000B8F1070F07D26888A085A8882086E88825
:1078700060860D202DE1022716E000BFE91935F8DA
:1078800007904A8822868A886286C98801A819F0EA
:10789000C5FA01A80090638E228E49462046FEF765
:1078A000C6FE07EB080087B2B742E7D369782046E7
:1078B000711A695A43E095F8018000210227A8F166
:1078C000020A0DE035F80790EA191FFA8AF34946D3
:1078D0002046921C15F044FF07EB0800494687B28A
:1078E000B742EFD3204613222AE002E035E04CE015
:1078F00009E120780E2814D0102824D028288BD114
:10790000204600F07DFA218F6A1CA92016F042F96A
:1079100002460837BBB2A189A068FEF74BFE0021E2
:1079200035E101A9681C15F0B5FFA18D01AA0092EF
:107930002046638E228EFEF77AFEA18D20460B2212
:1079400019F09AF811E7204600F05AFABBB2218FDD
:107950006A1C204615F004FFE1E74FF004094FF6DA
:10796000FF78012704F11C0A09E0E819E95B408867
:107970005346804602462046FEF77AFE4F44B74201
:10798000F3DB204641460322DAE768780427022821
:1079900000D11227F01BB61E1FFA86F835F800A09A
:1079A0000026AD1C22E000BF35F80690042F05EB41
:1079B000060021D006A9801C15F06CFFA4228DF8CA
:1079C000002014228DF80120A289ADF8022006A91A
:1079D000ADF8049010220DF10600FBF77CFFA189A1
:1079E00016236A46A068FEF7E5FD3E444645DBDB0C
:1079F000204651460922A3E7418806A819F00EFA4D
:107A0000DCE72078182803D0262801D02C2899D12B
:107A1000ACE0761E2078B6B2761DBFB2122815D023
:107A20002A288FD1218F628F6B1CAA20009716F015
:107A3000BFF8020004D0B3B2A189A068FEF7BAFD76
:107A40003A462921204618F0DFFF8EE6218F628F0B
:107A50006B1CA620009716F0ABF8020004D0B3B25E
:107A6000A189A068FEF7A6FD3A461121EAE7207831
:107A70001A2812D01C281CD02E2814D03228E4D169
:107A8000204600F0BDF932462946204603F0D2F8E0
:107A900000287FF461AF7E2179E0B5F803001D2254
:107AA0006087192110E0B5F803002F2260872D218F
:107AB0000AE032462946204603F0BCF840B1B5F84A
:107AC00003001D2260871B21204618F0C4FF4CE6EE
:107AD0002120207049E620781E2847D0202845D054
:107AE000222802D03028B0D140E0204600F088F9AA
:107AF000D1E720781628A8D1BBB26A1C0021204605
:107B000015F02EFE32E029790A292BD12078082899
:107B100030D021DC022829D0042827D0062821D102
:107B200028E000002C3A00204154542048616E6443
:107B30006C65722C20756E68616E646C6564207271
:107B40006573706F6E736520747970652030782569
:107B500030327800283A00200A2807D00C2805D0B7
:107B600014280CD0204600F0C0FAFEE5204600F0B4
:107B700047F9D4E6E18D2046FEF791FBF6E7204673
:107B800000F03EF9A08D218E8842F2D10A212046D4
:107B9000FEF73AFDE9E50AB0BDE8F08710B5044606
:107BA000084615F041FD18B1017819B1952010BDB6
:107BB000562010BD1F218460017000F0A7FA00203C
:107BC00010BD70B505461446084615F02DFD18B1D8
:107BD000017819B1952070BD562070BD856061880F
:107BE000A288914203D10021FEF70EFD07E0491C57
:107BF0008185A188C1850921017000F087FA0020E4
:107C000070BD2DE9F04107461D4616460846DDF8D1
:107C1000188015F009FD040004D0207820B19520CB
:107C2000BDE8F0815620FBE7A760A685E585012029
:107C300084F85000002565831022414604F11C00A1
:107C4000FBF749FEE5860720207000F05FFA002070
:107C5000E6E72DE9F04107461D4616460846DDF8E1
:107C6000188015F0E1FC040004D0207820B19520A4
:107C7000BDE8F0815620FBE7A760A685E5850120D9
:107C800084F85000A4F81A80414604F11C0019F051
:107C9000C5F80020E0860720207000F037FA0020A9
:107CA000E6E770B506461C461546084615F0BCFCCE
:107CB00018B1017819B1952070BD562070BD86604D
:107CC0008585C485002180F85010C186052101708A
:107CD00000F01CFA002070BD10B50446084615F0EF
:107CE000A3FC18B1017819B1952010BD562010BD24
:107CF0000121846081854FF6FF72C28501700021E9
:107D0000418300F003FA002010BD70B50546164609
:107D1000084615F089FC040003D0207818B195209E
:107D200070BD562070BD0120A560A0854FF6FF7084
:107D3000E085002060831022314604F11C00FBF72F
:107D4000CAFD0320207000F0E1F9002070BD70B57D
:107D500005461446084615F067FC18B1017819B1BC
:107D6000952070BD562070BD0121856081854FF63C
:107D7000FF71C185032100F81A1B214620F8024B30
:107D800019F04CF800F0C2F9002070BD10B504469F
:107D9000084615F049FC18B1017819B1952010BDBD
:107DA000562010BD1D218460017000F0AFF9002045
:107DB00010BD70B506461C461546084615F034FC45
:107DC00018B1017819B1952070BD562070BD86603C
:107DD0008585C4850B21017000F098F9002070BDE5
:107DE00000B500F0D5FC10B1027E012A03D01720A7
:107DF0000880952000BDC08A0880002000BD0000DA
:107E000010B5002101700446818904A0FCF773F9C4
:107E100004F16000BDE81040FEF766B947415454D4
:107E200020636C69656E742074696D656F7574206C
:107E300073746F702C2068616E646C6520307825D7
:107E40003032780070B504281AD11078052813D183
:107E5000B2F80350284600F09BFC04000CD01F2110
:107E600000F043F92046FFF7CBFF0649002041F818
:107E700025002046FEF756F8BDE8704000F046B9F0
:107E800070BD0000303A0020064910B50448486033
:107E9000084601F00FFFBDE810400348FDF706B9A2
:107EA000457E0002343A00209176000210B515F0AC
:107EB00085FB002802D0007808B1002010BD012009
:107EC00010BD10B50C460146104600F061FC0028BC
:107ED00006D04C600B81BDE81040001DFDF7B4BF1B
:107EE00010BD2DE9F0410646DDE906781C46154631
:107EF000084615F099FB20B1017821B19520BDE825
:107F0000F0815620FBE7866005878787448731210B
:107F1000C0F84080017000F0F9F80020EFE770B57C
:107F200005461446084615F07FFB18B1017819B1D3
:107F3000952070BD562070BD856004872721017093
:107F400000F0E4F8002070BD0023AFF3008070B5AE
:107F500006461C461546084615F066FB18B1017822
:107F600019B1952070BD562070BD86600587448785
:107F70002921017000F0CAF8002070BD0023AFF382
:107F8000008070B506461C461546084615F04CFBA9
:107F900018B1017819B1952070BD562070BD86606A
:107FA000058744871121017000F0B0F8002070BDF2
:107FB00070B506461D461446084615F035FB18B147
:107FC000017819B1952070BD562070BD8660A0F86B
:107FD000444015218564017000F098F8002070BDC0
:107FE00070B505461446084615F01EFB18B1017819
:107FF00019B1952070BD562070BD856004870021A1
:1080000041870F21017000F081F8002070BD2DE93B
:10801000F04107461D4616460846DDF8188015F063
:1080200003FB040004D0207820B19520BDE8F08146
:108030005620FBE7A760A685E58526866586002095
:1080400060831022414604F11C00FBF744FC13201E
:10805000207000F05BF80020E8E72DE9F0410746CA
:108060001D4616460846DDF8188015F0DDFA0400B6
:1080700004D0207820B19520BDE8F0815620FBE7A0
:10808000A760A685E58526866586A4F81A80414600
:1080900004F11C0018F0C2FE1320207000F036F826
:1080A0000020E9E701490860704700002C3A0020F1
:1080B0002DE9F04106461C4615460846069F15F078
:1080C000B3FA20B1017821B19520BDE8F0815620A6
:1080D000FBE7866005878487002141871B210764B1
:1080E000017000F013F80020EFE770B50446007847
:1080F0000D46002808D02046FFF782FE294620467C
:10810000BDE87040FEF780BA70BD00002DE9F04F69
:10811000C84889B00468002C79D0A089FCF7C0FF5A
:10812000B0B12278217EC4A0FBF7E5FF207E0128B4
:108130006DD194F8510000254FF01E0970B184F8FC
:108140005150A0898DF8089000950123019594E085
:10815000A08909B0BDE8F04FFCF7A5BF207817282B
:1081600001D02B2818D1204614F0ECFFA18FC01E9F
:10817000884211DA204614F0E5FF0246A18FBCA028
:10818000FBF7B9FF2046FFF73BFE09B02046BDE8EC
:10819000F04F0D21FEF738BA606D04F01DFA064667
:1081A0002178BEA0FBF7A7FF94F800C004230220AB
:1081B00008220E274FF420514FF0100A4FF00C0BFD
:1081C000BCF1360F3FD2DFE80CF03E1B3E233E41B0
:1081D0003E443E4B3E5B3E643E673E6A3E6C3E9193
:1081E0003EA43EA63EAA3EAC3EAF3EB13EB93EDB0B
:1081F0003EC13ECB3ED33EE83EF03EA83EF83EFDBB
:108200002070E08D0090A38DA289102052E01AE02A
:1082100023700D46618B39B1ADF81C10E18D07AAB2
:108220000091CDE9012008E003A904F11C0015F03C
:1082300031FBE18D03AA8DE80604A38DA2892946AE
:108240000620FDF767F809B0BDE8F08F0620207022
:1082500000E0227009B02046BDE8F04F15F00DBCDB
:108260002270A089A18DE28D8DF80830ADF809103B
:10827000ADF80B2000950523019502AA042132E0F8
:1082800084F800B0E08D0090A38DA28942F602012F
:108290000FE02770228E5CE084F800A058E01220E6
:1082A0005FE014202070618B39B1E08D0090A38DC8
:1082B000A2890820FDF76FFAC5E7A689A18DE08D98
:1082C0008DF80820ADF8091004F11C03ADF80B007F
:1082D0000DF10D01184615F0DDFA0095152302AADF
:1082E00004213046019503F0C5FFACE7162020704D
:1082F000B4F844104FF6FF72A589A06C02EA410160
:10830000CDE9000101238DF8087002AA0421284656
:10831000E9E718202DE01A2040E032203EE01C2042
:108320003CE084F8009042E0202000E02220207011
:1083300009B02046BDE8F04F15F09ABB242020700C
:1083400009B02046BDE8F04F15F0D7BB28202070BB
:10835000228FA18909B00A20BDE8F04FFDF730BA9D
:108360002A20207009B02046BDE8F04F15F0B0BBC0
:108370002C20207009B02046BDE8F04F15F0C8BB96
:108380002620207004F14E000090B4F84C20A18902
:1083900002231220FDF7A4FC55E72E20207009B01F
:1083A0002046BDE8F04F15F078BB3020207009B0B2
:1083B0002046BDE8F04F15F06BBB16F07BF80028A7
:1083C00093D000E010E034202070B06D216C01AB40
:1083D0000091384A83E81500A38F228FD22106F13D
:1083E000480016F071F82EE736202070B16DB4F811
:1083F0000C90228FB4F83C80D223276C8DF810307B
:10840000ADF81120059104F158000DF1140A06A9E8
:1084100015F04FFA8DE8800D032304AA0421484685
:1084200003F070FF25702046FFF7EAFCB06D401C9A
:10843000B06508E7303A00202D2068616E646C65F5
:108440005F7065726970686572616C5F6C69737486
:108450002C206D74752073746174652025752C2033
:10846000636C69656E742073746174652025750092
:10847000676174745F636C69656E745F72756E3A80
:108480002076616C7565206C656E202575203E2018
:108490004D5455202575202D20330A0067617474D2
:1084A0005F636C69656E745F7374617465202575B4
:1084B00000000000115C00022DE9F04707461D4650
:1084C000164689460846DDF8208015F077F8044600
:1084D000007850B9484616F0D9FD014660650AA0FB
:1084E000FBF709FE606D002802DA9520BDE8F087F1
:1084F000A7602687A5873320C4F840802070FFF747
:1085000005FE0020F2E700006C655F646576696334
:10851000655F6B6579206973203A307825780A00A9
:1085200070B50A4E0546002456F82400A84207D12B
:10853000A98907A0FBF7DFFD7F212846FFF7D5FDBE
:10854000641C2404240CEFD070BD0000303A0020DD
:108550004741545420636C69656E742074696D657D
:108560006F75742068616E646C652C2068616E6440
:108570006C65203078253032780000002DE9F0411C
:1085800006461C4615460846069F15F04DF820B1D4
:10859000017821B19520BDE8F0815620FBE7866087
:1085A00005878487002141872B2107640170FFF72D
:1085B000ADFD0020EFE770B506461D46144608469F
:1085C00015F032F818B1017819B1952070BD562018
:1085D00070BDE90704D0A179C90601D4982070BD07
:1085E000A90704D5A179890601D4992070BD8660B8
:1085F00061888185A188C185A0F84E502321017032
:10860000FFF784FD002070BD1CB5049CCDE900344B
:10861000002300F001F81CBD2DE9F0410646DDE91C
:1086200006781C461546084614F0FEFF20B1017876
:1086300021B19520BDE8F0815620FBE786600587D3
:10864000878744872D21C0F840800170FFF75EFDC9
:108650000020EFE71CB5049CCDE90034002300F0B6
:1086600001F81CBD2DE9F0410646DDE906781C46FF
:108670001546084614F0D8FF20B1017821B19520A5
:10868000BDE8F0815620FBE7866005878787448731
:108690001921C0F840800170FFF738FD0020EFE796
:1086A0002DE9F04106461C4615460846069F14F083
:1086B000BBFF20B1017821B19520BDE8F0815620A3
:1086C000FBE7866005878487172107640170FFF741
:1086D0001DFD0020F1E7F8B51E4615460F4614F0C3
:1086E0006DFF040003D0207818B19520F8BD562006
:1086F000F8BD204614F026FDC01EA84201DA9720DE
:10870000F8BD0096A1892B463A465220FDF7E8FABB
:10871000C0B2F8BDF0B5002423460125C65C002296
:1087200005FA02F73E4207D08C4203D102EBC300A8
:10873000C0B2F0BD641CA4B2521CD2B2082AEFD35E
:108740005B1CDBB2052BE9D3FF20F0BD10B5002187
:108750004FF4FA5200BF491C9142FBDB80B214F087
:108760008FFEBDE8104017F06BBF000003480449BE
:10877000401A0449096808587047000000210002A7
:10878000002000020030000200487047250F02025E
:1087900008B100207047014800687047303A002057
:1087A0004278891A0844B0F8030070472DE9FC416B
:1087B000164C18271E46D4F808C0BCF1000F11D083
:1087C0004978D9B12178002579B1FCF713FC2378D9
:1087D00062882570658002B039463046BDE8F041B8
:1087E00015F0DEB903230022F5E70023009501957B
:1087F000B0F8040102221946E04701E0FCF7FAFB59
:10880000192030700120BDE8FC810000FC390020F7
:108810002DE9FF4F87B01D46DDE914738946824676
:1088200000264FF0060B0124B0463A46294632484E
:10883000FBF75EFCBD4204D81DB1DAF820010090C0
:1088400046E0012351E06846FCF785FEBDF80800CC
:1088500008B1A8423CD3B8423DD8CEB158B14FF48C
:1088600020516846FCF7BFFE28B942F60101684670
:10887000FCF7B9FE60B1414620A0FBF739FC29F8AE
:108880000480A41CA4B209990026201D884222D885
:10889000BDF80800B0F100081AD068461599FCF739
:1088A000A2FEA8B1BDF810201698824210D10599F9
:1088B0001798FAF76DFD58B9BDF8081016A0FBF728
:1088C00017FCBDF8081029F80410A41CA4B2012656
:1088D00000980028B7D1012C06D0072189F8001094
:1088E00020460BB0BDE8F08F0A232A465946484679
:1088F00015F056F9F5E70000EC2B0202456E6420F6
:108900006F662067726F75702C2068616E646C658D
:108910002030782530347800426567696E206F66B4
:108920002067726F75702C2068616E646C652030F2
:1089300078253034780000002DE9F04F87B0934659
:10894000109F884681461E464FF0040A01240025E8
:108950003A46194628A0FBF7CBFBBE4204D81EB10D
:10896000D9F82001009033E001233EE06846FCF78F
:10897000F2FDBDF8080070B3B8422CD8B04227D33E
:10898000BDF80610880501D5102000E00220012C5A
