:020000040200F8
:102000000030124059310002A73100022530000291
:10201000AB310002AD310002AF3100020000000020
:1020200000000000000000000000000071410002FC
:10203000B331000200000000FD3F000241420002F7
:10204000B9310002B931000225410002A53A00026F
:10205000953A00026D4200025D4200024D420002CC
:10206000AD4200028D3F0002E5390002013C000252
:10207000393C0002B9310002F93900020541000281
:1020800055410002C13B00028D4200027D42000228
:10209000B13B0002A13B00022D3A0002F13B0002DD
:1020A0005D3F0002B9310002D13B0002E13B00027A
:1020B000F5400002E5400002D54000029D420002CA
:1020C000C53E0002B53E000215410002AD3F0002D0
:1020D0009D3F00026D3F00027D3F0002BD3F0002B8
:1020E000CD3F0002DD3F0002ED3F0002B9310002AA
:1020F000B9310002B9310002D53900020200032DC6
:1021000000900202FFFFFFFFFFFFFFFFFFFFFFFF47
:10211000FFFFFFFFFFFFFFFFFFFFFFFFFFFFFFFFCF
:10212000FFFFFFFFFFFFFFFFFFFFFFFFFFFFFFFFBF
:10213000FFFFFFFFFFFFFFFFFFFFFFFFFFFFFFFFAF
:10214000FFFFFFFFFFFFFFFFFFFFFFFFFFFFFFFF9F
:1030000000200002DFF810D000F0C0F900480047AF
:10301000610A0202AFF30080640C002030B58047E3
:1030200030BD00BF1EF0040F0CBFEFF30880EFF3BC
:103030000980816941F68552C0F20222104700B52D
:103040001A4422F0030203460E480068C0050ED160
:10305000EFF3148080070AD5EFF3098082F3098823
:1030600001B40846984701BC80F3098800BDEFF31E
:10307000088082F3088801B40846984701BC80F3B1
:10308000088800BD04ED00E044F6206000BF401E4B
:10309000FCD128472DE9FE5F0746EFF31080EFF3E0
:1030A0001181EFF31282EFF313830FB440F6302057
:1030B000C2F20000224D0560EFF30881EFF30982B0
:1030C000EFF31483EFF3038441608260C360046113
:1030D000781E0DD0B81E05D01A48016841F00101D4
:1030E00001600AE01848016841F00101016004E054
:1030F0001548016841F00401016043F28900C0F203
:1031000000200047114841688268C368046981F360
:10311000088882F3098883F3148884F30388BFF353
:103120004F8FBFF36F8F0FBC80F3108881F311882E
:1031300082F3128883F31388BDE8FE5F704700BFF7
:103140000531000204031140A8011040300A00209C
:1031500040BA7047C0BA70471848016811F0010FB3
:1031600021F0010101600ED01548016821F0020133
:1031700001601448016841F4806101601248804791
:103180001248006800470E48016821F00201016002
:103190000C48016841F4806101600D4880470D488A
:1031A00000470D480047FEE7FEE7FEE7FEE7FEE7C3
:1031B000FEE7FEE7FEE7FEE7FEE700001001104035
:1031C000080000401C00004035680002300A002062
:1031D0007D6700028D330002610A02022DE9F003CF
:1031E0005FEA930C6FD000BF30F8024B31F8026BEE
:1031F00030F8025B31F8027B14FB06F84FEA6848AE
:1032000015FB07F9A8EB694822F8028B14FB07F4B9
:10321000641415FB06F504EB654422F8024B30F804
:10322000024B31F8026B30F8025B31F8027B14FB81
:1032300006F84FEA684815FB07F9A8EB694822F839
:10324000028B14FB07F4641415FB06F504EB6544CC
:1032500022F8024B30F8024B31F8026B30F8025B77
:1032600031F8027B14FB06F84FEA684815FB07F9B2
:10327000A8EB694822F8028B14FB07F4641415FBD1
:1032800006F504EB654422F8024B30F8024B31F8A6
:10329000026B30F8025B31F8027B14FB06F84FEA50
:1032A000684815FB07F9A8EB694822F8028B14FB64
:1032B00007F4641415FB06F504EB654422F8024B91
:1032C000BCF1010C90D113F0030304BFBDE8F0037F
:1032D000704700BF30F8024B31F802CB30F8025B88
:1032E00031F8026B14FB0CF77F1415FB06F8A7EB03
:1032F000684722F8027B14FB06F4641415FB0CFCEF
:1033000004EB6C4C22F802CB5B1EE3D1BDE8F0036A
:103310007047000000F5005000B20028BCBF00F567
:10332000004000B281090B4BA0EB8110400233F941
:10333000112003EB410100B2C0F5004349885A4314
:10334000121410FB01F000EB02400014400000B228
:10335000704700006076020281090B4BA0EB8110E0
:10336000400233F9112003EB410100B2C0F50043E4
:1033700049885A43121410FB01F000EB024000147C
:10338000400000B27047000060760202064C074D14
:1033900006E0E06840F0010394E807009847103425
:1033A000AC42F6D3FFF732FE588002027880020268
:1033B0002DE9F05F0546002092469B46884606466A
:1033C000814640241BE0284641464746224600F0FD
:1033D0009EF853465A46C01A914110D311461846DA
:1033E000224600F085F82D1A67EB01084F46224669
:1033F0000120002100F07CF817EB00094E41201E4F
:10340000A4F10104DFDC484631462A464346BDE8C4
:10341000F09F00000649074A0868504343F239020A
:103420001044086040087047014908607047000078
:103430004C0300206D4EC64110B5431A934209D289
:103440008318881803E010F8011D03F8011D521EAF
:10345000F9D210BD40EA01039B0703D009E008C977
:10346000121F08C0042AFAD203E011F8013B00F849
:10347000013B521EF9D210BDD2B201E000F8012B7F
:10348000491EFBD270470022F6E710B513460A46E4
:1034900004461946FFF7F0FF204610BD421C10F805
:1034A000011B0029FBD1801A704730B5044600206B
:1034B000034600E05B1C934203D2E05CCD5C401B02
:1034C000F8D030BD30B50B46014600202022012443
:1034D00009E021FA02F59D4205D303FA02F5491BE2
:1034E00004FA02F52844151EA2F10102F1DC30BDF8
:1034F000202A04DB203A00FA02F1002070479140B4
:10350000C2F1200320FA03F3194390407047202AA8
:1035100004DB203A21FA02F00021704721FA02F37D
:10352000D040C2F1200291400843194670472DE96E
:10353000FE4F804681EA0300C00F0C46009021F048
:10354000004123F00045B8EB0200A94105D24046F6
:10355000214690461C460B46024623F0004010438D
:1035600047D0270DC7F30A00C3F30A510290401A4F
:10357000019040286BDAC3F3130040F4801B0098DD
:10358000924620B10023D2EB030A63EB0B0B0198A8
:103590005946C0F140025046FFF7AAFF06460D46C5
:1035A00050465946019A00F07BF910EB0800614142
:1035B000002487EA115284EAE7731A4340D0009A44
:1035C00062B3019A012A4FEA075215DC001B61EB36
:1035D00002014FF0004202EA0752CDE90042001C0E
:1035E00041F5801132462B4600F07BF903B0BDE86F
:1035F000F08F40462146F9E7001B61EB0201001CF9
:1036000041F5801300185B412018A2F5001747EB25
:10361000030140EAD570B6196D4111E06D084FEA1B
:10362000360645EAC0754FEA0752001B61EB0201FE
:10363000001C41F5801149084FEA30000019514142
:1036400032462B4603B0BDE8F04F00F03BB900987E
:10365000012240000023D0EB020263EBE0730098EC
:1036600021464FEAE074B8EB000061EB0401E9E7A2
:1036700083F000435BE781F0004158E72DE9FE4FFE
:1036800081EA030404F0004421F0004100944FF06B
:10369000000B23F0004350EA01045ED052EA030419
:1036A0005BD0C3F30A54C1F30A552C44A4F2F3349B
:1036B0000194A0FB0254C1F3130141F48011C3F340
:1036C000130343F4801301FB024400FB034E840AFE
:1036D000970A44EA815447EA8357A4FB0768029596
:1036E0008D0A05FB07854FEA932C04FB0C54270534
:1036F000029D4FEA065847EA1637B5EB08056EEB10
:10370000070C870E920E47EA811742EA8312A7FB45
:103710000201B6EB0B0164EB00042B0D43EA0C3302
:103720005E1844EB1C50DA465146E7FB0201C5F334
:1037300013044FEA0B3343EA14534FEA0432019C5B
:1037400043EA0603A4F10C040294009CCDE900B402
:1037500000F0C7F803B0BDE8F08F00200146F9E79C
:103760002DE9F04D81EA030404F0004B21F00045FF
:1037700014464FF0000A23F0004150EA050220D021
:1037800054EA01021DD0C5F30A570246C5F31303DC
:10379000C1F31300C1F30A5640F4801543F48013BB
:1037A000A7EB0608101BD64608F2FD3873EB0500A0
:1037B00002D308F1010801E092185B41B8F1000F53
:1037C00003DA00200146BDE8F08D00204FF480119F
:1037D000064684460EE0171B73EB050705D3121B44
:1037E00063EB050306434CEA010C49084FEA30003D
:1037F00092185B4150EA0107EDD152EA030012D062
:1038000082EA040083EA0501084305D0101BAB419E
:1038100006D20122002306E000224FF0004302E01E
:103820006FF0010253101AEB06004CEB085110EB3D
:103830000A0041EB0B01BDE8F04D00F043B8C1F3C5
:103840000A52C1F3130140F2FF3341F480119A424E
:1038500002DA00200146704740F233439A42A2F256
:10386000334202DC5242FFF752BEFFF741BE000076
:1038700030B5041E71F1000404DB4FF000444042F7
:1038800064EB0101141E73F1000405DB1C464FF0CC
:103890000043524263EB0403994208BF904230BD9B
:1038A000202A06DBCB17203A41FA02F043EAE07304
:1038B00006E041FA02F3D040C2F1200291400843F1
:1038C0001946704710B5141E73F1000408DA401C45
:1038D00041F1000192185B411A4301D120F001002F
:1038E00010BD2DE9F04D92469B4611B1B1FA81F21F
:1038F00002E0B0FA80F220329046FFF7F9FD04466C
:103900000F4640EA0A0041EA0B0153465A46084373
:1039100013D0114653EA010019D0C8F140025046B5
:10392000FFF7F5FD05460E46504659464246FFF75D
:10393000DFFD084305D0012004E020463946BDE8FC
:10394000F08D0020054346EAE0762C4337430A9881
:103950006305E40AA0EB08000022FD0A44EA47548C
:103960000A3002D500200146E9E701051019694136
:10397000DDE9084500196941BDE8F04DA2E770B5E1
:103980008C1810F8015B15F0070301D110F8013B0A
:103990002A1106D110F8012B03E010F8016B01F891
:1039A000016B5B1EF9D12B0705D40023521E0DD4E9
:1039B00001F8013BFAE710F8013BCB1A921C03E037
:1039C00013F8015B01F8015B521EF9D5A142D8D36F
:1039D000002070BD02482421C06807F08DBB0000A4
:1039E000000000200348016841F02001016001202F
:1039F0001DF0CEBC0000134002480921C06807F04A
:103A00007BBB0000000000201DF0D8FF054C064DD8
:103A10002068416A286888470028F9D11DF060FFB6
:103A2000F6E70000040000201400002002481021E6
:103A3000C06807F061BB0000000000200448006877
:103A40000122C0F308010A20891E07F07DBB000097
:103A500004ED00E005480068C00505D10448406851
:103A6000002801D0406B00477047000004ED00E0E3
:103A70000000002005480068C00505D104484068E2
:103A8000002801D0806B00477047000004ED00E083
:103A90000000002002480121C06807F02DBB000093
:103AA0000000002002480221C06807F025BB00008A
:103AB0000000002010B5C368D9B280290FD98468EE
:103AC000A06800B101204B2213A101F0A5FBA16861
:103AD00019B1E068BDE81040084772B6FEE7044639
:103AE000008A616982B2D8B2124B1B68984706F00F
:103AF000FFFE00280FD1E068022806D004280AD172
:103B0000A069BDE8104006F0EDBEA08BA169BDE83C
:103B1000104006F0E5BE10BD4863695F696E7465CC
:103B2000726E616C5F7472616E73706F72742E630B
:103B300000000000400100201FB541680A2914D090
:103B400007DC09B105291FD104B0BDE81040FFF71B
:103B5000B1BF0B2919D00C2916D1018AC26840695E
:103B600004B089B2BDE8104010470C491EC98DE869
:103B70001E00C168019141690291008AADF80C00F4
:103B80001021684606F0ECFC1FBD018A8AB241692B
:103B9000C06804B0BDE8104008F068BBD45F020202
:103BA00002480E21C06807F0A7BA000000000020FC
:103BB00002480F21C06807F09FBA000000000020F3
:103BC00002480B21C06807F097BA000000000020EF
:103BD00002481221C06807F08FBA000000000020E0
:103BE00002481321C06807F087BA000000000020D7
:103BF00002481121C06807F07FBA000000000020D1
:103C000070B50B4D686D400611D52C6E402002F04A
:103C100035FE286EA0432866002C08D005480078A1
:103C2000400604D52046BDE8704021F02FBD70BD90
:103C3000000011402C0000202DE9F04F8FB0002033
:103C4000DFF82CB2DFF82C92DFF82C8242F26C5AAB
:103C50000090D9F858004D460990D9F854005646BE
:103C6000099C0A9034403040A04208D098F80000E7
:103C7000800604D5082209A9052021F06DFD9BF8D6
:103C80000200800601D524F4A274002C75D098F8A7
:103C90000000000604D5E1B2220A082021F0D8FC79
:103CA000204602F0EBFDB24600272E46A00604D5C2
:103CB00021F090F8012002F023FAA00401D516F0BB
:103CC000C7FA60077DD5D6F80C51002D79D06B4826
:103CD00005432D1F049595F8C6008DF8180095F83A
:103CE00026008DF81900D5F8BC000590D5F8B8006D
:103CF0000090B5F8C610C3B2CAB2032B02D0042B91
:103D00002FD126E0052A06D0162A1CD0172A1AD051
:103D1000182A26D117E05A48016B0291097901F05F
:103D20000F0107291DD102994979890619D500216A
:103D3000C6F80C11806B16F063FA514802991030E6
:103D400012F022FD20E00020C6F80C01D5F8C000DA
:103D500018E04C4AC0F30B2052F8200008B1172994
:103D60000CD004A94FF40030009A16F026FB47B39C
:103D700095F8B800032810D10DE075E00021C6F8D1
:103D80000C11406910F072FB012704A97804009A15
:103D900016F013FBECE712F061FD97B1E0051DD4BE
:103DA000756D51460D4000204CF25032EB0504D4A5
:103DB000756D401C0D409042F8DB284602F05EFD18
:103DC00000E00BE042F2040084432C4340F24F1227
:103DD0002DA1C4F3002001F01FFA67E7600502D5AA
:103DE00003201DF0D5FA600615D5356E35B198F86B
:103DF0000000400602D5284621F048FC280E800726
:103E000009D5D6F80C0130B11C49084310F8C01F81
:103E100041F001010170E0051BD5C7B1049830F8ED
:103E2000681FADF81C104088ADF81A009DF81910F5
:103E3000884204D20020ADF81A10ADF81C0004A985
:103E40004FF00210009A16F0B8FA600601D515F08E
:103E5000B1F998F8000000067FF5FBAEE1B2220A46
:103E6000092021F0F5FBF4E60FB0BDE8F08F00006B
:103E700048010020000011402C00002000001040EC
:103E800058060020480C00206474626C652E6300A4
:103E9000074A131D5980116860F30701116010680B
:103EA00040F40070106010688005FCD4704700007A
:103EB0000804114002481C21C06807F01DB9000029
:103EC0000000002002481B21C06807F015B900005F
:103ED0000000002000F01F020121914040098000F5
:103EE00000F1E020C0F88012704700F01F020121AD
:103EF00091404009800000F1E020C0F800117047B7
:103F0000C906090E002806DA00F00F0000F1E020D3
:103F100080F8141D704700F1E02080F8001470470D
:103F2000024A1140014302480160704780FFFF1FB1
:103F300008ED00E000B589B0416803910021CDE9AA
:103F40000110044869460068826903480068904788
:103F500009B000BD04000020180000200248142110
:103F6000C06807F0C9B80000000000200248152111
:103F7000C06807F0C1B80000000000200248162108
:103F8000C06807F0B9B8000000000020024807210F
:103F9000C06807F0B1B800000000002002481E21F0
:103FA000C06807F0A9B800000000002002481D21E9
:103FB000C06807F0A1B800000000002002481F21DF
:103FC000C06807F099B800000000002002482021D6
:103FD000C06807F091B800000000002002482121CD
:103FE000C06807F089B800000000002002482221C4
:103FF000C06807F081B80000000000200148406858
:10400000806C0047000000202F492E48C1F8900125
:104010002E48C1F894014FF40040086342F2412059
:1040200048632B48826942F080428261026922F033
:104030007F7202F540020261826922F4700202F589
:1040400080128261826942F47022826182696FF318
:104050000F02103282614A6A22F4601202F50022D5
:104060004A624A6A22F4F85202F500724A62826990
:1040700022F07C5202F1C8528261D1F8602122F410
:10408000FC0202F5B402C1F86021016801680E2249
:1040900062F31F7101608168C90D21F0F00141F0E8
:1040A0003002816862F3DE518160C168C16802221A
:1040B00062F38A11C16001680168092262F3440158
:1040C0000160704707060204000010400103040568
:1040D0000020104002481721C06807F00DB800000A
:1040E0000000002002481821C06807F005B8000051
:1040F0000000002002481921C06806F0FDBF000042
:104100000000002002480821C06806F0F5BF00004A
:104110000000002002482321C06806F0EDBF000027
:104120000000002002480021C06806F0E5BF000042
:1041300000000020014800F003B80000B800104063
:10414000014608680A688242FBD10A688242F8D1B7
:104150007047000002480A21C06806F0CDBF000089
:10416000000000200149487270470000D400002080
:1041700001484068406C00470000002010B54FF037
:1041800080446068400409D500F00CF8216811F003
:104190000F0100D10121B0FBF1F010BD004810BDAE
:1041A00000366E010C48D0F8A801C00211D54FF0BE
:1041B0008041086C0A6CC0F34500C2F3C53210FBA5
:1041C00002F0064A096CB2FBF0F0C1F3C711484394
:1041D00070470020704700000000104000366E015C
:1041E0004FF08041012806D0022803D1C86820F092
:1041F0008000C8607047886820F4844088607047F9
:104200004FF08041012806D0022803D1C86840F051
:104210008000C8607047886840F4844088607047B8
:104220004FF08041012806D0022803D1C86840F031
:104230008000C8607047886840F484408860704798
:1042400001484068006C004700000020024803213C
:10425000C06806F051BF00000000002002480421A1
:10426000C06806F049BF0000000000200248052198
:10427000C06806F041BF00000000002002480C2189
:10428000C06806F039BF00000000002002480D2180
:10429000C06806F031BF00000000002002481A216B
:1042A000C06806F029BF0000000000200248062177
:1042B000C06806F021BF0000000000200FB4054BCD
:1042C00010B503A9044A029800F0FEF810BC5DF88E
:1042D00014FB00006D700002500300200FB4084B67
:1042E00010B504A902AA039800F0EEF8044602A94A
:1042F000002000F097FE204610BC5DF814FB000083
:1043000025500002014B024A00F0E0BA6D70000235
:1043100050030020704770477047704770477047E0
:104320007047704702E008C8121F08C1002AFAD17E
:1043300070477047002001E001C1121F002AFBD125
:10434000704700002DE9FF5F82B00021DDE90430F5
:10435000020DDDF840B0034318D044F61050A2F22D
:10436000FF3242431514119801281FD0A5EB0B0012
:10437000401C5FEA000A4FF000064E4FDFF838910C
:10438000B046504615D5CAF1000413E01198012437
:104390004AA3012801D16FEA0B010298119AC0E9E2
:1043A0000031C0E9024206B0BDE8F09FCBF1000049
:1043B000DFE704460021404A491842EB0450CDE9AA
:1043C000001012E0E00707D032463B46404649461F
:1043D000FFF754F98046894632463B461046194657
:1043E000FFF74CF906460F466410002CEAD1DDE9D0
:1043F0000401DDE90023BAF1000F06DAFFF73EF908
:1044000042464B46FFF73AF905E0FFF7A9F9424665
:104410004B46FFF7A5F904460E460022284BFFF74E
:1044200027FA03D84FF0FF30014607E00022254B62
:1044300020463146FFF77BF8FFF701FA102409E028
:10444000002C0ADB0A220023FEF7B2FF039B303266
:104450001A55641E50EA0102F2D1641C039AC4F199
:1044600011031444119A012A03D0012208430DD1EB
:104470000AE0084304D000204FF0110B119072E7BE
:10448000A3EB0B056D1E0DE05B4504DD4FF0000254
:1044900005F1010504E003DA4FF00002A5F1010582
:1044A000002AECD002981199C0E90231C0E9004518
:1044B00079E70000000014400000F03F30000000E9
:1044C0000000F0430000E03F2DE9FF4F8DB00F46A4
:1044D0000546002606E025280BD0DDE90F1290479F
:1044E0006D1C761C28780028F5D111B03046BDE847
:1044F000F08F0024A246A1460122E94900E00443CE
:1045000015F8013F203B02FA03F00842F7D1287862
:104510002A2810D06FF02F022878A0F13001092945
:1045200014D80AEB8A0102EB410144F0020400EBCB
:10453000010A6D1CF0E701CF5FEA000A03D544F4DD
:104540000054CAF1000A44F002046D1C28782E2899
:1045500017D115F8010F44F004042A280ED06FF08B
:104560002F022878A0F1300109290AD809EB890126
:1045700002EB410100EB01096D1CF2E757F8049BC7
:104580006D1C28786C280FD006DC4C2817D06828C2
:104590000DD06A2814D104E0742810D07A280FD1E5
:1045A0000DE044F400140AE044F4801401E044F403
:1045B00040146978814202D104F580146D1C6D1C91
:1045C00028786E281ED00CDC632830D004DC00284C
:1045D0008BD0582811D19FE0642867D069280CD16E
:1045E00064E073282DD004DC6F2872D0702804D1C9
:1045F00094E075286ED078286DD0DDE90F129047D1
:10460000761C4BE1C4F30250022806D0032809D0DF
:10461000042801CF09D0066040E101CFF117C0E9BD
:1046200000613BE101CF068038E1067036E117F802
:10463000040B8DF8000000208DF80100EB460120EE
:1046400003E057F804BB4FF0FF3061074FF0000163
:1046500002D40DE008F10101884649450FDA804592
:10466000F8DB1BF808100029F4D108E008F101017B
:1046700088468142FADB1BF808100029F6D1DDE9F3
:104680000F23AAEB08008146214600F09DFC304430
:1046900000EB080604E0DDE90F121BF8010B904760
:1046A000B8F10108F7D221464846F2E00A21C4F3E6
:1046B00002524FF0000B0891022A04D001CFC1171B
:1046C000032A09D00AE0FF1D27F00707F7E80201D7
:1046D00008E02CE01EE01FE000B2C117042A01D15F
:1046E00040B2C117021E71F1000206DA0023D0EBBE
:1046F000030063EB01012D2202E0220504D52B22E9
:104700008DF82420012203E0E20701D02022F7E700
:10471000904653E00A210BE0102109E010214FF0F0
:10472000000B44F004044FF00809089103E008214D
:104730004FF0000B0891C4F30252022A04D001CFBB
:104740000021032A06D006E0FF1D27F00707F7E83F
:10475000020103E080B2042A00D1C0B24FF0000889
:1047600022072BD52A78702A07D0DDF820C08CF0DC
:10477000100C5CEA0B0C05D00EE040228DF82420D2
:10478000012208E050EA010306D030238DF82430DE
:104790008DF8252002229046089B83F0080353EAF7
:1047A0000B030BD150EA010201D1620706D530227A
:1047B0008DF824204FF00108A9F101092A78582A20
:1047C00004D038A20B9208AA0A920BE03AA2F9E7A9
:1047D0005B46089AFEF7ECFD0B9B9B5C0A9A521E07
:1047E0000A92137050EA0102F2D10A98ADEB000070
:1047F00000F1200B600702D524F4803401E04FF073
:104800000109D94502DDA9EB0B0000E0002000EB17
:104810000B0141440890AAEB010AE00306D4DDE94C
:104820000F232146504600F0CFFB06444FF000090D
:1048300008E009A911F80900DDE90F12904709F114
:104840000109761CC145F4DBE0030CD5DDE90F233B
:104850002146504600F0B8FB064404E0DDE90F12A3
:1048600030209047761C0899481E08900029F5DCF6
:1048700008E00A980A990078491C0A91DDE90F12AC
:104880009047761CBBF10001ABF1010BF1DC214636
:104890005046DDE90F2300F073FB06446D1C21E652
:1048A0000928010030313233343536373839616206
:1048B00063646566000000003031323334353637CA
:1048C0003839414243444546000000002DE9FF4F7E
:1048D00095B09A46884606460025EEE1252877D110
:1048E00000242746F94A0121039400E0044316F806
:1048F000013F203B01FA03F01042F7D130782A281B
:1049000011D06FF02F033078A0F13002092A16D8A9
:10491000039A44F0020402EB820203EB42021044C9
:10492000761C0390EFE758F8042B0392002A03DA71
:10493000504244F40054039044F00204761C307852
:104940002E2816D116F8010F44F004042A280DD0A1
:104950006FF02F023078A0F13003092B09D807EB54
:10496000870302EB4303C718761CF3E758F8047B70
:10497000761C30786C280FD006DC4C2817D06828BD
:104980000DD06A2814D104E0742810D07A280FD1F1
:104990000DE044F400140AE044F4801401E044F40F
:1049A00040147278824202D104F58014761C761C81
:1049B000307866280BD013DC582877D009DC002823
:1049C00075D04528F6D04628F4D047281AD193E16F
:1049D00018E0632835D0642879D0652812D18BE19E
:1049E000702873D008DC6728F1D069286FD06E2852
:1049F0000DD06F2806D1ACE073282CD0752874D068
:104A0000782853D05246179990476D1C54E1C4F34F
:104A10000250022809D003280DD0D8F8001004282D
:104A20000DD00D6008F1040846E1D8F80010EA172F
:104A3000C1E90052F6E7D8F800100D80F2E70D70DA
:104A4000F0E718F8041B8DF8001000208DF8010025
:104A5000EB46012003E058F804BB4FF0FF3061073C
:104A60004FF0000102D40DE009F101018946B9427D
:104A70000FDA8145F8DB1BF809100029F4D108E0B2
:104A800009F1010189468142FADB1BF8091000296E
:104A9000F6D103985346A0EB090721463846179AEA
:104AA00000F0A9FA284400EB090507E044E008E11A
:104AB0000DE01BF8010B524617999047B9F1010917
:104AC000F7D2534621463846179AF2E039E00A21D8
:104AD000C4F302524FF0000B0091022A06D058F89E
:104AE000040BC117032A09D00AE023E008F10700EC
:104AF00020F00702F2E80201904605E000B2C1177B
:104B0000042A01D140B2C117002906DA0A46002161
:104B1000404261EB02012D2202E0220504D52B2246
:104B20008DF80420012203E0E20701D02022F7E7FC
:104B3000914657E00A2100E010214FF0000B009150
:104B40000BE010214FF0000B44F004040827009103
:104B500003E008204FF0000B0090C4F30252022A39
:104B600005D058F8040B0021032A08D008E008F10A
:104B7000070020F00702F2E80201904603E080B24D
:104B8000042A00D1C0B24FF0000922072AD532789A
:104B9000702A07D0DDF800C08CF0100C5CEA0B0C1A
:104BA00005D00EE040228DF80420012208E050EAF2
:104BB000010306D030238DF804308DF80520022241
:104BC0009146009B83F0080353EA0B030AD150EA95
:104BD000010201D1620705D530228DF804204FF083
:104BE00001097F1E3278582A04D039A20C920CAAEF
:104BF00002920BE03BA2F9E75B46009AFEF7D8FB76
:104C00000C9B9B5C029A521E0292137050EA0102A6
:104C1000F2D1029804A9081A00F1200B600702D50E
:104C200024F4803400E001275F4502DDA7EB0B0090
:104C300000E0002000EB0B01009003984944401A6B
:104C40000390E00306D453462146179A039800F0D8
:104C5000D2F90544002706E001A85246C05D179925
:104C600090476D1C7F1C4F45F6DBE0030CD5534687
:104C70002146179A039800F0BEF9054404E030205D
:104C80005246179990476D1C0099481E00900029C4
:104C9000F5DC08E00298029952460078491C02911E
:104CA000179990476D1CBBF10001ABF1010BF1DCD2
:104CB0005BE100F077F90544761C307800287FF43A
:104CC0000DAE19B02846BDE8F08F0000092801009C
:104CD0003031323334353637383961626364656672
:104CE0000000000030313233343536373839414234
:104CF0004344454600000000600700D4062708F141
:104D0000070020F00700F0E80223804603F0004C83
:104D10005FEA0C0001D097A009E0200501D596A01C
:104D200005E0E00701D095A001E0AFF24C00139040
:104D3000307823F0004365280CD006DC452809D0E4
:104D400046281DD047287FD13BE0662818D0672829
:104D50007AD136E00021112F01DB112000E0781C10
:104D6000CDE9000104A90CA8FFF7ECFADDE90D017B
:104D70000C9A4FF0000B07F10109109200914EE0E0
:104D80004FF000400097CDE9011004A90CA8FFF7EF
:104D9000D9FADDE90D020C9B0F994FF0000B9146FB
:104DA0001093009211B9791C00EB0109B7EB0900CF
:104DB00003D4C0F1FF3B07F10109A9EB0700019003
:104DC00042E0012F00DA01270021112F01DD11201F
:104DD00000E03846CDE9000104A90CA8FFF7B2FABB
:104DE000DDE90D010C9A00914FF0000BB9461092CD
:104DF00021070FD4009A4A4503DA914601E0A9F150
:104E00000109B9F1010F05DD109AA9F10101515C09
:104E10003029F4D0B84202DA10F1040F03DA01218C
:104E2000CDE9011010E0002803DC8344A9EB000168
:104E300002E0411C494500DD8946A0EB0B00401C07
:104E400001904FF000400290200705D4019848459A
:104E500002DB4FF0FF30019000208DF84B000298EC
:104E60000DF14B07B0F1004F25D002200C902B2004
:104E70000D90029800280CDA404202902D200D90EF
:104E800007E00A210298FEF71DFB3031029007F877
:104E9000011D0C99481E0C900029F2DC0298002894
:104EA000EFD1791E0D980870307800F0200040F0A6
:104EB000450007F8020D11A8C01BC01D02901398F1
:104EC000007800B1012000EB0901019801EBE071CD
:104ED000029801440398401A401E0390E00306D450
:104EE00053462146179A039800F085F80544139815
:104EF000007818B15246179990476D1CE00323D5EE
:104F000053462146179A039800F075F805441BE0B4
:104F1000BBF1000F07DB0098584504DD1098179986
:104F200010F80B0001E01799302052469047019885
:104F30000BF1010B401E05F10105019004D12E205B
:104F40005246179990476D1CB9F10001A9F101096A
:104F5000DEDC05E017F8010B5246179990476D1CEF
:104F60000299481E02900029F4DC53462146179A04
:104F700003989EE62D0000002B000000200000009A
:104F80002DE9F041044600251E461746880404D446
:104F900005E039462020B0476D1C641EF9D528462F
:104FA000BDE8F0812DE9F041044600251E46174674
:104FB000880404D405E039462020B0476D1C641EE7
:104FC000F9D52846BDE8F0812DE9F04104460025D9
:104FD0001E469046C80301D5302700E020278804EC
:104FE00004D505E041463846B0476D1C641EF9D52E
:104FF0002846BDE8F0812DE9F041044600251E4613
:105000009046C80301D5302700E02027880404D546
:1050100005E041463846B0476D1C641EF9D5284668
:10502000BDE8F0810A68531C0B60107070470000E7
:105030002DE9F05F064600880B46C0F30B0083465F
:1050400005F0FCF90400707875884FEA10170AD053
:1050500005F10408984509D02A1DBDE8F05F1946FE
:105060003448FFF75BB9594633A01DE001F0ECF975
:1050700007F00301002740F2031AE061012903D081
:1050800002292BD03BA00FE0A08C58B14119B1F5FB
:10509000827F0DD35B4652464648FFF73FF9A7840F
:1050A000BDE8F09F594644A0BDE8F05FFFF736B970
:1050B000216A2A460844311D0E30FEF7BDF9A08C46
:1050C000284481B2A184E08C083081422ED3206A2A
:1050D0000E3005F01FFAE784A78427E0A08C20B1EA
:1050E00059464448FFF71AF9A784B788381D814606
:1050F000854205D31FFA88F1304605F00BFA15E01A
:10510000FF2D07D95B465246291DBDE8F05F3A489E
:10511000FFF704B9206A2A1D31460E30FEF78CF9DC
:10512000A4F82480E784216AA1F81090BDE8F05F1C
:1051300005F022BD1C7D02026863692E633A20617E
:10514000636C5F68616E646C65722063616C6C6532
:10515000642077697468206E6F6E2D72656769735D
:1051600074657265642068616E646C6520257521C4
:10517000000000006863692E633A2061636C5F6819
:10518000616E646C65722063616C6C656420776924
:10519000746820696E76616C6964207061636B6508
:1051A0007420626F756E6461727920666C616773DA
:1051B00020257500D87D020241434C20436F6E7458
:1051C00020467261676D656E7420627574206E6F23
:1051D00020666972737420667261676D656E7420F3
:1051E000666F722068616E646C652030782530329D
:1051F00078000000C87C02022C7E020210B505492E
:105200004FF6FF7302E084788C54C01C02889A42E7
:10521000F9D110BD0000124010B50B46002803D193
:105220001146184608F08CFA10BD70471CB50649A7
:105230008C68002C07D0002100910191B0F8040186
:105240000B460322A0471CBD3400002070B50C465D
:1052500000281DD1052C1BD20E4D4FF4927655F827
:10526000240020B9304601F003F845F82400050079
:105270000ED031462846FEF706F9A5F8044105F59B
:105280008071204603F006F84FF0FF30A5F80601C4
:1052900070BD0000A0030020F8B51646028A069FE4
:1052A000521A94B2C288D2050AD50B4A55683DB14C
:1052B000009300890A46014633463846A847F8BDA0
:1052C0009C4200D91C464069224601443046FEF704
:1052D000B3F82046F8BD000034000020042106F099
:1052E000D5B8042107F0D0B802490860042102486B
:1052F00007F040B8400000205D58000202494860B5
:105300000421024807F036B8400000205D58000232
:10531000042106F0BBB8042107F0B6B800B58BB085
:10532000D0F82001009023E0684600F034FABDF880
:10533000081000291ED0BDF806200FA0FEF7EAFFD6
:10534000BDF806008005039808D506A91CF016FED6
:1053500006A820F029FC014611A001E0018811A057
:10536000FEF7D8FFBDF8101010A0FEF7D3FF00988D
:105370000028D9D10BB000BD48616E646C653A203D
:105380003078253034782C20666C6167733A203091
:1053900078253034782C20757569643A2000000037
:1053A0002573000025303478000000002C20766141
:1053B0006C75655F6C656E3A2025752C2076616C86
:1053C00075653A2000000000064A30B41468002CCD
:1053D00006D00B46A4460246002130BC042060479C
:1053E00030BC7047480000207CB51446042819D111
:1053F00020783E283FD016DC052855D0082801D05B
:1054000030280FD1B2F80350284600F0CFF804003E
:1054100008D028461DF06FFD04F8FD0F28461DF04A
:1054200011FA60707CBDD7285ED0D8284DD0DA281C
:10543000F8D1608800F0BAF80500F3D0B5F804019F
:1054400004F0FCFF0600EDD02079317A8842E9D1E2
:105450006946601D1CF0A4FD062231466846FEF731
:1054600024F80028DED1E07A85F8FF00B5F80401C1
:10547000FFF751FF7CBDA078012803D00A2801D096
:105480002928F7D1D41C9188D078FFF7DFFEB4F833
:10549000010000F08BF80500ECD0B4F801001EF01C
:1054A000ADF9A5F806017CBDB2F80350284600F01E
:1054B0007DF80400F7D000F05FFC204600F0DEFE2F
:1054C0000F49002041F825007CBD608800F06EF88F
:1054D0000500F9D0B4F80B0001B2A5F8061109A037
:1054E000FEF719FF284608E0508800F05FF8002812
:1054F000EAD04FF0FF31A0F8061100F091FA7CBD20
:10550000A0030020534D5F4556454E545F49444526
:105510004E544954595F5245534F4C56494E475F7C
:10552000535543434545444544206964202575004F
:105530003EB50C468DF8080000208DF8092000903B
:105540000190022302AA0421204607F08FF93EBDF4
:105550007FB50DF1200C14469CE864008DF808001E
:10556000ADF80930ADF80B20ADF80D10CDE90056BF
:10557000072302AA0421204607F078F97FBD70B501
:1055800015000C4603D0D0F82001206008E0002070
:1055900070BD204600F0FFF82089A84203D02068A3
:1055A0000028F6D170BD012070BD0000052803D28F
:1055B000024951F82000704700207047A0030020E6
:1055C0002DE9FF411D460B7816460024B0F8002156
:1055D0004F1D9C460E2B71D00BDCA3F102030B2B4D
:1055E00015D2DFE803F01C142F1438144A145B148E
:1055F0006100182B71D006DC102B68D0122B7AD0EA
:10560000162B04D17DE0522B69D0D22B67D0614696
:1056100045A0FEF77FFE04B02046BDE8F0810646B7
:10562000B1F8014006F020FE844202D2A6F8004103
:1056300001E0A6F8000103242C70B6F80001A5F8DB
:105640000100E8E7B1F803300093B1F801302946D2
:1056500003F0F6FB0FE0F61FB4B2B1F80570B1F835
:105660000360CB1DCDE90243CDE90067B1F80130FD
:10567000294603F051FB0446CDE70C462946072E88
:1056800001D8022300E01023B4F80350CDE9005301
:105690000297B4F8013003F0A7FDECE7B1F8013050
:1056A000294603F0BDFEE6E7B1F803300093B1F8F8
:1056B0000130294603F09AFCDDE7FFE7491C761E1E
:1056C0000091C6F34F03294603F038FED3E70C469A
:1056D0002946072E04D8022303E018E00BE01CE063
:1056E0001023B4F80350CDE900530297B4F8013009
:1056F00003F0ECFCBFE700922B46324603F01CFFA0
:10570000B9E700922B46324603F012FCB3E7009251
:105710002B46324603F0CEFAADE700922B463246D6
:1057200003F0DAFE77E70000556E68616E646C6521
:10573000642041545420436F6D6D616E643A20259E
:105740003032582C20444154413A20001CB50B4BB8
:105750001C68002C10D0B6238DF8003005238DF87E
:1057600001308DF80200ADF80310ADF805200723D5
:1057700000216A460420A0471CBD0000480000200C
:1057800010B580B2FFF712FF002803D0BDE810402B
:1057900000F0F2BA10BD10B501680A8882806AB1C3
:1057A0004B88C3808C8804818C1DC4609B050CD5FC
:1057B000A2F11603038201F116030BE00021C18060
:1057C0000181C1600182416106E0A2F10803038208
:1057D00001F1080311444361016010BD70B5044636
:1057E00000890D4600281BD0022A08D0E0888005D9
:1057F0000BD51022E068FDF758FE80B111E0098852
:105800002046BDE8704000F00EB8084605F0F8FCF0
:10581000002805D0E168A8890988884201D10120C3
:1058200070BD002070BD70B5044600890D4600288B
:1058300010D0E0888005E06808D505F0E1FC00287C
:1058400008D0E0688089A84203D004E0008888423C
:1058500001D1012070BD002070BD00002DE9F04194
:10586000194C06461F4615468846042809D0082EBE
:1058700028D12878C00720D0D4F800C01FE03046D7
:10588000E047287878281DD1D4F804C0BCF1000F77
:1058900008D03B462A4641463046E04704F0CAFC61
:1058A00000280FD02468002C0CD03B462A464146E5
:1058B0003046A446BDE8F0416047D4F804C0BCF1CE
:1058C000000FDCD1BDE8F081400000202DE9F0415F
:1058D0000F461546044601461E46127828A0FEF7DC
:1058E0001AFD042C0CD0082C48D13846FFF75EFE78
:1058F000040043D029781E2909D0522919D01FE06D
:10590000287878283AD1BDE8F04100F011B9B4F810
:105910000801A8B104F5867000F098FDB4F80821DC
:105920000020A4F80801B4F80411BDE8F041FFF725
:105930000DBF32462946BDE8F0410023FFF740BEC7
:10594000FB2E06D93246BDE8F041FB231948FEF78D
:10595000E2BC227822B1BDE8F0411748FEF7DBBC7B
:1059600001202070A4F8026132462946A01CFDF7F0
:1059700063FD2046BDE8F04100F052B8BDE8F0817B
:105980006174745F7061636B65745F68616E646C91
:1059900065723A2074797065203078253032782C21
:1059A000207061636B65745B305D20307825303228
:1059B00078000000B47B0202687B020210B5B0F8E8
:1059C0000001029CC01E80B21970A3F8012084421D
:1059D00000D8204610BD1FB514468DF80800069A61
:1059E000ADF80930ADF80B20ADF80D100020009097
:1059F0000190072302AA0421204606F037FF1FBDAD
:105A00003EB50C468DF80800ADF809200020009046
:105A10000190032302AA0421204606F027FF3EBD81
:105A20002DE9FF410446017824A0FEF774FC20789C
:105A300001282DD1A078D22808D003202070B4F8F6
:105A4000040104B0BDE8F041FFF765BC1DF0EAF8C1
:105A50000027E0B1B4F802010F2818D3B4F804010C
:105A60001DF0F2FC002813D1B4F9060107F0B0F8DC
:105A700005000CD0B4F80211A4F10A000E58696CAC
:105A8000324611A0FEF747FC686CB04202D927707D
:105A9000BDE8FF8102202070B4F803201749601D83
:105AA000CDE90006CDE90214B4F80201A1780F385F
:105AB00083B205F134001DF0BFF8E9E76174745F4B
:105AC00072756E3A20256400415454205369676E04
:105AD00065642057726974652C20444220636F7599
:105AE0006E7465722025752C207061636B6574205F
:105AF000636F756E7465722025750000E55D0002A8
:105B0000FFF706BC0EB50B21CDE900238DF8081078
:105B1000012302AA042106F0A9FE0EBD00B5FFF77D
:105B200045FD10B1B0F8000100BD172000BD000018
:105B30002DE9F8430025144F144EA84657F8254088
:105B4000E4B1207803280BD1204600F0A7F838B143
:105B5000607898B1B4F80401BDE8F843FFF7DBBB07
:105B6000607858B10AA084F8018000680090346819
:105B700024B1022300216A460420A0476D1C052D94
:105B8000DCD3BDE8F8830000A0030020480000201B
:105B9000B70000002DE9FE431F4616460D4680461D
:105BA000FFF704FD040005D0B4F8080120B19020EF
:105BB000BDE8FE835920FBE74046FFF7A9FB88B10B
:105BC00002AB2A461D2120460097FFF7F7FECDE9DC
:105BD0000060032302AA0421404606F047FE0600A7
:105BE00002D014E05720E3E7A4F8085104F58670CA
:105BF00042460849044600F05DFC47F2305240F24C
:105C00008241204600F040FC204600F015FC304662
:105C1000CEE700008157000270B505460B480A4CDC
:105C20000E46446004F0DAFA0848083044601CF07C
:105C300081FB0748FFF762FB284600F0C7F83046B3
:105C4000BDE8704000F0C8B8E95300024C000020E5
:105C5000CD5800022DE9FE431E4615460F468046EC
:105C6000FFF7A4FC040014D04046FFF751FB90B1AD
:105C700002AB3A461B2120460096FFF79FFECDE976
:105C80000050032302AA0421404606F0EFFDBDE8C0
:105C9000FE835920FBE75720F9E700002DE9FC417E
:105CA0002F4E002707700446B0F802213346811CAE
:105CB000FFF786FC0546A0F57F40FF3823D0042D72
:105CC0000FD3307801280CD13079082809D194F805
:105CD000FE0030B1B4F804011CF0DBFD78B10128FE
:105CE00011D085B100970197B4F804012B463246D4
:105CF000042106F0BBFD3078032807D02DE0B4F86E
:105D000004011EF073F80020BDE8FC81154AB4F8C8
:105D10000411B4F80001156875B1B5228DF80020A2
:105D200004228DF80120ADF80210ADF8040006231E
:105D300000216A460420A847B4F8040100F096F850
:105D400009480078C00708D0B4F800010022001DFF
:105D500081B2B4F8040101F0E5FC0120D4E70000B1
:105D6000C8040020480000205C00002001490860B1
:105D7000704700004800002010B5B0F80821044624
:105D80003AB1B4F804119120FFF7E0FC0020A4F828
:105D9000080104F58670BDE8104000F057BB10B54F
:105DA0000246FFF703FC002806D001214170BDE840
:105DB00010401046FFF7AFBA10BD10B50C46FFF704
:105DC000F5FB002801D0C0F8204110BD0149486012
:105DD00070470000340000200149886070470000CF
:105DE000340000207CB5044600780A4602280ED113
:105DF000694610461CF0D1F8B4F80211A01F014406
:105E000008226846FDF751FB10B1002020707CBDD0
:105E1000B4F80211A4F10A000E58B4F9060106F014
:105E2000D7FE050001D0012000E00020FD2207A1DF
:105E3000FFF7F2F945B1761C6E6403202070B4F8C8
:105E40000401FFF768FA7CBD72B6FEE76174745F07
:105E50007365727665722E63000000000A688265C1
:105E60004968C1653521017002F0ACBB70B50546CB
:105E700002F010FF04000BD02846FFF797FB002824
:105E800006D0E28AB0F800118A4202D9A0F80021B7
:105E900070BDE18270BD0000F8B50446C0880E46B2
:105EA000C0050BD506484568002D07D0002000909E
:105EB0000346024621893046A8472082F8BD0000EB
:105EC000340000207CB50E46C98804460D0B00D076
:105ED0006D1C94F8FD2094F8FE00CDE9000294F8C2
:105EE000FF302A461048FEF715FAF088410502D522
:105EF00094F8FE1079B1000502D594F8FF0060B166
:105F0000002D02DD94F8FD0048B194F8FD00A84290
:105F100007DA0C207CBD05207CBD08207CBD0F204D
:105F20007CBD00207CBD0000F87A02023EB50C4624
:105F30008DF808000699ADF80920CDE90013032378
:105F400002AA0421204606F091FC3EBD2DE9F05F37
:105F5000984614460D4682460F461646DDF828B090
:105F600014E0281900EBD070401081465946424693
:105F70009047824503D11FFA89F0BDE8F09F504554
:105F800002D909F1010501E0A9F10104A542E8DD0A
:105F9000BC4200DA3C46B54200DD35465946204653
:105FA00042469047504501D3A0B2E6E759462846FD
:105FB00042469047A8B2E0E710B50C46022806D04A
:105FC000084605F01DF9002800D0A08910BD0888FA
:105FD00010BD0622FDF769BA0A68026089888180CF
:105FE0007047000010B50C49002203463A24985C23
:105FF000000900F07BFB0870985C00F00F0000F0D7
:1060000075FB48708C70C91C521C062AEFDB0020FF
:1060100001F8010C004810BDD90300200844008895
:1060200040BA70474218405C5378528852BA63F3C2
:106030001F4242EA00607047130A4354491C89B268
:1060400042547047130E4354491C89B2130C4354F5
:10605000491C89B2130A4354491C89B242547047FF
:1060600010B513F079FF80F0010010BD10B51AF0E3
:1060700023FF022801D3012010BD002010BD000025
:1060800010B50446FDF7E6FC03480188A1430180F2
:10609000BDE81040FDF7EEBCD002002010B503F0C3
:1060A000F9FBBDE81040012000F008B810B501214F
:1060B00000F09AFCBDE8104005F002B810B50446A7
:1060C000FDF7C8FC0348018821430180BDE810406A
:1060D000FDF7D0BCD002002003480078C00701D1F2
:1060E0001BF024B870470000D0020020024800686E
:1060F000816A02480068084704000020140000205C
:1061000010B504460E480078C00718D0FDF7A2FC71
:106110004CB103210B481AF055FD03F0BDFB13F001
:1061200093F80EF06BFB0120FFF7AAFF14F000F9C3
:1061300003201BF02DF9BDE81040FDF79BBC10BDFE
:10614000D00200206100030070B50D480088A0B99E
:1061500013F0E6FF40F2E2450446A8420DD3094899
:10616000406D50B91AF05CFE38B91BF0EFF9A84247
:1061700003D3A04200D3204670BD002070BD0000B4
:10618000D002002000001140014908607047000063
:106190005C00002010B504460820208005206080A7
:1061A00006F062F8A0800A20E08010BD0268134665
:1061B00002E08A4204D01268002AFAD10B60016022
:1061C000704702E08A4205D010460268002AF9D1E1
:1061D0000A6001607047006808B100207047012024
:1061E000704704E0884201D1012070470068002810
:1061F000F8D170470268816832B14068006888420F
:1062000000D1086808B9704709B101207047002023
:1062100070470022C0E90021096881607047016869
:1062200051B141680A6881688A4203D141600968B6
:10623000816003E0826001E00121016080687047B5
:1062400081680968816042681160002101607047BF
:106250004FF0FF3351B107E002688A4203D1096869
:1062600001600020704710460028F5D1184670479D
:1062700001490968C96A0847040000200149096802
:10628000096B084704000020FFF7F8BF7420FFF7F0
:10629000EFBF10B50446006A07F051F82046BDE88C
:1062A0001040FFF7EBBF70B58020FFF7E1FF04005F
:1062B0000CD040F2111007F0ADF9050008D0802194
:1062C0002046FDF7E0F82046256270BD002070BD35
:1062D0002046FFF7D3FFF9E77047FFF7CFBF502005
:1062E000FFF7C6BFFFF7CABF1420FFF7C1BF2DE9F4
:1062F000F04106460020984617460C460546306099
:1063000005E02146304600F007F844446D1CBD42CC
:10631000F7DBBDE8F081000030B40268134607E007
:106320008B4204D1024630BC04A0FDF7F5BF1B68C8
:10633000002BF5D10A60016030BC70476274737441
:1063400061636B5F6D656D6F72795F706F6F6C5FAE
:10635000667265653A20626C6F636B2025702066FB
:106360007265656420747769636520666F7220705A
:106370006F6F6C2025700000016819B10A68026017
:106380000846704700207047FFF778BF0C20FFF7E2
:106390006FBF000000B589B00DF1080C01900648F0
:1063A000006805928CE80B00044909688A6969460F
:1063B000904709B000BD0000180000200400002034
:1063C00013460A4601460A20FFF7E4BF13460A4671
:1063D00001460C20FFF7DEBF38B5154D286890F850
:1063E000A00008B1552038BD4FF0FF30ADF80200D5
:1063F000ADF800000AE0684604F070F80446C08872
:10640000162104F099F8204604F0E4FC684604F0F4
:1064100045F80028EFD1012004F092FB054804F074
:1064200043F90028DFD12A68012182F8A01038BD85
:106430008C5D0202745E02020249006909684968C3
:1064400008470000040000200020704710B50446F3
:10645000006928B103490968C9688847002020619C
:10646000002010BD0400002070B5064D04460069F0
:10647000296889688847296820694968BDE87040AB
:10648000084700000400002070B516460D4604467B
:10649000FFF7DCFF04486560044A00682146036892
:1064A00030469847206170BD04000020353F00024F
:1064B000C1607047C0E902127047000002490069DC
:1064C0000968896808470000040000202DE9F041B0
:1064D0000746114815460E46046898463888B4F8B1
:1064E000902034F88E1F00F0BDF938806288218832
:1064F000308800F0B7F93080E288A188288800F061
:10650000B1F9288062892189B8F8000000F0AAF961
:10651000A8F80000BDE8F0818C5D020270B50C00A7
:10652000054601D0012000E000206A2206A1FEF706
:1065300073FE284600F034F810B100206C60206033
:10654000286820602C6070BD6C6973745F62617331
:1065500069632E630000000070B50C00054601D091
:10656000012000E00020532207A1FEF755FE284637
:1065700000F016F808B12C6001E0686804600020A3
:106580006C60206070BD00006C6973745F62617341
:1065900069632E63000000000021016041607047C4
:1065A000006808B10020704701207047006808B1FA
:1065B0000020704701207047016819B10A68026025
:1065C00012B103E00022FAE7002242600846704759
:1065D00070B5054600680C4600B10120C32209A130
:1065E000FEF71AFE206800B10120C42205A1FEF7C3
:1065F00013FE696820680860606868600020206099
:10660000606070BD6C6973745F62617369632E63EF
:10661000000000000448D0F8A81141F00201C0F8C1
:10662000A8111AF08DBA00000000104070B50346A2
:1066300000200246012513F80240002105FA01F668
:10664000344201D0401C80B2491CC9B20829F5D39C
:10665000521CD2B2052AEED370BD30B50546C8082B
:106660000C4601F00702285C01219140084201D04C
:10667000204630BD2846FFF7D9FFC0B2B4FBF0F189
:1066800000FB1140C1B22846BDE8304002F0C5BA57
:1066900070B5044600891BF0BBFC2521B0FBF1F26C
:1066A00001FB1201CA0801F00705A25C0123AB40FF
:1066B0001A4201D0084670BDE18841432046BDE83A
:1066C0007040C1F3074102F0A8BA30B50446106823
:1066D000206010790D4600F01F0020712046FFF762
:1066E000A5FFE08085EA1540208130BD0A2801DA47
:1066F000303003E00A38062802DA4130C0B2704771
:106700003F20704770B50446C08E88B0002822D064
:10671000258F94F83430A2268DF800601A268DF863
:106720000160A6890A46ADF80400ADF8082004F11E
:106730001C01ADF80260ADF80650ADF80A30102229
:1067400003A8FCF779FEA1891C236A46A06800F023
:106750008BF90020E08608B070BD000006481144A7
:10676000006800F2FF30814203D901201860032045
:1067700070470020704700006C00002070B500F0EA
:1067800059F8264D24486861D5F80001800742D5A4
:10679000FDF73AFC224CA068224920F4F04008435F
:1067A000A060206920F080002061A06920F00040F6
:1067B000A061E06840F00400C4F80C00D5F80001C6
:1067C0008007FBD4606900F0C04540F2C970804783
:1067D00040F64D008047810504D440F4007040F637
:1067E0000131884740F25160804740F60D008047F4
:1067F0000D4805436561206920F078402061BFF3B2
:106800004F8F0A4801680A4A01F4E06111430160B0
:10681000BFF34F8FFEE770BD001F1F000000104048
:106820000020104000280080C7E8948A0CED00E0AA
:106830000400FA050948016841F470010160084844
:10684000D0F8A81121F4C051C0F8A811D0F82C112B
:1068500041F08001C0F82C117047000088ED00E085
:106860000000104019B1884201D208467047002A42
:10687000FCD09042FAD91046704700000249CA6D18
:1068800082430243CA6570470000114043688B424F
:1068900004D18068904201D10120704700207047E8
:1068A000F8B5144CA068006E28B9606820214269D0
:1068B00040209047A0616068006A804760610120C5
:1068C000009060684FF400652B46066900220A4973
:1068D0000AA0B047E061A068006E002808D10090CF
:1068E00060682B4600220669064907A0B04720626F
:1068F000F8BD000000000020093A00026374726CC9
:10690000000000002D1C0202686F7374000000007C
:1069100070B50646401E1D460C460A2809D220784E
:106920002968884205D10622211D6868FCF7BDFD53
:1069300008B1002070BDC5E90264032070BD0000ED
:106940000248417A491C417270470000D40000207F
:1069500010B5044603F08CF8002012F061FC13F02F
:10696000DDFA12F0A3FA09F04BFD0EF06BFB15F007
:106970002BF819F001F919F001FF002C03D0BDE844
:10698000104014F0EEB810BD70B50446B0F1A53F4C
:106990001AD0B4F1C33F17D001234FF4A0620521F0
:1069A0001D201AF031FB0546B4F1F23F09D09222C6
:1069B00006A10020FEF730FC2846BDE870401AF022
:1069C00095BC07202870F7E770BD00006474626C06
:1069D000652E630003484FF40031C1644FF4203149
:1069E0008164704700001140F8B505461B480E460B
:1069F0000021018012F00AFD1EF028FA1AF0ACFA0C
:106A0000684612F047FD0446009841F2E86140F6FE
:106A10004427884201D3012000E00020862210A1F3
:106A2000FEF7FAFB3A46214600201AF001FB0098D7
:106A300004F64421A0F6442082B201201AF0F8FAAC
:106A40001EF01AF93046FFF783FF002D04D02846C8
:106A5000BDE8F840FFF798BFF8BD0000D002002065
:106A6000647469702E63000030B4040003D0A4463F
:106A700030BC0420604730BC7047FEB51E46174648
:106A80000C46054602F006F9002816D0011D68469E
:106A9000FFF7BFFB0CE06846FFF7C1FB0189A1428D
:106AA00006D1D0F804C033463A4629460420E047D0
:106AB0006846FFF79FFB0028EDD1FEBD1CB5A02264
:106AC0008DF8002003228DF801208289ADF8022084
:106AD0008DF804108189806805236A46FFF7C4FF9A
:106AE0001CBD30B587B00446A3250A988DF8005028
:106AF00018258DF80150A589ADF80410ADF80620D1
:106B00000146ADF80250ADF8083010220DF10A0030
:106B1000FCF792FCA1891A236A46A068FFF7A4FF3C
:106B200007B030BD10B586B00446A1208DF8000036
:106B300016208DF80100A089ADF80410ADF8020010
:106B4000ADF806201022194602A8FCF775FCA189B1
:106B500018236A46A068FFF787FF06B010BD000043
:106B60002DE9F05F002492468946054627462646D1
:106B700026E000BF05EB8400B0F9021035F92400CF
:106B80001BF074FA834605EB8800B0F9021035F962
:106B900028001BF06BFAABEB000043F6FF71884254
:106BA00003DBA0F5FE40FF3806E043F6FF71C84264
:106BB00002DC47F6FF710844074404EB4904761CE5
:106BC00004EB0908D045D5DB97FBF6F0BDE8F09F54
:106BD0002DE9F04342780446901C89B00E4681426C
:106BE00006D009B0DF48BDE8F043921CFDF796BB24
:106BF0002178DDA0FDF792FB2078DFF87C834FF051
:106C00000009122875D00CDC0E2811D004DC0528F0
:106C100070D0082853D17BE00F2835D010284ED1F2
:106C200099E0132852D03E2871D0572847D17AE1F5
:106C3000D8F80000A278454690F84A10CFA0FDF79A
:106C40006DFB6179D6A0FDF769FB2968A07881F812
:106C50004A00D849B4F803000988884207D10020C7
:106C600003F06EFF296881F8A09004F039F82968D4
:106C7000B4F80300B1F87A10884218D12868C26BC2
:106C8000AAB1016C601D11E0D8F80020E1784046FF
:106C900082F84A10D8F80020A188B2F87A209142F0
:106CA00005D10168CA6B12B1096C601C9047D8F815
:106CB0000020A2F87A90D8F80010C1F83C90D8F8DB
:106CC000000090F8600001287ED038E103250027FD
:106CD00019E0635BAD1C625B1846AD1C03F0AEFBB4
:106CE00048B190F8281091420AD3891A80F82810E8
:106CF00008E035E026E01946AFA0FDF70FFB01E004
:106D000080F828907F1CA078B842E2DCD7E733E017
:106D1000B4F80350284603F091FB0028CFD0A178A7
:106D200049B961790029816902D041F4004101E04B
:106D300021F40041816100F0F3FB0146284603F095
:106D400061FCBCE7B4F8030003F078FB0028B6D080
:106D500007214174B3E703F093FE03F0A5FEAEE70D
:106D6000A0780028ABD1B4F8030003F067FB00283B
:106D7000A5D0617A0174A2E7A0780A2838D033DC64
:106D8000012835D004287DD0062898D134F8037F17
:106D9000384603F053FB05006088ADF81400A08866
:106DA000ADF81000E088ADF818002089ADF81C009F
:106DB000A4F1030483D007AB06AA04A905A8FFF732
:106DC00085FBEB8FAA8F00E0B5E0BDF81800BDF899
:106DD0001C108DE80F00BDF81030BDF814203946A6
:106DE000834803F061FC6AE7122873D029288DD10B
:106DF000E07800288AD1A788052F21D2D8F8000092
:106E000000EB8705686910B9FFF74DFA6861050066
:106E100016D0EF800220C5F81890A874FFF714FB75
:106E2000E861E0792872294604F108001BF0B8F8FF
:106E300005206874A0792874A0780A2804D00FE08F
:106E4000A08800F067F93AE7D4F80E00C5F87200A0
:106E5000608AA5F876006069A867208BA5F87C0099
:106E6000E0896887287C60B9D8F8001091F848104C
:106E7000E973D8F8000005F1090190F8480000F026
:106E8000FBF900E016E02846FFF7ACF80246E98877
:106E900058A0FDF743FA03F08BFBD8F8000090F8F8
:106EA0005600C0069FD5E98840F6B832594803F02D
:106EB000FBFB04E7E07800283AD1A08803F0BEFA93
:106EC000002835D0A17980F87110012180F8701068
:106ED000F5E6FFE72079082885D2E17819B14EA0C0
:106EE000FDF71CFAEBE6B4F80520104603F0A6FA0D
:106EF0000546217951A0FDF711FAD8F80000217953
:106F00008530095CE97349B1217968461DF072FF4B
:106F100005F1090168461BF043F8D0E605F10900C8
:106F200000F0C0F9CBE6608803F088FA00288AD127
:106F300009B0BDE8F083B1B2204603F05DFCB1B208
:106F4000204603F00DFB2078052806D1B4F8030095
:106F500003F074FA08B103F03DFF09B0BDE8F04357
:106F600003F00ABE787D02024843493A4556454E31
:106F7000543A2530327800008C5D0202434D445F64
:106F8000434F4D504C45544520636D6473206F6CE6
:106F900064202575202D206E657720257500000062
:106FA000636D645F636F6D702073746174757320BB
:106FB00025750000745E02026863695F6E756D621C
:106FC00065725F636F6D706C657465645F7061633B
:106FD0006B6574206C6973747320756E757365646A
:106FE00020636F6E2068616E646C652025750000FB
:106FF0000C5F02024E657720636F6E6E6563746985
:107000006F6E3A2068616E646C652025752C2025B2
:10701000730000007C5E0202616476207365742058
:107020007465726D696E61742064756520746F207B
:10703000636175736520307825780A006164762075
:1070400068616E646C6572203078257820636F6E9D
:107050006E656374656420746F20636F6E20686171
:107060006E646C6520307825780A000010B50446FF
:1070700004F09AF8204610BD13460A46014601481E
:1070800003F012BBB45F02020246014803F00CBBDE
:10709000B45E020230B50C46054689B0194610466A
:1070A00000F05AFA00280CD1694628461AF066FF0B
:1070B00004A920461AF062FF04AA6946024803F0B8
:1070C000F3FA09B030BD0000E45E0202014803F0AB
:1070D000EBBA0000AC5E0202014803F0E5BA000022
:1070E000645F0202014803F0DFBA0000C45F0202DD
:1070F000014803F0D9BA00009C5E020208B5009373
:1071000013460A460146024803F0CEFA08BD0000C5
:10711000F05D0202132100F001B8000010B50A462C
:10712000034603F08BF938B106214174194605482E
:1071300003F0BAFA002010BD0021184603F0FCF954
:10714000F8E70000645E020238B54FF0FF30ADF89A
:107150000200ADF8000006250DE0684603F0BEF918
:107160000446407C062806D0E1881322054803F037
:107170009BFA00B96574684603F090F90028ECD1D9
:1071800038BD0000645E02022DE9FF4F85B0DFF8D4
:107190009C80DDE912698A460A20002400EB061172
:1071A0009B462746B8F8000003AA03F025F805001F
:1071B00001D001210FE0562009B0BDE8F08F00BFDB
:1071C00004EBC40219F81220521E01FA02F03843EF
:1071D000641CC7B2E4B2B442F2D30798CDE9000B05
:1071E00002975346D8F804102846059A03F01DF973
:1071F000C7B200240DE000BF04EBC40109EB41015C
:10720000E8191022891CFCF717F91037641CFFB22B
:10721000E4B2B442F0D306494046096881F848A078
:107220002946039A03F090FD0020C5E7945F02020F
:107230008C5D020210B500F08FF9002804D1BDE882
:107240001040024803F030BA10BD0000EC5E0202AC
:107250000248006890F87C00704700008C5D0202D4
:107260000449096851F88E2F02604A6842608968B3
:10727000816070478C5D02021CB50C4620B1FF2175
:1072800068461DF0B7FD02E068461DF0C9FD2146C5
:1072900068461AF085FE1CBD0146014803F004BA99
:1072A000D45E020201460020FFF7E6BF10B5044697
:1072B000014604A0FDF732F8022C01D9012010BDCF
:1072C000002010BD6761705F6D69746D5F70726FD3
:1072D00074656374696F6E5F7265717569726564F8
:1072E0005F666F725F73656375726974795F6C65F1
:1072F00076656C20257500007FB50DF1200C9CE8AB
:1073000070008DE8780013460A460146024803F0F3
:10731000CBF904B070BD00009C5F0202014803F08D
:10732000C3B90000A45F020213460A4601460148A1
:1073300003F0BAB9E05D020213460A46014601486D
:1073400003F0B2B9D85D02021CB5049CCDE900344B
:1073500013460A460146024803F0A6F91CBD000088
:10736000E85D02020146014803F09EB9AC5F0202EB
:107370000448817A012903D1022181721CF0E0BD09
:1073800070470000D4000020074810B5426C40F25E
:1073900082210648FFF778F80448FFF74DF8BDE86A
:1073A0001040FFF7E5BF0000D400002014060020C5
:1073B00010B5002207490848FFF77CF8074840F25B
:1073C0008221426C0448FFF75FF8BDE81040024894
:1073D000FFF732B88973000214060020D4000020A1
:1073E000014803F061B90000945E0202014803F015
:1073F0005BB90000C85D0202014803F055B9000006
:10740000CC5F02020146014803F04EB91C5F020244
:107410000146014803F048B9DC5E0202014601481A
:1074200003F042B96C5E02020146014803F03CB928
:10743000845E0202014803F037B90000A45E020234
:107440000246014803F030B9BC5E02022DE9F0416A
:107450000E46074602F0F2FF050010D0384600F055
:1074600055F804460246314608A0FCF757FFB442DF
:1074700007D321463846BDE8F04103F0C3B80121E7
:10748000F8E7AE74BDE8F04103F076BB6761705F6A
:10749000726571756573745F73656375726974790C
:1074A0005F6C6576656C2025752C2063757272653E
:1074B0006E74206C6576656C202575000146014868
:1074C00003F0F2B85C5F020213460A460146014827
:1074D00003F0EAB8BC5F020213460A4601460148BF
:1074E00003F0E2B8005E0202F0B585B00DF1280CA1
:1074F0009CE8F0008DE8F80013460A460146024871
:1075000003F0D2F805B0F0BD105E020210B502F033
:1075100095FF18B1BDE8104000F002B8012010BD81
:1075200010B1008B000401D4012070470220704785
:10753000022070470A460146014803F0B5B8000032
:10754000345F020200B101200249096881F87C0021
:10755000704700008C5D0202034A1368586310688C
:1075600081630020704700008C5D020201490968B8
:10757000486470478C5D02021CB5049CCDE9003460
:1075800013460A460146024803F08EF81CBD00006F
:10759000B85D02020A460146014803F085B80000C2
:1075A000C05D02022DE9FE4F124E17468846814605
:1075B0001D46308802AA591DDDF830A002F01CFEDD
:1075C000040014D0CDE9007543464A46716802F0C4
:1075D0002CFFC0B220442A465146FBF72DFF21461E
:1075E0003046029A03F0B0FB0020BDE8FE8F562023
:1075F000FBE70000A85D02022DE9FC47104D16468E
:107600000F4680469946288801AA311D02F0F4FDF4
:10761000040013D000963B464246696802F005FF1D
:10762000C0B2204432464946FBF706FF21462846B1
:10763000019A03F089FB0020BDE8FC875620FBE798
:10764000B05D020204490268096841F88E2F426861
:107650004A608068886070478C5D02020A46014675
:10766000014803F021B80000985D02022DE9FF5F98
:10767000144DDDE90E6B9046894682461F462888E8
:1076800003AA711D02F0B8FD040018D0CDF80080E7
:10769000CDE901764B4652462046696802F0C5FEA8
:1076A000C0B2204432465946FBF7C6FE2146284662
:1076B000039A03F049FB002004B0BDE8F09F562078
:1076C000FAE70000905D02022DE9FF5F144DDDE94D
:1076D0000E6B9046894682461F46288803AAB11D34
:1076E00002F08AFD040018D0CDF80080CDE90176C3
:1076F0004B4652462046696802F097FEC0B22044CD
:1077000032465946FBF798FE21462846039A03F075
:107710001BFB002004B0BDE8F09F5620FAE70000F4
:10772000A05D02020AB944F2902213460A460146BD
:10773000014802F0B9BF0000145F020213460A4676
:107740000146014802F0B0BF245F020208B50B46B3
:10775000009202460021024800F062F808BD0000D5
:10776000445F02022DE9FC47184F884691460446C3
:10777000022101EB8801388801AA02F03DFD0600D4
:1077800007D043462246796802F04FFEC5B2002476
:1077900013E05620BDE8FC8704EB440009EB4001F0
:1077A0000A7900924B8819F81020701908A102F08C
:1077B0003CFE2D1D641CEDB2E4B24445ECD33146D1
:1077C0003846019A03F0C0FA0020E3E7545F020252
:1077D000313231002DE9F04F8DB00DF1640C179C62
:1077E0009CE8E04FDFF830C0DCF800C084448CF83F
:1077F00085400DF1100C8CE8E04F169E189DCDE9E8
:10780000003613460A4601460448CDE9024502F017
:107810004BFF0DB0BDE8F08F8C5D02023C5F0202B1
:107820002DE9FC471C460A9D174688468146F72BE2
:1078300026D9F720CDE900050B46012239464846F6
:1078400002F032FF002823D1F73CA4B2F73515E04F
:10785000F72C01D3F72600E02646A01BCDE90065F2
:107860000404240C01D0002200E0022243463946E1
:10787000484602F019FF00280AD13544002CE7D110
:107880004346032239464846CDE9004502F00CFF45
:10789000BDE8FC8708B5009313460A460146024836
:1078A00002F002FF08BD00008C5F02022DE9FC47D8
:1078B00016460F46DFF88C8002EB86018246994619
:1078C0000024B8F8000001AAC91C02F095FC0500CC
:1078D00002D0002001220EE05620BDE8FC8700BF48
:1078E00000EB400319F813305B1E02FA03F1214349
:1078F000401CCCB2C0B2B042F2D300943B465246D8
:107900002846D8F8041002F090FDC7B200240FE01A
:1079100004EB440109EB41008188009143884278DF
:10792000E81909A102F081FD7F1D641CFFB2E4B2D9
:10793000B442EDD329464046019A03F005FA0020EF
:10794000CBE70000845F02023132320008B50B46FB
:107950000092024600210248FFF762FF08BD0000C6
:107960004C5F02020A460146014802F09DBE00003B
:10797000CC5E02022DE9F843194F15460C468046AD
:10798000F82923D90146F82301223846009502F050
:107990008BFE002821D1F83CA4B2F83514E0F82C75
:1079A00001D3F82600E02646A01B0404240C009511
:1079B00001D0002200E0022233464146384602F060
:1079C00073FE002809D13544002CE8D12346032258
:1079D00041463846009502F067FEBDE8F883000096
:1079E000745F02020A460146014802F05DBE0000D3
:1079F0007C5F020208B5009313460A46014602481E
:107A000002F052FE08BD00006C5F02020A46014609
:107A1000014802F049BE0000D05D02021CB5049C82
:107A2000CDE9003413460A460146024802F03CFE06
:107A30001CBD00002C5F02020146014802F034BE6A
:107A40008C5E02020249096881F849007047000013
:107A50008C5D02022DE9FF4F87B01C46DDE91A015B
:107A6000DDE91865DDE91687DDE914A99346FFF71E
:107A700073FD00280DD1CDE9004ACDE90259CDF8BA
:107A80001080CDE90576DDE907125B46024802F079
:107A90000BFE0BB0BDE8F08FF85D0202014802F06A
:107AA00003BE0000205E020208B5009313460A469A
:107AB0000146024802F0F8FD08BD0000085E02021F
:107AC000F0B587B00DF1300E9EE8F0108DE8F8109B
:107AD00013460A460146024802F0E6FD07B0F0BD33
:107AE000185E02022DE9FF410D46DDE90A47804696
:107AF0000C9E02F0A3FC002806D0007C38B1294679
:107B00004046009404F0DFFC04B0BDE8F081039629
:107B10008DE8980013462A464146024802F0C4FD0B
:107B2000F2E70000C45E020208B59200921C0B4608
:107B3000009201460722024802F0B6FD08BD00008F
:107B4000285E02022DE9F047DFF88CA48AB01E46B9
:107B50001546884604280AD008287DD128781B2895
:107B60000FD01D2808461FD001F094F81EE0297898
:107B7000782971D1DAF80040002C50D04146A04756
:107B80004DE0B5F801700C46DE1E3946A720D21C28
:107B90001AF0B8FB0246F61C0AB0B3B239462046CA
:107BA000BDE8F047FEF769BF1AF078F8040053D03B
:107BB0002978771E4FF001090D2973D009DC0C29B3
:107BC00015D2DFE801F014EF143114EE14ED148631
:107BD00014F0172967D006DC0F2978D0112952D06C
:107BE000132904D167E1192972D01D295CD0FBA0AB
:107BF000FCF793FB28788DF808908DF80900002099
:107C000006218DF80A008DF80C108DF80B000090FD
:107C10000190A089052302AA042104F027FE0AB0DE
:107C2000BDE8F04700F0CEBCB5F8015004F01CFBF5
:107C3000854200D22846E08284F81890DAF8005095
:107C400095B1AB208DF8000004208DF80100A089CB
:107C5000ADF80200E08A00E0F7E1ADF80400062389
:107C6000A1896A460420A8474046FEF7FFF8E64887
:107C700000788007D3D4E08A0022001D81B2A08959
:107C8000FFF750FDCBE720780228C8D132462946BD
:107C900020461AF035F969782046711A29440122E4
:107CA0004988A7E00FE13CE14746B5F80180EA1CAE
:107CB0004146A820F61E1AF025FBF61C0246B3B278
:107CC00041463846FEF7D9FE84F85190A7E76AE1AD
:107CD0005BE120780C281BD011DC062801D0082895
:107CE0009DD13246294620461AF0BDF83146284635
:107CF00000F0DAFF014620461DF086FD8FE71428CC
:107D000033D024288BD16888A4F84C0025203AE190
:107D100095F80180B8F1070F07D26888A085A88878
:107D20002086E88860860D202DE1022716E000BF3E
:107D3000E91935F807904A8822868A886286C988B8
:107D400001A81DF05DFF01A80090638E228E4946B8
:107D50002046FEF7C6FE07EB080087B2B742E7D31E
:107D600069782046711A695A43E095F8018000212C
:107D70000227A8F1020A0DE035F80790EA191FFA68
:107D80008AF349462046921C1AF05EF807EB080079
:107D9000494687B2B742EFD3204613222AE002E0D9
:107DA00035E04CE009E120780E2814D0102824D0CA
:107DB00028288BD1204600F07DFA218F6A1CA9204B
:107DC0001AF0A0FA02460837BBB2A189A068FEF7F4
:107DD0004BFE002135E101A9681C1AF0CFF8A18DF6
:107DE00001AA00922046638E228EFEF77AFEA18DB4
:107DF00020460B221DF028FD11E7204600F05AFA1C
:107E0000BBB2218F6A1C20461AF01EF8E1E74FF042
:107E100004094FF6FF78012704F11C0A09E0E8196C
:107E2000E95B40885346804602462046FEF77AFECC
:107E30004F44B742F3DB204641460322DAE7687835
:107E40000427022800D11227F01BB61E1FFA86F85D
:107E500035F800A00026AD1C22E000BF35F80690E2
:107E6000042F05EB060021D006A9801C1AF086F825
:107E7000A4228DF8002014228DF80120A289ADF8EB
:107E8000022006A9ADF8049010220DF10600FBF7C0
:107E9000D3FAA18916236A46A068FEF7E5FD3E44A1
:107EA0004645DBDB204651460922A3E7418806A868
:107EB0001DF0A6FEDCE72078182803D0262801D084
:107EC0002C2899D1ACE0761E2078B6B2761DBFB2D0
:107ED000122815D02A288FD1218F628F6B1CAA20DF
:107EE00000971AF01DFA020004D0B3B2A189A0686D
:107EF000FEF7BAFD3A46292120461DF06DFC8EE6BC
:107F0000218F628F6B1CA62000971AF009FA0200DD
:107F100004D0B3B2A189A068FEF7A6FD3A461121AC
:107F2000EAE720781A2812D01C281CD02E2814D05A
:107F30003228E4D1204600F0BDF9324629462046D9
:107F400003F074F900287FF461AF7E2179E0B5F881
:107F500003001D226087192110E0B5F803002F22CD
:107F600060872D210AE032462946204603F05EF95B
:107F700040B1B5F803001D2260871B2120461DF08B
:107F800052FC4CE62120207049E620781E2847D07C
:107F9000202845D0222802D03028B0D140E0204609
:107FA00000F088F9D1E720781628A8D1BBB26A1C66
:107FB0000021204619F048FF32E029790A292BD107
:107FC0002078082830D021DC022829D0042827D0A6
:107FD000062821D128E000006000002041545420F0
:107FE00048616E646C65722C20756E68616E646C9D
:107FF000656420726573706F6E7365207479706547
:1080000020307825303278005C0000200A2807D024
:108010000C2805D014280CD0204600F0C2FAFEE54A
:10802000204600F047F9D4E6E18D2046FEF76AFBD2
:10803000F6E7204600F03EF9A08D218E8842F2D16D
:108040000A212046FEF73AFDE9E50AB0BDE8F087CF
:1080500010B50446084619F05BFE18B1017819B155
:10806000952010BD562010BD1F218460017000F0C6
:10807000A9FA002010BD70B505461446084619F04F
:1080800047FE18B1017819B1952070BD562070BD1A
:1080900085606188A288914203D10021FEF70EFD20
:1080A00007E0491C8185A188C1850921017000F084
:1080B00089FA002070BD2DE9F04107461D4616469D
:1080C0000846DDF8188019F023FE040004D020785B
:1080D00020B19520BDE8F0815620FBE7A760A6857A
:1080E000E585012084F85000002565831022414673
:1080F00004F11C00FBF7A0F9E5860720207000F0D2
:1081000061FA0020E6E72DE9F04107461D461646D4
:108110000846DDF8188019F0FBFD040004D0207833
:1081200020B19520BDE8F0815620FBE7A760A68529
:10813000E585012084F85000A4F81A80414604F136
:108140001C001DF05DFD0020E0860720207000F07F
:1081500039FA0020E6E770B506461C461546084683
:1081600019F0D6FD18B1017819B1952070BD5620CF
:1081700070BD86608585C485002180F85010C18659
:108180000521017000F01EFA002070BD10B50446F4
:10819000084619F0BDFD18B1017819B1952010BD40
:1081A000562010BD0121846081854FF6FF72C28583
:1081B00001700021418300F005FA002010BD70B568
:1081C00005461646084619F0A3FD040003D02078A2
:1081D00018B1952070BD562070BD0120A560A08506
:1081E0004FF6FF70E085002060831022314604F1D5
:1081F0001C00FBF721F90320207000F0E3F90020B8
:1082000070BD70B505461446084619F081FD18B1D9
:10821000017819B1952070BD562070BD012185608F
:1082200081854FF6FF71C185032100F81A1B214695
:1082300020F8024B1DF0E4FC00F0C4F9002070BDF2
:1082400010B50446084619F063FD18B1017819B15C
:10825000952010BD562010BD1D218460017000F0D6
:10826000B1F9002010BD70B506461C4615460846FB
:1082700019F04EFD18B1017819B1952070BD562046
:1082800070BD86608585C4850B21017000F09AF968
:10829000002070BD00B50A4600F0FCFC10B1017E64
:1082A000012903D017201080952000BDC08A1080BE
:1082B000002000BD10B5002101700446818904A092
:1082C000FCF72BF804F16000BDE81040FEF7BEB8E3
:1082D0004741545420636C69656E742074696D6500
:1082E0006F75742073746F702C2068616E646C6598
:1082F000203078253032780070B504281AD11078F3
:10830000052813D1B2F80350284600F0C3FC04003E
:108310000CD01F2100F045F92046FFF7CBFF06499E
:10832000002041F825002046FDF7AEFFBDE8704073
:1083300000F048B970BD0000EC030020064910B5FC
:1083400004484860084601F049FFBDE81040034872
:10835000FCF7CABFF982000264000020457B0002DE
:1083600010B519F09BFC002802D0007808B100205D
:1083700010BD012010BD70B504460D46104600F03A
:1083800089FC002807D0656023812146BDE8704044
:10839000001DFDF70BBF70BD2DE9F0410646DDE97C
:1083A00006781C461546084619F0B2FC20B1017843
:1083B00021B19520BDE8F0815620FBE78660058756
:1083C000878744873121C0F84080017000F0FAF8B7
:1083D0000020EFE770B505461446084619F098FCF2
:1083E00018B1017819B1952070BD562070BD856017
:1083F00004872721017000F0E5F8002070BD0023FC
:10840000AFF3008070B506461C461546084619F0C5
:108410007FFC18B1017819B1952070BD562070BD50
:108420008660058744872921017000F0CBF8002081
:1084300070BD0023AFF3008070B506461C4615469C
:10844000084619F065FC18B1017819B1952070BD86
:10845000562070BD8660058744871121017000F0A9
:10846000B1F8002070BD70B506461D46144608469A
:1084700019F04EFC18B1017819B1952070BD562045
:1084800070BD8660A0F8444015218564017000F03D
:1084900099F8002070BD70B505461446084619F0DD
:1084A00037FC18B1017819B1952070BD562070BD08
:1084B00085600487002141870F21017000F082F858
:1084C000002070BD2DE9F04107461D4616460846BE
:1084D000DDF8188019F01CFC040004D0207820B1CD
:1084E0009520BDE8F0815620FBE7A760A685E585CD
:1084F00026866586002060831022414604F11C0018
:10850000FAF79AFF1320207000F05CF80020E8E7EB
:108510002DE9F04107461D4616460846DDF818804D
:1085200019F0F6FB040004D0207820B19520BDE8B6
:10853000F0815620FBE7A760A685E585268665863F
:10854000A4F81A80414604F11C001DF059FB1320C9
:10855000207000F037F80020E9E7000001490860CA
:1085600070470000600000202DE9F04106461C46DF
:1085700015460846069F19F0CBFB20B1017821B1C2
:108580009520BDE8F0815620FBE78660058784874B
:10859000002141871B210764017000F013F80020BF
:1085A000EFE770B5044600780D46002808D0204655
:1085B000FFF780FE29462046BDE87040FEF77EBAF0
:1085C00070BD00002DE9F04F002789B04FF01E0963
:1085D0004FF0040A4FF0020B3D464FF00808CE481A
:1085E00050F82740002C70D0A089FCF777FE40B1EE
:1085F0002278217EC9A0FBF790FE207E012864D15D
:1086000005E0A08909B0BDE8F04FFCF76ABE94F818
:10861000510050B184F85150A08901238DF8089081
:10862000009502AA042101958CE02078172801D03A
:108630002B2818D1204619F09CF8A18FC01E884223
:1086400011DA204619F095F80246A18FC1A0FBF778
:1086500064FE2046FFF72EFE09B02046BDE8F04F2D
:108660000D21FEF72BBA606D04F0B2FA06462178B0
:10867000C3A0FBF752FE2078362826D2DFE800F0B0
:108680009E1B9E269E469E499E519E659E719E758E
:108690009E779E799EA39EB69EB89EBC9EBE9EC1AE
:1086A0009EC39ECB9EED9ED39EDD9EE59EFE9EFCD0
:1086B0009EBA9EFB9EFA84F800B0E08D0090A38DD8
:1086C000A2894FF42051102048E077E084F800A000
:1086D000608B4FF4205530B1ADF81C00E18D07AA36
:1086E0008DE8060809E003A904F11C0019F046FC16
:1086F000E08D102203A98DE80700A38DA2892946E9
:108700000620FCF725FF09B0BDE8F08F0620207099
:1087100001E084F8008009B02046BDE8F04F19F070
:108720003CBD84F80080A689A18DE08D8DF808A05D
:10873000ADF80910ADF80B000095052302AA04213D
:108740003046019504F092F8DDE70C202070E08DB2
:108750000090A38DA28942F602010820FDF73BF9A3
:10876000D1E70E202070228E60E010205CE0122005
:1087700064E014202070618B204639B1C28D0092D4
:10878000838DA2890820FDF726F917E000F11C026D
:108790008689818DE08D8DF80880ADF80910ADF8DF
:1087A0000B000DF10D01104619F0E8FB00951523A3
:1087B00002AA04213046019504F058F87F1C052FC9
:1087C000FFF40DAF9FE716202070A089B4F8441085
:1087D0000E23A26C8DF808304FF6FF7303EA4101B7
:1087E000CDE90021012302AA0421E5E718202DE0AC
:1087F0001A2044E0322042E01C2040E084F800903F
:1088000046E0202000E02220207009B02046BDE88C
:10881000F04F19F0BDBC2420207009B02046BDE8FF
:10882000F04F19F0FABC28202070228FA18909B0DE
:108830000A20BDE8F04FFDF7E3B82A20207009B008
:108840002046BDE8F04F19F0D3BC2C20207009B0B1
:108850002046BDE8F04F19F0EBBC2620207004F153
:108860004E000090B4F84C20A18902231220FDF79D
:108870005DFB48E727E011E008E0FFE72E202070CD
:1088800009B02046BDE8F04F19F097BC30202070A9
:1088900009B02046BDE8F04F19F08ABC1AF0C2F9C1
:1088A00000288FD034202070B06D216C01AB009176
:1088B000394A83E81500A38F228FD22106F14800A0
:1088C0001AF0BAF91FE736202070B16DB4F80C9099
:1088D000228FB4F83C80D223276C8DF81030ADF88D
:1088E0001120059104F158000DF1140A06A919F0A0
:1088F00054FB0C20CDE902A0CDE90078032304AAA3
:108900000421484603F0FAFF25702046FFF7D2FC09
:10891000B06D401CB065F6E6EC0300202D206861C8
:108920006E646C655F7065726970686572616C5FBA
:108930006C6973742C206D74752073746174652078
:1089400025752C20636C69656E7420737461746581
:1089500020257500676174745F636C69656E745F70
:1089600072756E3A2076616C7565206C656E202597
:1089700075203E204D5455202575202D20330A00AA
:10898000676174745F636C69656E745F737461743E
